{
  "_format": "hh-sol-artifact-1",
  "contractName": "CN",
  "sourceName": "contracts/token/CN.sol",
  "abi": [
    {
      "inputs": [
        {
          "internalType": "address",
          "name": "manager",
          "type": "address"
        }
      ],
      "stateMutability": "nonpayable",
      "type": "constructor"
    },
    {
      "anonymous": false,
      "inputs": [
        {
          "indexed": true,
          "internalType": "address",
          "name": "owner",
          "type": "address"
        },
        {
          "indexed": true,
          "internalType": "address",
          "name": "approved",
          "type": "address"
        },
        {
          "indexed": true,
          "internalType": "uint256",
          "name": "tokenId",
          "type": "uint256"
        }
      ],
      "name": "Approval",
      "type": "event"
    },
    {
      "anonymous": false,
      "inputs": [
        {
          "indexed": true,
          "internalType": "address",
          "name": "owner",
          "type": "address"
        },
        {
          "indexed": true,
          "internalType": "address",
          "name": "operator",
          "type": "address"
        },
        {
          "indexed": false,
          "internalType": "bool",
          "name": "approved",
          "type": "bool"
        }
      ],
      "name": "ApprovalForAll",
      "type": "event"
    },
    {
      "anonymous": false,
      "inputs": [
        {
          "indexed": true,
          "internalType": "bytes32",
          "name": "role",
          "type": "bytes32"
        },
        {
          "indexed": true,
          "internalType": "bytes32",
          "name": "previousAdminRole",
          "type": "bytes32"
        },
        {
          "indexed": true,
          "internalType": "bytes32",
          "name": "newAdminRole",
          "type": "bytes32"
        }
      ],
      "name": "RoleAdminChanged",
      "type": "event"
    },
    {
      "anonymous": false,
      "inputs": [
        {
          "indexed": true,
          "internalType": "bytes32",
          "name": "role",
          "type": "bytes32"
        },
        {
          "indexed": true,
          "internalType": "address",
          "name": "account",
          "type": "address"
        },
        {
          "indexed": true,
          "internalType": "address",
          "name": "sender",
          "type": "address"
        }
      ],
      "name": "RoleGranted",
      "type": "event"
    },
    {
      "anonymous": false,
      "inputs": [
        {
          "indexed": true,
          "internalType": "bytes32",
          "name": "role",
          "type": "bytes32"
        },
        {
          "indexed": true,
          "internalType": "address",
          "name": "account",
          "type": "address"
        },
        {
          "indexed": true,
          "internalType": "address",
          "name": "sender",
          "type": "address"
        }
      ],
      "name": "RoleRevoked",
      "type": "event"
    },
    {
      "anonymous": false,
      "inputs": [
        {
          "indexed": false,
          "internalType": "string",
          "name": "uri",
          "type": "string"
        }
      ],
      "name": "SetBaseURI",
      "type": "event"
    },
    {
      "anonymous": false,
      "inputs": [
        {
          "indexed": true,
          "internalType": "uint256",
          "name": "cnId",
          "type": "uint256"
        },
        {
          "indexed": false,
          "internalType": "string",
          "name": "slot",
          "type": "string"
        },
        {
          "indexed": false,
          "internalType": "uint256",
          "name": "data",
          "type": "uint256"
        }
      ],
      "name": "SetData",
      "type": "event"
    },
    {
      "anonymous": false,
      "inputs": [
        {
          "indexed": true,
          "internalType": "uint256",
          "name": "cnId",
          "type": "uint256"
        },
        {
          "indexed": false,
          "internalType": "string",
          "name": "slot",
          "type": "string"
        },
        {
          "indexed": false,
          "internalType": "uint256[]",
          "name": "datas",
          "type": "uint256[]"
        }
      ],
      "name": "SetDatas",
      "type": "event"
    },
    {
      "anonymous": false,
      "inputs": [
        {
          "indexed": true,
          "internalType": "address",
          "name": "to",
          "type": "address"
        },
        {
          "indexed": false,
          "internalType": "uint256",
          "name": "cnId",
          "type": "uint256"
        },
        {
          "indexed": false,
          "internalType": "uint256",
          "name": "hero",
          "type": "uint256"
        }
      ],
      "name": "SpawnCn",
      "type": "event"
    },
    {
      "anonymous": false,
      "inputs": [
        {
          "indexed": true,
          "internalType": "address",
          "name": "from",
          "type": "address"
        },
        {
          "indexed": true,
          "internalType": "address",
          "name": "to",
          "type": "address"
        },
        {
          "indexed": true,
          "internalType": "uint256",
          "name": "tokenId",
          "type": "uint256"
        }
      ],
      "name": "Transfer",
      "type": "event"
    },
    {
      "inputs": [],
      "name": "DEFAULT_ADMIN_ROLE",
      "outputs": [
        {
          "internalType": "bytes32",
          "name": "",
          "type": "bytes32"
        }
      ],
      "stateMutability": "view",
      "type": "function"
    },
    {
      "inputs": [],
      "name": "MANAGER_ROLE",
      "outputs": [
        {
          "internalType": "bytes32",
          "name": "",
          "type": "bytes32"
        }
      ],
      "stateMutability": "view",
      "type": "function"
    },
    {
      "inputs": [],
      "name": "SETTER_ROLE",
      "outputs": [
        {
          "internalType": "bytes32",
          "name": "",
          "type": "bytes32"
        }
      ],
      "stateMutability": "view",
      "type": "function"
    },
    {
      "inputs": [],
      "name": "SPAWNER_ROLE",
      "outputs": [
        {
          "internalType": "bytes32",
          "name": "",
          "type": "bytes32"
        }
      ],
      "stateMutability": "view",
      "type": "function"
    },
    {
      "inputs": [
        {
          "internalType": "address",
          "name": "to",
          "type": "address"
        },
        {
          "internalType": "uint256",
          "name": "tokenId",
          "type": "uint256"
        }
      ],
      "name": "approve",
      "outputs": [],
      "stateMutability": "nonpayable",
      "type": "function"
    },
    {
      "inputs": [
        {
          "internalType": "address",
          "name": "owner",
          "type": "address"
        }
      ],
      "name": "balanceOf",
      "outputs": [
        {
          "internalType": "uint256",
          "name": "",
          "type": "uint256"
        }
      ],
      "stateMutability": "view",
      "type": "function"
    },
    {
      "inputs": [],
      "name": "baseURI",
      "outputs": [
        {
          "internalType": "string",
          "name": "",
          "type": "string"
        }
      ],
      "stateMutability": "view",
      "type": "function"
    },
    {
      "inputs": [
        {
          "internalType": "uint256",
          "name": "",
          "type": "uint256"
        },
        {
          "internalType": "string",
          "name": "",
          "type": "string"
        }
      ],
      "name": "data",
      "outputs": [
        {
          "internalType": "uint256",
          "name": "",
          "type": "uint256"
        }
      ],
      "stateMutability": "view",
      "type": "function"
    },
    {
      "inputs": [
        {
          "internalType": "uint256",
          "name": "",
          "type": "uint256"
        },
        {
          "internalType": "string",
          "name": "",
          "type": "string"
        },
        {
          "internalType": "uint256",
          "name": "",
          "type": "uint256"
        }
      ],
      "name": "datas",
      "outputs": [
        {
          "internalType": "uint256",
          "name": "",
          "type": "uint256"
        }
      ],
      "stateMutability": "view",
      "type": "function"
    },
    {
      "inputs": [
        {
          "internalType": "uint256",
          "name": "tokenId",
          "type": "uint256"
        }
      ],
      "name": "getApproved",
      "outputs": [
        {
          "internalType": "address",
          "name": "",
          "type": "address"
        }
      ],
      "stateMutability": "view",
      "type": "function"
    },
    {
      "inputs": [
        {
          "internalType": "uint256",
          "name": "cnId",
          "type": "uint256"
        },
        {
          "internalType": "string",
          "name": "slot",
          "type": "string"
        }
      ],
      "name": "getDatas",
      "outputs": [
        {
          "internalType": "uint256[]",
          "name": "",
          "type": "uint256[]"
        }
      ],
      "stateMutability": "view",
      "type": "function"
    },
    {
      "inputs": [
        {
          "internalType": "uint256",
          "name": "cnId",
          "type": "uint256"
        },
        {
          "internalType": "string",
          "name": "slot",
          "type": "string"
        },
        {
          "internalType": "uint256",
          "name": "base",
          "type": "uint256"
        },
        {
          "internalType": "uint256",
          "name": "range",
          "type": "uint256"
        }
      ],
      "name": "getRandomNumber",
      "outputs": [
        {
          "internalType": "uint256",
          "name": "",
          "type": "uint256"
        }
      ],
      "stateMutability": "pure",
      "type": "function"
    },
    {
      "inputs": [
        {
          "internalType": "bytes32",
          "name": "role",
          "type": "bytes32"
        }
      ],
      "name": "getRoleAdmin",
      "outputs": [
        {
          "internalType": "bytes32",
          "name": "",
          "type": "bytes32"
        }
      ],
      "stateMutability": "view",
      "type": "function"
    },
    {
      "inputs": [
        {
          "internalType": "bytes32",
          "name": "role",
          "type": "bytes32"
        },
        {
          "internalType": "uint256",
          "name": "index",
          "type": "uint256"
        }
      ],
      "name": "getRoleMember",
      "outputs": [
        {
          "internalType": "address",
          "name": "",
          "type": "address"
        }
      ],
      "stateMutability": "view",
      "type": "function"
    },
    {
      "inputs": [
        {
          "internalType": "bytes32",
          "name": "role",
          "type": "bytes32"
        }
      ],
      "name": "getRoleMemberCount",
      "outputs": [
        {
          "internalType": "uint256",
          "name": "",
          "type": "uint256"
        }
      ],
      "stateMutability": "view",
      "type": "function"
    },
    {
      "inputs": [
        {
          "internalType": "bytes32",
          "name": "role",
          "type": "bytes32"
        },
        {
          "internalType": "address",
          "name": "account",
          "type": "address"
        }
      ],
      "name": "grantRole",
      "outputs": [],
      "stateMutability": "nonpayable",
      "type": "function"
    },
    {
      "inputs": [
        {
          "internalType": "bytes32",
          "name": "role",
          "type": "bytes32"
        },
        {
          "internalType": "address",
          "name": "account",
          "type": "address"
        }
      ],
      "name": "hasRole",
      "outputs": [
        {
          "internalType": "bool",
          "name": "",
          "type": "bool"
        }
      ],
      "stateMutability": "view",
      "type": "function"
    },
    {
      "inputs": [
        {
          "internalType": "address",
          "name": "owner",
          "type": "address"
        },
        {
          "internalType": "address",
          "name": "operator",
          "type": "address"
        }
      ],
      "name": "isApprovedForAll",
      "outputs": [
        {
          "internalType": "bool",
          "name": "",
          "type": "bool"
        }
      ],
      "stateMutability": "view",
      "type": "function"
    },
    {
      "inputs": [],
      "name": "name",
      "outputs": [
        {
          "internalType": "string",
          "name": "",
          "type": "string"
        }
      ],
      "stateMutability": "view",
      "type": "function"
    },
    {
      "inputs": [
        {
          "internalType": "uint256",
          "name": "tokenId",
          "type": "uint256"
        }
      ],
      "name": "ownerOf",
      "outputs": [
        {
          "internalType": "address",
          "name": "",
          "type": "address"
        }
      ],
      "stateMutability": "view",
      "type": "function"
    },
    {
      "inputs": [
        {
          "internalType": "bytes32",
          "name": "role",
          "type": "bytes32"
        },
        {
          "internalType": "address",
          "name": "account",
          "type": "address"
        }
      ],
      "name": "renounceRole",
      "outputs": [],
      "stateMutability": "nonpayable",
      "type": "function"
    },
    {
      "inputs": [
        {
          "internalType": "bytes32",
          "name": "role",
          "type": "bytes32"
        },
        {
          "internalType": "address",
          "name": "account",
          "type": "address"
        }
      ],
      "name": "revokeRole",
      "outputs": [],
      "stateMutability": "nonpayable",
      "type": "function"
    },
    {
      "inputs": [
        {
          "internalType": "address",
          "name": "from",
          "type": "address"
        },
        {
          "internalType": "address",
          "name": "to",
          "type": "address"
        },
        {
          "internalType": "uint256",
          "name": "tokenId",
          "type": "uint256"
        }
      ],
      "name": "safeTransferFrom",
      "outputs": [],
      "stateMutability": "nonpayable",
      "type": "function"
    },
    {
      "inputs": [
        {
          "internalType": "address",
          "name": "from",
          "type": "address"
        },
        {
          "internalType": "address",
          "name": "to",
          "type": "address"
        },
        {
          "internalType": "uint256",
          "name": "tokenId",
          "type": "uint256"
        },
        {
          "internalType": "bytes",
          "name": "_data",
          "type": "bytes"
        }
      ],
      "name": "safeTransferFrom",
      "outputs": [],
      "stateMutability": "nonpayable",
      "type": "function"
    },
    {
      "inputs": [
        {
          "internalType": "address",
          "name": "from",
          "type": "address"
        },
        {
          "internalType": "address",
          "name": "to",
          "type": "address"
        },
        {
          "internalType": "uint256[]",
          "name": "tokenIds",
          "type": "uint256[]"
        }
      ],
      "name": "safeTransferFromBatch",
      "outputs": [],
      "stateMutability": "nonpayable",
      "type": "function"
    },
    {
      "inputs": [
        {
          "internalType": "address",
          "name": "operator",
          "type": "address"
        },
        {
          "internalType": "bool",
          "name": "approved",
          "type": "bool"
        }
      ],
      "name": "setApprovalForAll",
      "outputs": [],
      "stateMutability": "nonpayable",
      "type": "function"
    },
    {
      "inputs": [
        {
          "internalType": "string",
          "name": "uri",
          "type": "string"
        }
      ],
      "name": "setBaseURI",
      "outputs": [],
      "stateMutability": "nonpayable",
      "type": "function"
    },
    {
      "inputs": [
        {
          "internalType": "uint256",
          "name": "cnId",
          "type": "uint256"
        },
        {
          "internalType": "string",
          "name": "slot",
          "type": "string"
        },
        {
          "internalType": "uint256",
          "name": "_data",
          "type": "uint256"
        }
      ],
      "name": "setData",
      "outputs": [],
      "stateMutability": "nonpayable",
      "type": "function"
    },
    {
      "inputs": [
        {
          "internalType": "uint256",
          "name": "cnId",
          "type": "uint256"
        },
        {
          "internalType": "string",
          "name": "slot",
          "type": "string"
        },
        {
          "internalType": "uint256[]",
          "name": "_datas",
          "type": "uint256[]"
        }
      ],
      "name": "setDatas",
      "outputs": [],
      "stateMutability": "nonpayable",
      "type": "function"
    },
    {
      "inputs": [
        {
          "internalType": "uint256",
          "name": "hero",
          "type": "uint256"
        },
        {
          "internalType": "address",
          "name": "to",
          "type": "address"
        }
      ],
      "name": "spawnCn",
      "outputs": [
        {
          "internalType": "uint256",
          "name": "",
          "type": "uint256"
        }
      ],
      "stateMutability": "nonpayable",
      "type": "function"
    },
    {
      "inputs": [
        {
          "internalType": "bytes4",
          "name": "interfaceId",
          "type": "bytes4"
        }
      ],
      "name": "supportsInterface",
      "outputs": [
        {
          "internalType": "bool",
          "name": "",
          "type": "bool"
        }
      ],
      "stateMutability": "view",
      "type": "function"
    },
    {
      "inputs": [],
      "name": "symbol",
      "outputs": [
        {
          "internalType": "string",
          "name": "",
          "type": "string"
        }
      ],
      "stateMutability": "view",
      "type": "function"
    },
    {
      "inputs": [
        {
          "internalType": "uint256",
          "name": "index",
          "type": "uint256"
        }
      ],
      "name": "tokenByIndex",
      "outputs": [
        {
          "internalType": "uint256",
          "name": "",
          "type": "uint256"
        }
      ],
      "stateMutability": "view",
      "type": "function"
    },
    {
      "inputs": [
        {
          "internalType": "address",
          "name": "owner",
          "type": "address"
        },
        {
          "internalType": "uint256",
          "name": "index",
          "type": "uint256"
        }
      ],
      "name": "tokenOfOwnerByIndex",
      "outputs": [
        {
          "internalType": "uint256",
          "name": "",
          "type": "uint256"
        }
      ],
      "stateMutability": "view",
      "type": "function"
    },
    {
      "inputs": [
        {
          "internalType": "uint256",
          "name": "tokenId",
          "type": "uint256"
        }
      ],
      "name": "tokenURI",
      "outputs": [
        {
          "internalType": "string",
          "name": "",
          "type": "string"
        }
      ],
      "stateMutability": "view",
      "type": "function"
    },
    {
      "inputs": [
        {
          "internalType": "address",
          "name": "user",
          "type": "address"
        },
        {
          "internalType": "uint256",
          "name": "cursor",
          "type": "uint256"
        },
        {
          "internalType": "uint256",
          "name": "size",
          "type": "uint256"
        }
      ],
      "name": "tokensOfOwnerBySize",
      "outputs": [
        {
          "internalType": "uint256[]",
          "name": "",
          "type": "uint256[]"
        },
        {
          "internalType": "uint256",
          "name": "",
          "type": "uint256"
        }
      ],
      "stateMutability": "view",
      "type": "function"
    },
    {
      "inputs": [],
      "name": "totalSupply",
      "outputs": [
        {
          "internalType": "uint256",
          "name": "",
          "type": "uint256"
        }
      ],
      "stateMutability": "view",
      "type": "function"
    },
    {
      "inputs": [
        {
          "internalType": "address",
          "name": "from",
          "type": "address"
        },
        {
          "internalType": "address",
          "name": "to",
          "type": "address"
        },
        {
          "internalType": "uint256",
          "name": "tokenId",
          "type": "uint256"
        }
      ],
      "name": "transferFrom",
      "outputs": [],
      "stateMutability": "nonpayable",
      "type": "function"
    }
  ],
  "bytecode": "0x60806040523480156200001157600080fd5b50604051620030b9380380620030b98339810160408190526200003491620002ee565b604080518082018252600e81526d10de58995c8811d9585c8813919560921b60208083019182528351808501909452600284526121a760f11b908401528151919291620000849160009162000248565b5080516200009a90600190602084019062000248565b50620000ac91506000905033620000df565b620000d87f241ecf16d79d0f8dbfb92cbc07fe17840425976cf0667f022fe9877caa831b0882620000df565b506200035d565b620000eb8282620000ef565b5050565b6200010682826200013260201b620012701760201c565b6000828152600b602090815260409091206200012d918390620012f6620001d6821b17901c565b505050565b6000828152600a602090815260408083206001600160a01b038516845290915290205460ff16620000eb576000828152600a602090815260408083206001600160a01b03851684529091529020805460ff19166001179055620001923390565b6001600160a01b0316816001600160a01b0316837f2f8788117e7eff1d82e926ec794901d17c78024a50270940304540a733656f0d60405160405180910390a45050565b6000620001ed836001600160a01b038416620001f6565b90505b92915050565b60008181526001830160205260408120546200023f57508154600181810184556000848152602080822090930184905584548482528286019093526040902091909155620001f0565b506000620001f0565b828054620002569062000320565b90600052602060002090601f0160209004810192826200027a5760008555620002c5565b82601f106200029557805160ff1916838001178555620002c5565b82800160010185558215620002c5579182015b82811115620002c5578251825591602001919060010190620002a8565b50620002d3929150620002d7565b5090565b5b80821115620002d35760008155600101620002d8565b6000602082840312156200030157600080fd5b81516001600160a01b03811681146200031957600080fd5b9392505050565b600181811c908216806200033557607f821691505b602082108114156200035757634e487b7160e01b600052602260045260246000fd5b50919050565b612d4c806200036d6000396000f3fe608060405234801561001057600080fd5b50600436106102325760003560e01c80636c0360eb11610130578063a22cb465116100b8578063d547741f1161007c578063d547741f14610525578063e985e9c514610538578063ec87621c14610574578063f54a867e1461059b578063fd577d0b146105ae57600080fd5b8063a22cb465146104c6578063b88d4fde146104d9578063c1200e8f146104ec578063c87b56dd146104ff578063ca15c8731461051257600080fd5b806391d14854116100ff57806391d148541461046957806391fd28af1461047c57806395d89b411461048f578063a2011b3f14610497578063a217fddf146104be57600080fd5b80636c0360eb1461041a57806370a0823114610422578063854ec1af146104355780639010d07c1461045657600080fd5b80632f2ff15d116101be5780634f6ccce7116101825780634f6ccce7146103ae57806355f804b3146103c157806357b0c99f146103d4578063614691b2146103f45780636352211e1461040757600080fd5b80632f2ff15d1461034f5780632f745c591461036257806336568abe1461037557806338aa38151461038857806342842e0e1461039b57600080fd5b8063095ea7b311610205578063095ea7b3146102e957806318160ddd146102fe57806323b872dd14610306578063248a9ca314610319578063251d13ba1461033c57600080fd5b806301ffc9a71461023757806306fdde031461025f578063081812fc14610274578063090a0eae1461029f575b600080fd5b61024a6102453660046122e9565b6105d5565b60405190151581526020015b60405180910390f35b6102676105e6565b604051610256919061235e565b610287610282366004612371565b610678565b6040516001600160a01b039091168152602001610256565b6102db6102ad366004612447565b600d602090815260009283526040909220815180830184018051928152908401929093019190912091525481565b604051908152602001610256565b6102fc6102f73660046124a9565b610712565b005b6008546102db565b6102fc6103143660046124d3565b610828565b6102db610327366004612371565b6000908152600a602052604090206001015490565b6102db61034a36600461250f565b610859565b6102fc61035d36600461255e565b6108a6565b6102db6103703660046124a9565b6108cb565b6102fc61038336600461255e565b610961565b6102fc610396366004612609565b6109df565b6102fc6103a93660046124d3565b610a27565b6102db6103bc366004612371565b610a42565b6102fc6103cf366004612666565b610ad5565b6103e76103e2366004612447565b610b4e565b60405161025691906126d5565b6102db61040236600461255e565b610bd0565b610287610415366004612371565b610c91565b610267610d08565b6102db6104303660046126e8565b610d96565b610448610443366004612703565b610e1d565b604051610256929190612736565b610287610464366004612758565b610efc565b61024a61047736600461255e565b610f1b565b6102db61048a36600461277a565b610f46565b610267610f96565b6102db7f61c92169ef077349011ff0b1383c894d86c5f0b41d986366b58a6cf31e93beda81565b6102db600081565b6102fc6104d43660046127d0565b610fa5565b6102fc6104e736600461280c565b610fb0565b6102fc6104fa366004612887565b610fe2565b61026761050d366004612371565b611090565b6102db610520366004612371565b6111a4565b6102fc61053336600461255e565b6111bb565b61024a6105463660046128e9565b6001600160a01b03918216600090815260056020908152604080832093909416825291909152205460ff1690565b6102db7f241ecf16d79d0f8dbfb92cbc07fe17840425976cf0667f022fe9877caa831b0881565b6102fc6105a936600461250f565b6111e0565b6102db7f6cd0800d4f4ba3dc6faecb926dc1f046e4172cd4d0318c3b8740bdce16fe8d5281565b60006105e08261130b565b92915050565b6060600080546105f590612913565b80601f016020809104026020016040519081016040528092919081815260200182805461062190612913565b801561066e5780601f106106435761010080835404028352916020019161066e565b820191906000526020600020905b81548152906001019060200180831161065157829003601f168201915b5050505050905090565b6000818152600260205260408120546001600160a01b03166106f65760405162461bcd60e51b815260206004820152602c60248201527f4552433732313a20617070726f76656420717565727920666f72206e6f6e657860448201526b34b9ba32b73a103a37b5b2b760a11b60648201526084015b60405180910390fd5b506000908152600460205260409020546001600160a01b031690565b600061071d82610c91565b9050806001600160a01b0316836001600160a01b0316141561078b5760405162461bcd60e51b815260206004820152602160248201527f4552433732313a20617070726f76616c20746f2063757272656e74206f776e656044820152603960f91b60648201526084016106ed565b336001600160a01b03821614806107a757506107a78133610546565b6108195760405162461bcd60e51b815260206004820152603860248201527f4552433732313a20617070726f76652063616c6c6572206973206e6f74206f7760448201527f6e6572206e6f7220617070726f76656420666f7220616c6c000000000000000060648201526084016106ed565b6108238383611330565b505050565b610832338261139e565b61084e5760405162461bcd60e51b81526004016106ed9061294e565b610823838383611494565b600e602090815260008481526040902083518085018301805192815290830192850192909220915280548290811061089057600080fd5b9060005260206000200160009250925050505481565b6000828152600a60205260409020600101546108c18161163b565b6108238383611648565b60006108d683610d96565b82106109385760405162461bcd60e51b815260206004820152602b60248201527f455243373231456e756d657261626c653a206f776e657220696e646578206f7560448201526a74206f6620626f756e647360a81b60648201526084016106ed565b506001600160a01b03919091166000908152600660209081526040808320938352929052205490565b6001600160a01b03811633146109d15760405162461bcd60e51b815260206004820152602f60248201527f416363657373436f6e74726f6c3a2063616e206f6e6c792072656e6f756e636560448201526e103937b632b9903337b91039b2b63360891b60648201526084016106ed565b6109db828261166a565b5050565b60005b8151811015610a2157610a0f8484848481518110610a0257610a0261299f565b6020026020010151610a27565b80610a19816129cb565b9150506109e2565b50505050565b61082383838360405180602001604052806000815250610fb0565b6000610a4d60085490565b8210610ab05760405162461bcd60e51b815260206004820152602c60248201527f455243373231456e756d657261626c653a20676c6f62616c20696e646578206f60448201526b7574206f6620626f756e647360a01b60648201526084016106ed565b60088281548110610ac357610ac361299f565b90600052602060002001549050919050565b7f241ecf16d79d0f8dbfb92cbc07fe17840425976cf0667f022fe9877caa831b08610aff8161163b565b8151610b1290600c906020850190612200565b507f23c8c9488efebfd474e85a7956de6f39b17c7ab88502d42a623db2d8e382bbaa82604051610b42919061235e565b60405180910390a15050565b6060600e600084815260200190815260200160002082604051610b719190612a02565b9081526040805191829003602090810183208054808302850183019093528284529190830182828015610bc357602002820191906000526020600020905b815481526020019060010190808311610baf575b5050505050905092915050565b60007f6cd0800d4f4ba3dc6faecb926dc1f046e4172cd4d0318c3b8740bdce16fe8d52610bfc8161163b565b6000610c0760085490565b6000818152600d6020526040908190209051636865726f60e01b8152919250869160040190815260405190819003602001902055610c45848261168c565b60408051828152602081018790526001600160a01b038616917f336c4a1e1c143678cfa9cd753311ae2543418ccee187cae3b4fe1c4f76578d8b910160405180910390a2949350505050565b6000818152600260205260408120546001600160a01b0316806105e05760405162461bcd60e51b815260206004820152602960248201527f4552433732313a206f776e657220717565727920666f72206e6f6e657869737460448201526832b73a103a37b5b2b760b91b60648201526084016106ed565b600c8054610d1590612913565b80601f0160208091040260200160405190810160405280929190818152602001828054610d4190612913565b8015610d8e5780601f10610d6357610100808354040283529160200191610d8e565b820191906000526020600020905b815481529060010190602001808311610d7157829003601f168201915b505050505081565b60006001600160a01b038216610e015760405162461bcd60e51b815260206004820152602a60248201527f4552433732313a2062616c616e636520717565727920666f7220746865207a65604482015269726f206164647265737360b01b60648201526084016106ed565b506001600160a01b031660009081526003602052604090205490565b606060008284610e2c87610d96565b610e369190612a1e565b811115610e545784610e4787610d96565b610e519190612a1e565b90505b6000816001600160401b03811115610e6e57610e6e61238a565b604051908082528060200260200182016040528015610e97578160200160208202803683370190505b50905060005b82811015610ee257610eb388610370838a612a35565b828281518110610ec557610ec561299f565b602090810291909101015280610eda816129cb565b915050610e9d565b5080610eee8388612a35565b935093505050935093915050565b6000828152600b60205260408120610f1490836116a6565b9392505050565b6000918252600a602090815260408084206001600160a01b0393909316845291905290205460ff1690565b6000808585604051602001610f5c929190612a4d565b60408051601f1981840301815291905280516020909101209050610f808382612a89565b610f8a9085612a35565b9150505b949350505050565b6060600180546105f590612913565b6109db3383836116b2565b610fba338361139e565b610fd65760405162461bcd60e51b81526004016106ed9061294e565b610a2184848484611781565b7f61c92169ef077349011ff0b1383c894d86c5f0b41d986366b58a6cf31e93beda61100c8161163b565b81600e60008681526020019081526020016000208460405161102e9190612a02565b9081526020016040518091039020908051906020019061104f929190612284565b50837faf34a1a89164056fa5ddfee9bdd7384e79b0f27a493cc80c478d9068ea15c6128484604051611082929190612a9d565b60405180910390a250505050565b6000818152600260205260409020546060906001600160a01b031661110f5760405162461bcd60e51b815260206004820152602f60248201527f4552433732314d657461646174613a2055524920717565727920666f72206e6f60448201526e3732bc34b9ba32b73a103a37b5b2b760891b60648201526084016106ed565b6000600c805461111e90612913565b90501161113a57604051806020016040528060008152506105e0565b600c611145836117b4565b6000848152600d6020526040908190209051636865726f60e01b815261117d91906004019081526020016040518091039020546117b4565b60405160200161118f93929190612acb565b60405160208183030381529060405292915050565b6000818152600b602052604081206105e0906118b1565b6000828152600a60205260409020600101546111d68161163b565b610823838361166a565b7f61c92169ef077349011ff0b1383c894d86c5f0b41d986366b58a6cf31e93beda61120a8161163b565b81600d60008681526020019081526020016000208460405161122c9190612a02565b908152602001604051809103902081905550837feac7fa0927090dca3b0cce570fa0e4b428cbd28ba251bcd0d9d33d629a2936be8484604051611082929190612b82565b61127a8282610f1b565b6109db576000828152600a602090815260408083206001600160a01b03851684529091529020805460ff191660011790556112b23390565b6001600160a01b0316816001600160a01b0316837f2f8788117e7eff1d82e926ec794901d17c78024a50270940304540a733656f0d60405160405180910390a45050565b6000610f14836001600160a01b0384166118bb565b60006001600160e01b03198216635a05180f60e01b14806105e057506105e08261190a565b600081815260046020526040902080546001600160a01b0319166001600160a01b038416908117909155819061136582610c91565b6001600160a01b03167f8c5be1e5ebec7d5bd14f71427d1e84f3dd0314c0f7b2291e5b200ac8c7c3b92560405160405180910390a45050565b6000818152600260205260408120546001600160a01b03166114175760405162461bcd60e51b815260206004820152602c60248201527f4552433732313a206f70657261746f7220717565727920666f72206e6f6e657860448201526b34b9ba32b73a103a37b5b2b760a11b60648201526084016106ed565b600061142283610c91565b9050806001600160a01b0316846001600160a01b0316148061146957506001600160a01b0380821660009081526005602090815260408083209388168352929052205460ff165b80610f8e5750836001600160a01b031661148284610678565b6001600160a01b031614949350505050565b826001600160a01b03166114a782610c91565b6001600160a01b03161461150b5760405162461bcd60e51b815260206004820152602560248201527f4552433732313a207472616e736665722066726f6d20696e636f72726563742060448201526437bbb732b960d91b60648201526084016106ed565b6001600160a01b03821661156d5760405162461bcd60e51b8152602060048201526024808201527f4552433732313a207472616e7366657220746f20746865207a65726f206164646044820152637265737360e01b60648201526084016106ed565b61157883838361192f565b611583600082611330565b6001600160a01b03831660009081526003602052604081208054600192906115ac908490612a1e565b90915550506001600160a01b03821660009081526003602052604081208054600192906115da908490612a35565b909155505060008181526002602052604080822080546001600160a01b0319166001600160a01b0386811691821790925591518493918716917fddf252ad1be2c89b69c2b068fc378daa952ba7f163c4a11628f55a4df523b3ef91a4505050565b61164581336119e7565b50565b6116528282611270565b6000828152600b6020526040902061082390826112f6565b6116748282611a4b565b6000828152600b602052604090206108239082611ab2565b6109db828260405180602001604052806000815250611ac7565b6000610f148383611afa565b816001600160a01b0316836001600160a01b031614156117145760405162461bcd60e51b815260206004820152601960248201527f4552433732313a20617070726f766520746f2063616c6c65720000000000000060448201526064016106ed565b6001600160a01b03838116600081815260056020908152604080832094871680845294825291829020805460ff191686151590811790915591519182527f17307eab39ab6107e8899845ad3d59bd9653f200f220920489ca2b5937696c31910160405180910390a3505050565b61178c848484611494565b61179884848484611b24565b610a215760405162461bcd60e51b81526004016106ed90612b95565b6060816117d85750506040805180820190915260018152600360fc1b602082015290565b8160005b811561180257806117ec816129cb565b91506117fb9050600a83612be7565b91506117dc565b6000816001600160401b0381111561181c5761181c61238a565b6040519080825280601f01601f191660200182016040528015611846576020820181803683370190505b5090505b8415610f8e5761185b600183612a1e565b9150611868600a86612a89565b611873906030612a35565b60f81b8183815181106118885761188861299f565b60200101906001600160f81b031916908160001a9053506118aa600a86612be7565b945061184a565b60006105e0825490565b6000818152600183016020526040812054611902575081546001818101845560008481526020808220909301849055845484825282860190935260409020919091556105e0565b5060006105e0565b60006001600160e01b03198216637965db0b60e01b14806105e057506105e082611c1f565b6001600160a01b03831661198a5761198581600880546000838152600960205260408120829055600182018355919091527ff3f7a9fe364faab93b216da50a3214154f22a0a2b415b23a84c8169e8b636ee30155565b6119ad565b816001600160a01b0316836001600160a01b0316146119ad576119ad8382611c44565b6001600160a01b0382166119c45761082381611ce1565b826001600160a01b0316826001600160a01b031614610823576108238282611d90565b6119f18282610f1b565b6109db57611a09816001600160a01b03166014611dd4565b611a14836020611dd4565b604051602001611a25929190612bfb565b60408051601f198184030181529082905262461bcd60e51b82526106ed9160040161235e565b611a558282610f1b565b156109db576000828152600a602090815260408083206001600160a01b0385168085529252808320805460ff1916905551339285917ff6391f5c32d9c69d2a47ea670b442974b53935d1edc7fd64eb21e047a839171b9190a45050565b6000610f14836001600160a01b038416611f6f565b611ad18383612062565b611ade6000848484611b24565b6108235760405162461bcd60e51b81526004016106ed90612b95565b6000826000018281548110611b1157611b1161299f565b9060005260206000200154905092915050565b60006001600160a01b0384163b15611c1757604051630a85bd0160e11b81526001600160a01b0385169063150b7a0290611b68903390899088908890600401612c70565b6020604051808303816000875af1925050508015611ba3575060408051601f3d908101601f19168201909252611ba091810190612cad565b60015b611bfd573d808015611bd1576040519150601f19603f3d011682016040523d82523d6000602084013e611bd6565b606091505b508051611bf55760405162461bcd60e51b81526004016106ed90612b95565b805181602001fd5b6001600160e01b031916630a85bd0160e11b149050610f8e565b506001610f8e565b60006001600160e01b0319821663780e9d6360e01b14806105e057506105e0826121b0565b60006001611c5184610d96565b611c5b9190612a1e565b600083815260076020526040902054909150808214611cae576001600160a01b03841660009081526006602090815260408083208584528252808320548484528184208190558352600790915290208190555b5060009182526007602090815260408084208490556001600160a01b039094168352600681528383209183525290812055565b600854600090611cf390600190612a1e565b60008381526009602052604081205460088054939450909284908110611d1b57611d1b61299f565b906000526020600020015490508060088381548110611d3c57611d3c61299f565b6000918252602080832090910192909255828152600990915260408082208490558582528120556008805480611d7457611d74612cca565b6001900381819060005260206000200160009055905550505050565b6000611d9b83610d96565b6001600160a01b039093166000908152600660209081526040808320868452825280832085905593825260079052919091209190915550565b60606000611de3836002612ce0565b611dee906002612a35565b6001600160401b03811115611e0557611e0561238a565b6040519080825280601f01601f191660200182016040528015611e2f576020820181803683370190505b509050600360fc1b81600081518110611e4a57611e4a61299f565b60200101906001600160f81b031916908160001a905350600f60fb1b81600181518110611e7957611e7961299f565b60200101906001600160f81b031916908160001a9053506000611e9d846002612ce0565b611ea8906001612a35565b90505b6001811115611f20576f181899199a1a9b1b9c1cb0b131b232b360811b85600f1660108110611edc57611edc61299f565b1a60f81b828281518110611ef257611ef261299f565b60200101906001600160f81b031916908160001a90535060049490941c93611f1981612cff565b9050611eab565b508315610f145760405162461bcd60e51b815260206004820181905260248201527f537472696e67733a20686578206c656e67746820696e73756666696369656e7460448201526064016106ed565b60008181526001830160205260408120548015612058576000611f93600183612a1e565b8554909150600090611fa790600190612a1e565b905081811461200c576000866000018281548110611fc757611fc761299f565b9060005260206000200154905080876000018481548110611fea57611fea61299f565b6000918252602080832090910192909255918252600188019052604090208390555b855486908061201d5761201d612cca565b6001900381819060005260206000200160009055905585600101600086815260200190815260200160002060009055600193505050506105e0565b60009150506105e0565b6001600160a01b0382166120b85760405162461bcd60e51b815260206004820181905260248201527f4552433732313a206d696e7420746f20746865207a65726f206164647265737360448201526064016106ed565b6000818152600260205260409020546001600160a01b03161561211d5760405162461bcd60e51b815260206004820152601c60248201527f4552433732313a20746f6b656e20616c7265616479206d696e7465640000000060448201526064016106ed565b6121296000838361192f565b6001600160a01b0382166000908152600360205260408120805460019290612152908490612a35565b909155505060008181526002602052604080822080546001600160a01b0319166001600160a01b03861690811790915590518392907fddf252ad1be2c89b69c2b068fc378daa952ba7f163c4a11628f55a4df523b3ef908290a45050565b60006001600160e01b031982166380ac58cd60e01b14806121e157506001600160e01b03198216635b5e139f60e01b145b806105e057506301ffc9a760e01b6001600160e01b03198316146105e0565b82805461220c90612913565b90600052602060002090601f01602090048101928261222e5760008555612274565b82601f1061224757805160ff1916838001178555612274565b82800160010185558215612274579182015b82811115612274578251825591602001919060010190612259565b506122809291506122be565b5090565b8280548282559060005260206000209081019282156122745791602002820182811115612274578251825591602001919060010190612259565b5b8082111561228057600081556001016122bf565b6001600160e01b03198116811461164557600080fd5b6000602082840312156122fb57600080fd5b8135610f14816122d3565b60005b83811015612321578181015183820152602001612309565b83811115610a215750506000910152565b6000815180845261234a816020860160208601612306565b601f01601f19169290920160200192915050565b602081526000610f146020830184612332565b60006020828403121561238357600080fd5b5035919050565b634e487b7160e01b600052604160045260246000fd5b604051601f8201601f191681016001600160401b03811182821017156123c8576123c861238a565b604052919050565b60006001600160401b038311156123e9576123e961238a565b6123fc601f8401601f19166020016123a0565b905082815283838301111561241057600080fd5b828260208301376000602084830101529392505050565b600082601f83011261243857600080fd5b610f14838335602085016123d0565b6000806040838503121561245a57600080fd5b8235915060208301356001600160401b0381111561247757600080fd5b61248385828601612427565b9150509250929050565b80356001600160a01b03811681146124a457600080fd5b919050565b600080604083850312156124bc57600080fd5b6124c58361248d565b946020939093013593505050565b6000806000606084860312156124e857600080fd5b6124f18461248d565b92506124ff6020850161248d565b9150604084013590509250925092565b60008060006060848603121561252457600080fd5b8335925060208401356001600160401b0381111561254157600080fd5b61254d86828701612427565b925050604084013590509250925092565b6000806040838503121561257157600080fd5b823591506125816020840161248d565b90509250929050565b600082601f83011261259b57600080fd5b813560206001600160401b038211156125b6576125b661238a565b8160051b6125c58282016123a0565b92835284810182019282810190878511156125df57600080fd5b83870192505b848310156125fe578235825291830191908301906125e5565b979650505050505050565b60008060006060848603121561261e57600080fd5b6126278461248d565b92506126356020850161248d565b915060408401356001600160401b0381111561265057600080fd5b61265c8682870161258a565b9150509250925092565b60006020828403121561267857600080fd5b81356001600160401b0381111561268e57600080fd5b610f8e84828501612427565b600081518084526020808501945080840160005b838110156126ca578151875295820195908201906001016126ae565b509495945050505050565b602081526000610f14602083018461269a565b6000602082840312156126fa57600080fd5b610f148261248d565b60008060006060848603121561271857600080fd5b6127218461248d565b95602085013595506040909401359392505050565b604081526000612749604083018561269a565b90508260208301529392505050565b6000806040838503121561276b57600080fd5b50508035926020909101359150565b6000806000806080858703121561279057600080fd5b8435935060208501356001600160401b038111156127ad57600080fd5b6127b987828801612427565b949794965050505060408301359260600135919050565b600080604083850312156127e357600080fd5b6127ec8361248d565b91506020830135801515811461280157600080fd5b809150509250929050565b6000806000806080858703121561282257600080fd5b61282b8561248d565b93506128396020860161248d565b92506040850135915060608501356001600160401b0381111561285b57600080fd5b8501601f8101871361286c57600080fd5b61287b878235602084016123d0565b91505092959194509250565b60008060006060848603121561289c57600080fd5b8335925060208401356001600160401b03808211156128ba57600080fd5b6128c687838801612427565b935060408601359150808211156128dc57600080fd5b5061265c8682870161258a565b600080604083850312156128fc57600080fd5b6129058361248d565b91506125816020840161248d565b600181811c9082168061292757607f821691505b6020821081141561294857634e487b7160e01b600052602260045260246000fd5b50919050565b60208082526031908201527f4552433732313a207472616e736665722063616c6c6572206973206e6f74206f6040820152701ddb995c881b9bdc88185c1c1c9bdd9959607a1b606082015260800190565b634e487b7160e01b600052603260045260246000fd5b634e487b7160e01b600052601160045260246000fd5b60006000198214156129df576129df6129b5565b5060010190565b600081516129f8818560208601612306565b9290920192915050565b60008251612a14818460208701612306565b9190910192915050565b600082821015612a3057612a306129b5565b500390565b60008219821115612a4857612a486129b5565b500190565b82815260008251612a65816020850160208701612306565b919091016020019392505050565b634e487b7160e01b600052601260045260246000fd5b600082612a9857612a98612a73565b500690565b604081526000612ab06040830185612332565b8281036020840152612ac2818561269a565b95945050505050565b600080855481600182811c915080831680612ae757607f831692505b6020808410821415612b0757634e487b7160e01b86526022600452602486fd5b818015612b1b5760018114612b2c57612b59565b60ff19861689528489019650612b59565b60008c81526020902060005b86811015612b515781548b820152908501908301612b38565b505084890196505b505050505050610f8a612b7c612b6f83886129e6565b602d60f81b815260010190565b856129e6565b6040815260006127496040830185612332565b60208082526032908201527f4552433732313a207472616e7366657220746f206e6f6e20455243373231526560408201527131b2b4bb32b91034b6b83632b6b2b73a32b960711b606082015260800190565b600082612bf657612bf6612a73565b500490565b7f416363657373436f6e74726f6c3a206163636f756e7420000000000000000000815260008351612c33816017850160208801612306565b7001034b99036b4b9b9b4b733903937b6329607d1b6017918401918201528351612c64816028840160208801612306565b01602801949350505050565b6001600160a01b0385811682528416602082015260408101839052608060608201819052600090612ca390830184612332565b9695505050505050565b600060208284031215612cbf57600080fd5b8151610f14816122d3565b634e487b7160e01b600052603160045260246000fd5b6000816000190483118215151615612cfa57612cfa6129b5565b500290565b600081612d0e57612d0e6129b5565b50600019019056fea2646970667358221220c055e806915cead4edcb7d021d06800769d5a0603d03dd91bac030a8f6a95ec064736f6c634300080c0033",
  "linkReferences": {},
  "deployedLinkReferences": {}
}