{
  "_format": "hh-sol-artifact-1",
  "contractName": "CN",
  "sourceName": "contracts/token/CN.sol",
  "abi": [
    {
      "inputs": [
        {
          "internalType": "address",
          "name": "manager",
          "type": "address"
        }
      ],
      "stateMutability": "nonpayable",
      "type": "constructor"
    },
    {
      "anonymous": false,
      "inputs": [
        {
          "indexed": true,
          "internalType": "address",
          "name": "owner",
          "type": "address"
        },
        {
          "indexed": true,
          "internalType": "address",
          "name": "approved",
          "type": "address"
        },
        {
          "indexed": true,
          "internalType": "uint256",
          "name": "tokenId",
          "type": "uint256"
        }
      ],
      "name": "Approval",
      "type": "event"
    },
    {
      "anonymous": false,
      "inputs": [
        {
          "indexed": true,
          "internalType": "address",
          "name": "owner",
          "type": "address"
        },
        {
          "indexed": true,
          "internalType": "address",
          "name": "operator",
          "type": "address"
        },
        {
          "indexed": false,
          "internalType": "bool",
          "name": "approved",
          "type": "bool"
        }
      ],
      "name": "ApprovalForAll",
      "type": "event"
    },
    {
      "anonymous": false,
      "inputs": [
        {
          "indexed": true,
          "internalType": "bytes32",
          "name": "role",
          "type": "bytes32"
        },
        {
          "indexed": true,
          "internalType": "bytes32",
          "name": "previousAdminRole",
          "type": "bytes32"
        },
        {
          "indexed": true,
          "internalType": "bytes32",
          "name": "newAdminRole",
          "type": "bytes32"
        }
      ],
      "name": "RoleAdminChanged",
      "type": "event"
    },
    {
      "anonymous": false,
      "inputs": [
        {
          "indexed": true,
          "internalType": "bytes32",
          "name": "role",
          "type": "bytes32"
        },
        {
          "indexed": true,
          "internalType": "address",
          "name": "account",
          "type": "address"
        },
        {
          "indexed": true,
          "internalType": "address",
          "name": "sender",
          "type": "address"
        }
      ],
      "name": "RoleGranted",
      "type": "event"
    },
    {
      "anonymous": false,
      "inputs": [
        {
          "indexed": true,
          "internalType": "bytes32",
          "name": "role",
          "type": "bytes32"
        },
        {
          "indexed": true,
          "internalType": "address",
          "name": "account",
          "type": "address"
        },
        {
          "indexed": true,
          "internalType": "address",
          "name": "sender",
          "type": "address"
        }
      ],
      "name": "RoleRevoked",
      "type": "event"
    },
    {
      "anonymous": false,
      "inputs": [
        {
          "indexed": false,
          "internalType": "string",
          "name": "uri",
          "type": "string"
        }
      ],
      "name": "SetBaseURI",
      "type": "event"
    },
    {
      "anonymous": false,
      "inputs": [
        {
          "indexed": true,
          "internalType": "uint256",
          "name": "cnId",
          "type": "uint256"
        },
        {
          "indexed": false,
          "internalType": "string",
          "name": "slot",
          "type": "string"
        },
        {
          "indexed": false,
          "internalType": "uint256",
          "name": "data",
          "type": "uint256"
        }
      ],
      "name": "SetData",
      "type": "event"
    },
    {
      "anonymous": false,
      "inputs": [
        {
          "indexed": true,
          "internalType": "uint256",
          "name": "cnId",
          "type": "uint256"
        },
        {
          "indexed": false,
          "internalType": "string",
          "name": "slot",
          "type": "string"
        },
        {
          "indexed": false,
          "internalType": "uint256[]",
          "name": "datas",
          "type": "uint256[]"
        }
      ],
      "name": "SetDatas",
      "type": "event"
    },
    {
      "anonymous": false,
      "inputs": [
        {
          "indexed": true,
          "internalType": "address",
          "name": "to",
          "type": "address"
        },
        {
          "indexed": false,
          "internalType": "uint256",
          "name": "cnId",
          "type": "uint256"
        },
        {
          "indexed": false,
          "internalType": "uint256",
          "name": "hero",
          "type": "uint256"
        }
      ],
      "name": "SpawnCn",
      "type": "event"
    },
    {
      "anonymous": false,
      "inputs": [
        {
          "indexed": true,
          "internalType": "address",
          "name": "from",
          "type": "address"
        },
        {
          "indexed": true,
          "internalType": "address",
          "name": "to",
          "type": "address"
        },
        {
          "indexed": true,
          "internalType": "uint256",
          "name": "tokenId",
          "type": "uint256"
        }
      ],
      "name": "Transfer",
      "type": "event"
    },
    {
      "inputs": [],
      "name": "DEFAULT_ADMIN_ROLE",
      "outputs": [
        {
          "internalType": "bytes32",
          "name": "",
          "type": "bytes32"
        }
      ],
      "stateMutability": "view",
      "type": "function"
    },
    {
      "inputs": [],
      "name": "MANAGER_ROLE",
      "outputs": [
        {
          "internalType": "bytes32",
          "name": "",
          "type": "bytes32"
        }
      ],
      "stateMutability": "view",
      "type": "function"
    },
    {
      "inputs": [],
      "name": "SETTER_ROLE",
      "outputs": [
        {
          "internalType": "bytes32",
          "name": "",
          "type": "bytes32"
        }
      ],
      "stateMutability": "view",
      "type": "function"
    },
    {
      "inputs": [],
      "name": "SPAWNER_ROLE",
      "outputs": [
        {
          "internalType": "bytes32",
          "name": "",
          "type": "bytes32"
        }
      ],
      "stateMutability": "view",
      "type": "function"
    },
    {
      "inputs": [
        {
          "internalType": "address",
          "name": "to",
          "type": "address"
        },
        {
          "internalType": "uint256",
          "name": "tokenId",
          "type": "uint256"
        }
      ],
      "name": "approve",
      "outputs": [],
      "stateMutability": "nonpayable",
      "type": "function"
    },
    {
      "inputs": [
        {
          "internalType": "address",
          "name": "owner",
          "type": "address"
        }
      ],
      "name": "balanceOf",
      "outputs": [
        {
          "internalType": "uint256",
          "name": "",
          "type": "uint256"
        }
      ],
      "stateMutability": "view",
      "type": "function"
    },
    {
      "inputs": [],
      "name": "baseURI",
      "outputs": [
        {
          "internalType": "string",
          "name": "",
          "type": "string"
        }
      ],
      "stateMutability": "view",
      "type": "function"
    },
    {
      "inputs": [
        {
          "internalType": "uint256",
          "name": "",
          "type": "uint256"
        },
        {
          "internalType": "string",
          "name": "",
          "type": "string"
        }
      ],
      "name": "data",
      "outputs": [
        {
          "internalType": "uint256",
          "name": "",
          "type": "uint256"
        }
      ],
      "stateMutability": "view",
      "type": "function"
    },
    {
      "inputs": [
        {
          "internalType": "uint256",
          "name": "",
          "type": "uint256"
        },
        {
          "internalType": "string",
          "name": "",
          "type": "string"
        },
        {
          "internalType": "uint256",
          "name": "",
          "type": "uint256"
        }
      ],
      "name": "datas",
      "outputs": [
        {
          "internalType": "uint256",
          "name": "",
          "type": "uint256"
        }
      ],
      "stateMutability": "view",
      "type": "function"
    },
    {
      "inputs": [
        {
          "internalType": "uint256",
          "name": "tokenId",
          "type": "uint256"
        }
      ],
      "name": "getApproved",
      "outputs": [
        {
          "internalType": "address",
          "name": "",
          "type": "address"
        }
      ],
      "stateMutability": "view",
      "type": "function"
    },
    {
      "inputs": [
        {
          "internalType": "uint256",
          "name": "cnId",
          "type": "uint256"
        },
        {
          "internalType": "string",
          "name": "slot",
          "type": "string"
        }
      ],
      "name": "getDatas",
      "outputs": [
        {
          "internalType": "uint256[]",
          "name": "",
          "type": "uint256[]"
        }
      ],
      "stateMutability": "view",
      "type": "function"
    },
    {
      "inputs": [
        {
          "internalType": "uint256",
          "name": "cnId",
          "type": "uint256"
        },
        {
          "internalType": "string",
          "name": "slot",
          "type": "string"
        },
        {
          "internalType": "uint256",
          "name": "base",
          "type": "uint256"
        },
        {
          "internalType": "uint256",
          "name": "range",
          "type": "uint256"
        }
      ],
      "name": "getRandomNumber",
      "outputs": [
        {
          "internalType": "uint256",
          "name": "",
          "type": "uint256"
        }
      ],
      "stateMutability": "pure",
      "type": "function"
    },
    {
      "inputs": [
        {
          "internalType": "bytes32",
          "name": "role",
          "type": "bytes32"
        }
      ],
      "name": "getRoleAdmin",
      "outputs": [
        {
          "internalType": "bytes32",
          "name": "",
          "type": "bytes32"
        }
      ],
      "stateMutability": "view",
      "type": "function"
    },
    {
      "inputs": [
        {
          "internalType": "bytes32",
          "name": "role",
          "type": "bytes32"
        },
        {
          "internalType": "uint256",
          "name": "index",
          "type": "uint256"
        }
      ],
      "name": "getRoleMember",
      "outputs": [
        {
          "internalType": "address",
          "name": "",
          "type": "address"
        }
      ],
      "stateMutability": "view",
      "type": "function"
    },
    {
      "inputs": [
        {
          "internalType": "bytes32",
          "name": "role",
          "type": "bytes32"
        }
      ],
      "name": "getRoleMemberCount",
      "outputs": [
        {
          "internalType": "uint256",
          "name": "",
          "type": "uint256"
        }
      ],
      "stateMutability": "view",
      "type": "function"
    },
    {
      "inputs": [
        {
          "internalType": "bytes32",
          "name": "role",
          "type": "bytes32"
        },
        {
          "internalType": "address",
          "name": "account",
          "type": "address"
        }
      ],
      "name": "grantRole",
      "outputs": [],
      "stateMutability": "nonpayable",
      "type": "function"
    },
    {
      "inputs": [
        {
          "internalType": "bytes32",
          "name": "role",
          "type": "bytes32"
        },
        {
          "internalType": "address",
          "name": "account",
          "type": "address"
        }
      ],
      "name": "hasRole",
      "outputs": [
        {
          "internalType": "bool",
          "name": "",
          "type": "bool"
        }
      ],
      "stateMutability": "view",
      "type": "function"
    },
    {
      "inputs": [
        {
          "internalType": "address",
          "name": "owner",
          "type": "address"
        },
        {
          "internalType": "address",
          "name": "operator",
          "type": "address"
        }
      ],
      "name": "isApprovedForAll",
      "outputs": [
        {
          "internalType": "bool",
          "name": "",
          "type": "bool"
        }
      ],
      "stateMutability": "view",
      "type": "function"
    },
    {
      "inputs": [],
      "name": "name",
      "outputs": [
        {
          "internalType": "string",
          "name": "",
          "type": "string"
        }
      ],
      "stateMutability": "view",
      "type": "function"
    },
    {
      "inputs": [
        {
          "internalType": "uint256",
          "name": "tokenId",
          "type": "uint256"
        }
      ],
      "name": "ownerOf",
      "outputs": [
        {
          "internalType": "address",
          "name": "",
          "type": "address"
        }
      ],
      "stateMutability": "view",
      "type": "function"
    },
    {
      "inputs": [
        {
          "internalType": "bytes32",
          "name": "role",
          "type": "bytes32"
        },
        {
          "internalType": "address",
          "name": "account",
          "type": "address"
        }
      ],
      "name": "renounceRole",
      "outputs": [],
      "stateMutability": "nonpayable",
      "type": "function"
    },
    {
      "inputs": [
        {
          "internalType": "bytes32",
          "name": "role",
          "type": "bytes32"
        },
        {
          "internalType": "address",
          "name": "account",
          "type": "address"
        }
      ],
      "name": "revokeRole",
      "outputs": [],
      "stateMutability": "nonpayable",
      "type": "function"
    },
    {
      "inputs": [
        {
          "internalType": "address",
          "name": "from",
          "type": "address"
        },
        {
          "internalType": "address",
          "name": "to",
          "type": "address"
        },
        {
          "internalType": "uint256",
          "name": "tokenId",
          "type": "uint256"
        }
      ],
      "name": "safeTransferFrom",
      "outputs": [],
      "stateMutability": "nonpayable",
      "type": "function"
    },
    {
      "inputs": [
        {
          "internalType": "address",
          "name": "from",
          "type": "address"
        },
        {
          "internalType": "address",
          "name": "to",
          "type": "address"
        },
        {
          "internalType": "uint256",
          "name": "tokenId",
          "type": "uint256"
        },
        {
          "internalType": "bytes",
          "name": "_data",
          "type": "bytes"
        }
      ],
      "name": "safeTransferFrom",
      "outputs": [],
      "stateMutability": "nonpayable",
      "type": "function"
    },
    {
      "inputs": [
        {
          "internalType": "address",
          "name": "from",
          "type": "address"
        },
        {
          "internalType": "address",
          "name": "to",
          "type": "address"
        },
        {
          "internalType": "uint256[]",
          "name": "tokenIds",
          "type": "uint256[]"
        }
      ],
      "name": "safeTransferFromBatch",
      "outputs": [],
      "stateMutability": "nonpayable",
      "type": "function"
    },
    {
      "inputs": [
        {
          "internalType": "address",
          "name": "operator",
          "type": "address"
        },
        {
          "internalType": "bool",
          "name": "approved",
          "type": "bool"
        }
      ],
      "name": "setApprovalForAll",
      "outputs": [],
      "stateMutability": "nonpayable",
      "type": "function"
    },
    {
      "inputs": [
        {
          "internalType": "string",
          "name": "uri",
          "type": "string"
        }
      ],
      "name": "setBaseURI",
      "outputs": [],
      "stateMutability": "nonpayable",
      "type": "function"
    },
    {
      "inputs": [
        {
          "internalType": "uint256",
          "name": "cnId",
          "type": "uint256"
        },
        {
          "internalType": "string",
          "name": "slot",
          "type": "string"
        },
        {
          "internalType": "uint256",
          "name": "_data",
          "type": "uint256"
        }
      ],
      "name": "setData",
      "outputs": [],
      "stateMutability": "nonpayable",
      "type": "function"
    },
    {
      "inputs": [
        {
          "internalType": "uint256",
          "name": "cnId",
          "type": "uint256"
        },
        {
          "internalType": "string",
          "name": "slot",
          "type": "string"
        },
        {
          "internalType": "uint256[]",
          "name": "_datas",
          "type": "uint256[]"
        }
      ],
      "name": "setDatas",
      "outputs": [],
      "stateMutability": "nonpayable",
      "type": "function"
    },
    {
      "inputs": [
        {
          "internalType": "uint256",
          "name": "hero",
          "type": "uint256"
        },
        {
          "internalType": "address",
          "name": "to",
          "type": "address"
        }
      ],
      "name": "spawnCn",
      "outputs": [
        {
          "internalType": "uint256",
          "name": "",
          "type": "uint256"
        }
      ],
      "stateMutability": "nonpayable",
      "type": "function"
    },
    {
      "inputs": [
        {
          "internalType": "bytes4",
          "name": "interfaceId",
          "type": "bytes4"
        }
      ],
      "name": "supportsInterface",
      "outputs": [
        {
          "internalType": "bool",
          "name": "",
          "type": "bool"
        }
      ],
      "stateMutability": "view",
      "type": "function"
    },
    {
      "inputs": [],
      "name": "symbol",
      "outputs": [
        {
          "internalType": "string",
          "name": "",
          "type": "string"
        }
      ],
      "stateMutability": "view",
      "type": "function"
    },
    {
      "inputs": [
        {
          "internalType": "uint256",
          "name": "index",
          "type": "uint256"
        }
      ],
      "name": "tokenByIndex",
      "outputs": [
        {
          "internalType": "uint256",
          "name": "",
          "type": "uint256"
        }
      ],
      "stateMutability": "view",
      "type": "function"
    },
    {
      "inputs": [
        {
          "internalType": "address",
          "name": "owner",
          "type": "address"
        },
        {
          "internalType": "uint256",
          "name": "index",
          "type": "uint256"
        }
      ],
      "name": "tokenOfOwnerByIndex",
      "outputs": [
        {
          "internalType": "uint256",
          "name": "",
          "type": "uint256"
        }
      ],
      "stateMutability": "view",
      "type": "function"
    },
    {
      "inputs": [
        {
          "internalType": "uint256",
          "name": "tokenId",
          "type": "uint256"
        }
      ],
      "name": "tokenURI",
      "outputs": [
        {
          "internalType": "string",
          "name": "",
          "type": "string"
        }
      ],
      "stateMutability": "view",
      "type": "function"
    },
    {
      "inputs": [
        {
          "internalType": "address",
          "name": "user",
          "type": "address"
        },
        {
          "internalType": "uint256",
          "name": "cursor",
          "type": "uint256"
        },
        {
          "internalType": "uint256",
          "name": "size",
          "type": "uint256"
        }
      ],
      "name": "tokensOfOwnerBySize",
      "outputs": [
        {
          "internalType": "uint256[]",
          "name": "",
          "type": "uint256[]"
        },
        {
          "internalType": "uint256",
          "name": "",
          "type": "uint256"
        }
      ],
      "stateMutability": "view",
      "type": "function"
    },
    {
      "inputs": [],
      "name": "totalSupply",
      "outputs": [
        {
          "internalType": "uint256",
          "name": "",
          "type": "uint256"
        }
      ],
      "stateMutability": "view",
      "type": "function"
    },
    {
      "inputs": [
        {
          "internalType": "address",
          "name": "from",
          "type": "address"
        },
        {
          "internalType": "address",
          "name": "to",
          "type": "address"
        },
        {
          "internalType": "uint256",
          "name": "tokenId",
          "type": "uint256"
        }
      ],
      "name": "transferFrom",
      "outputs": [],
      "stateMutability": "nonpayable",
      "type": "function"
    }
  ],
  "bytecode": "0x60806040523480156200001157600080fd5b506040516200557a3803806200557a8339818101604052810190620000379190620004d7565b6040518060400160405280600e81526020017f43796265722047656172204e46540000000000000000000000000000000000008152506040518060400160405280600281526020017f434e0000000000000000000000000000000000000000000000000000000000008152508160009080519060200190620000bb929190620003bd565b508060019080519060200190620000d4929190620003bd565b505050620000ec6000801b336200012560201b60201c565b6200011e7f241ecf16d79d0f8dbfb92cbc07fe17840425976cf0667f022fe9877caa831b08826200012560201b60201c565b506200056e565b6200013782826200013b60201b60201c565b5050565b6200015282826200018360201b620017871760201c565b6200017e81600b60008581526020019081526020016000206200027560201b620018681790919060201c565b505050565b620001958282620002ad60201b60201c565b62000271576001600a600084815260200190815260200160002060000160008373ffffffffffffffffffffffffffffffffffffffff1673ffffffffffffffffffffffffffffffffffffffff16815260200190815260200160002060006101000a81548160ff021916908315150217905550620002166200031860201b60201c565b73ffffffffffffffffffffffffffffffffffffffff168173ffffffffffffffffffffffffffffffffffffffff16837f2f8788117e7eff1d82e926ec794901d17c78024a50270940304540a733656f0d60405160405180910390a45b5050565b6000620002a5836000018373ffffffffffffffffffffffffffffffffffffffff1660001b6200032060201b60201c565b905092915050565b6000600a600084815260200190815260200160002060000160008373ffffffffffffffffffffffffffffffffffffffff1673ffffffffffffffffffffffffffffffffffffffff16815260200190815260200160002060009054906101000a900460ff16905092915050565b600033905090565b60006200033483836200039a60201b60201c565b6200038f57826000018290806001815401808255809150506001900390600052602060002001600090919091909150558260000180549050836001016000848152602001908152602001600020819055506001905062000394565b600090505b92915050565b600080836001016000848152602001908152602001600020541415905092915050565b828054620003cb9062000538565b90600052602060002090601f016020900481019282620003ef57600085556200043b565b82601f106200040a57805160ff19168380011785556200043b565b828001600101855582156200043b579182015b828111156200043a5782518255916020019190600101906200041d565b5b5090506200044a91906200044e565b5090565b5b80821115620004695760008160009055506001016200044f565b5090565b600080fd5b600073ffffffffffffffffffffffffffffffffffffffff82169050919050565b60006200049f8262000472565b9050919050565b620004b18162000492565b8114620004bd57600080fd5b50565b600081519050620004d181620004a6565b92915050565b600060208284031215620004f057620004ef6200046d565b5b60006200050084828501620004c0565b91505092915050565b7f4e487b7100000000000000000000000000000000000000000000000000000000600052602260045260246000fd5b600060028204905060018216806200055157607f821691505b6020821081141562000568576200056762000509565b5b50919050565b614ffc806200057e6000396000f3fe608060405234801561001057600080fd5b50600436106102325760003560e01c80636c0360eb11610130578063a22cb465116100b8578063d547741f1161007c578063d547741f14610734578063e985e9c514610750578063ec87621c14610780578063f54a867e1461079e578063fd577d0b146107ba57610232565b8063a22cb46514610680578063b88d4fde1461069c578063c1200e8f146106b8578063c87b56dd146106d4578063ca15c8731461070457610232565b806391d14854116100ff57806391d14854146105c657806391fd28af146105f657806395d89b4114610626578063a2011b3f14610644578063a217fddf1461066257610232565b80636c0360eb1461051757806370a0823114610535578063854ec1af146105655780639010d07c1461059657610232565b80632f2ff15d116101be5780634f6ccce7116101825780634f6ccce71461043b57806355f804b31461046b57806357b0c99f14610487578063614691b2146104b75780636352211e146104e757610232565b80632f2ff15d1461039b5780632f745c59146103b757806336568abe146103e757806338aa38151461040357806342842e0e1461041f57610232565b8063095ea7b311610205578063095ea7b3146102e557806318160ddd1461030157806323b872dd1461031f578063248a9ca31461033b578063251d13ba1461036b57610232565b806301ffc9a71461023757806306fdde0314610267578063081812fc14610285578063090a0eae146102b5575b600080fd5b610251600480360381019061024c91906132e5565b6107d8565b60405161025e919061332d565b60405180910390f35b61026f6107ea565b60405161027c91906133e1565b60405180910390f35b61029f600480360381019061029a9190613439565b61087c565b6040516102ac91906134a7565b60405180910390f35b6102cf60048036038101906102ca91906135f7565b610901565b6040516102dc9190613662565b60405180910390f35b6102ff60048036038101906102fa91906136a9565b61093c565b005b610309610a54565b6040516103169190613662565b60405180910390f35b610339600480360381019061033491906136e9565b610a61565b005b61035560048036038101906103509190613772565b610ac1565b60405161036291906137ae565b60405180910390f35b610385600480360381019061038091906137c9565b610ae1565b6040516103929190613662565b60405180910390f35b6103b560048036038101906103b09190613838565b610b35565b005b6103d160048036038101906103cc91906136a9565b610b56565b6040516103de9190613662565b60405180910390f35b61040160048036038101906103fc9190613838565b610bfb565b005b61041d60048036038101906104189190613940565b610c7e565b005b610439600480360381019061043491906136e9565b610cc8565b005b61045560048036038101906104509190613439565b610ce8565b6040516104629190613662565b60405180910390f35b610485600480360381019061048091906139af565b610d59565b005b6104a1600480360381019061049c91906135f7565b610dd5565b6040516104ae9190613ab6565b60405180910390f35b6104d160048036038101906104cc9190613ad8565b610e5d565b6040516104de9190613662565b60405180910390f35b61050160048036038101906104fc9190613439565b610f2c565b60405161050e91906134a7565b60405180910390f35b61051f610fde565b60405161052c91906133e1565b60405180910390f35b61054f600480360381019061054a9190613b18565b61106c565b60405161055c9190613662565b60405180910390f35b61057f600480360381019061057a9190613b45565b611124565b60405161058d929190613b98565b60405180910390f35b6105b060048036038101906105ab9190613bc8565b611219565b6040516105bd91906134a7565b60405180910390f35b6105e060048036038101906105db9190613838565b611248565b6040516105ed919061332d565b60405180910390f35b610610600480360381019061060b9190613c08565b6112b3565b60405161061d9190613662565b60405180910390f35b61062e611306565b60405161063b91906133e1565b60405180910390f35b61064c611398565b60405161065991906137ae565b60405180910390f35b61066a6113bc565b60405161067791906137ae565b60405180910390f35b61069a60048036038101906106959190613cb7565b6113c3565b005b6106b660048036038101906106b19190613d98565b6113d9565b005b6106d260048036038101906106cd9190613e1b565b61143b565b005b6106ee60048036038101906106e99190613439565b6114e9565b6040516106fb91906133e1565b60405180910390f35b61071e60048036038101906107199190613772565b6115c8565b60405161072b9190613662565b60405180910390f35b61074e60048036038101906107499190613838565b6115ec565b005b61076a60048036038101906107659190613ea6565b61160d565b604051610777919061332d565b60405180910390f35b6107886116a1565b60405161079591906137ae565b60405180910390f35b6107b860048036038101906107b391906137c9565b6116c5565b005b6107c2611763565b6040516107cf91906137ae565b60405180910390f35b60006107e382611898565b9050919050565b6060600080546107f990613f15565b80601f016020809104026020016040519081016040528092919081815260200182805461082590613f15565b80156108725780601f1061084757610100808354040283529160200191610872565b820191906000526020600020905b81548152906001019060200180831161085557829003601f168201915b5050505050905090565b600061088782611912565b6108c6576040517f08c379a00000000000000000000000000000000000000000000000000000000081526004016108bd90613fb9565b60405180910390fd5b6004600083815260200190815260200160002060009054906101000a900473ffffffffffffffffffffffffffffffffffffffff169050919050565b600d60205281600052604060002081805160208101820180518482526020830160208501208183528095505050505050600091509150505481565b600061094782610f2c565b90508073ffffffffffffffffffffffffffffffffffffffff168373ffffffffffffffffffffffffffffffffffffffff1614156109b8576040517f08c379a00000000000000000000000000000000000000000000000000000000081526004016109af9061404b565b60405180910390fd5b8073ffffffffffffffffffffffffffffffffffffffff166109d761197e565b73ffffffffffffffffffffffffffffffffffffffff161480610a065750610a0581610a0061197e565b61160d565b5b610a45576040517f08c379a0000000000000000000000000000000000000000000000000000000008152600401610a3c906140dd565b60405180910390fd5b610a4f8383611986565b505050565b6000600880549050905090565b610a72610a6c61197e565b82611a3f565b610ab1576040517f08c379a0000000000000000000000000000000000000000000000000000000008152600401610aa89061416f565b60405180910390fd5b610abc838383611b1d565b505050565b6000600a6000838152602001908152602001600020600101549050919050565b600e602052826000526040600020828051602081018201805184825260208301602085012081835280955050505050508181548110610b1f57600080fd5b9060005260206000200160009250925050505481565b610b3e82610ac1565b610b4781611d84565b610b518383611d98565b505050565b6000610b618361106c565b8210610ba2576040517f08c379a0000000000000000000000000000000000000000000000000000000008152600401610b9990614201565b60405180910390fd5b600660008473ffffffffffffffffffffffffffffffffffffffff1673ffffffffffffffffffffffffffffffffffffffff168152602001908152602001600020600083815260200190815260200160002054905092915050565b610c0361197e565b73ffffffffffffffffffffffffffffffffffffffff168173ffffffffffffffffffffffffffffffffffffffff1614610c70576040517f08c379a0000000000000000000000000000000000000000000000000000000008152600401610c6790614293565b60405180910390fd5b610c7a8282611dcc565b5050565b60005b8151811015610cc257610caf8484848481518110610ca257610ca16142b3565b5b6020026020010151610cc8565b8080610cba90614311565b915050610c81565b50505050565b610ce3838383604051806020016040528060008152506113d9565b505050565b6000610cf2610a54565b8210610d33576040517f08c379a0000000000000000000000000000000000000000000000000000000008152600401610d2a906143cc565b60405180910390fd5b60088281548110610d4757610d466142b3565b5b90600052602060002001549050919050565b7f241ecf16d79d0f8dbfb92cbc07fe17840425976cf0667f022fe9877caa831b08610d8381611d84565b81600c9080519060200190610d99929190613189565b507f23c8c9488efebfd474e85a7956de6f39b17c7ab88502d42a623db2d8e382bbaa82604051610dc991906133e1565b60405180910390a15050565b6060600e600084815260200190815260200160002082604051610df89190614428565b9081526020016040518091039020805480602002602001604051908101604052809291908181526020018280548015610e5057602002820191906000526020600020905b815481526020019060010190808311610e3c575b5050505050905092915050565b60007f6cd0800d4f4ba3dc6faecb926dc1f046e4172cd4d0318c3b8740bdce16fe8d52610e8981611d84565b6000610e93610a54565b905084600d6000838152602001908152602001600020604051610eb59061448b565b908152602001604051809103902081905550610ed18482611e00565b8373ffffffffffffffffffffffffffffffffffffffff167f336c4a1e1c143678cfa9cd753311ae2543418ccee187cae3b4fe1c4f76578d8b8287604051610f199291906144a0565b60405180910390a2809250505092915050565b6000806002600084815260200190815260200160002060009054906101000a900473ffffffffffffffffffffffffffffffffffffffff169050600073ffffffffffffffffffffffffffffffffffffffff168173ffffffffffffffffffffffffffffffffffffffff161415610fd5576040517f08c379a0000000000000000000000000000000000000000000000000000000008152600401610fcc9061453b565b60405180910390fd5b80915050919050565b600c8054610feb90613f15565b80601f016020809104026020016040519081016040528092919081815260200182805461101790613f15565b80156110645780601f1061103957610100808354040283529160200191611064565b820191906000526020600020905b81548152906001019060200180831161104757829003601f168201915b505050505081565b60008073ffffffffffffffffffffffffffffffffffffffff168273ffffffffffffffffffffffffffffffffffffffff1614156110dd576040517f08c379a00000000000000000000000000000000000000000000000000000000081526004016110d4906145cd565b60405180910390fd5b600360008373ffffffffffffffffffffffffffffffffffffffff1673ffffffffffffffffffffffffffffffffffffffff168152602001908152602001600020549050919050565b6060600080839050846111368761106c565b61114091906145ed565b81111561115e57846111518761106c565b61115b91906145ed565b90505b60008167ffffffffffffffff81111561117a576111796134cc565b5b6040519080825280602002602001820160405280156111a85781602001602082028036833780820191505090505b50905060005b828110156111fd576111cb8882896111c69190614621565b610b56565b8282815181106111de576111dd6142b3565b5b60200260200101818152505080806111f590614311565b9150506111ae565b5080828761120b9190614621565b935093505050935093915050565b600061124082600b6000868152602001908152602001600020611e1e90919063ffffffff16565b905092915050565b6000600a600084815260200190815260200160002060000160008373ffffffffffffffffffffffffffffffffffffffff1673ffffffffffffffffffffffffffffffffffffffff16815260200190815260200160002060009054906101000a900460ff16905092915050565b60008085856040516020016112c9929190614698565b6040516020818303038152906040528051906020012060001c905082816112f091906146ef565b846112fb9190614621565b915050949350505050565b60606001805461131590613f15565b80601f016020809104026020016040519081016040528092919081815260200182805461134190613f15565b801561138e5780601f106113635761010080835404028352916020019161138e565b820191906000526020600020905b81548152906001019060200180831161137157829003601f168201915b5050505050905090565b7f61c92169ef077349011ff0b1383c894d86c5f0b41d986366b58a6cf31e93beda81565b6000801b81565b6113d56113ce61197e565b8383611e38565b5050565b6113ea6113e461197e565b83611a3f565b611429576040517f08c379a00000000000000000000000000000000000000000000000000000000081526004016114209061416f565b60405180910390fd5b61143584848484611fa5565b50505050565b7f61c92169ef077349011ff0b1383c894d86c5f0b41d986366b58a6cf31e93beda61146581611d84565b81600e6000868152602001908152602001600020846040516114879190614428565b908152602001604051809103902090805190602001906114a892919061320f565b50837faf34a1a89164056fa5ddfee9bdd7384e79b0f27a493cc80c478d9068ea15c61284846040516114db929190614720565b60405180910390a250505050565b60606114f482611912565b611533576040517f08c379a000000000000000000000000000000000000000000000000000000000815260040161152a906147c9565b60405180910390fd5b6000600c805461154290613f15565b90501161155e57604051806020016040528060008152506115c1565b600c61156983612001565b61159f600d600086815260200190815260200160002060405161158b9061448b565b908152602001604051809103902054612001565b6040516020016115b1939291906148c9565b6040516020818303038152906040525b9050919050565b60006115e5600b6000848152602001908152602001600020612162565b9050919050565b6115f582610ac1565b6115fe81611d84565b6116088383611dcc565b505050565b6000600560008473ffffffffffffffffffffffffffffffffffffffff1673ffffffffffffffffffffffffffffffffffffffff16815260200190815260200160002060008373ffffffffffffffffffffffffffffffffffffffff1673ffffffffffffffffffffffffffffffffffffffff16815260200190815260200160002060009054906101000a900460ff16905092915050565b7f241ecf16d79d0f8dbfb92cbc07fe17840425976cf0667f022fe9877caa831b0881565b7f61c92169ef077349011ff0b1383c894d86c5f0b41d986366b58a6cf31e93beda6116ef81611d84565b81600d6000868152602001908152602001600020846040516117119190614428565b908152602001604051809103902081905550837feac7fa0927090dca3b0cce570fa0e4b428cbd28ba251bcd0d9d33d629a2936be8484604051611755929190614905565b60405180910390a250505050565b7f6cd0800d4f4ba3dc6faecb926dc1f046e4172cd4d0318c3b8740bdce16fe8d5281565b6117918282611248565b611864576001600a600084815260200190815260200160002060000160008373ffffffffffffffffffffffffffffffffffffffff1673ffffffffffffffffffffffffffffffffffffffff16815260200190815260200160002060006101000a81548160ff02191690831515021790555061180961197e565b73ffffffffffffffffffffffffffffffffffffffff168173ffffffffffffffffffffffffffffffffffffffff16837f2f8788117e7eff1d82e926ec794901d17c78024a50270940304540a733656f0d60405160405180910390a45b5050565b6000611890836000018373ffffffffffffffffffffffffffffffffffffffff1660001b612177565b905092915050565b60007f5a05180f000000000000000000000000000000000000000000000000000000007bffffffffffffffffffffffffffffffffffffffffffffffffffffffff1916827bffffffffffffffffffffffffffffffffffffffffffffffffffffffff1916148061190b575061190a826121e7565b5b9050919050565b60008073ffffffffffffffffffffffffffffffffffffffff166002600084815260200190815260200160002060009054906101000a900473ffffffffffffffffffffffffffffffffffffffff1673ffffffffffffffffffffffffffffffffffffffff1614159050919050565b600033905090565b816004600083815260200190815260200160002060006101000a81548173ffffffffffffffffffffffffffffffffffffffff021916908373ffffffffffffffffffffffffffffffffffffffff160217905550808273ffffffffffffffffffffffffffffffffffffffff166119f983610f2c565b73ffffffffffffffffffffffffffffffffffffffff167f8c5be1e5ebec7d5bd14f71427d1e84f3dd0314c0f7b2291e5b200ac8c7c3b92560405160405180910390a45050565b6000611a4a82611912565b611a89576040517f08c379a0000000000000000000000000000000000000000000000000000000008152600401611a80906149a7565b60405180910390fd5b6000611a9483610f2c565b90508073ffffffffffffffffffffffffffffffffffffffff168473ffffffffffffffffffffffffffffffffffffffff161480611ad65750611ad5818561160d565b5b80611b1457508373ffffffffffffffffffffffffffffffffffffffff16611afc8461087c565b73ffffffffffffffffffffffffffffffffffffffff16145b91505092915050565b8273ffffffffffffffffffffffffffffffffffffffff16611b3d82610f2c565b73ffffffffffffffffffffffffffffffffffffffff1614611b93576040517f08c379a0000000000000000000000000000000000000000000000000000000008152600401611b8a90614a39565b60405180910390fd5b600073ffffffffffffffffffffffffffffffffffffffff168273ffffffffffffffffffffffffffffffffffffffff161415611c03576040517f08c379a0000000000000000000000000000000000000000000000000000000008152600401611bfa90614acb565b60405180910390fd5b611c0e838383612261565b611c19600082611986565b6001600360008573ffffffffffffffffffffffffffffffffffffffff1673ffffffffffffffffffffffffffffffffffffffff1681526020019081526020016000206000828254611c6991906145ed565b925050819055506001600360008473ffffffffffffffffffffffffffffffffffffffff1673ffffffffffffffffffffffffffffffffffffffff1681526020019081526020016000206000828254611cc09190614621565b92505081905550816002600083815260200190815260200160002060006101000a81548173ffffffffffffffffffffffffffffffffffffffff021916908373ffffffffffffffffffffffffffffffffffffffff160217905550808273ffffffffffffffffffffffffffffffffffffffff168473ffffffffffffffffffffffffffffffffffffffff167fddf252ad1be2c89b69c2b068fc378daa952ba7f163c4a11628f55a4df523b3ef60405160405180910390a4611d7f838383612375565b505050565b611d9581611d9061197e565b61237a565b50565b611da28282611787565b611dc781600b600085815260200190815260200160002061186890919063ffffffff16565b505050565b611dd68282612417565b611dfb81600b60008581526020019081526020016000206124f990919063ffffffff16565b505050565b611e1a828260405180602001604052806000815250612529565b5050565b6000611e2d8360000183612584565b60001c905092915050565b8173ffffffffffffffffffffffffffffffffffffffff168373ffffffffffffffffffffffffffffffffffffffff161415611ea7576040517f08c379a0000000000000000000000000000000000000000000000000000000008152600401611e9e90614b37565b60405180910390fd5b80600560008573ffffffffffffffffffffffffffffffffffffffff1673ffffffffffffffffffffffffffffffffffffffff16815260200190815260200160002060008473ffffffffffffffffffffffffffffffffffffffff1673ffffffffffffffffffffffffffffffffffffffff16815260200190815260200160002060006101000a81548160ff0219169083151502179055508173ffffffffffffffffffffffffffffffffffffffff168373ffffffffffffffffffffffffffffffffffffffff167f17307eab39ab6107e8899845ad3d59bd9653f200f220920489ca2b5937696c3183604051611f98919061332d565b60405180910390a3505050565b611fb0848484611b1d565b611fbc848484846125af565b611ffb576040517f08c379a0000000000000000000000000000000000000000000000000000000008152600401611ff290614bc9565b60405180910390fd5b50505050565b60606000821415612049576040518060400160405280600181526020017f3000000000000000000000000000000000000000000000000000000000000000815250905061215d565b600082905060005b6000821461207b57808061206490614311565b915050600a826120749190614be9565b9150612051565b60008167ffffffffffffffff811115612097576120966134cc565b5b6040519080825280601f01601f1916602001820160405280156120c95781602001600182028036833780820191505090505b5090505b60008514612156576001826120e291906145ed565b9150600a856120f191906146ef565b60306120fd9190614621565b60f81b818381518110612113576121126142b3565b5b60200101907effffffffffffffffffffffffffffffffffffffffffffffffffffffffffffff1916908160001a905350600a8561214f9190614be9565b94506120cd565b8093505050505b919050565b600061217082600001612737565b9050919050565b60006121838383612748565b6121dc5782600001829080600181540180825580915050600190039060005260206000200160009091909190915055826000018054905083600101600084815260200190815260200160002081905550600190506121e1565b600090505b92915050565b60007f7965db0b000000000000000000000000000000000000000000000000000000007bffffffffffffffffffffffffffffffffffffffffffffffffffffffff1916827bffffffffffffffffffffffffffffffffffffffffffffffffffffffff1916148061225a57506122598261276b565b5b9050919050565b61226c8383836127e5565b600073ffffffffffffffffffffffffffffffffffffffff168373ffffffffffffffffffffffffffffffffffffffff1614156122af576122aa816127ea565b6122ee565b8173ffffffffffffffffffffffffffffffffffffffff168373ffffffffffffffffffffffffffffffffffffffff16146122ed576122ec8382612833565b5b5b600073ffffffffffffffffffffffffffffffffffffffff168273ffffffffffffffffffffffffffffffffffffffff1614156123315761232c816129a0565b612370565b8273ffffffffffffffffffffffffffffffffffffffff168273ffffffffffffffffffffffffffffffffffffffff161461236f5761236e8282612a71565b5b5b505050565b505050565b6123848282611248565b612413576123a98173ffffffffffffffffffffffffffffffffffffffff166014612af0565b6123b78360001c6020612af0565b6040516020016123c8929190614cb2565b6040516020818303038152906040526040517f08c379a000000000000000000000000000000000000000000000000000000000815260040161240a91906133e1565b60405180910390fd5b5050565b6124218282611248565b156124f5576000600a600084815260200190815260200160002060000160008373ffffffffffffffffffffffffffffffffffffffff1673ffffffffffffffffffffffffffffffffffffffff16815260200190815260200160002060006101000a81548160ff02191690831515021790555061249a61197e565b73ffffffffffffffffffffffffffffffffffffffff168173ffffffffffffffffffffffffffffffffffffffff16837ff6391f5c32d9c69d2a47ea670b442974b53935d1edc7fd64eb21e047a839171b60405160405180910390a45b5050565b6000612521836000018373ffffffffffffffffffffffffffffffffffffffff1660001b612d2c565b905092915050565b6125338383612e40565b61254060008484846125af565b61257f576040517f08c379a000000000000000000000000000000000000000000000000000000000815260040161257690614bc9565b60405180910390fd5b505050565b600082600001828154811061259c5761259b6142b3565b5b9060005260206000200154905092915050565b60006125d08473ffffffffffffffffffffffffffffffffffffffff1661301a565b1561272a578373ffffffffffffffffffffffffffffffffffffffff1663150b7a026125f961197e565b8786866040518563ffffffff1660e01b815260040161261b9493929190614d41565b6020604051808303816000875af192505050801561265757506040513d601f19601f820116820180604052508101906126549190614da2565b60015b6126da573d8060008114612687576040519150601f19603f3d011682016040523d82523d6000602084013e61268c565b606091505b506000815114156126d2576040517f08c379a00000000000000000000000000000000000000000000000000000000081526004016126c990614bc9565b60405180910390fd5b805181602001fd5b63150b7a0260e01b7bffffffffffffffffffffffffffffffffffffffffffffffffffffffff1916817bffffffffffffffffffffffffffffffffffffffffffffffffffffffff19161491505061272f565b600190505b949350505050565b600081600001805490509050919050565b600080836001016000848152602001908152602001600020541415905092915050565b60007f780e9d63000000000000000000000000000000000000000000000000000000007bffffffffffffffffffffffffffffffffffffffffffffffffffffffff1916827bffffffffffffffffffffffffffffffffffffffffffffffffffffffff191614806127de57506127dd8261303d565b5b9050919050565b505050565b6008805490506009600083815260200190815260200160002081905550600881908060018154018082558091505060019003906000526020600020016000909190919091505550565b600060016128408461106c565b61284a91906145ed565b905060006007600084815260200190815260200160002054905081811461292f576000600660008673ffffffffffffffffffffffffffffffffffffffff1673ffffffffffffffffffffffffffffffffffffffff168152602001908152602001600020600084815260200190815260200160002054905080600660008773ffffffffffffffffffffffffffffffffffffffff1673ffffffffffffffffffffffffffffffffffffffff168152602001908152602001600020600084815260200190815260200160002081905550816007600083815260200190815260200160002081905550505b6007600084815260200190815260200160002060009055600660008573ffffffffffffffffffffffffffffffffffffffff1673ffffffffffffffffffffffffffffffffffffffff16815260200190815260200160002060008381526020019081526020016000206000905550505050565b600060016008805490506129b491906145ed565b90506000600960008481526020019081526020016000205490506000600883815481106129e4576129e36142b3565b5b906000526020600020015490508060088381548110612a0657612a056142b3565b5b906000526020600020018190555081600960008381526020019081526020016000208190555060096000858152602001908152602001600020600090556008805480612a5557612a54614dcf565b5b6001900381819060005260206000200160009055905550505050565b6000612a7c8361106c565b905081600660008573ffffffffffffffffffffffffffffffffffffffff1673ffffffffffffffffffffffffffffffffffffffff168152602001908152602001600020600083815260200190815260200160002081905550806007600084815260200190815260200160002081905550505050565b606060006002836002612b039190614dfe565b612b0d9190614621565b67ffffffffffffffff811115612b2657612b256134cc565b5b6040519080825280601f01601f191660200182016040528015612b585781602001600182028036833780820191505090505b5090507f300000000000000000000000000000000000000000000000000000000000000081600081518110612b9057612b8f6142b3565b5b60200101907effffffffffffffffffffffffffffffffffffffffffffffffffffffffffffff1916908160001a9053507f780000000000000000000000000000000000000000000000000000000000000081600181518110612bf457612bf36142b3565b5b60200101907effffffffffffffffffffffffffffffffffffffffffffffffffffffffffffff1916908160001a90535060006001846002612c349190614dfe565b612c3e9190614621565b90505b6001811115612cde577f3031323334353637383961626364656600000000000000000000000000000000600f861660108110612c8057612c7f6142b3565b5b1a60f81b828281518110612c9757612c966142b3565b5b60200101907effffffffffffffffffffffffffffffffffffffffffffffffffffffffffffff1916908160001a905350600485901c945080612cd790614e58565b9050612c41565b5060008414612d22576040517f08c379a0000000000000000000000000000000000000000000000000000000008152600401612d1990614ece565b60405180910390fd5b8091505092915050565b60008083600101600084815260200190815260200160002054905060008114612e34576000600182612d5e91906145ed565b9050600060018660000180549050612d7691906145ed565b9050818114612de5576000866000018281548110612d9757612d966142b3565b5b9060005260206000200154905080876000018481548110612dbb57612dba6142b3565b5b90600052602060002001819055508387600101600083815260200190815260200160002081905550505b85600001805480612df957612df8614dcf565b5b600190038181906000526020600020016000905590558560010160008681526020019081526020016000206000905560019350505050612e3a565b60009150505b92915050565b600073ffffffffffffffffffffffffffffffffffffffff168273ffffffffffffffffffffffffffffffffffffffff161415612eb0576040517f08c379a0000000000000000000000000000000000000000000000000000000008152600401612ea790614f3a565b60405180910390fd5b612eb981611912565b15612ef9576040517f08c379a0000000000000000000000000000000000000000000000000000000008152600401612ef090614fa6565b60405180910390fd5b612f0560008383612261565b6001600360008473ffffffffffffffffffffffffffffffffffffffff1673ffffffffffffffffffffffffffffffffffffffff1681526020019081526020016000206000828254612f559190614621565b92505081905550816002600083815260200190815260200160002060006101000a81548173ffffffffffffffffffffffffffffffffffffffff021916908373ffffffffffffffffffffffffffffffffffffffff160217905550808273ffffffffffffffffffffffffffffffffffffffff16600073ffffffffffffffffffffffffffffffffffffffff167fddf252ad1be2c89b69c2b068fc378daa952ba7f163c4a11628f55a4df523b3ef60405160405180910390a461301660008383612375565b5050565b6000808273ffffffffffffffffffffffffffffffffffffffff163b119050919050565b60007f80ac58cd000000000000000000000000000000000000000000000000000000007bffffffffffffffffffffffffffffffffffffffffffffffffffffffff1916827bffffffffffffffffffffffffffffffffffffffffffffffffffffffff1916148061310857507f5b5e139f000000000000000000000000000000000000000000000000000000007bffffffffffffffffffffffffffffffffffffffffffffffffffffffff1916827bffffffffffffffffffffffffffffffffffffffffffffffffffffffff1916145b8061311857506131178261311f565b5b9050919050565b60007f01ffc9a7000000000000000000000000000000000000000000000000000000007bffffffffffffffffffffffffffffffffffffffffffffffffffffffff1916827bffffffffffffffffffffffffffffffffffffffffffffffffffffffff1916149050919050565b82805461319590613f15565b90600052602060002090601f0160209004810192826131b757600085556131fe565b82601f106131d057805160ff19168380011785556131fe565b828001600101855582156131fe579182015b828111156131fd5782518255916020019190600101906131e2565b5b50905061320b919061325c565b5090565b82805482825590600052602060002090810192821561324b579160200282015b8281111561324a57825182559160200191906001019061322f565b5b509050613258919061325c565b5090565b5b8082111561327557600081600090555060010161325d565b5090565b6000604051905090565b600080fd5b600080fd5b60007fffffffff0000000000000000000000000000000000000000000000000000000082169050919050565b6132c28161328d565b81146132cd57600080fd5b50565b6000813590506132df816132b9565b92915050565b6000602082840312156132fb576132fa613283565b5b6000613309848285016132d0565b91505092915050565b60008115159050919050565b61332781613312565b82525050565b6000602082019050613342600083018461331e565b92915050565b600081519050919050565b600082825260208201905092915050565b60005b83811015613382578082015181840152602081019050613367565b83811115613391576000848401525b50505050565b6000601f19601f8301169050919050565b60006133b382613348565b6133bd8185613353565b93506133cd818560208601613364565b6133d681613397565b840191505092915050565b600060208201905081810360008301526133fb81846133a8565b905092915050565b6000819050919050565b61341681613403565b811461342157600080fd5b50565b6000813590506134338161340d565b92915050565b60006020828403121561344f5761344e613283565b5b600061345d84828501613424565b91505092915050565b600073ffffffffffffffffffffffffffffffffffffffff82169050919050565b600061349182613466565b9050919050565b6134a181613486565b82525050565b60006020820190506134bc6000830184613498565b92915050565b600080fd5b600080fd5b7f4e487b7100000000000000000000000000000000000000000000000000000000600052604160045260246000fd5b61350482613397565b810181811067ffffffffffffffff82111715613523576135226134cc565b5b80604052505050565b6000613536613279565b905061354282826134fb565b919050565b600067ffffffffffffffff821115613562576135616134cc565b5b61356b82613397565b9050602081019050919050565b82818337600083830152505050565b600061359a61359584613547565b61352c565b9050828152602081018484840111156135b6576135b56134c7565b5b6135c1848285613578565b509392505050565b600082601f8301126135de576135dd6134c2565b5b81356135ee848260208601613587565b91505092915050565b6000806040838503121561360e5761360d613283565b5b600061361c85828601613424565b925050602083013567ffffffffffffffff81111561363d5761363c613288565b5b613649858286016135c9565b9150509250929050565b61365c81613403565b82525050565b60006020820190506136776000830184613653565b92915050565b61368681613486565b811461369157600080fd5b50565b6000813590506136a38161367d565b92915050565b600080604083850312156136c0576136bf613283565b5b60006136ce85828601613694565b92505060206136df85828601613424565b9150509250929050565b60008060006060848603121561370257613701613283565b5b600061371086828701613694565b935050602061372186828701613694565b925050604061373286828701613424565b9150509250925092565b6000819050919050565b61374f8161373c565b811461375a57600080fd5b50565b60008135905061376c81613746565b92915050565b60006020828403121561378857613787613283565b5b60006137968482850161375d565b91505092915050565b6137a88161373c565b82525050565b60006020820190506137c3600083018461379f565b92915050565b6000806000606084860312156137e2576137e1613283565b5b60006137f086828701613424565b935050602084013567ffffffffffffffff81111561381157613810613288565b5b61381d868287016135c9565b925050604061382e86828701613424565b9150509250925092565b6000806040838503121561384f5761384e613283565b5b600061385d8582860161375d565b925050602061386e85828601613694565b9150509250929050565b600067ffffffffffffffff821115613893576138926134cc565b5b602082029050602081019050919050565b600080fd5b60006138bc6138b784613878565b61352c565b905080838252602082019050602084028301858111156138df576138de6138a4565b5b835b8181101561390857806138f48882613424565b8452602084019350506020810190506138e1565b5050509392505050565b600082601f830112613927576139266134c2565b5b81356139378482602086016138a9565b91505092915050565b60008060006060848603121561395957613958613283565b5b600061396786828701613694565b935050602061397886828701613694565b925050604084013567ffffffffffffffff81111561399957613998613288565b5b6139a586828701613912565b9150509250925092565b6000602082840312156139c5576139c4613283565b5b600082013567ffffffffffffffff8111156139e3576139e2613288565b5b6139ef848285016135c9565b91505092915050565b600081519050919050565b600082825260208201905092915050565b6000819050602082019050919050565b613a2d81613403565b82525050565b6000613a3f8383613a24565b60208301905092915050565b6000602082019050919050565b6000613a63826139f8565b613a6d8185613a03565b9350613a7883613a14565b8060005b83811015613aa9578151613a908882613a33565b9750613a9b83613a4b565b925050600181019050613a7c565b5085935050505092915050565b60006020820190508181036000830152613ad08184613a58565b905092915050565b60008060408385031215613aef57613aee613283565b5b6000613afd85828601613424565b9250506020613b0e85828601613694565b9150509250929050565b600060208284031215613b2e57613b2d613283565b5b6000613b3c84828501613694565b91505092915050565b600080600060608486031215613b5e57613b5d613283565b5b6000613b6c86828701613694565b9350506020613b7d86828701613424565b9250506040613b8e86828701613424565b9150509250925092565b60006040820190508181036000830152613bb28185613a58565b9050613bc16020830184613653565b9392505050565b60008060408385031215613bdf57613bde613283565b5b6000613bed8582860161375d565b9250506020613bfe85828601613424565b9150509250929050565b60008060008060808587031215613c2257613c21613283565b5b6000613c3087828801613424565b945050602085013567ffffffffffffffff811115613c5157613c50613288565b5b613c5d878288016135c9565b9350506040613c6e87828801613424565b9250506060613c7f87828801613424565b91505092959194509250565b613c9481613312565b8114613c9f57600080fd5b50565b600081359050613cb181613c8b565b92915050565b60008060408385031215613cce57613ccd613283565b5b6000613cdc85828601613694565b9250506020613ced85828601613ca2565b9150509250929050565b600067ffffffffffffffff821115613d1257613d116134cc565b5b613d1b82613397565b9050602081019050919050565b6000613d3b613d3684613cf7565b61352c565b905082815260208101848484011115613d5757613d566134c7565b5b613d62848285613578565b509392505050565b600082601f830112613d7f57613d7e6134c2565b5b8135613d8f848260208601613d28565b91505092915050565b60008060008060808587031215613db257613db1613283565b5b6000613dc087828801613694565b9450506020613dd187828801613694565b9350506040613de287828801613424565b925050606085013567ffffffffffffffff811115613e0357613e02613288565b5b613e0f87828801613d6a565b91505092959194509250565b600080600060608486031215613e3457613e33613283565b5b6000613e4286828701613424565b935050602084013567ffffffffffffffff811115613e6357613e62613288565b5b613e6f868287016135c9565b925050604084013567ffffffffffffffff811115613e9057613e8f613288565b5b613e9c86828701613912565b9150509250925092565b60008060408385031215613ebd57613ebc613283565b5b6000613ecb85828601613694565b9250506020613edc85828601613694565b9150509250929050565b7f4e487b7100000000000000000000000000000000000000000000000000000000600052602260045260246000fd5b60006002820490506001821680613f2d57607f821691505b60208210811415613f4157613f40613ee6565b5b50919050565b7f4552433732313a20617070726f76656420717565727920666f72206e6f6e657860008201527f697374656e7420746f6b656e0000000000000000000000000000000000000000602082015250565b6000613fa3602c83613353565b9150613fae82613f47565b604082019050919050565b60006020820190508181036000830152613fd281613f96565b9050919050565b7f4552433732313a20617070726f76616c20746f2063757272656e74206f776e6560008201527f7200000000000000000000000000000000000000000000000000000000000000602082015250565b6000614035602183613353565b915061404082613fd9565b604082019050919050565b6000602082019050818103600083015261406481614028565b9050919050565b7f4552433732313a20617070726f76652063616c6c6572206973206e6f74206f7760008201527f6e6572206e6f7220617070726f76656420666f7220616c6c0000000000000000602082015250565b60006140c7603883613353565b91506140d28261406b565b604082019050919050565b600060208201905081810360008301526140f6816140ba565b9050919050565b7f4552433732313a207472616e736665722063616c6c6572206973206e6f74206f60008201527f776e6572206e6f7220617070726f766564000000000000000000000000000000602082015250565b6000614159603183613353565b9150614164826140fd565b604082019050919050565b600060208201905081810360008301526141888161414c565b9050919050565b7f455243373231456e756d657261626c653a206f776e657220696e646578206f7560008201527f74206f6620626f756e6473000000000000000000000000000000000000000000602082015250565b60006141eb602b83613353565b91506141f68261418f565b604082019050919050565b6000602082019050818103600083015261421a816141de565b9050919050565b7f416363657373436f6e74726f6c3a2063616e206f6e6c792072656e6f756e636560008201527f20726f6c657320666f722073656c660000000000000000000000000000000000602082015250565b600061427d602f83613353565b915061428882614221565b604082019050919050565b600060208201905081810360008301526142ac81614270565b9050919050565b7f4e487b7100000000000000000000000000000000000000000000000000000000600052603260045260246000fd5b7f4e487b7100000000000000000000000000000000000000000000000000000000600052601160045260246000fd5b600061431c82613403565b91507fffffffffffffffffffffffffffffffffffffffffffffffffffffffffffffffff82141561434f5761434e6142e2565b5b600182019050919050565b7f455243373231456e756d657261626c653a20676c6f62616c20696e646578206f60008201527f7574206f6620626f756e64730000000000000000000000000000000000000000602082015250565b60006143b6602c83613353565b91506143c18261435a565b604082019050919050565b600060208201905081810360008301526143e5816143a9565b9050919050565b600081905092915050565b600061440282613348565b61440c81856143ec565b935061441c818560208601613364565b80840191505092915050565b600061443482846143f7565b915081905092915050565b7f6865726f00000000000000000000000000000000000000000000000000000000600082015250565b60006144756004836143ec565b91506144808261443f565b600482019050919050565b600061449682614468565b9150819050919050565b60006040820190506144b56000830185613653565b6144c26020830184613653565b9392505050565b7f4552433732313a206f776e657220717565727920666f72206e6f6e657869737460008201527f656e7420746f6b656e0000000000000000000000000000000000000000000000602082015250565b6000614525602983613353565b9150614530826144c9565b604082019050919050565b6000602082019050818103600083015261455481614518565b9050919050565b7f4552433732313a2062616c616e636520717565727920666f7220746865207a6560008201527f726f206164647265737300000000000000000000000000000000000000000000602082015250565b60006145b7602a83613353565b91506145c28261455b565b604082019050919050565b600060208201905081810360008301526145e6816145aa565b9050919050565b60006145f882613403565b915061460383613403565b925082821015614616576146156142e2565b5b828203905092915050565b600061462c82613403565b915061463783613403565b9250827fffffffffffffffffffffffffffffffffffffffffffffffffffffffffffffffff0382111561466c5761466b6142e2565b5b828201905092915050565b6000819050919050565b61469261468d82613403565b614677565b82525050565b60006146a48285614681565b6020820191506146b482846143f7565b91508190509392505050565b7f4e487b7100000000000000000000000000000000000000000000000000000000600052601260045260246000fd5b60006146fa82613403565b915061470583613403565b925082614715576147146146c0565b5b828206905092915050565b6000604082019050818103600083015261473a81856133a8565b9050818103602083015261474e8184613a58565b90509392505050565b7f4552433732314d657461646174613a2055524920717565727920666f72206e6f60008201527f6e6578697374656e7420746f6b656e0000000000000000000000000000000000602082015250565b60006147b3602f83613353565b91506147be82614757565b604082019050919050565b600060208201905081810360008301526147e2816147a6565b9050919050565b60008190508160005260206000209050919050565b6000815461480b81613f15565b61481581866143ec565b94506001821660008114614830576001811461484157614874565b60ff19831686528186019350614874565b61484a856147e9565b60005b8381101561486c5781548189015260018201915060208101905061484d565b838801955050505b50505092915050565b7f2d00000000000000000000000000000000000000000000000000000000000000600082015250565b60006148b36001836143ec565b91506148be8261487d565b600182019050919050565b60006148d582866147fe565b91506148e182856143f7565b91506148ec826148a6565b91506148f882846143f7565b9150819050949350505050565b6000604082019050818103600083015261491f81856133a8565b905061492e6020830184613653565b9392505050565b7f4552433732313a206f70657261746f7220717565727920666f72206e6f6e657860008201527f697374656e7420746f6b656e0000000000000000000000000000000000000000602082015250565b6000614991602c83613353565b915061499c82614935565b604082019050919050565b600060208201905081810360008301526149c081614984565b9050919050565b7f4552433732313a207472616e736665722066726f6d20696e636f72726563742060008201527f6f776e6572000000000000000000000000000000000000000000000000000000602082015250565b6000614a23602583613353565b9150614a2e826149c7565b604082019050919050565b60006020820190508181036000830152614a5281614a16565b9050919050565b7f4552433732313a207472616e7366657220746f20746865207a65726f2061646460008201527f7265737300000000000000000000000000000000000000000000000000000000602082015250565b6000614ab5602483613353565b9150614ac082614a59565b604082019050919050565b60006020820190508181036000830152614ae481614aa8565b9050919050565b7f4552433732313a20617070726f766520746f2063616c6c657200000000000000600082015250565b6000614b21601983613353565b9150614b2c82614aeb565b602082019050919050565b60006020820190508181036000830152614b5081614b14565b9050919050565b7f4552433732313a207472616e7366657220746f206e6f6e20455243373231526560008201527f63656976657220696d706c656d656e7465720000000000000000000000000000602082015250565b6000614bb3603283613353565b9150614bbe82614b57565b604082019050919050565b60006020820190508181036000830152614be281614ba6565b9050919050565b6000614bf482613403565b9150614bff83613403565b925082614c0f57614c0e6146c0565b5b828204905092915050565b7f416363657373436f6e74726f6c3a206163636f756e7420000000000000000000600082015250565b6000614c506017836143ec565b9150614c5b82614c1a565b601782019050919050565b7f206973206d697373696e6720726f6c6520000000000000000000000000000000600082015250565b6000614c9c6011836143ec565b9150614ca782614c66565b601182019050919050565b6000614cbd82614c43565b9150614cc982856143f7565b9150614cd482614c8f565b9150614ce082846143f7565b91508190509392505050565b600081519050919050565b600082825260208201905092915050565b6000614d1382614cec565b614d1d8185614cf7565b9350614d2d818560208601613364565b614d3681613397565b840191505092915050565b6000608082019050614d566000830187613498565b614d636020830186613498565b614d706040830185613653565b8181036060830152614d828184614d08565b905095945050505050565b600081519050614d9c816132b9565b92915050565b600060208284031215614db857614db7613283565b5b6000614dc684828501614d8d565b91505092915050565b7f4e487b7100000000000000000000000000000000000000000000000000000000600052603160045260246000fd5b6000614e0982613403565b9150614e1483613403565b9250817fffffffffffffffffffffffffffffffffffffffffffffffffffffffffffffffff0483118215151615614e4d57614e4c6142e2565b5b828202905092915050565b6000614e6382613403565b91506000821415614e7757614e766142e2565b5b600182039050919050565b7f537472696e67733a20686578206c656e67746820696e73756666696369656e74600082015250565b6000614eb8602083613353565b9150614ec382614e82565b602082019050919050565b60006020820190508181036000830152614ee781614eab565b9050919050565b7f4552433732313a206d696e7420746f20746865207a65726f2061646472657373600082015250565b6000614f24602083613353565b9150614f2f82614eee565b602082019050919050565b60006020820190508181036000830152614f5381614f17565b9050919050565b7f4552433732313a20746f6b656e20616c7265616479206d696e74656400000000600082015250565b6000614f90601c83613353565b9150614f9b82614f5a565b602082019050919050565b60006020820190508181036000830152614fbf81614f83565b905091905056fea264697066735822122046afae1c366f2e578bbef6438c3fe18e1eea0303b5b4abeab37caa1c1527382464736f6c634300080c0033",
  "linkReferences": {},
  "deployedLinkReferences": {}
}