{
  "_format": "hh-sol-artifact-1",
  "contractName": "CB",
  "sourceName": "contracts/token/CB.sol",
  "abi": [
    {
      "inputs": [
        {
          "internalType": "address",
          "name": "manager",
          "type": "address"
        }
      ],
      "stateMutability": "nonpayable",
      "type": "constructor"
    },
    {
      "anonymous": false,
      "inputs": [
        {
          "indexed": false,
          "internalType": "uint256",
          "name": "supply",
          "type": "uint256"
        },
        {
          "indexed": false,
          "internalType": "uint256",
          "name": "boxType",
          "type": "uint256"
        }
      ],
      "name": "AddBoxesMaxSupply",
      "type": "event"
    },
    {
      "anonymous": false,
      "inputs": [
        {
          "indexed": false,
          "internalType": "uint256",
          "name": "boxType",
          "type": "uint256"
        },
        {
          "indexed": false,
          "internalType": "address[]",
          "name": "whiteUsers",
          "type": "address[]"
        }
      ],
      "name": "AddWhiteList",
      "type": "event"
    },
    {
      "anonymous": false,
      "inputs": [
        {
          "indexed": true,
          "internalType": "address",
          "name": "owner",
          "type": "address"
        },
        {
          "indexed": true,
          "internalType": "address",
          "name": "approved",
          "type": "address"
        },
        {
          "indexed": true,
          "internalType": "uint256",
          "name": "tokenId",
          "type": "uint256"
        }
      ],
      "name": "Approval",
      "type": "event"
    },
    {
      "anonymous": false,
      "inputs": [
        {
          "indexed": true,
          "internalType": "address",
          "name": "owner",
          "type": "address"
        },
        {
          "indexed": true,
          "internalType": "address",
          "name": "operator",
          "type": "address"
        },
        {
          "indexed": false,
          "internalType": "bool",
          "name": "approved",
          "type": "bool"
        }
      ],
      "name": "ApprovalForAll",
      "type": "event"
    },
    {
      "anonymous": false,
      "inputs": [
        {
          "indexed": true,
          "internalType": "address",
          "name": "user",
          "type": "address"
        },
        {
          "indexed": false,
          "internalType": "uint256",
          "name": "amount",
          "type": "uint256"
        },
        {
          "indexed": false,
          "internalType": "uint256[]",
          "name": "cbIds",
          "type": "uint256[]"
        },
        {
          "indexed": false,
          "internalType": "uint256",
          "name": "boxType",
          "type": "uint256"
        }
      ],
      "name": "BuyBoxes",
      "type": "event"
    },
    {
      "anonymous": false,
      "inputs": [
        {
          "indexed": true,
          "internalType": "address",
          "name": "user",
          "type": "address"
        },
        {
          "indexed": false,
          "internalType": "uint256",
          "name": "amount",
          "type": "uint256"
        },
        {
          "indexed": false,
          "internalType": "uint256[]",
          "name": "cbIds",
          "type": "uint256[]"
        },
        {
          "indexed": false,
          "internalType": "uint256[]",
          "name": "boxTypes",
          "type": "uint256[]"
        }
      ],
      "name": "OpenBoxes",
      "type": "event"
    },
    {
      "anonymous": false,
      "inputs": [
        {
          "indexed": false,
          "internalType": "uint256",
          "name": "boxType",
          "type": "uint256"
        },
        {
          "indexed": false,
          "internalType": "address[]",
          "name": "whiteUsers",
          "type": "address[]"
        }
      ],
      "name": "RemoveWhiteList",
      "type": "event"
    },
    {
      "anonymous": false,
      "inputs": [
        {
          "indexed": true,
          "internalType": "bytes32",
          "name": "role",
          "type": "bytes32"
        },
        {
          "indexed": true,
          "internalType": "bytes32",
          "name": "previousAdminRole",
          "type": "bytes32"
        },
        {
          "indexed": true,
          "internalType": "bytes32",
          "name": "newAdminRole",
          "type": "bytes32"
        }
      ],
      "name": "RoleAdminChanged",
      "type": "event"
    },
    {
      "anonymous": false,
      "inputs": [
        {
          "indexed": true,
          "internalType": "bytes32",
          "name": "role",
          "type": "bytes32"
        },
        {
          "indexed": true,
          "internalType": "address",
          "name": "account",
          "type": "address"
        },
        {
          "indexed": true,
          "internalType": "address",
          "name": "sender",
          "type": "address"
        }
      ],
      "name": "RoleGranted",
      "type": "event"
    },
    {
      "anonymous": false,
      "inputs": [
        {
          "indexed": true,
          "internalType": "bytes32",
          "name": "role",
          "type": "bytes32"
        },
        {
          "indexed": true,
          "internalType": "address",
          "name": "account",
          "type": "address"
        },
        {
          "indexed": true,
          "internalType": "address",
          "name": "sender",
          "type": "address"
        }
      ],
      "name": "RoleRevoked",
      "type": "event"
    },
    {
      "anonymous": false,
      "inputs": [
        {
          "indexed": false,
          "internalType": "address",
          "name": "cnAddr",
          "type": "address"
        }
      ],
      "name": "SetAddrs",
      "type": "event"
    },
    {
      "anonymous": false,
      "inputs": [
        {
          "indexed": false,
          "internalType": "string",
          "name": "uri",
          "type": "string"
        }
      ],
      "name": "SetBaseURI",
      "type": "event"
    },
    {
      "anonymous": false,
      "inputs": [
        {
          "indexed": false,
          "internalType": "uint256",
          "name": "boxType",
          "type": "uint256"
        },
        {
          "indexed": false,
          "internalType": "uint256",
          "name": "boxTokenPrice",
          "type": "uint256"
        },
        {
          "indexed": false,
          "internalType": "address",
          "name": "tokenAddr",
          "type": "address"
        },
        {
          "indexed": false,
          "internalType": "address",
          "name": "receivingAddr",
          "type": "address"
        },
        {
          "indexed": false,
          "internalType": "uint256",
          "name": "hourlyBuylimit",
          "type": "uint256"
        },
        {
          "indexed": false,
          "internalType": "bool",
          "name": "whiteListFlag",
          "type": "bool"
        },
        {
          "indexed": false,
          "internalType": "uint256[]",
          "name": "heroProbability",
          "type": "uint256[]"
        }
      ],
      "name": "SetBoxInfo",
      "type": "event"
    },
    {
      "anonymous": false,
      "inputs": [
        {
          "indexed": true,
          "internalType": "address",
          "name": "user",
          "type": "address"
        },
        {
          "indexed": false,
          "internalType": "uint256",
          "name": "amount",
          "type": "uint256"
        },
        {
          "indexed": false,
          "internalType": "uint256[]",
          "name": "cnIds",
          "type": "uint256[]"
        }
      ],
      "name": "SpawnCns",
      "type": "event"
    },
    {
      "anonymous": false,
      "inputs": [
        {
          "indexed": true,
          "internalType": "address",
          "name": "from",
          "type": "address"
        },
        {
          "indexed": true,
          "internalType": "address",
          "name": "to",
          "type": "address"
        },
        {
          "indexed": true,
          "internalType": "uint256",
          "name": "tokenId",
          "type": "uint256"
        }
      ],
      "name": "Transfer",
      "type": "event"
    },
    {
      "inputs": [],
      "name": "DEFAULT_ADMIN_ROLE",
      "outputs": [
        {
          "internalType": "bytes32",
          "name": "",
          "type": "bytes32"
        }
      ],
      "stateMutability": "view",
      "type": "function"
    },
    {
      "inputs": [],
      "name": "MANAGER_ROLE",
      "outputs": [
        {
          "internalType": "bytes32",
          "name": "",
          "type": "bytes32"
        }
      ],
      "stateMutability": "view",
      "type": "function"
    },
    {
      "inputs": [
        {
          "internalType": "uint256",
          "name": "supply",
          "type": "uint256"
        },
        {
          "internalType": "uint256",
          "name": "boxType",
          "type": "uint256"
        }
      ],
      "name": "addBoxesMaxSupply",
      "outputs": [],
      "stateMutability": "nonpayable",
      "type": "function"
    },
    {
      "inputs": [
        {
          "internalType": "uint256",
          "name": "boxType",
          "type": "uint256"
        },
        {
          "internalType": "address[]",
          "name": "whiteUsers",
          "type": "address[]"
        }
      ],
      "name": "addWhiteList",
      "outputs": [],
      "stateMutability": "nonpayable",
      "type": "function"
    },
    {
      "inputs": [
        {
          "internalType": "address",
          "name": "to",
          "type": "address"
        },
        {
          "internalType": "uint256",
          "name": "tokenId",
          "type": "uint256"
        }
      ],
      "name": "approve",
      "outputs": [],
      "stateMutability": "nonpayable",
      "type": "function"
    },
    {
      "inputs": [
        {
          "internalType": "address",
          "name": "owner",
          "type": "address"
        }
      ],
      "name": "balanceOf",
      "outputs": [
        {
          "internalType": "uint256",
          "name": "",
          "type": "uint256"
        }
      ],
      "stateMutability": "view",
      "type": "function"
    },
    {
      "inputs": [],
      "name": "baseURI",
      "outputs": [
        {
          "internalType": "string",
          "name": "",
          "type": "string"
        }
      ],
      "stateMutability": "view",
      "type": "function"
    },
    {
      "inputs": [
        {
          "internalType": "uint256",
          "name": "",
          "type": "uint256"
        }
      ],
      "name": "boxTokenPrices",
      "outputs": [
        {
          "internalType": "uint256",
          "name": "",
          "type": "uint256"
        }
      ],
      "stateMutability": "view",
      "type": "function"
    },
    {
      "inputs": [
        {
          "internalType": "uint256",
          "name": "",
          "type": "uint256"
        }
      ],
      "name": "boxesMaxSupply",
      "outputs": [
        {
          "internalType": "uint256",
          "name": "",
          "type": "uint256"
        }
      ],
      "stateMutability": "view",
      "type": "function"
    },
    {
      "inputs": [
        {
          "internalType": "uint256",
          "name": "amount",
          "type": "uint256"
        },
        {
          "internalType": "uint256",
          "name": "boxType",
          "type": "uint256"
        }
      ],
      "name": "buyBoxes",
      "outputs": [],
      "stateMutability": "payable",
      "type": "function"
    },
    {
      "inputs": [
        {
          "internalType": "uint256",
          "name": "",
          "type": "uint256"
        }
      ],
      "name": "cbIdToType",
      "outputs": [
        {
          "internalType": "uint256",
          "name": "",
          "type": "uint256"
        }
      ],
      "stateMutability": "view",
      "type": "function"
    },
    {
      "inputs": [],
      "name": "cn",
      "outputs": [
        {
          "internalType": "contract ICN",
          "name": "",
          "type": "address"
        }
      ],
      "stateMutability": "view",
      "type": "function"
    },
    {
      "inputs": [
        {
          "internalType": "bytes32",
          "name": "_reqId",
          "type": "bytes32"
        },
        {
          "internalType": "uint256",
          "name": "oraichainRandomness",
          "type": "uint256"
        }
      ],
      "name": "fulfillRandomness",
      "outputs": [],
      "stateMutability": "nonpayable",
      "type": "function"
    },
    {
      "inputs": [
        {
          "internalType": "uint256",
          "name": "tokenId",
          "type": "uint256"
        }
      ],
      "name": "getApproved",
      "outputs": [
        {
          "internalType": "address",
          "name": "",
          "type": "address"
        }
      ],
      "stateMutability": "view",
      "type": "function"
    },
    {
      "inputs": [
        {
          "internalType": "uint256",
          "name": "boxType",
          "type": "uint256"
        }
      ],
      "name": "getBoxesLeftSupply",
      "outputs": [
        {
          "internalType": "uint256",
          "name": "",
          "type": "uint256"
        }
      ],
      "stateMutability": "view",
      "type": "function"
    },
    {
      "inputs": [
        {
          "internalType": "uint256[]",
          "name": "array",
          "type": "uint256[]"
        },
        {
          "internalType": "uint256",
          "name": "_random",
          "type": "uint256"
        }
      ],
      "name": "getLevel",
      "outputs": [
        {
          "internalType": "uint256",
          "name": "",
          "type": "uint256"
        }
      ],
      "stateMutability": "pure",
      "type": "function"
    },
    {
      "inputs": [
        {
          "internalType": "bytes32",
          "name": "role",
          "type": "bytes32"
        }
      ],
      "name": "getRoleAdmin",
      "outputs": [
        {
          "internalType": "bytes32",
          "name": "",
          "type": "bytes32"
        }
      ],
      "stateMutability": "view",
      "type": "function"
    },
    {
      "inputs": [
        {
          "internalType": "bytes32",
          "name": "role",
          "type": "bytes32"
        },
        {
          "internalType": "uint256",
          "name": "index",
          "type": "uint256"
        }
      ],
      "name": "getRoleMember",
      "outputs": [
        {
          "internalType": "address",
          "name": "",
          "type": "address"
        }
      ],
      "stateMutability": "view",
      "type": "function"
    },
    {
      "inputs": [
        {
          "internalType": "bytes32",
          "name": "role",
          "type": "bytes32"
        }
      ],
      "name": "getRoleMemberCount",
      "outputs": [
        {
          "internalType": "uint256",
          "name": "",
          "type": "uint256"
        }
      ],
      "stateMutability": "view",
      "type": "function"
    },
    {
      "inputs": [
        {
          "internalType": "uint256",
          "name": "boxType",
          "type": "uint256"
        },
        {
          "internalType": "address",
          "name": "user",
          "type": "address"
        },
        {
          "internalType": "uint256",
          "name": "timestamp",
          "type": "uint256"
        }
      ],
      "name": "getUserHourlyBoxesLeftSupply",
      "outputs": [
        {
          "internalType": "uint256",
          "name": "",
          "type": "uint256"
        }
      ],
      "stateMutability": "view",
      "type": "function"
    },
    {
      "inputs": [
        {
          "internalType": "uint256",
          "name": "boxType",
          "type": "uint256"
        },
        {
          "internalType": "address",
          "name": "user",
          "type": "address"
        }
      ],
      "name": "getWhiteListExistence",
      "outputs": [
        {
          "internalType": "bool",
          "name": "",
          "type": "bool"
        }
      ],
      "stateMutability": "view",
      "type": "function"
    },
    {
      "inputs": [
        {
          "internalType": "bytes32",
          "name": "role",
          "type": "bytes32"
        },
        {
          "internalType": "address",
          "name": "account",
          "type": "address"
        }
      ],
      "name": "grantRole",
      "outputs": [],
      "stateMutability": "nonpayable",
      "type": "function"
    },
    {
      "inputs": [
        {
          "internalType": "bytes32",
          "name": "role",
          "type": "bytes32"
        },
        {
          "internalType": "address",
          "name": "account",
          "type": "address"
        }
      ],
      "name": "hasRole",
      "outputs": [
        {
          "internalType": "bool",
          "name": "",
          "type": "bool"
        }
      ],
      "stateMutability": "view",
      "type": "function"
    },
    {
      "inputs": [
        {
          "internalType": "uint256",
          "name": "",
          "type": "uint256"
        },
        {
          "internalType": "uint256",
          "name": "",
          "type": "uint256"
        }
      ],
      "name": "heroProbabilities",
      "outputs": [
        {
          "internalType": "uint256",
          "name": "",
          "type": "uint256"
        }
      ],
      "stateMutability": "view",
      "type": "function"
    },
    {
      "inputs": [
        {
          "internalType": "uint256",
          "name": "",
          "type": "uint256"
        }
      ],
      "name": "hourlyBuyLimits",
      "outputs": [
        {
          "internalType": "uint256",
          "name": "",
          "type": "uint256"
        }
      ],
      "stateMutability": "view",
      "type": "function"
    },
    {
      "inputs": [
        {
          "internalType": "address",
          "name": "owner",
          "type": "address"
        },
        {
          "internalType": "address",
          "name": "operator",
          "type": "address"
        }
      ],
      "name": "isApprovedForAll",
      "outputs": [
        {
          "internalType": "bool",
          "name": "",
          "type": "bool"
        }
      ],
      "stateMutability": "view",
      "type": "function"
    },
    {
      "inputs": [],
      "name": "name",
      "outputs": [
        {
          "internalType": "string",
          "name": "",
          "type": "string"
        }
      ],
      "stateMutability": "view",
      "type": "function"
    },
    {
      "inputs": [
        {
          "internalType": "uint256[]",
          "name": "cbIds",
          "type": "uint256[]"
        }
      ],
      "name": "openBoxes",
      "outputs": [],
      "stateMutability": "nonpayable",
      "type": "function"
    },
    {
      "inputs": [],
      "name": "oracle",
      "outputs": [
        {
          "internalType": "address",
          "name": "",
          "type": "address"
        }
      ],
      "stateMutability": "view",
      "type": "function"
    },
    {
      "inputs": [
        {
          "internalType": "uint256",
          "name": "tokenId",
          "type": "uint256"
        }
      ],
      "name": "ownerOf",
      "outputs": [
        {
          "internalType": "address",
          "name": "",
          "type": "address"
        }
      ],
      "stateMutability": "view",
      "type": "function"
    },
    {
      "inputs": [
        {
          "internalType": "uint256",
          "name": "_oraiNumber",
          "type": "uint256"
        },
        {
          "internalType": "uint256",
          "name": "_weight",
          "type": "uint256"
        }
      ],
      "name": "random",
      "outputs": [
        {
          "internalType": "uint256",
          "name": "",
          "type": "uint256"
        }
      ],
      "stateMutability": "view",
      "type": "function"
    },
    {
      "inputs": [
        {
          "internalType": "uint256",
          "name": "",
          "type": "uint256"
        }
      ],
      "name": "receivingAddrs",
      "outputs": [
        {
          "internalType": "address",
          "name": "",
          "type": "address"
        }
      ],
      "stateMutability": "view",
      "type": "function"
    },
    {
      "inputs": [
        {
          "internalType": "uint256",
          "name": "boxType",
          "type": "uint256"
        },
        {
          "internalType": "address[]",
          "name": "whiteUsers",
          "type": "address[]"
        }
      ],
      "name": "removeWhiteList",
      "outputs": [],
      "stateMutability": "nonpayable",
      "type": "function"
    },
    {
      "inputs": [
        {
          "internalType": "bytes32",
          "name": "role",
          "type": "bytes32"
        },
        {
          "internalType": "address",
          "name": "account",
          "type": "address"
        }
      ],
      "name": "renounceRole",
      "outputs": [],
      "stateMutability": "nonpayable",
      "type": "function"
    },
    {
      "inputs": [
        {
          "internalType": "bytes32",
          "name": "",
          "type": "bytes32"
        },
        {
          "internalType": "uint256",
          "name": "",
          "type": "uint256"
        }
      ],
      "name": "reqIdToTypes",
      "outputs": [
        {
          "internalType": "uint256",
          "name": "",
          "type": "uint256"
        }
      ],
      "stateMutability": "view",
      "type": "function"
    },
    {
      "inputs": [
        {
          "internalType": "bytes32",
          "name": "",
          "type": "bytes32"
        }
      ],
      "name": "reqIdToUser",
      "outputs": [
        {
          "internalType": "address",
          "name": "",
          "type": "address"
        }
      ],
      "stateMutability": "view",
      "type": "function"
    },
    {
      "inputs": [
        {
          "internalType": "bytes32",
          "name": "role",
          "type": "bytes32"
        },
        {
          "internalType": "address",
          "name": "account",
          "type": "address"
        }
      ],
      "name": "revokeRole",
      "outputs": [],
      "stateMutability": "nonpayable",
      "type": "function"
    },
    {
      "inputs": [
        {
          "internalType": "address",
          "name": "from",
          "type": "address"
        },
        {
          "internalType": "address",
          "name": "to",
          "type": "address"
        },
        {
          "internalType": "uint256",
          "name": "tokenId",
          "type": "uint256"
        }
      ],
      "name": "safeTransferFrom",
      "outputs": [],
      "stateMutability": "nonpayable",
      "type": "function"
    },
    {
      "inputs": [
        {
          "internalType": "address",
          "name": "from",
          "type": "address"
        },
        {
          "internalType": "address",
          "name": "to",
          "type": "address"
        },
        {
          "internalType": "uint256",
          "name": "tokenId",
          "type": "uint256"
        },
        {
          "internalType": "bytes",
          "name": "_data",
          "type": "bytes"
        }
      ],
      "name": "safeTransferFrom",
      "outputs": [],
      "stateMutability": "nonpayable",
      "type": "function"
    },
    {
      "inputs": [
        {
          "internalType": "address",
          "name": "from",
          "type": "address"
        },
        {
          "internalType": "address",
          "name": "to",
          "type": "address"
        },
        {
          "internalType": "uint256[]",
          "name": "tokenIds",
          "type": "uint256[]"
        }
      ],
      "name": "safeTransferFromBatch",
      "outputs": [],
      "stateMutability": "nonpayable",
      "type": "function"
    },
    {
      "inputs": [
        {
          "internalType": "address",
          "name": "cnAddr",
          "type": "address"
        }
      ],
      "name": "setAddrs",
      "outputs": [],
      "stateMutability": "nonpayable",
      "type": "function"
    },
    {
      "inputs": [
        {
          "internalType": "address",
          "name": "operator",
          "type": "address"
        },
        {
          "internalType": "bool",
          "name": "approved",
          "type": "bool"
        }
      ],
      "name": "setApprovalForAll",
      "outputs": [],
      "stateMutability": "nonpayable",
      "type": "function"
    },
    {
      "inputs": [
        {
          "internalType": "string",
          "name": "uri",
          "type": "string"
        }
      ],
      "name": "setBaseURI",
      "outputs": [],
      "stateMutability": "nonpayable",
      "type": "function"
    },
    {
      "inputs": [
        {
          "internalType": "uint256",
          "name": "boxType",
          "type": "uint256"
        },
        {
          "internalType": "uint256",
          "name": "boxTokenPrice",
          "type": "uint256"
        },
        {
          "internalType": "address",
          "name": "tokenAddr",
          "type": "address"
        },
        {
          "internalType": "address",
          "name": "receivingAddr",
          "type": "address"
        },
        {
          "internalType": "uint256",
          "name": "hourlyBuyLimit",
          "type": "uint256"
        },
        {
          "internalType": "bool",
          "name": "whiteListFlag",
          "type": "bool"
        },
        {
          "internalType": "uint256[]",
          "name": "heroProbability",
          "type": "uint256[]"
        }
      ],
      "name": "setBoxInfo",
      "outputs": [],
      "stateMutability": "nonpayable",
      "type": "function"
    },
    {
      "inputs": [
        {
          "internalType": "bytes4",
          "name": "interfaceId",
          "type": "bytes4"
        }
      ],
      "name": "supportsInterface",
      "outputs": [
        {
          "internalType": "bool",
          "name": "",
          "type": "bool"
        }
      ],
      "stateMutability": "view",
      "type": "function"
    },
    {
      "inputs": [],
      "name": "symbol",
      "outputs": [
        {
          "internalType": "string",
          "name": "",
          "type": "string"
        }
      ],
      "stateMutability": "view",
      "type": "function"
    },
    {
      "inputs": [
        {
          "internalType": "uint256",
          "name": "",
          "type": "uint256"
        }
      ],
      "name": "tokenAddrs",
      "outputs": [
        {
          "internalType": "address",
          "name": "",
          "type": "address"
        }
      ],
      "stateMutability": "view",
      "type": "function"
    },
    {
      "inputs": [
        {
          "internalType": "uint256",
          "name": "index",
          "type": "uint256"
        }
      ],
      "name": "tokenByIndex",
      "outputs": [
        {
          "internalType": "uint256",
          "name": "",
          "type": "uint256"
        }
      ],
      "stateMutability": "view",
      "type": "function"
    },
    {
      "inputs": [
        {
          "internalType": "address",
          "name": "owner",
          "type": "address"
        },
        {
          "internalType": "uint256",
          "name": "index",
          "type": "uint256"
        }
      ],
      "name": "tokenOfOwnerByIndex",
      "outputs": [
        {
          "internalType": "uint256",
          "name": "",
          "type": "uint256"
        }
      ],
      "stateMutability": "view",
      "type": "function"
    },
    {
      "inputs": [
        {
          "internalType": "uint256",
          "name": "tokenId",
          "type": "uint256"
        }
      ],
      "name": "tokenURI",
      "outputs": [
        {
          "internalType": "string",
          "name": "",
          "type": "string"
        }
      ],
      "stateMutability": "view",
      "type": "function"
    },
    {
      "inputs": [
        {
          "internalType": "address",
          "name": "user",
          "type": "address"
        },
        {
          "internalType": "uint256",
          "name": "cursor",
          "type": "uint256"
        },
        {
          "internalType": "uint256",
          "name": "size",
          "type": "uint256"
        }
      ],
      "name": "tokensOfOwnerBySize",
      "outputs": [
        {
          "internalType": "uint256[]",
          "name": "",
          "type": "uint256[]"
        },
        {
          "internalType": "uint256",
          "name": "",
          "type": "uint256"
        }
      ],
      "stateMutability": "view",
      "type": "function"
    },
    {
      "inputs": [
        {
          "internalType": "uint256",
          "name": "",
          "type": "uint256"
        }
      ],
      "name": "totalBoxesLength",
      "outputs": [
        {
          "internalType": "uint256",
          "name": "",
          "type": "uint256"
        }
      ],
      "stateMutability": "view",
      "type": "function"
    },
    {
      "inputs": [],
      "name": "totalSupply",
      "outputs": [
        {
          "internalType": "uint256",
          "name": "",
          "type": "uint256"
        }
      ],
      "stateMutability": "view",
      "type": "function"
    },
    {
      "inputs": [
        {
          "internalType": "address",
          "name": "from",
          "type": "address"
        },
        {
          "internalType": "address",
          "name": "to",
          "type": "address"
        },
        {
          "internalType": "uint256",
          "name": "tokenId",
          "type": "uint256"
        }
      ],
      "name": "transferFrom",
      "outputs": [],
      "stateMutability": "nonpayable",
      "type": "function"
    },
    {
      "inputs": [
        {
          "internalType": "address",
          "name": "",
          "type": "address"
        },
        {
          "internalType": "uint256",
          "name": "",
          "type": "uint256"
        },
        {
          "internalType": "uint256",
          "name": "",
          "type": "uint256"
        }
      ],
      "name": "userHourlyBoxesLength",
      "outputs": [
        {
          "internalType": "uint256",
          "name": "",
          "type": "uint256"
        }
      ],
      "stateMutability": "view",
      "type": "function"
    },
    {
      "inputs": [
        {
          "internalType": "uint256",
          "name": "",
          "type": "uint256"
        }
      ],
      "name": "whiteListFlags",
      "outputs": [
        {
          "internalType": "bool",
          "name": "",
          "type": "bool"
        }
      ],
      "stateMutability": "view",
      "type": "function"
    }
  ],
  "bytecode": "0x6080604052736b5866f4b9832bff3d8ad81b1151a37393f6b7d5600d60006101000a81548173ffffffffffffffffffffffffffffffffffffffff021916908373ffffffffffffffffffffffffffffffffffffffff1602179055503480156200006657600080fd5b5060405162007e3038038062007e3083398181016040528101906200008c919062000534565b6040518060400160405280600e81526020017f4379626572204765617220426f780000000000000000000000000000000000008152506040518060400160405280600281526020017f43420000000000000000000000000000000000000000000000000000000000008152508160009080519060200190620001109291906200041a565b508060019080519060200190620001299291906200041a565b5050506001600c81905550620001496000801b336200018260201b60201c565b6200017b7f241ecf16d79d0f8dbfb92cbc07fe17840425976cf0667f022fe9877caa831b08826200018260201b60201c565b50620005cb565b6200019482826200019860201b60201c565b5050565b620001af8282620001e060201b620030cf1760201c565b620001db81600b6000858152602001908152602001600020620002d260201b620031b01790919060201c565b505050565b620001f282826200030a60201b60201c565b620002ce576001600a600084815260200190815260200160002060000160008373ffffffffffffffffffffffffffffffffffffffff1673ffffffffffffffffffffffffffffffffffffffff16815260200190815260200160002060006101000a81548160ff021916908315150217905550620002736200037560201b60201c565b73ffffffffffffffffffffffffffffffffffffffff168173ffffffffffffffffffffffffffffffffffffffff16837f2f8788117e7eff1d82e926ec794901d17c78024a50270940304540a733656f0d60405160405180910390a45b5050565b600062000302836000018373ffffffffffffffffffffffffffffffffffffffff1660001b6200037d60201b60201c565b905092915050565b6000600a600084815260200190815260200160002060000160008373ffffffffffffffffffffffffffffffffffffffff1673ffffffffffffffffffffffffffffffffffffffff16815260200190815260200160002060009054906101000a900460ff16905092915050565b600033905090565b6000620003918383620003f760201b60201c565b620003ec578260000182908060018154018082558091505060019003906000526020600020016000909190919091505582600001805490508360010160008481526020019081526020016000208190555060019050620003f1565b600090505b92915050565b600080836001016000848152602001908152602001600020541415905092915050565b828054620004289062000595565b90600052602060002090601f0160209004810192826200044c576000855562000498565b82601f106200046757805160ff191683800117855562000498565b8280016001018555821562000498579182015b82811115620004975782518255916020019190600101906200047a565b5b509050620004a79190620004ab565b5090565b5b80821115620004c6576000816000905550600101620004ac565b5090565b600080fd5b600073ffffffffffffffffffffffffffffffffffffffff82169050919050565b6000620004fc82620004cf565b9050919050565b6200050e81620004ef565b81146200051a57600080fd5b50565b6000815190506200052e8162000503565b92915050565b6000602082840312156200054d576200054c620004ca565b5b60006200055d848285016200051d565b91505092915050565b7f4e487b7100000000000000000000000000000000000000000000000000000000600052602260045260246000fd5b60006002820490506001821680620005ae57607f821691505b60208210811415620005c557620005c462000566565b5b50919050565b61785580620005db6000396000f3fe60806040526004361061036b5760003560e01c80636b4a850d116101c6578063a54085e6116100f7578063c87b56dd11610095578063e985e9c51161006f578063e985e9c514610de2578063ec87621c14610e1f578063ecc010db14610e4a578063ed6f7c1314610e875761036b565b8063c87b56dd14610d3f578063ca15c87314610d7c578063d547741f14610db95761036b565b8063ade64c59116100d1578063ade64c5914610c73578063b0d179a514610cb0578063b88d4fde14610cd9578063be2de8f214610d025761036b565b8063a54085e614610bbc578063a72f3bd414610bf9578063a9dd122514610c365761036b565b80639010d07c1161016457806395d89b411161013e57806395d89b4114610b12578063a217fddf14610b3d578063a22cb46514610b68578063a3a79ad714610b915761036b565b80639010d07c14610a5b578063915044ec14610a9857806391d1485414610ad55761036b565b80637dc0d1d0116101a05780637dc0d1d0146109ad578063854ec1af146109d857806388de44bc14610a165780638a6a686714610a325761036b565b80636b4a850d146109085780636c0360eb1461094557806370a08231146109705761036b565b806327f0c2d1116102a057806342842e0e1161023e5780634d37d731116102185780634d37d731146108285780634f6ccce71461086557806355f804b3146108a25780636352211e146108cb5761036b565b806342842e0e146107855780634b056743146107ae5780634baeba27146107eb5761036b565b806336568abe1161027a57806336568abe146106cd57806338aa3815146106f65780633e52d5c61461071f5780633f7bab01146107485761036b565b806327f0c2d11461062a5780632f2ff15d146106675780632f745c59146106905761036b565b80631bbbced71161030d5780631f1f897f116102e75780631f1f897f1461055e57806321174d8c1461058757806323b872dd146105c4578063248a9ca3146105ed5761036b565b80631bbbced7146104bb5780631c42920c146104e45780631e9eca4b146105215761036b565b806306fdde031161034957806306fdde03146103ff578063081812fc1461042a578063095ea7b31461046757806318160ddd146104905761036b565b806301ffc9a71461037057806304a82e6f146103ad57806305b1e3be146103d6575b600080fd5b34801561037c57600080fd5b5061039760048036038101906103929190614f40565b610ec4565b6040516103a49190614f88565b60405180910390f35b3480156103b957600080fd5b506103d460048036038101906103cf91906151bc565b610ed6565b005b3480156103e257600080fd5b506103fd60048036038101906103f8919061533d565b611074565b005b34801561040b57600080fd5b5061041461113c565b6040516104219190615421565b60405180910390f35b34801561043657600080fd5b50610451600480360381019061044c9190615443565b6111ce565b60405161045e919061547f565b60405180910390f35b34801561047357600080fd5b5061048e6004803603810190610489919061549a565b611253565b005b34801561049c57600080fd5b506104a561136b565b6040516104b291906154e9565b60405180910390f35b3480156104c757600080fd5b506104e260048036038101906104dd919061533d565b611378565b005b3480156104f057600080fd5b5061050b60048036038101906105069190615443565b611440565b60405161051891906154e9565b60405180910390f35b34801561052d57600080fd5b5061054860048036038101906105439190615443565b611458565b604051610555919061547f565b60405180910390f35b34801561056a57600080fd5b506105856004803603810190610580919061553a565b61148b565b005b34801561059357600080fd5b506105ae60048036038101906105a9919061557a565b6117c6565b6040516105bb919061547f565b60405180910390f35b3480156105d057600080fd5b506105eb60048036038101906105e691906155a7565b6117f9565b005b3480156105f957600080fd5b50610614600480360381019061060f919061557a565b611859565b6040516106219190615609565b60405180910390f35b34801561063657600080fd5b50610651600480360381019061064c9190615624565b611879565b60405161065e91906154e9565b60405180910390f35b34801561067357600080fd5b5061068e60048036038101906106899190615677565b6118ab565b005b34801561069c57600080fd5b506106b760048036038101906106b2919061549a565b6118cc565b6040516106c491906154e9565b60405180910390f35b3480156106d957600080fd5b506106f460048036038101906106ef9190615677565b611971565b005b34801561070257600080fd5b5061071d600480360381019061071891906156b7565b6119f4565b005b34801561072b57600080fd5b5061074660048036038101906107419190615726565b611a3e565b005b34801561075457600080fd5b5061076f600480360381019061076a9190615443565b611e29565b60405161077c91906154e9565b60405180910390f35b34801561079157600080fd5b506107ac60048036038101906107a791906155a7565b611e64565b005b3480156107ba57600080fd5b506107d560048036038101906107d09190615443565b611e84565b6040516107e291906154e9565b60405180910390f35b3480156107f757600080fd5b50610812600480360381019061080d919061576f565b611e9c565b60405161081f9190614f88565b60405180910390f35b34801561083457600080fd5b5061084f600480360381019061084a9190615443565b611ecb565b60405161085c91906154e9565b60405180910390f35b34801561087157600080fd5b5061088c60048036038101906108879190615443565b611ee3565b60405161089991906154e9565b60405180910390f35b3480156108ae57600080fd5b506108c960048036038101906108c49190615864565b611f54565b005b3480156108d757600080fd5b506108f260048036038101906108ed9190615443565b611fd0565b6040516108ff919061547f565b60405180910390f35b34801561091457600080fd5b5061092f600480360381019061092a91906158ad565b612082565b60405161093c91906154e9565b60405180910390f35b34801561095157600080fd5b5061095a6120f9565b6040516109679190615421565b60405180910390f35b34801561097c57600080fd5b5061099760048036038101906109929190615909565b612187565b6040516109a491906154e9565b60405180910390f35b3480156109b957600080fd5b506109c261223f565b6040516109cf919061547f565b60405180910390f35b3480156109e457600080fd5b506109ff60048036038101906109fa9190615624565b612265565b604051610a0d9291906159f4565b60405180910390f35b610a306004803603810190610a2b9190615a24565b61235a565b005b348015610a3e57600080fd5b50610a596004803603810190610a549190615a24565b612a3e565b005b348015610a6757600080fd5b50610a826004803603810190610a7d919061553a565b612ad0565b604051610a8f919061547f565b60405180910390f35b348015610aa457600080fd5b50610abf6004803603810190610aba9190615443565b612aff565b604051610acc919061547f565b60405180910390f35b348015610ae157600080fd5b50610afc6004803603810190610af79190615677565b612b32565b604051610b099190614f88565b60405180910390f35b348015610b1e57600080fd5b50610b27612b9d565b604051610b349190615421565b60405180910390f35b348015610b4957600080fd5b50610b52612c2f565b604051610b5f9190615609565b60405180910390f35b348015610b7457600080fd5b50610b8f6004803603810190610b8a9190615a64565b612c36565b005b348015610b9d57600080fd5b50610ba6612c4c565b604051610bb39190615b03565b60405180910390f35b348015610bc857600080fd5b50610be36004803603810190610bde9190615443565b612c72565b604051610bf091906154e9565b60405180910390f35b348015610c0557600080fd5b50610c206004803603810190610c1b9190615443565b612c8a565b604051610c2d91906154e9565b60405180910390f35b348015610c4257600080fd5b50610c5d6004803603810190610c589190615a24565b612ca2565b604051610c6a91906154e9565b60405180910390f35b348015610c7f57600080fd5b50610c9a6004803603810190610c95919061553a565b612ceb565b604051610ca791906154e9565b60405180910390f35b348015610cbc57600080fd5b50610cd76004803603810190610cd29190615909565b612d1c565b005b348015610ce557600080fd5b50610d006004803603810190610cfb9190615bbf565b612dc2565b005b348015610d0e57600080fd5b50610d296004803603810190610d249190615c42565b612e24565b604051610d3691906154e9565b60405180910390f35b348015610d4b57600080fd5b50610d666004803603810190610d619190615443565b612ebc565b604051610d739190615421565b60405180910390f35b348015610d8857600080fd5b50610da36004803603810190610d9e919061557a565b612f81565b604051610db091906154e9565b60405180910390f35b348015610dc557600080fd5b50610de06004803603810190610ddb9190615677565b612fa5565b005b348015610dee57600080fd5b50610e096004803603810190610e049190615c95565b612fc6565b604051610e169190614f88565b60405180910390f35b348015610e2b57600080fd5b50610e3461305a565b604051610e419190615609565b60405180910390f35b348015610e5657600080fd5b50610e716004803603810190610e6c9190615443565b61307e565b604051610e7e9190614f88565b60405180910390f35b348015610e9357600080fd5b50610eae6004803603810190610ea99190615a24565b61309e565b604051610ebb91906154e9565b60405180910390f35b6000610ecf826131e0565b9050919050565b7f241ecf16d79d0f8dbfb92cbc07fe17840425976cf0667f022fe9877caa831b08610f008161325a565b86601360008a81526020019081526020016000208190555085601460008a815260200190815260200160002060006101000a81548173ffffffffffffffffffffffffffffffffffffffff021916908373ffffffffffffffffffffffffffffffffffffffff16021790555084601560008a815260200190815260200160002060006101000a81548173ffffffffffffffffffffffffffffffffffffffff021916908373ffffffffffffffffffffffffffffffffffffffff16021790555083601660008a81526020019081526020016000208190555082601760008a815260200190815260200160002060006101000a81548160ff02191690831515021790555081601860008a81526020019081526020016000209080519060200190611026929190614de4565b507f8b78f541f499e56f67eaabda23f77a3bddf9ef5d38eaa2e1166969be9cdd83a3888888888888886040516110629796959493929190615cd5565b60405180910390a15050505050505050565b7f241ecf16d79d0f8dbfb92cbc07fe17840425976cf0667f022fe9877caa831b0861109e8161325a565b60005b82518110156110fd576110e98382815181106110c0576110bf615d4b565b5b6020026020010151601c60008781526020019081526020016000206131b090919063ffffffff16565b5080806110f590615da9565b9150506110a1565b507f65c140369b70af10d0ae5085553f8772643e41f37033fc2dd41441787eb57246838360405161112f929190615eb0565b60405180910390a1505050565b60606000805461114b90615f0f565b80601f016020809104026020016040519081016040528092919081815260200182805461117790615f0f565b80156111c45780601f10611199576101008083540402835291602001916111c4565b820191906000526020600020905b8154815290600101906020018083116111a757829003601f168201915b5050505050905090565b60006111d98261326e565b611218576040517f08c379a000000000000000000000000000000000000000000000000000000000815260040161120f90615fb3565b60405180910390fd5b6004600083815260200190815260200160002060009054906101000a900473ffffffffffffffffffffffffffffffffffffffff169050919050565b600061125e82611fd0565b90508073ffffffffffffffffffffffffffffffffffffffff168373ffffffffffffffffffffffffffffffffffffffff1614156112cf576040517f08c379a00000000000000000000000000000000000000000000000000000000081526004016112c690616045565b60405180910390fd5b8073ffffffffffffffffffffffffffffffffffffffff166112ee6132da565b73ffffffffffffffffffffffffffffffffffffffff16148061131d575061131c816113176132da565b612fc6565b5b61135c576040517f08c379a0000000000000000000000000000000000000000000000000000000008152600401611353906160d7565b60405180910390fd5b61136683836132e2565b505050565b6000600880549050905090565b7f241ecf16d79d0f8dbfb92cbc07fe17840425976cf0667f022fe9877caa831b086113a28161325a565b60005b8251811015611401576113ed8382815181106113c4576113c3615d4b565b5b6020026020010151601c600087815260200190815260200160002061339b90919063ffffffff16565b5080806113f990615da9565b9150506113a5565b507fd97b1d4cbbbdeb588e5787219a02ccd8844679b3a012e38f28a1b16cc557e8348383604051611433929190615eb0565b60405180910390a1505050565b60196020528060005260406000206000915090505481565b60156020528060005260406000206000915054906101000a900473ffffffffffffffffffffffffffffffffffffffff1681565b600d60009054906101000a900473ffffffffffffffffffffffffffffffffffffffff1673ffffffffffffffffffffffffffffffffffffffff163373ffffffffffffffffffffffffffffffffffffffff161461151b576040517f08c379a000000000000000000000000000000000000000000000000000000000815260040161151290616143565b60405180910390fd5b6000600f60008481526020019081526020016000208054905067ffffffffffffffff81111561154d5761154c615079565b5b60405190808252806020026020018201604052801561157b5781602001602082028036833780820191505090505b50905060005b815181101561173c57600061163460186000600f600089815260200190815260200160002085815481106115b8576115b7615d4b565b5b9060005260206000200154815260200190815260200160002080548060200260200160405190810160405280929190818152602001828054801561161b57602002820191906000526020600020905b815481526020019060010190808311611607575b505050505061162c86612710612ca2565b955085612082565b9050601060009054906101000a900473ffffffffffffffffffffffffffffffffffffffff1673ffffffffffffffffffffffffffffffffffffffff1663614691b282600e600089815260200190815260200160002060009054906101000a900473ffffffffffffffffffffffffffffffffffffffff166040518363ffffffff1660e01b81526004016116c6929190616163565b6020604051808303816000875af11580156116e5573d6000803e3d6000fd5b505050506040513d601f19601f8201168201806040525081019061170991906161a1565b83838151811061171c5761171b615d4b565b5b60200260200101818152505050808061173490615da9565b915050611581565b50600e600084815260200190815260200160002060009054906101000a900473ffffffffffffffffffffffffffffffffffffffff1673ffffffffffffffffffffffffffffffffffffffff167fbfa75690a552d1f04567c81a7b675e4c01e07d20b92f65819b839d96aa1e4c898251836040516117b99291906161ce565b60405180910390a2505050565b600e6020528060005260406000206000915054906101000a900473ffffffffffffffffffffffffffffffffffffffff1681565b61180a6118046132da565b826133cb565b611849576040517f08c379a000000000000000000000000000000000000000000000000000000000815260040161184090616270565b60405180910390fd5b6118548383836134a9565b505050565b6000600a6000838152602001908152602001600020600101549050919050565b601b60205282600052604060002060205281600052604060002060205280600052604060002060009250925050505481565b6118b482611859565b6118bd8161325a565b6118c78383613710565b505050565b60006118d783612187565b8210611918576040517f08c379a000000000000000000000000000000000000000000000000000000000815260040161190f90616302565b60405180910390fd5b600660008473ffffffffffffffffffffffffffffffffffffffff1673ffffffffffffffffffffffffffffffffffffffff168152602001908152602001600020600083815260200190815260200160002054905092915050565b6119796132da565b73ffffffffffffffffffffffffffffffffffffffff168173ffffffffffffffffffffffffffffffffffffffff16146119e6576040517f08c379a00000000000000000000000000000000000000000000000000000000081526004016119dd90616394565b60405180910390fd5b6119f08282613744565b5050565b60005b8151811015611a3857611a258484848481518110611a1857611a17615d4b565b5b6020026020010151611e64565b8080611a3090615da9565b9150506119f7565b50505050565b6002600c541415611a84576040517f08c379a0000000000000000000000000000000000000000000000000000000008152600401611a7b90616400565b60405180910390fd5b6002600c819055506000815111611ad0576040517f08c379a0000000000000000000000000000000000000000000000000000000008152600401611ac79061646c565b60405180910390fd5b6000815167ffffffffffffffff811115611aed57611aec615079565b5b604051908082528060200260200182016040528015611b1b5781602001602082028036833780820191505090505b50905060005b8251811015611bb15760126000848381518110611b4157611b40615d4b565b5b6020026020010151815260200190815260200160002054828281518110611b6b57611b6a615d4b565b5b602002602001018181525050611b9e3361dead858481518110611b9157611b90615d4b565b5b6020026020010151611e64565b8080611ba990615da9565b915050611b21565b506000600d60009054906101000a900473ffffffffffffffffffffffffffffffffffffffff1673ffffffffffffffffffffffffffffffffffffffff1663ced72f876040518163ffffffff1660e01b81526004016020604051808303816000875af1158015611c23573d6000803e3d6000fd5b505050506040513d601f19601f82011682018060405250810190611c4791906161a1565b9050600030631f1f897f60e01b604051602001611c6592919061649b565b60405160208183030381529060405290506000600d60009054906101000a900473ffffffffffffffffffffffffffffffffffffffff1673ffffffffffffffffffffffffffffffffffffffff1663bc5fc5328443885189600081518110611cce57611ccd615d4b565b5b6020026020010151611ce091906164c4565b611cea91906164c4565b856040518463ffffffff1660e01b8152600401611d0892919061656f565b60206040518083038185885af1158015611d26573d6000803e3d6000fd5b50505050506040513d601f19601f82011682018060405250810190611d4b91906165b4565b905033600e600083815260200190815260200160002060006101000a81548173ffffffffffffffffffffffffffffffffffffffff021916908373ffffffffffffffffffffffffffffffffffffffff16021790555083600f60008381526020019081526020016000209080519060200190611dc6929190614de4565b503373ffffffffffffffffffffffffffffffffffffffff167f6469f394585fa20516cd29f9195504c0762fa8f7286f2cdb9b502c3c9ee7d43686518787604051611e12939291906165e1565b60405180910390a2505050506001600c8190555050565b6000601a6000838152602001908152602001600020546019600084815260200190815260200160002054611e5d9190616626565b9050919050565b611e7f83838360405180602001604052806000815250612dc2565b505050565b60136020528060005260406000206000915090505481565b6000611ec382601c600086815260200190815260200160002061377890919063ffffffff16565b905092915050565b601a6020528060005260406000206000915090505481565b6000611eed61136b565b8210611f2e576040517f08c379a0000000000000000000000000000000000000000000000000000000008152600401611f25906166cc565b60405180910390fd5b60088281548110611f4257611f41615d4b565b5b90600052602060002001549050919050565b7f241ecf16d79d0f8dbfb92cbc07fe17840425976cf0667f022fe9877caa831b08611f7e8161325a565b8160119080519060200190611f94929190614e31565b507f23c8c9488efebfd474e85a7956de6f39b17c7ab88502d42a623db2d8e382bbaa82604051611fc49190615421565b60405180910390a15050565b6000806002600084815260200190815260200160002060009054906101000a900473ffffffffffffffffffffffffffffffffffffffff169050600073ffffffffffffffffffffffffffffffffffffffff168173ffffffffffffffffffffffffffffffffffffffff161415612079576040517f08c379a00000000000000000000000000000000000000000000000000000000081526004016120709061675e565b60405180910390fd5b80915050919050565b600080600080600090505b85518110156120e1578581815181106120a9576120a8615d4b565b5b6020026020010151836120bc91906164c4565b9250828510156120ce578091506120e1565b80806120d990615da9565b91505061208d565b506001816120ef91906164c4565b9250505092915050565b6011805461210690615f0f565b80601f016020809104026020016040519081016040528092919081815260200182805461213290615f0f565b801561217f5780601f106121545761010080835404028352916020019161217f565b820191906000526020600020905b81548152906001019060200180831161216257829003601f168201915b505050505081565b60008073ffffffffffffffffffffffffffffffffffffffff168273ffffffffffffffffffffffffffffffffffffffff1614156121f8576040517f08c379a00000000000000000000000000000000000000000000000000000000081526004016121ef906167f0565b60405180910390fd5b600360008373ffffffffffffffffffffffffffffffffffffffff1673ffffffffffffffffffffffffffffffffffffffff168152602001908152602001600020549050919050565b600d60009054906101000a900473ffffffffffffffffffffffffffffffffffffffff1681565b60606000808390508461227787612187565b6122819190616626565b81111561229f578461229287612187565b61229c9190616626565b90505b60008167ffffffffffffffff8111156122bb576122ba615079565b5b6040519080825280602002602001820160405280156122e95781602001602082028036833780820191505090505b50905060005b8281101561233e5761230c88828961230791906164c4565b6118cc565b82828151811061231f5761231e615d4b565b5b602002602001018181525050808061233690615da9565b9150506122ef565b5080828761234c91906164c4565b935093505050935093915050565b6002600c5414156123a0576040517f08c379a000000000000000000000000000000000000000000000000000000000815260040161239790616400565b60405180910390fd5b6002600c81905550600082116123eb576040517f08c379a00000000000000000000000000000000000000000000000000000000081526004016123e29061646c565b60405180910390fd5b816123f7823342612e24565b1015612438576040517f08c379a000000000000000000000000000000000000000000000000000000000815260040161242f90616882565b60405180910390fd5b8161244282611e29565b1015612483576040517f08c379a000000000000000000000000000000000000000000000000000000000815260040161247a906168ee565b60405180910390fd5b60006013600083815260200190815260200160002054116124d9576040517f08c379a00000000000000000000000000000000000000000000000000000000081526004016124d090616980565b60405180910390fd5b600073ffffffffffffffffffffffffffffffffffffffff166015600083815260200190815260200160002060009054906101000a900473ffffffffffffffffffffffffffffffffffffffff1673ffffffffffffffffffffffffffffffffffffffff16141561257c576040517f08c379a000000000000000000000000000000000000000000000000000000000815260040161257390616a12565b60405180910390fd5b600f6018600083815260200190815260200160002080549050146125d5576040517f08c379a00000000000000000000000000000000000000000000000000000000081526004016125cc90616aa4565b60405180910390fd5b6017600082815260200190815260200160002060009054906101000a900460ff16156126605761262033601c600084815260200190815260200160002061377890919063ffffffff16565b61265f576040517f08c379a000000000000000000000000000000000000000000000000000000000815260040161265690616b36565b60405180910390fd5b5b60006013600083815260200190815260200160002054836126819190616b56565b9050600073ffffffffffffffffffffffffffffffffffffffff166014600084815260200190815260200160002060009054906101000a900473ffffffffffffffffffffffffffffffffffffffff1673ffffffffffffffffffffffffffffffffffffffff1614156127ac5780341461272d576040517f08c379a000000000000000000000000000000000000000000000000000000000815260040161272490616bfc565b60405180910390fd5b6015600083815260200190815260200160002060009054906101000a900473ffffffffffffffffffffffffffffffffffffffff1673ffffffffffffffffffffffffffffffffffffffff166108fc829081150290604051600060405180830381858888f193505050501580156127a6573d6000803e3d6000fd5b50612846565b60006014600084815260200190815260200160002060009054906101000a900473ffffffffffffffffffffffffffffffffffffffff169050612844336015600086815260200190815260200160002060009054906101000a900473ffffffffffffffffffffffffffffffffffffffff16848473ffffffffffffffffffffffffffffffffffffffff166137a8909392919063ffffffff16565b505b60008367ffffffffffffffff81111561286257612861615079565b5b6040519080825280602002602001820160405280156128905781602001602082028036833780820191505090505b50905060005b8481101561292e576128a661136b565b8282815181106128b9576128b8615d4b565b5b60200260200101818152505083601260008484815181106128dd576128dc615d4b565b5b602002602001015181526020019081526020016000208190555061291b3383838151811061290e5761290d615d4b565b5b6020026020010151613831565b808061292690615da9565b915050612896565b5083601b60003373ffffffffffffffffffffffffffffffffffffffff1673ffffffffffffffffffffffffffffffffffffffff16815260200190815260200160002060008581526020019081526020016000206000610e10426129909190616c4b565b815260200190815260200160002060008282546129ad91906164c4565b9250508190555083601a600085815260200190815260200160002060008282546129d791906164c4565b925050819055503373ffffffffffffffffffffffffffffffffffffffff167f0badb0ca8b7a0f90fdc0e2782b708af448dbede2dfc259e09d8e4f7bc36589c7858386604051612a2893929190616c7c565b60405180910390a250506001600c819055505050565b7f241ecf16d79d0f8dbfb92cbc07fe17840425976cf0667f022fe9877caa831b08612a688161325a565b82601960008481526020019081526020016000206000828254612a8b91906164c4565b925050819055507f5a6366ce46036f9fea2906d9a4ee6e497062c982be021c762e1af1ccc6c373348383604051612ac3929190616cba565b60405180910390a1505050565b6000612af782600b600086815260200190815260200160002061384f90919063ffffffff16565b905092915050565b60146020528060005260406000206000915054906101000a900473ffffffffffffffffffffffffffffffffffffffff1681565b6000600a600084815260200190815260200160002060000160008373ffffffffffffffffffffffffffffffffffffffff1673ffffffffffffffffffffffffffffffffffffffff16815260200190815260200160002060009054906101000a900460ff16905092915050565b606060018054612bac90615f0f565b80601f0160208091040260200160405190810160405280929190818152602001828054612bd890615f0f565b8015612c255780601f10612bfa57610100808354040283529160200191612c25565b820191906000526020600020905b815481529060010190602001808311612c0857829003601f168201915b5050505050905090565b6000801b81565b612c48612c416132da565b8383613869565b5050565b601060009054906101000a900473ffffffffffffffffffffffffffffffffffffffff1681565b60126020528060005260406000206000915090505481565b60166020528060005260406000206000915090505481565b600081834442414333604051602001612cc096959493929190616d87565b6040516020818303038152906040528051906020012060001c612ce39190616df7565b905092915050565b600f6020528160005260406000208181548110612d0757600080fd5b90600052602060002001600091509150505481565b7f241ecf16d79d0f8dbfb92cbc07fe17840425976cf0667f022fe9877caa831b08612d468161325a565b81601060006101000a81548173ffffffffffffffffffffffffffffffffffffffff021916908373ffffffffffffffffffffffffffffffffffffffff1602179055507ff433bac3f36b8750f6fcd820d9a15960466d2527d1bd091107fee6a5766de9db82604051612db6919061547f565b60405180910390a15050565b612dd3612dcd6132da565b836133cb565b612e12576040517f08c379a0000000000000000000000000000000000000000000000000000000008152600401612e0990616270565b60405180910390fd5b612e1e848484846139d6565b50505050565b6000601b60008473ffffffffffffffffffffffffffffffffffffffff1673ffffffffffffffffffffffffffffffffffffffff16815260200190815260200160002060008581526020019081526020016000206000610e1084612e869190616c4b565b8152602001908152602001600020546016600086815260200190815260200160002054612eb39190616626565b90509392505050565b6060612ec78261326e565b612f06576040517f08c379a0000000000000000000000000000000000000000000000000000000008152600401612efd90616e9a565b60405180910390fd5b600060118054612f1590615f0f565b905011612f315760405180602001604052806000815250612f7a565b6011612f3c83613a32565b612f586012600086815260200190815260200160002054613a32565b604051602001612f6a93929190616fd6565b6040516020818303038152906040525b9050919050565b6000612f9e600b6000848152602001908152602001600020613b93565b9050919050565b612fae82611859565b612fb78161325a565b612fc18383613744565b505050565b6000600560008473ffffffffffffffffffffffffffffffffffffffff1673ffffffffffffffffffffffffffffffffffffffff16815260200190815260200160002060008373ffffffffffffffffffffffffffffffffffffffff1673ffffffffffffffffffffffffffffffffffffffff16815260200190815260200160002060009054906101000a900460ff16905092915050565b7f241ecf16d79d0f8dbfb92cbc07fe17840425976cf0667f022fe9877caa831b0881565b60176020528060005260406000206000915054906101000a900460ff1681565b601860205281600052604060002081815481106130ba57600080fd5b90600052602060002001600091509150505481565b6130d98282612b32565b6131ac576001600a600084815260200190815260200160002060000160008373ffffffffffffffffffffffffffffffffffffffff1673ffffffffffffffffffffffffffffffffffffffff16815260200190815260200160002060006101000a81548160ff0219169083151502179055506131516132da565b73ffffffffffffffffffffffffffffffffffffffff168173ffffffffffffffffffffffffffffffffffffffff16837f2f8788117e7eff1d82e926ec794901d17c78024a50270940304540a733656f0d60405160405180910390a45b5050565b60006131d8836000018373ffffffffffffffffffffffffffffffffffffffff1660001b613ba8565b905092915050565b60007f5a05180f000000000000000000000000000000000000000000000000000000007bffffffffffffffffffffffffffffffffffffffffffffffffffffffff1916827bffffffffffffffffffffffffffffffffffffffffffffffffffffffff19161480613253575061325282613c18565b5b9050919050565b61326b816132666132da565b613c92565b50565b60008073ffffffffffffffffffffffffffffffffffffffff166002600084815260200190815260200160002060009054906101000a900473ffffffffffffffffffffffffffffffffffffffff1673ffffffffffffffffffffffffffffffffffffffff1614159050919050565b600033905090565b816004600083815260200190815260200160002060006101000a81548173ffffffffffffffffffffffffffffffffffffffff021916908373ffffffffffffffffffffffffffffffffffffffff160217905550808273ffffffffffffffffffffffffffffffffffffffff1661335583611fd0565b73ffffffffffffffffffffffffffffffffffffffff167f8c5be1e5ebec7d5bd14f71427d1e84f3dd0314c0f7b2291e5b200ac8c7c3b92560405160405180910390a45050565b60006133c3836000018373ffffffffffffffffffffffffffffffffffffffff1660001b613d2f565b905092915050565b60006133d68261326e565b613415576040517f08c379a000000000000000000000000000000000000000000000000000000000815260040161340c90617084565b60405180910390fd5b600061342083611fd0565b90508073ffffffffffffffffffffffffffffffffffffffff168473ffffffffffffffffffffffffffffffffffffffff16148061346257506134618185612fc6565b5b806134a057508373ffffffffffffffffffffffffffffffffffffffff16613488846111ce565b73ffffffffffffffffffffffffffffffffffffffff16145b91505092915050565b8273ffffffffffffffffffffffffffffffffffffffff166134c982611fd0565b73ffffffffffffffffffffffffffffffffffffffff161461351f576040517f08c379a000000000000000000000000000000000000000000000000000000000815260040161351690617116565b60405180910390fd5b600073ffffffffffffffffffffffffffffffffffffffff168273ffffffffffffffffffffffffffffffffffffffff16141561358f576040517f08c379a0000000000000000000000000000000000000000000000000000000008152600401613586906171a8565b60405180910390fd5b61359a838383613e43565b6135a56000826132e2565b6001600360008573ffffffffffffffffffffffffffffffffffffffff1673ffffffffffffffffffffffffffffffffffffffff16815260200190815260200160002060008282546135f59190616626565b925050819055506001600360008473ffffffffffffffffffffffffffffffffffffffff1673ffffffffffffffffffffffffffffffffffffffff168152602001908152602001600020600082825461364c91906164c4565b92505081905550816002600083815260200190815260200160002060006101000a81548173ffffffffffffffffffffffffffffffffffffffff021916908373ffffffffffffffffffffffffffffffffffffffff160217905550808273ffffffffffffffffffffffffffffffffffffffff168473ffffffffffffffffffffffffffffffffffffffff167fddf252ad1be2c89b69c2b068fc378daa952ba7f163c4a11628f55a4df523b3ef60405160405180910390a461370b838383613f57565b505050565b61371a82826130cf565b61373f81600b60008581526020019081526020016000206131b090919063ffffffff16565b505050565b61374e8282613f5c565b61377381600b600085815260200190815260200160002061339b90919063ffffffff16565b505050565b60006137a0836000018373ffffffffffffffffffffffffffffffffffffffff1660001b61403e565b905092915050565b61382b846323b872dd60e01b8585856040516024016137c9939291906171c8565b604051602081830303815290604052907bffffffffffffffffffffffffffffffffffffffffffffffffffffffff19166020820180517bffffffffffffffffffffffffffffffffffffffffffffffffffffffff8381831617835250505050614061565b50505050565b61384b828260405180602001604052806000815250614128565b5050565b600061385e8360000183614183565b60001c905092915050565b8173ffffffffffffffffffffffffffffffffffffffff168373ffffffffffffffffffffffffffffffffffffffff1614156138d8576040517f08c379a00000000000000000000000000000000000000000000000000000000081526004016138cf9061724b565b60405180910390fd5b80600560008573ffffffffffffffffffffffffffffffffffffffff1673ffffffffffffffffffffffffffffffffffffffff16815260200190815260200160002060008473ffffffffffffffffffffffffffffffffffffffff1673ffffffffffffffffffffffffffffffffffffffff16815260200190815260200160002060006101000a81548160ff0219169083151502179055508173ffffffffffffffffffffffffffffffffffffffff168373ffffffffffffffffffffffffffffffffffffffff167f17307eab39ab6107e8899845ad3d59bd9653f200f220920489ca2b5937696c31836040516139c99190614f88565b60405180910390a3505050565b6139e18484846134a9565b6139ed848484846141ae565b613a2c576040517f08c379a0000000000000000000000000000000000000000000000000000000008152600401613a23906172dd565b60405180910390fd5b50505050565b60606000821415613a7a576040518060400160405280600181526020017f30000000000000000000000000000000000000000000000000000000000000008152509050613b8e565b600082905060005b60008214613aac578080613a9590615da9565b915050600a82613aa59190616c4b565b9150613a82565b60008167ffffffffffffffff811115613ac857613ac7615079565b5b6040519080825280601f01601f191660200182016040528015613afa5781602001600182028036833780820191505090505b5090505b60008514613b8757600182613b139190616626565b9150600a85613b229190616df7565b6030613b2e91906164c4565b60f81b818381518110613b4457613b43615d4b565b5b60200101907effffffffffffffffffffffffffffffffffffffffffffffffffffffffffffff1916908160001a905350600a85613b809190616c4b565b9450613afe565b8093505050505b919050565b6000613ba182600001614336565b9050919050565b6000613bb4838361403e565b613c0d578260000182908060018154018082558091505060019003906000526020600020016000909190919091505582600001805490508360010160008481526020019081526020016000208190555060019050613c12565b600090505b92915050565b60007f7965db0b000000000000000000000000000000000000000000000000000000007bffffffffffffffffffffffffffffffffffffffffffffffffffffffff1916827bffffffffffffffffffffffffffffffffffffffffffffffffffffffff19161480613c8b5750613c8a82614347565b5b9050919050565b613c9c8282612b32565b613d2b57613cc18173ffffffffffffffffffffffffffffffffffffffff1660146143c1565b613ccf8360001c60206143c1565b604051602001613ce0929190617395565b6040516020818303038152906040526040517f08c379a0000000000000000000000000000000000000000000000000000000008152600401613d229190615421565b60405180910390fd5b5050565b60008083600101600084815260200190815260200160002054905060008114613e37576000600182613d619190616626565b9050600060018660000180549050613d799190616626565b9050818114613de8576000866000018281548110613d9a57613d99615d4b565b5b9060005260206000200154905080876000018481548110613dbe57613dbd615d4b565b5b90600052602060002001819055508387600101600083815260200190815260200160002081905550505b85600001805480613dfc57613dfb6173cf565b5b600190038181906000526020600020016000905590558560010160008681526020019081526020016000206000905560019350505050613e3d565b60009150505b92915050565b613e4e8383836145fd565b600073ffffffffffffffffffffffffffffffffffffffff168373ffffffffffffffffffffffffffffffffffffffff161415613e9157613e8c81614602565b613ed0565b8173ffffffffffffffffffffffffffffffffffffffff168373ffffffffffffffffffffffffffffffffffffffff1614613ecf57613ece838261464b565b5b5b600073ffffffffffffffffffffffffffffffffffffffff168273ffffffffffffffffffffffffffffffffffffffff161415613f1357613f0e816147b8565b613f52565b8273ffffffffffffffffffffffffffffffffffffffff168273ffffffffffffffffffffffffffffffffffffffff1614613f5157613f508282614889565b5b5b505050565b505050565b613f668282612b32565b1561403a576000600a600084815260200190815260200160002060000160008373ffffffffffffffffffffffffffffffffffffffff1673ffffffffffffffffffffffffffffffffffffffff16815260200190815260200160002060006101000a81548160ff021916908315150217905550613fdf6132da565b73ffffffffffffffffffffffffffffffffffffffff168173ffffffffffffffffffffffffffffffffffffffff16837ff6391f5c32d9c69d2a47ea670b442974b53935d1edc7fd64eb21e047a839171b60405160405180910390a45b5050565b600080836001016000848152602001908152602001600020541415905092915050565b60006140c3826040518060400160405280602081526020017f5361666545524332303a206c6f772d6c6576656c2063616c6c206661696c65648152508573ffffffffffffffffffffffffffffffffffffffff166149089092919063ffffffff16565b905060008151111561412357808060200190518101906140e39190617413565b614122576040517f08c379a0000000000000000000000000000000000000000000000000000000008152600401614119906174b2565b60405180910390fd5b5b505050565b6141328383614920565b61413f60008484846141ae565b61417e576040517f08c379a0000000000000000000000000000000000000000000000000000000008152600401614175906172dd565b60405180910390fd5b505050565b600082600001828154811061419b5761419a615d4b565b5b9060005260206000200154905092915050565b60006141cf8473ffffffffffffffffffffffffffffffffffffffff16614afa565b15614329578373ffffffffffffffffffffffffffffffffffffffff1663150b7a026141f86132da565b8786866040518563ffffffff1660e01b815260040161421a94939291906174d2565b6020604051808303816000875af192505050801561425657506040513d601f19601f820116820180604052508101906142539190617533565b60015b6142d9573d8060008114614286576040519150601f19603f3d011682016040523d82523d6000602084013e61428b565b606091505b506000815114156142d1576040517f08c379a00000000000000000000000000000000000000000000000000000000081526004016142c8906172dd565b60405180910390fd5b805181602001fd5b63150b7a0260e01b7bffffffffffffffffffffffffffffffffffffffffffffffffffffffff1916817bffffffffffffffffffffffffffffffffffffffffffffffffffffffff19161491505061432e565b600190505b949350505050565b600081600001805490509050919050565b60007f780e9d63000000000000000000000000000000000000000000000000000000007bffffffffffffffffffffffffffffffffffffffffffffffffffffffff1916827bffffffffffffffffffffffffffffffffffffffffffffffffffffffff191614806143ba57506143b982614b1d565b5b9050919050565b6060600060028360026143d49190616b56565b6143de91906164c4565b67ffffffffffffffff8111156143f7576143f6615079565b5b6040519080825280601f01601f1916602001820160405280156144295781602001600182028036833780820191505090505b5090507f30000000000000000000000000000000000000000000000000000000000000008160008151811061446157614460615d4b565b5b60200101907effffffffffffffffffffffffffffffffffffffffffffffffffffffffffffff1916908160001a9053507f7800000000000000000000000000000000000000000000000000000000000000816001815181106144c5576144c4615d4b565b5b60200101907effffffffffffffffffffffffffffffffffffffffffffffffffffffffffffff1916908160001a905350600060018460026145059190616b56565b61450f91906164c4565b90505b60018111156145af577f3031323334353637383961626364656600000000000000000000000000000000600f86166010811061455157614550615d4b565b5b1a60f81b82828151811061456857614567615d4b565b5b60200101907effffffffffffffffffffffffffffffffffffffffffffffffffffffffffffff1916908160001a905350600485901c9450806145a890617560565b9050614512565b50600084146145f3576040517f08c379a00000000000000000000000000000000000000000000000000000000081526004016145ea906175d6565b60405180910390fd5b8091505092915050565b505050565b6008805490506009600083815260200190815260200160002081905550600881908060018154018082558091505060019003906000526020600020016000909190919091505550565b6000600161465884612187565b6146629190616626565b9050600060076000848152602001908152602001600020549050818114614747576000600660008673ffffffffffffffffffffffffffffffffffffffff1673ffffffffffffffffffffffffffffffffffffffff168152602001908152602001600020600084815260200190815260200160002054905080600660008773ffffffffffffffffffffffffffffffffffffffff1673ffffffffffffffffffffffffffffffffffffffff168152602001908152602001600020600084815260200190815260200160002081905550816007600083815260200190815260200160002081905550505b6007600084815260200190815260200160002060009055600660008573ffffffffffffffffffffffffffffffffffffffff1673ffffffffffffffffffffffffffffffffffffffff16815260200190815260200160002060008381526020019081526020016000206000905550505050565b600060016008805490506147cc9190616626565b90506000600960008481526020019081526020016000205490506000600883815481106147fc576147fb615d4b565b5b90600052602060002001549050806008838154811061481e5761481d615d4b565b5b90600052602060002001819055508160096000838152602001908152602001600020819055506009600085815260200190815260200160002060009055600880548061486d5761486c6173cf565b5b6001900381819060005260206000200160009055905550505050565b600061489483612187565b905081600660008573ffffffffffffffffffffffffffffffffffffffff1673ffffffffffffffffffffffffffffffffffffffff168152602001908152602001600020600083815260200190815260200160002081905550806007600084815260200190815260200160002081905550505050565b60606149178484600085614bff565b90509392505050565b600073ffffffffffffffffffffffffffffffffffffffff168273ffffffffffffffffffffffffffffffffffffffff161415614990576040517f08c379a000000000000000000000000000000000000000000000000000000000815260040161498790617642565b60405180910390fd5b6149998161326e565b156149d9576040517f08c379a00000000000000000000000000000000000000000000000000000000081526004016149d0906176ae565b60405180910390fd5b6149e560008383613e43565b6001600360008473ffffffffffffffffffffffffffffffffffffffff1673ffffffffffffffffffffffffffffffffffffffff1681526020019081526020016000206000828254614a3591906164c4565b92505081905550816002600083815260200190815260200160002060006101000a81548173ffffffffffffffffffffffffffffffffffffffff021916908373ffffffffffffffffffffffffffffffffffffffff160217905550808273ffffffffffffffffffffffffffffffffffffffff16600073ffffffffffffffffffffffffffffffffffffffff167fddf252ad1be2c89b69c2b068fc378daa952ba7f163c4a11628f55a4df523b3ef60405160405180910390a4614af660008383613f57565b5050565b6000808273ffffffffffffffffffffffffffffffffffffffff163b119050919050565b60007f80ac58cd000000000000000000000000000000000000000000000000000000007bffffffffffffffffffffffffffffffffffffffffffffffffffffffff1916827bffffffffffffffffffffffffffffffffffffffffffffffffffffffff19161480614be857507f5b5e139f000000000000000000000000000000000000000000000000000000007bffffffffffffffffffffffffffffffffffffffffffffffffffffffff1916827bffffffffffffffffffffffffffffffffffffffffffffffffffffffff1916145b80614bf85750614bf782614d13565b5b9050919050565b606082471015614c44576040517f08c379a0000000000000000000000000000000000000000000000000000000008152600401614c3b90617740565b60405180910390fd5b614c4d85614afa565b614c8c576040517f08c379a0000000000000000000000000000000000000000000000000000000008152600401614c83906177ac565b60405180910390fd5b6000808673ffffffffffffffffffffffffffffffffffffffff168587604051614cb59190617808565b60006040518083038185875af1925050503d8060008114614cf2576040519150601f19603f3d011682016040523d82523d6000602084013e614cf7565b606091505b5091509150614d07828286614d7d565b92505050949350505050565b60007f01ffc9a7000000000000000000000000000000000000000000000000000000007bffffffffffffffffffffffffffffffffffffffffffffffffffffffff1916827bffffffffffffffffffffffffffffffffffffffffffffffffffffffff1916149050919050565b60608315614d8d57829050614ddd565b600083511115614da05782518084602001fd5b816040517f08c379a0000000000000000000000000000000000000000000000000000000008152600401614dd49190615421565b60405180910390fd5b9392505050565b828054828255906000526020600020908101928215614e20579160200282015b82811115614e1f578251825591602001919060010190614e04565b5b509050614e2d9190614eb7565b5090565b828054614e3d90615f0f565b90600052602060002090601f016020900481019282614e5f5760008555614ea6565b82601f10614e7857805160ff1916838001178555614ea6565b82800160010185558215614ea6579182015b82811115614ea5578251825591602001919060010190614e8a565b5b509050614eb39190614eb7565b5090565b5b80821115614ed0576000816000905550600101614eb8565b5090565b6000604051905090565b600080fd5b600080fd5b60007fffffffff0000000000000000000000000000000000000000000000000000000082169050919050565b614f1d81614ee8565b8114614f2857600080fd5b50565b600081359050614f3a81614f14565b92915050565b600060208284031215614f5657614f55614ede565b5b6000614f6484828501614f2b565b91505092915050565b60008115159050919050565b614f8281614f6d565b82525050565b6000602082019050614f9d6000830184614f79565b92915050565b6000819050919050565b614fb681614fa3565b8114614fc157600080fd5b50565b600081359050614fd381614fad565b92915050565b600073ffffffffffffffffffffffffffffffffffffffff82169050919050565b600061500482614fd9565b9050919050565b61501481614ff9565b811461501f57600080fd5b50565b6000813590506150318161500b565b92915050565b61504081614f6d565b811461504b57600080fd5b50565b60008135905061505d81615037565b92915050565b600080fd5b6000601f19601f8301169050919050565b7f4e487b7100000000000000000000000000000000000000000000000000000000600052604160045260246000fd5b6150b182615068565b810181811067ffffffffffffffff821117156150d0576150cf615079565b5b80604052505050565b60006150e3614ed4565b90506150ef82826150a8565b919050565b600067ffffffffffffffff82111561510f5761510e615079565b5b602082029050602081019050919050565b600080fd5b6000615138615133846150f4565b6150d9565b9050808382526020820190506020840283018581111561515b5761515a615120565b5b835b8181101561518457806151708882614fc4565b84526020840193505060208101905061515d565b5050509392505050565b600082601f8301126151a3576151a2615063565b5b81356151b3848260208601615125565b91505092915050565b600080600080600080600060e0888a0312156151db576151da614ede565b5b60006151e98a828b01614fc4565b97505060206151fa8a828b01614fc4565b965050604061520b8a828b01615022565b955050606061521c8a828b01615022565b945050608061522d8a828b01614fc4565b93505060a061523e8a828b0161504e565b92505060c088013567ffffffffffffffff81111561525f5761525e614ee3565b5b61526b8a828b0161518e565b91505092959891949750929550565b600067ffffffffffffffff82111561529557615294615079565b5b602082029050602081019050919050565b60006152b96152b48461527a565b6150d9565b905080838252602082019050602084028301858111156152dc576152db615120565b5b835b8181101561530557806152f18882615022565b8452602084019350506020810190506152de565b5050509392505050565b600082601f83011261532457615323615063565b5b81356153348482602086016152a6565b91505092915050565b6000806040838503121561535457615353614ede565b5b600061536285828601614fc4565b925050602083013567ffffffffffffffff81111561538357615382614ee3565b5b61538f8582860161530f565b9150509250929050565b600081519050919050565b600082825260208201905092915050565b60005b838110156153d35780820151818401526020810190506153b8565b838111156153e2576000848401525b50505050565b60006153f382615399565b6153fd81856153a4565b935061540d8185602086016153b5565b61541681615068565b840191505092915050565b6000602082019050818103600083015261543b81846153e8565b905092915050565b60006020828403121561545957615458614ede565b5b600061546784828501614fc4565b91505092915050565b61547981614ff9565b82525050565b60006020820190506154946000830184615470565b92915050565b600080604083850312156154b1576154b0614ede565b5b60006154bf85828601615022565b92505060206154d085828601614fc4565b9150509250929050565b6154e381614fa3565b82525050565b60006020820190506154fe60008301846154da565b92915050565b6000819050919050565b61551781615504565b811461552257600080fd5b50565b6000813590506155348161550e565b92915050565b6000806040838503121561555157615550614ede565b5b600061555f85828601615525565b925050602061557085828601614fc4565b9150509250929050565b6000602082840312156155905761558f614ede565b5b600061559e84828501615525565b91505092915050565b6000806000606084860312156155c0576155bf614ede565b5b60006155ce86828701615022565b93505060206155df86828701615022565b92505060406155f086828701614fc4565b9150509250925092565b61560381615504565b82525050565b600060208201905061561e60008301846155fa565b92915050565b60008060006060848603121561563d5761563c614ede565b5b600061564b86828701615022565b935050602061565c86828701614fc4565b925050604061566d86828701614fc4565b9150509250925092565b6000806040838503121561568e5761568d614ede565b5b600061569c85828601615525565b92505060206156ad85828601615022565b9150509250929050565b6000806000606084860312156156d0576156cf614ede565b5b60006156de86828701615022565b93505060206156ef86828701615022565b925050604084013567ffffffffffffffff8111156157105761570f614ee3565b5b61571c8682870161518e565b9150509250925092565b60006020828403121561573c5761573b614ede565b5b600082013567ffffffffffffffff81111561575a57615759614ee3565b5b6157668482850161518e565b91505092915050565b6000806040838503121561578657615785614ede565b5b600061579485828601614fc4565b92505060206157a585828601615022565b9150509250929050565b600080fd5b600067ffffffffffffffff8211156157cf576157ce615079565b5b6157d882615068565b9050602081019050919050565b82818337600083830152505050565b6000615807615802846157b4565b6150d9565b905082815260208101848484011115615823576158226157af565b5b61582e8482856157e5565b509392505050565b600082601f83011261584b5761584a615063565b5b813561585b8482602086016157f4565b91505092915050565b60006020828403121561587a57615879614ede565b5b600082013567ffffffffffffffff81111561589857615897614ee3565b5b6158a484828501615836565b91505092915050565b600080604083850312156158c4576158c3614ede565b5b600083013567ffffffffffffffff8111156158e2576158e1614ee3565b5b6158ee8582860161518e565b92505060206158ff85828601614fc4565b9150509250929050565b60006020828403121561591f5761591e614ede565b5b600061592d84828501615022565b91505092915050565b600081519050919050565b600082825260208201905092915050565b6000819050602082019050919050565b61596b81614fa3565b82525050565b600061597d8383615962565b60208301905092915050565b6000602082019050919050565b60006159a182615936565b6159ab8185615941565b93506159b683615952565b8060005b838110156159e75781516159ce8882615971565b97506159d983615989565b9250506001810190506159ba565b5085935050505092915050565b60006040820190508181036000830152615a0e8185615996565b9050615a1d60208301846154da565b9392505050565b60008060408385031215615a3b57615a3a614ede565b5b6000615a4985828601614fc4565b9250506020615a5a85828601614fc4565b9150509250929050565b60008060408385031215615a7b57615a7a614ede565b5b6000615a8985828601615022565b9250506020615a9a8582860161504e565b9150509250929050565b6000819050919050565b6000615ac9615ac4615abf84614fd9565b615aa4565b614fd9565b9050919050565b6000615adb82615aae565b9050919050565b6000615aed82615ad0565b9050919050565b615afd81615ae2565b82525050565b6000602082019050615b186000830184615af4565b92915050565b600067ffffffffffffffff821115615b3957615b38615079565b5b615b4282615068565b9050602081019050919050565b6000615b62615b5d84615b1e565b6150d9565b905082815260208101848484011115615b7e57615b7d6157af565b5b615b898482856157e5565b509392505050565b600082601f830112615ba657615ba5615063565b5b8135615bb6848260208601615b4f565b91505092915050565b60008060008060808587031215615bd957615bd8614ede565b5b6000615be787828801615022565b9450506020615bf887828801615022565b9350506040615c0987828801614fc4565b925050606085013567ffffffffffffffff811115615c2a57615c29614ee3565b5b615c3687828801615b91565b91505092959194509250565b600080600060608486031215615c5b57615c5a614ede565b5b6000615c6986828701614fc4565b9350506020615c7a86828701615022565b9250506040615c8b86828701614fc4565b9150509250925092565b60008060408385031215615cac57615cab614ede565b5b6000615cba85828601615022565b9250506020615ccb85828601615022565b9150509250929050565b600060e082019050615cea600083018a6154da565b615cf760208301896154da565b615d046040830188615470565b615d116060830187615470565b615d1e60808301866154da565b615d2b60a0830185614f79565b81810360c0830152615d3d8184615996565b905098975050505050505050565b7f4e487b7100000000000000000000000000000000000000000000000000000000600052603260045260246000fd5b7f4e487b7100000000000000000000000000000000000000000000000000000000600052601160045260246000fd5b6000615db482614fa3565b91507fffffffffffffffffffffffffffffffffffffffffffffffffffffffffffffffff821415615de757615de6615d7a565b5b600182019050919050565b600081519050919050565b600082825260208201905092915050565b6000819050602082019050919050565b615e2781614ff9565b82525050565b6000615e398383615e1e565b60208301905092915050565b6000602082019050919050565b6000615e5d82615df2565b615e678185615dfd565b9350615e7283615e0e565b8060005b83811015615ea3578151615e8a8882615e2d565b9750615e9583615e45565b925050600181019050615e76565b5085935050505092915050565b6000604082019050615ec560008301856154da565b8181036020830152615ed78184615e52565b90509392505050565b7f4e487b7100000000000000000000000000000000000000000000000000000000600052602260045260246000fd5b60006002820490506001821680615f2757607f821691505b60208210811415615f3b57615f3a615ee0565b5b50919050565b7f4552433732313a20617070726f76656420717565727920666f72206e6f6e657860008201527f697374656e7420746f6b656e0000000000000000000000000000000000000000602082015250565b6000615f9d602c836153a4565b9150615fa882615f41565b604082019050919050565b60006020820190508181036000830152615fcc81615f90565b9050919050565b7f4552433732313a20617070726f76616c20746f2063757272656e74206f776e6560008201527f7200000000000000000000000000000000000000000000000000000000000000602082015250565b600061602f6021836153a4565b915061603a82615fd3565b604082019050919050565b6000602082019050818103600083015261605e81616022565b9050919050565b7f4552433732313a20617070726f76652063616c6c6572206973206e6f74206f7760008201527f6e6572206e6f7220617070726f76656420666f7220616c6c0000000000000000602082015250565b60006160c16038836153a4565b91506160cc82616065565b604082019050919050565b600060208201905081810360008301526160f0816160b4565b9050919050565b7f43616c6c6572206d757374206973206f7261636c650000000000000000000000600082015250565b600061612d6015836153a4565b9150616138826160f7565b602082019050919050565b6000602082019050818103600083015261615c81616120565b9050919050565b600060408201905061617860008301856154da565b6161856020830184615470565b9392505050565b60008151905061619b81614fad565b92915050565b6000602082840312156161b7576161b6614ede565b5b60006161c58482850161618c565b91505092915050565b60006040820190506161e360008301856154da565b81810360208301526161f58184615996565b90509392505050565b7f4552433732313a207472616e736665722063616c6c6572206973206e6f74206f60008201527f776e6572206e6f7220617070726f766564000000000000000000000000000000602082015250565b600061625a6031836153a4565b9150616265826161fe565b604082019050919050565b600060208201905081810360008301526162898161624d565b9050919050565b7f455243373231456e756d657261626c653a206f776e657220696e646578206f7560008201527f74206f6620626f756e6473000000000000000000000000000000000000000000602082015250565b60006162ec602b836153a4565b91506162f782616290565b604082019050919050565b6000602082019050818103600083015261631b816162df565b9050919050565b7f416363657373436f6e74726f6c3a2063616e206f6e6c792072656e6f756e636560008201527f20726f6c657320666f722073656c660000000000000000000000000000000000602082015250565b600061637e602f836153a4565b915061638982616322565b604082019050919050565b600060208201905081810360008301526163ad81616371565b9050919050565b7f5265656e7472616e637947756172643a207265656e7472616e742063616c6c00600082015250565b60006163ea601f836153a4565b91506163f5826163b4565b602082019050919050565b60006020820190508181036000830152616419816163dd565b9050919050565b7f416d6f756e74206d757374203e20300000000000000000000000000000000000600082015250565b6000616456600f836153a4565b915061646182616420565b602082019050919050565b6000602082019050818103600083015261648581616449565b9050919050565b61649581614ee8565b82525050565b60006040820190506164b06000830185615470565b6164bd602083018461648c565b9392505050565b60006164cf82614fa3565b91506164da83614fa3565b9250827fffffffffffffffffffffffffffffffffffffffffffffffffffffffffffffffff0382111561650f5761650e615d7a565b5b828201905092915050565b600081519050919050565b600082825260208201905092915050565b60006165418261651a565b61654b8185616525565b935061655b8185602086016153b5565b61656481615068565b840191505092915050565b600060408201905061658460008301856154da565b81810360208301526165968184616536565b90509392505050565b6000815190506165ae8161550e565b92915050565b6000602082840312156165ca576165c9614ede565b5b60006165d88482850161659f565b91505092915050565b60006060820190506165f660008301866154da565b81810360208301526166088185615996565b9050818103604083015261661c8184615996565b9050949350505050565b600061663182614fa3565b915061663c83614fa3565b92508282101561664f5761664e615d7a565b5b828203905092915050565b7f455243373231456e756d657261626c653a20676c6f62616c20696e646578206f60008201527f7574206f6620626f756e64730000000000000000000000000000000000000000602082015250565b60006166b6602c836153a4565b91506166c18261665a565b604082019050919050565b600060208201905081810360008301526166e5816166a9565b9050919050565b7f4552433732313a206f776e657220717565727920666f72206e6f6e657869737460008201527f656e7420746f6b656e0000000000000000000000000000000000000000000000602082015250565b60006167486029836153a4565b9150616753826166ec565b604082019050919050565b600060208201905081810360008301526167778161673b565b9050919050565b7f4552433732313a2062616c616e636520717565727920666f7220746865207a6560008201527f726f206164647265737300000000000000000000000000000000000000000000602082015250565b60006167da602a836153a4565b91506167e58261677e565b604082019050919050565b60006020820190508181036000830152616809816167cd565b9050919050565b7f416d6f756e7420657863656564732074686520686f75726c7920627579206c6960008201527f6d69740000000000000000000000000000000000000000000000000000000000602082015250565b600061686c6023836153a4565b915061687782616810565b604082019050919050565b6000602082019050818103600083015261689b8161685f565b9050919050565b7f4e6f7420656e6f75676820626f78657320737570706c79000000000000000000600082015250565b60006168d86017836153a4565b91506168e3826168a2565b602082019050919050565b60006020820190508181036000830152616907816168cb565b9050919050565b7f54686520626f78207072696365206f66207468697320626f7820686173206e6f60008201527f74206265656e2073657400000000000000000000000000000000000000000000602082015250565b600061696a602a836153a4565b91506169758261690e565b604082019050919050565b600060208201905081810360008301526169998161695d565b9050919050565b7f54686520726563656976696e672061646472657373206f66207468697320626f60008201527f7820686173206e6f74206265656e207365740000000000000000000000000000602082015250565b60006169fc6032836153a4565b9150616a07826169a0565b604082019050919050565b60006020820190508181036000830152616a2b816169ef565b9050919050565b7f546865206865726f2070726f626162696c697479206f66207468697320626f7860008201527f20686173206e6f74206265656e20736574000000000000000000000000000000602082015250565b6000616a8e6031836153a4565b9150616a9982616a32565b604082019050919050565b60006020820190508181036000830152616abd81616a81565b9050919050565b7f596f75722061646472657373206d757374206265206f6e20746865207768697460008201527f656c697374000000000000000000000000000000000000000000000000000000602082015250565b6000616b206025836153a4565b9150616b2b82616ac4565b604082019050919050565b60006020820190508181036000830152616b4f81616b13565b9050919050565b6000616b6182614fa3565b9150616b6c83614fa3565b9250817fffffffffffffffffffffffffffffffffffffffffffffffffffffffffffffffff0483118215151615616ba557616ba4615d7a565b5b828202905092915050565b7f5072696365206d69736d61746368000000000000000000000000000000000000600082015250565b6000616be6600e836153a4565b9150616bf182616bb0565b602082019050919050565b60006020820190508181036000830152616c1581616bd9565b9050919050565b7f4e487b7100000000000000000000000000000000000000000000000000000000600052601260045260246000fd5b6000616c5682614fa3565b9150616c6183614fa3565b925082616c7157616c70616c1c565b5b828204905092915050565b6000606082019050616c9160008301866154da565b8181036020830152616ca38185615996565b9050616cb260408301846154da565b949350505050565b6000604082019050616ccf60008301856154da565b616cdc60208301846154da565b9392505050565b6000819050919050565b616cfe616cf982614fa3565b616ce3565b82525050565b6000616d0f82614fd9565b9050919050565b60008160601b9050919050565b6000616d2e82616d16565b9050919050565b6000616d4082616d23565b9050919050565b616d58616d5382616d04565b616d35565b82525050565b6000616d6982616d23565b9050919050565b616d81616d7c82614ff9565b616d5e565b82525050565b6000616d938289616ced565b602082019150616da38288616ced565b602082019150616db38287616ced565b602082019150616dc38286616d47565b601482019150616dd38285616ced565b602082019150616de38284616d70565b601482019150819050979650505050505050565b6000616e0282614fa3565b9150616e0d83614fa3565b925082616e1d57616e1c616c1c565b5b828206905092915050565b7f4552433732314d657461646174613a2055524920717565727920666f72206e6f60008201527f6e6578697374656e7420746f6b656e0000000000000000000000000000000000602082015250565b6000616e84602f836153a4565b9150616e8f82616e28565b604082019050919050565b60006020820190508181036000830152616eb381616e77565b9050919050565b600081905092915050565b60008190508160005260206000209050919050565b60008154616ee781615f0f565b616ef18186616eba565b94506001821660008114616f0c5760018114616f1d57616f50565b60ff19831686528186019350616f50565b616f2685616ec5565b60005b83811015616f4857815481890152600182019150602081019050616f29565b838801955050505b50505092915050565b6000616f6482615399565b616f6e8185616eba565b9350616f7e8185602086016153b5565b80840191505092915050565b7f2d00000000000000000000000000000000000000000000000000000000000000600082015250565b6000616fc0600183616eba565b9150616fcb82616f8a565b600182019050919050565b6000616fe28286616eda565b9150616fee8285616f59565b9150616ff982616fb3565b91506170058284616f59565b9150819050949350505050565b7f4552433732313a206f70657261746f7220717565727920666f72206e6f6e657860008201527f697374656e7420746f6b656e0000000000000000000000000000000000000000602082015250565b600061706e602c836153a4565b915061707982617012565b604082019050919050565b6000602082019050818103600083015261709d81617061565b9050919050565b7f4552433732313a207472616e736665722066726f6d20696e636f72726563742060008201527f6f776e6572000000000000000000000000000000000000000000000000000000602082015250565b60006171006025836153a4565b915061710b826170a4565b604082019050919050565b6000602082019050818103600083015261712f816170f3565b9050919050565b7f4552433732313a207472616e7366657220746f20746865207a65726f2061646460008201527f7265737300000000000000000000000000000000000000000000000000000000602082015250565b60006171926024836153a4565b915061719d82617136565b604082019050919050565b600060208201905081810360008301526171c181617185565b9050919050565b60006060820190506171dd6000830186615470565b6171ea6020830185615470565b6171f760408301846154da565b949350505050565b7f4552433732313a20617070726f766520746f2063616c6c657200000000000000600082015250565b60006172356019836153a4565b9150617240826171ff565b602082019050919050565b6000602082019050818103600083015261726481617228565b9050919050565b7f4552433732313a207472616e7366657220746f206e6f6e20455243373231526560008201527f63656976657220696d706c656d656e7465720000000000000000000000000000602082015250565b60006172c76032836153a4565b91506172d28261726b565b604082019050919050565b600060208201905081810360008301526172f6816172ba565b9050919050565b7f416363657373436f6e74726f6c3a206163636f756e7420000000000000000000600082015250565b6000617333601783616eba565b915061733e826172fd565b601782019050919050565b7f206973206d697373696e6720726f6c6520000000000000000000000000000000600082015250565b600061737f601183616eba565b915061738a82617349565b601182019050919050565b60006173a082617326565b91506173ac8285616f59565b91506173b782617372565b91506173c38284616f59565b91508190509392505050565b7f4e487b7100000000000000000000000000000000000000000000000000000000600052603160045260246000fd5b60008151905061740d81615037565b92915050565b60006020828403121561742957617428614ede565b5b6000617437848285016173fe565b91505092915050565b7f5361666545524332303a204552433230206f7065726174696f6e20646964206e60008201527f6f74207375636365656400000000000000000000000000000000000000000000602082015250565b600061749c602a836153a4565b91506174a782617440565b604082019050919050565b600060208201905081810360008301526174cb8161748f565b9050919050565b60006080820190506174e76000830187615470565b6174f46020830186615470565b61750160408301856154da565b81810360608301526175138184616536565b905095945050505050565b60008151905061752d81614f14565b92915050565b60006020828403121561754957617548614ede565b5b60006175578482850161751e565b91505092915050565b600061756b82614fa3565b9150600082141561757f5761757e615d7a565b5b600182039050919050565b7f537472696e67733a20686578206c656e67746820696e73756666696369656e74600082015250565b60006175c06020836153a4565b91506175cb8261758a565b602082019050919050565b600060208201905081810360008301526175ef816175b3565b9050919050565b7f4552433732313a206d696e7420746f20746865207a65726f2061646472657373600082015250565b600061762c6020836153a4565b9150617637826175f6565b602082019050919050565b6000602082019050818103600083015261765b8161761f565b9050919050565b7f4552433732313a20746f6b656e20616c7265616479206d696e74656400000000600082015250565b6000617698601c836153a4565b91506176a382617662565b602082019050919050565b600060208201905081810360008301526176c78161768b565b9050919050565b7f416464726573733a20696e73756666696369656e742062616c616e636520666f60008201527f722063616c6c0000000000000000000000000000000000000000000000000000602082015250565b600061772a6026836153a4565b9150617735826176ce565b604082019050919050565b600060208201905081810360008301526177598161771d565b9050919050565b7f416464726573733a2063616c6c20746f206e6f6e2d636f6e7472616374000000600082015250565b6000617796601d836153a4565b91506177a182617760565b602082019050919050565b600060208201905081810360008301526177c581617789565b9050919050565b600081905092915050565b60006177e28261651a565b6177ec81856177cc565b93506177fc8185602086016153b5565b80840191505092915050565b600061781482846177d7565b91508190509291505056fea264697066735822122053d2e69796e9c8e4c41595cf30f294b2e2782a3672e6e74ad0f0bac3a9ef0a1764736f6c634300080c0033",
  "linkReferences": {},
  "deployedLinkReferences": {}
}