{
  "_format": "hh-sol-artifact-1",
  "contractName": "CB",
  "sourceName": "contracts/token/CB.sol",
  "abi": [
    {
      "inputs": [
        {
          "internalType": "address",
          "name": "manager",
          "type": "address"
        }
      ],
      "stateMutability": "nonpayable",
      "type": "constructor"
    },
    {
      "inputs": [
        {
          "internalType": "address",
          "name": "have",
          "type": "address"
        },
        {
          "internalType": "address",
          "name": "want",
          "type": "address"
        }
      ],
      "name": "OnlyCoordinatorCanFulfill",
      "type": "error"
    },
    {
      "anonymous": false,
      "inputs": [
        {
          "indexed": false,
          "internalType": "uint256",
          "name": "supply",
          "type": "uint256"
        },
        {
          "indexed": false,
          "internalType": "uint256",
          "name": "boxType",
          "type": "uint256"
        }
      ],
      "name": "AddBoxesMaxSupply",
      "type": "event"
    },
    {
      "anonymous": false,
      "inputs": [
        {
          "indexed": false,
          "internalType": "uint256",
          "name": "boxType",
          "type": "uint256"
        },
        {
          "indexed": false,
          "internalType": "address[]",
          "name": "whiteUsers",
          "type": "address[]"
        }
      ],
      "name": "AddWhiteList",
      "type": "event"
    },
    {
      "anonymous": false,
      "inputs": [
        {
          "indexed": true,
          "internalType": "address",
          "name": "owner",
          "type": "address"
        },
        {
          "indexed": true,
          "internalType": "address",
          "name": "approved",
          "type": "address"
        },
        {
          "indexed": true,
          "internalType": "uint256",
          "name": "tokenId",
          "type": "uint256"
        }
      ],
      "name": "Approval",
      "type": "event"
    },
    {
      "anonymous": false,
      "inputs": [
        {
          "indexed": true,
          "internalType": "address",
          "name": "owner",
          "type": "address"
        },
        {
          "indexed": true,
          "internalType": "address",
          "name": "operator",
          "type": "address"
        },
        {
          "indexed": false,
          "internalType": "bool",
          "name": "approved",
          "type": "bool"
        }
      ],
      "name": "ApprovalForAll",
      "type": "event"
    },
    {
      "anonymous": false,
      "inputs": [
        {
          "indexed": true,
          "internalType": "address",
          "name": "user",
          "type": "address"
        },
        {
          "indexed": false,
          "internalType": "uint256",
          "name": "amount",
          "type": "uint256"
        },
        {
          "indexed": false,
          "internalType": "uint256[]",
          "name": "cbIds",
          "type": "uint256[]"
        },
        {
          "indexed": false,
          "internalType": "uint256",
          "name": "boxType",
          "type": "uint256"
        }
      ],
      "name": "BuyBoxes",
      "type": "event"
    },
    {
      "anonymous": false,
      "inputs": [
        {
          "indexed": true,
          "internalType": "address",
          "name": "user",
          "type": "address"
        },
        {
          "indexed": false,
          "internalType": "uint256",
          "name": "amount",
          "type": "uint256"
        },
        {
          "indexed": false,
          "internalType": "uint256[]",
          "name": "cbIds",
          "type": "uint256[]"
        },
        {
          "indexed": false,
          "internalType": "uint256[]",
          "name": "boxTypes",
          "type": "uint256[]"
        }
      ],
      "name": "OpenBoxes",
      "type": "event"
    },
    {
      "anonymous": false,
      "inputs": [
        {
          "indexed": false,
          "internalType": "uint256",
          "name": "boxType",
          "type": "uint256"
        },
        {
          "indexed": false,
          "internalType": "address[]",
          "name": "whiteUsers",
          "type": "address[]"
        }
      ],
      "name": "RemoveWhiteList",
      "type": "event"
    },
    {
      "anonymous": false,
      "inputs": [
        {
          "indexed": true,
          "internalType": "bytes32",
          "name": "role",
          "type": "bytes32"
        },
        {
          "indexed": true,
          "internalType": "bytes32",
          "name": "previousAdminRole",
          "type": "bytes32"
        },
        {
          "indexed": true,
          "internalType": "bytes32",
          "name": "newAdminRole",
          "type": "bytes32"
        }
      ],
      "name": "RoleAdminChanged",
      "type": "event"
    },
    {
      "anonymous": false,
      "inputs": [
        {
          "indexed": true,
          "internalType": "bytes32",
          "name": "role",
          "type": "bytes32"
        },
        {
          "indexed": true,
          "internalType": "address",
          "name": "account",
          "type": "address"
        },
        {
          "indexed": true,
          "internalType": "address",
          "name": "sender",
          "type": "address"
        }
      ],
      "name": "RoleGranted",
      "type": "event"
    },
    {
      "anonymous": false,
      "inputs": [
        {
          "indexed": true,
          "internalType": "bytes32",
          "name": "role",
          "type": "bytes32"
        },
        {
          "indexed": true,
          "internalType": "address",
          "name": "account",
          "type": "address"
        },
        {
          "indexed": true,
          "internalType": "address",
          "name": "sender",
          "type": "address"
        }
      ],
      "name": "RoleRevoked",
      "type": "event"
    },
    {
      "anonymous": false,
      "inputs": [
        {
          "indexed": false,
          "internalType": "address",
          "name": "cnAddr",
          "type": "address"
        }
      ],
      "name": "SetAddrs",
      "type": "event"
    },
    {
      "anonymous": false,
      "inputs": [
        {
          "indexed": false,
          "internalType": "string",
          "name": "uri",
          "type": "string"
        }
      ],
      "name": "SetBaseURI",
      "type": "event"
    },
    {
      "anonymous": false,
      "inputs": [
        {
          "indexed": false,
          "internalType": "uint256",
          "name": "boxType",
          "type": "uint256"
        },
        {
          "indexed": false,
          "internalType": "uint256",
          "name": "boxTokenPrice",
          "type": "uint256"
        },
        {
          "indexed": false,
          "internalType": "address",
          "name": "tokenAddr",
          "type": "address"
        },
        {
          "indexed": false,
          "internalType": "address",
          "name": "receivingAddr",
          "type": "address"
        },
        {
          "indexed": false,
          "internalType": "uint256",
          "name": "hourlyBuylimit",
          "type": "uint256"
        },
        {
          "indexed": false,
          "internalType": "bool",
          "name": "whiteListFlag",
          "type": "bool"
        },
        {
          "indexed": false,
          "internalType": "uint256[]",
          "name": "heroProbability",
          "type": "uint256[]"
        }
      ],
      "name": "SetBoxInfo",
      "type": "event"
    },
    {
      "anonymous": false,
      "inputs": [
        {
          "indexed": false,
          "internalType": "bytes32",
          "name": "keyHash",
          "type": "bytes32"
        },
        {
          "indexed": false,
          "internalType": "uint32",
          "name": "callbackGasLimit",
          "type": "uint32"
        },
        {
          "indexed": false,
          "internalType": "uint16",
          "name": "requestConfirmations",
          "type": "uint16"
        }
      ],
      "name": "SetVrfInfo",
      "type": "event"
    },
    {
      "anonymous": false,
      "inputs": [
        {
          "indexed": true,
          "internalType": "address",
          "name": "user",
          "type": "address"
        },
        {
          "indexed": false,
          "internalType": "uint256",
          "name": "amount",
          "type": "uint256"
        },
        {
          "indexed": false,
          "internalType": "uint256[]",
          "name": "cnIds",
          "type": "uint256[]"
        }
      ],
      "name": "SpawnCns",
      "type": "event"
    },
    {
      "anonymous": false,
      "inputs": [
        {
          "indexed": true,
          "internalType": "address",
          "name": "from",
          "type": "address"
        },
        {
          "indexed": true,
          "internalType": "address",
          "name": "to",
          "type": "address"
        },
        {
          "indexed": true,
          "internalType": "uint256",
          "name": "tokenId",
          "type": "uint256"
        }
      ],
      "name": "Transfer",
      "type": "event"
    },
    {
      "inputs": [],
      "name": "COORDINATOR",
      "outputs": [
        {
          "internalType": "contract VRFCoordinatorV2Interface",
          "name": "",
          "type": "address"
        }
      ],
      "stateMutability": "view",
      "type": "function"
    },
    {
      "inputs": [],
      "name": "DEFAULT_ADMIN_ROLE",
      "outputs": [
        {
          "internalType": "bytes32",
          "name": "",
          "type": "bytes32"
        }
      ],
      "stateMutability": "view",
      "type": "function"
    },
    {
      "inputs": [],
      "name": "LINKTOKEN",
      "outputs": [
        {
          "internalType": "contract LinkTokenInterface",
          "name": "",
          "type": "address"
        }
      ],
      "stateMutability": "view",
      "type": "function"
    },
    {
      "inputs": [],
      "name": "MANAGER_ROLE",
      "outputs": [
        {
          "internalType": "bytes32",
          "name": "",
          "type": "bytes32"
        }
      ],
      "stateMutability": "view",
      "type": "function"
    },
    {
      "inputs": [
        {
          "internalType": "uint256",
          "name": "supply",
          "type": "uint256"
        },
        {
          "internalType": "uint256",
          "name": "boxType",
          "type": "uint256"
        }
      ],
      "name": "addBoxesMaxSupply",
      "outputs": [],
      "stateMutability": "nonpayable",
      "type": "function"
    },
    {
      "inputs": [
        {
          "internalType": "uint256",
          "name": "boxType",
          "type": "uint256"
        },
        {
          "internalType": "address[]",
          "name": "whiteUsers",
          "type": "address[]"
        }
      ],
      "name": "addWhiteList",
      "outputs": [],
      "stateMutability": "nonpayable",
      "type": "function"
    },
    {
      "inputs": [
        {
          "internalType": "address",
          "name": "to",
          "type": "address"
        },
        {
          "internalType": "uint256",
          "name": "tokenId",
          "type": "uint256"
        }
      ],
      "name": "approve",
      "outputs": [],
      "stateMutability": "nonpayable",
      "type": "function"
    },
    {
      "inputs": [
        {
          "internalType": "address",
          "name": "owner",
          "type": "address"
        }
      ],
      "name": "balanceOf",
      "outputs": [
        {
          "internalType": "uint256",
          "name": "",
          "type": "uint256"
        }
      ],
      "stateMutability": "view",
      "type": "function"
    },
    {
      "inputs": [],
      "name": "baseURI",
      "outputs": [
        {
          "internalType": "string",
          "name": "",
          "type": "string"
        }
      ],
      "stateMutability": "view",
      "type": "function"
    },
    {
      "inputs": [
        {
          "internalType": "uint256",
          "name": "",
          "type": "uint256"
        }
      ],
      "name": "boxTokenPrices",
      "outputs": [
        {
          "internalType": "uint256",
          "name": "",
          "type": "uint256"
        }
      ],
      "stateMutability": "view",
      "type": "function"
    },
    {
      "inputs": [
        {
          "internalType": "uint256",
          "name": "",
          "type": "uint256"
        }
      ],
      "name": "boxesMaxSupply",
      "outputs": [
        {
          "internalType": "uint256",
          "name": "",
          "type": "uint256"
        }
      ],
      "stateMutability": "view",
      "type": "function"
    },
    {
      "inputs": [
        {
          "internalType": "uint256",
          "name": "amount",
          "type": "uint256"
        },
        {
          "internalType": "uint256",
          "name": "boxType",
          "type": "uint256"
        }
      ],
      "name": "buyBoxes",
      "outputs": [],
      "stateMutability": "payable",
      "type": "function"
    },
    {
      "inputs": [],
      "name": "callbackGasLimit",
      "outputs": [
        {
          "internalType": "uint32",
          "name": "",
          "type": "uint32"
        }
      ],
      "stateMutability": "view",
      "type": "function"
    },
    {
      "inputs": [
        {
          "internalType": "address",
          "name": "receivingWallet",
          "type": "address"
        }
      ],
      "name": "cancelSubscription",
      "outputs": [],
      "stateMutability": "nonpayable",
      "type": "function"
    },
    {
      "inputs": [
        {
          "internalType": "uint256",
          "name": "",
          "type": "uint256"
        }
      ],
      "name": "cbIdToType",
      "outputs": [
        {
          "internalType": "uint256",
          "name": "",
          "type": "uint256"
        }
      ],
      "stateMutability": "view",
      "type": "function"
    },
    {
      "inputs": [],
      "name": "cn",
      "outputs": [
        {
          "internalType": "contract ICN",
          "name": "",
          "type": "address"
        }
      ],
      "stateMutability": "view",
      "type": "function"
    },
    {
      "inputs": [
        {
          "internalType": "uint256",
          "name": "tokenId",
          "type": "uint256"
        }
      ],
      "name": "getApproved",
      "outputs": [
        {
          "internalType": "address",
          "name": "",
          "type": "address"
        }
      ],
      "stateMutability": "view",
      "type": "function"
    },
    {
      "inputs": [
        {
          "internalType": "uint256",
          "name": "boxType",
          "type": "uint256"
        }
      ],
      "name": "getBoxesLeftSupply",
      "outputs": [
        {
          "internalType": "uint256",
          "name": "",
          "type": "uint256"
        }
      ],
      "stateMutability": "view",
      "type": "function"
    },
    {
      "inputs": [
        {
          "internalType": "uint256[]",
          "name": "array",
          "type": "uint256[]"
        },
        {
          "internalType": "uint256",
          "name": "_random",
          "type": "uint256"
        }
      ],
      "name": "getLevel",
      "outputs": [
        {
          "internalType": "uint256",
          "name": "",
          "type": "uint256"
        }
      ],
      "stateMutability": "pure",
      "type": "function"
    },
    {
      "inputs": [
        {
          "internalType": "bytes32",
          "name": "role",
          "type": "bytes32"
        }
      ],
      "name": "getRoleAdmin",
      "outputs": [
        {
          "internalType": "bytes32",
          "name": "",
          "type": "bytes32"
        }
      ],
      "stateMutability": "view",
      "type": "function"
    },
    {
      "inputs": [
        {
          "internalType": "bytes32",
          "name": "role",
          "type": "bytes32"
        },
        {
          "internalType": "uint256",
          "name": "index",
          "type": "uint256"
        }
      ],
      "name": "getRoleMember",
      "outputs": [
        {
          "internalType": "address",
          "name": "",
          "type": "address"
        }
      ],
      "stateMutability": "view",
      "type": "function"
    },
    {
      "inputs": [
        {
          "internalType": "bytes32",
          "name": "role",
          "type": "bytes32"
        }
      ],
      "name": "getRoleMemberCount",
      "outputs": [
        {
          "internalType": "uint256",
          "name": "",
          "type": "uint256"
        }
      ],
      "stateMutability": "view",
      "type": "function"
    },
    {
      "inputs": [
        {
          "internalType": "uint256",
          "name": "boxType",
          "type": "uint256"
        },
        {
          "internalType": "address",
          "name": "user",
          "type": "address"
        },
        {
          "internalType": "uint256",
          "name": "timestamp",
          "type": "uint256"
        }
      ],
      "name": "getUserHourlyBoxesLeftSupply",
      "outputs": [
        {
          "internalType": "uint256",
          "name": "",
          "type": "uint256"
        }
      ],
      "stateMutability": "view",
      "type": "function"
    },
    {
      "inputs": [
        {
          "internalType": "uint256",
          "name": "boxType",
          "type": "uint256"
        },
        {
          "internalType": "address",
          "name": "user",
          "type": "address"
        }
      ],
      "name": "getWhiteListExistence",
      "outputs": [
        {
          "internalType": "bool",
          "name": "",
          "type": "bool"
        }
      ],
      "stateMutability": "view",
      "type": "function"
    },
    {
      "inputs": [
        {
          "internalType": "bytes32",
          "name": "role",
          "type": "bytes32"
        },
        {
          "internalType": "address",
          "name": "account",
          "type": "address"
        }
      ],
      "name": "grantRole",
      "outputs": [],
      "stateMutability": "nonpayable",
      "type": "function"
    },
    {
      "inputs": [
        {
          "internalType": "bytes32",
          "name": "role",
          "type": "bytes32"
        },
        {
          "internalType": "address",
          "name": "account",
          "type": "address"
        }
      ],
      "name": "hasRole",
      "outputs": [
        {
          "internalType": "bool",
          "name": "",
          "type": "bool"
        }
      ],
      "stateMutability": "view",
      "type": "function"
    },
    {
      "inputs": [
        {
          "internalType": "uint256",
          "name": "",
          "type": "uint256"
        },
        {
          "internalType": "uint256",
          "name": "",
          "type": "uint256"
        }
      ],
      "name": "heroProbabilities",
      "outputs": [
        {
          "internalType": "uint256",
          "name": "",
          "type": "uint256"
        }
      ],
      "stateMutability": "view",
      "type": "function"
    },
    {
      "inputs": [
        {
          "internalType": "uint256",
          "name": "",
          "type": "uint256"
        }
      ],
      "name": "hourlyBuyLimits",
      "outputs": [
        {
          "internalType": "uint256",
          "name": "",
          "type": "uint256"
        }
      ],
      "stateMutability": "view",
      "type": "function"
    },
    {
      "inputs": [
        {
          "internalType": "address",
          "name": "owner",
          "type": "address"
        },
        {
          "internalType": "address",
          "name": "operator",
          "type": "address"
        }
      ],
      "name": "isApprovedForAll",
      "outputs": [
        {
          "internalType": "bool",
          "name": "",
          "type": "bool"
        }
      ],
      "stateMutability": "view",
      "type": "function"
    },
    {
      "inputs": [],
      "name": "keyHash",
      "outputs": [
        {
          "internalType": "bytes32",
          "name": "",
          "type": "bytes32"
        }
      ],
      "stateMutability": "view",
      "type": "function"
    },
    {
      "inputs": [],
      "name": "link_token_contract",
      "outputs": [
        {
          "internalType": "address",
          "name": "",
          "type": "address"
        }
      ],
      "stateMutability": "view",
      "type": "function"
    },
    {
      "inputs": [],
      "name": "name",
      "outputs": [
        {
          "internalType": "string",
          "name": "",
          "type": "string"
        }
      ],
      "stateMutability": "view",
      "type": "function"
    },
    {
      "inputs": [
        {
          "internalType": "uint256[]",
          "name": "cbIds",
          "type": "uint256[]"
        }
      ],
      "name": "openBoxes",
      "outputs": [],
      "stateMutability": "nonpayable",
      "type": "function"
    },
    {
      "inputs": [
        {
          "internalType": "uint256",
          "name": "tokenId",
          "type": "uint256"
        }
      ],
      "name": "ownerOf",
      "outputs": [
        {
          "internalType": "address",
          "name": "",
          "type": "address"
        }
      ],
      "stateMutability": "view",
      "type": "function"
    },
    {
      "inputs": [
        {
          "internalType": "uint256",
          "name": "requestId",
          "type": "uint256"
        },
        {
          "internalType": "uint256[]",
          "name": "randomWords",
          "type": "uint256[]"
        }
      ],
      "name": "rawFulfillRandomWords",
      "outputs": [],
      "stateMutability": "nonpayable",
      "type": "function"
    },
    {
      "inputs": [
        {
          "internalType": "uint256",
          "name": "",
          "type": "uint256"
        }
      ],
      "name": "receivingAddrs",
      "outputs": [
        {
          "internalType": "address",
          "name": "",
          "type": "address"
        }
      ],
      "stateMutability": "view",
      "type": "function"
    },
    {
      "inputs": [
        {
          "internalType": "uint256",
          "name": "boxType",
          "type": "uint256"
        },
        {
          "internalType": "address[]",
          "name": "whiteUsers",
          "type": "address[]"
        }
      ],
      "name": "removeWhiteList",
      "outputs": [],
      "stateMutability": "nonpayable",
      "type": "function"
    },
    {
      "inputs": [
        {
          "internalType": "bytes32",
          "name": "role",
          "type": "bytes32"
        },
        {
          "internalType": "address",
          "name": "account",
          "type": "address"
        }
      ],
      "name": "renounceRole",
      "outputs": [],
      "stateMutability": "nonpayable",
      "type": "function"
    },
    {
      "inputs": [],
      "name": "requestConfirmations",
      "outputs": [
        {
          "internalType": "uint16",
          "name": "",
          "type": "uint16"
        }
      ],
      "stateMutability": "view",
      "type": "function"
    },
    {
      "inputs": [
        {
          "internalType": "uint256",
          "name": "",
          "type": "uint256"
        },
        {
          "internalType": "uint256",
          "name": "",
          "type": "uint256"
        }
      ],
      "name": "requestIdToTypes",
      "outputs": [
        {
          "internalType": "uint256",
          "name": "",
          "type": "uint256"
        }
      ],
      "stateMutability": "view",
      "type": "function"
    },
    {
      "inputs": [
        {
          "internalType": "uint256",
          "name": "",
          "type": "uint256"
        }
      ],
      "name": "requestIdToUser",
      "outputs": [
        {
          "internalType": "address",
          "name": "",
          "type": "address"
        }
      ],
      "stateMutability": "view",
      "type": "function"
    },
    {
      "inputs": [
        {
          "internalType": "bytes32",
          "name": "role",
          "type": "bytes32"
        },
        {
          "internalType": "address",
          "name": "account",
          "type": "address"
        }
      ],
      "name": "revokeRole",
      "outputs": [],
      "stateMutability": "nonpayable",
      "type": "function"
    },
    {
      "inputs": [
        {
          "internalType": "address",
          "name": "from",
          "type": "address"
        },
        {
          "internalType": "address",
          "name": "to",
          "type": "address"
        },
        {
          "internalType": "uint256",
          "name": "tokenId",
          "type": "uint256"
        }
      ],
      "name": "safeTransferFrom",
      "outputs": [],
      "stateMutability": "nonpayable",
      "type": "function"
    },
    {
      "inputs": [
        {
          "internalType": "address",
          "name": "from",
          "type": "address"
        },
        {
          "internalType": "address",
          "name": "to",
          "type": "address"
        },
        {
          "internalType": "uint256",
          "name": "tokenId",
          "type": "uint256"
        },
        {
          "internalType": "bytes",
          "name": "_data",
          "type": "bytes"
        }
      ],
      "name": "safeTransferFrom",
      "outputs": [],
      "stateMutability": "nonpayable",
      "type": "function"
    },
    {
      "inputs": [
        {
          "internalType": "address",
          "name": "from",
          "type": "address"
        },
        {
          "internalType": "address",
          "name": "to",
          "type": "address"
        },
        {
          "internalType": "uint256[]",
          "name": "tokenIds",
          "type": "uint256[]"
        }
      ],
      "name": "safeTransferFromBatch",
      "outputs": [],
      "stateMutability": "nonpayable",
      "type": "function"
    },
    {
      "inputs": [
        {
          "internalType": "address",
          "name": "cnAddr",
          "type": "address"
        }
      ],
      "name": "setAddrs",
      "outputs": [],
      "stateMutability": "nonpayable",
      "type": "function"
    },
    {
      "inputs": [
        {
          "internalType": "address",
          "name": "operator",
          "type": "address"
        },
        {
          "internalType": "bool",
          "name": "approved",
          "type": "bool"
        }
      ],
      "name": "setApprovalForAll",
      "outputs": [],
      "stateMutability": "nonpayable",
      "type": "function"
    },
    {
      "inputs": [
        {
          "internalType": "string",
          "name": "uri",
          "type": "string"
        }
      ],
      "name": "setBaseURI",
      "outputs": [],
      "stateMutability": "nonpayable",
      "type": "function"
    },
    {
      "inputs": [
        {
          "internalType": "uint256",
          "name": "boxType",
          "type": "uint256"
        },
        {
          "internalType": "uint256",
          "name": "boxTokenPrice",
          "type": "uint256"
        },
        {
          "internalType": "address",
          "name": "tokenAddr",
          "type": "address"
        },
        {
          "internalType": "address",
          "name": "receivingAddr",
          "type": "address"
        },
        {
          "internalType": "uint256",
          "name": "hourlyBuyLimit",
          "type": "uint256"
        },
        {
          "internalType": "bool",
          "name": "whiteListFlag",
          "type": "bool"
        },
        {
          "internalType": "uint256[]",
          "name": "heroProbability",
          "type": "uint256[]"
        }
      ],
      "name": "setBoxInfo",
      "outputs": [],
      "stateMutability": "nonpayable",
      "type": "function"
    },
    {
      "inputs": [
        {
          "internalType": "bytes32",
          "name": "_keyHash",
          "type": "bytes32"
        },
        {
          "internalType": "uint32",
          "name": "_callbackGasLimit",
          "type": "uint32"
        },
        {
          "internalType": "uint16",
          "name": "_requestConfirmations",
          "type": "uint16"
        }
      ],
      "name": "setVrfInfo",
      "outputs": [],
      "stateMutability": "nonpayable",
      "type": "function"
    },
    {
      "inputs": [],
      "name": "subscriptionId",
      "outputs": [
        {
          "internalType": "uint64",
          "name": "",
          "type": "uint64"
        }
      ],
      "stateMutability": "view",
      "type": "function"
    },
    {
      "inputs": [
        {
          "internalType": "bytes4",
          "name": "interfaceId",
          "type": "bytes4"
        }
      ],
      "name": "supportsInterface",
      "outputs": [
        {
          "internalType": "bool",
          "name": "",
          "type": "bool"
        }
      ],
      "stateMutability": "view",
      "type": "function"
    },
    {
      "inputs": [],
      "name": "symbol",
      "outputs": [
        {
          "internalType": "string",
          "name": "",
          "type": "string"
        }
      ],
      "stateMutability": "view",
      "type": "function"
    },
    {
      "inputs": [
        {
          "internalType": "uint256",
          "name": "",
          "type": "uint256"
        }
      ],
      "name": "tokenAddrs",
      "outputs": [
        {
          "internalType": "address",
          "name": "",
          "type": "address"
        }
      ],
      "stateMutability": "view",
      "type": "function"
    },
    {
      "inputs": [
        {
          "internalType": "uint256",
          "name": "index",
          "type": "uint256"
        }
      ],
      "name": "tokenByIndex",
      "outputs": [
        {
          "internalType": "uint256",
          "name": "",
          "type": "uint256"
        }
      ],
      "stateMutability": "view",
      "type": "function"
    },
    {
      "inputs": [
        {
          "internalType": "address",
          "name": "owner",
          "type": "address"
        },
        {
          "internalType": "uint256",
          "name": "index",
          "type": "uint256"
        }
      ],
      "name": "tokenOfOwnerByIndex",
      "outputs": [
        {
          "internalType": "uint256",
          "name": "",
          "type": "uint256"
        }
      ],
      "stateMutability": "view",
      "type": "function"
    },
    {
      "inputs": [
        {
          "internalType": "uint256",
          "name": "tokenId",
          "type": "uint256"
        }
      ],
      "name": "tokenURI",
      "outputs": [
        {
          "internalType": "string",
          "name": "",
          "type": "string"
        }
      ],
      "stateMutability": "view",
      "type": "function"
    },
    {
      "inputs": [
        {
          "internalType": "address",
          "name": "user",
          "type": "address"
        },
        {
          "internalType": "uint256",
          "name": "cursor",
          "type": "uint256"
        },
        {
          "internalType": "uint256",
          "name": "size",
          "type": "uint256"
        }
      ],
      "name": "tokensOfOwnerBySize",
      "outputs": [
        {
          "internalType": "uint256[]",
          "name": "",
          "type": "uint256[]"
        },
        {
          "internalType": "uint256",
          "name": "",
          "type": "uint256"
        }
      ],
      "stateMutability": "view",
      "type": "function"
    },
    {
      "inputs": [
        {
          "internalType": "uint256",
          "name": "amount",
          "type": "uint256"
        }
      ],
      "name": "topUpSubscription",
      "outputs": [],
      "stateMutability": "nonpayable",
      "type": "function"
    },
    {
      "inputs": [
        {
          "internalType": "uint256",
          "name": "",
          "type": "uint256"
        }
      ],
      "name": "totalBoxesLength",
      "outputs": [
        {
          "internalType": "uint256",
          "name": "",
          "type": "uint256"
        }
      ],
      "stateMutability": "view",
      "type": "function"
    },
    {
      "inputs": [],
      "name": "totalSupply",
      "outputs": [
        {
          "internalType": "uint256",
          "name": "",
          "type": "uint256"
        }
      ],
      "stateMutability": "view",
      "type": "function"
    },
    {
      "inputs": [
        {
          "internalType": "address",
          "name": "from",
          "type": "address"
        },
        {
          "internalType": "address",
          "name": "to",
          "type": "address"
        },
        {
          "internalType": "uint256",
          "name": "tokenId",
          "type": "uint256"
        }
      ],
      "name": "transferFrom",
      "outputs": [],
      "stateMutability": "nonpayable",
      "type": "function"
    },
    {
      "inputs": [
        {
          "internalType": "address",
          "name": "",
          "type": "address"
        },
        {
          "internalType": "uint256",
          "name": "",
          "type": "uint256"
        },
        {
          "internalType": "uint256",
          "name": "",
          "type": "uint256"
        }
      ],
      "name": "userHourlyBoxesLength",
      "outputs": [
        {
          "internalType": "uint256",
          "name": "",
          "type": "uint256"
        }
      ],
      "stateMutability": "view",
      "type": "function"
    },
    {
      "inputs": [],
      "name": "vrfCoordinator",
      "outputs": [
        {
          "internalType": "address",
          "name": "",
          "type": "address"
        }
      ],
      "stateMutability": "view",
      "type": "function"
    },
    {
      "inputs": [
        {
          "internalType": "uint256",
          "name": "",
          "type": "uint256"
        }
      ],
      "name": "whiteListFlags",
      "outputs": [
        {
          "internalType": "bool",
          "name": "",
          "type": "bool"
        }
      ],
      "stateMutability": "view",
      "type": "function"
    },
    {
      "stateMutability": "payable",
      "type": "receive"
    }
  ],
  "bytecode": "0x60a0604052600f80546001600160a01b031990811673d5d517abe5cf79b7e95ec98db0f0277788aff6341790915560108054909116735947bb275c521040051d82396192181b413227a31790557f83250c5584ffa93feb6ee082981c5ebe484c865196750b39835ad4f13780435d601155601280546403002625a065ffffffffffff199091161790553480156200009557600080fd5b5060405162004d6338038062004d63833981016040819052620000b891620004bf565b600f54604080518082018252600e81526d086f2c4cae4408ecac2e44084def60931b60208083019182528351808501909452600284526121a160f11b9084015281516001600160a01b0390941693919291620001179160009162000419565b5080516200012d90600190602084019062000419565b50506001600c55506001600160a01b03166080526200014e600033620002b0565b6200017a7f241ecf16d79d0f8dbfb92cbc07fe17840425976cf0667f022fe9877caa831b0882620002b0565b600f54600d80546001600160a01b039283166001600160a01b03199182168117909255601054600e8054919094169116179091556040805163288688f960e21b8152905163a21a23e49160048082019260209290919082900301816000875af1158015620001ec573d6000803e3d6000fd5b505050506040513d601f19601f82011682018060405250810190620002129190620004f1565b60128054600160301b600160701b03191666010000000000006001600160401b0393841681029190911791829055600d54604051631cd0704360e21b81529190920490921660048301523060248301526001600160a01b031690637341c10c90604401600060405180830381600087803b1580156200029057600080fd5b505af1158015620002a5573d6000803e3d6000fd5b505050505062000559565b620002bc8282620002c0565b5050565b620002d782826200030360201b620025dd1760201c565b6000828152600b60209081526040909120620002fe91839062002663620003a7821b17901c565b505050565b6000828152600a602090815260408083206001600160a01b038516845290915290205460ff16620002bc576000828152600a602090815260408083206001600160a01b03851684529091529020805460ff19166001179055620003633390565b6001600160a01b0316816001600160a01b0316837f2f8788117e7eff1d82e926ec794901d17c78024a50270940304540a733656f0d60405160405180910390a45050565b6000620003be836001600160a01b038416620003c7565b90505b92915050565b60008181526001830160205260408120546200041057508154600181810184556000848152602080822090930184905584548482528286019093526040902091909155620003c1565b506000620003c1565b82805462000427906200051c565b90600052602060002090601f0160209004810192826200044b576000855562000496565b82601f106200046657805160ff191683800117855562000496565b8280016001018555821562000496579182015b828111156200049657825182559160200191906001019062000479565b50620004a4929150620004a8565b5090565b5b80821115620004a45760008155600101620004a9565b600060208284031215620004d257600080fd5b81516001600160a01b0381168114620004ea57600080fd5b9392505050565b6000602082840312156200050457600080fd5b81516001600160401b0381168114620004ea57600080fd5b600181811c908216806200053157607f821691505b602082108114156200055357634e487b7160e01b600052602260045260246000fd5b50919050565b6080516147e76200057c600039600081816111d6015261121801526147e76000f3fe6080604052600436106103d25760003560e01c80636352211e116101fd578063a3e56fa811610118578063c87b56dd116100ab578063dc7d73bb1161007a578063dc7d73bb14610c44578063e985e9c514610c7a578063ec87621c14610cc3578063ecc010db14610ce5578063ed6f7c1314610d1557600080fd5b8063c87b56dd14610bc4578063ca15c87314610be4578063d37ae01314610c04578063d547741f14610c2457600080fd5b8063b0fb162f116100e7578063b0fb162f14610b2e578063b88d4fde14610b64578063bc952d2e14610b84578063be2de8f214610ba457600080fd5b8063a3e56fa814610a94578063a54085e614610ab4578063a72f3bd414610ae1578063b0d179a514610b0e57600080fd5b80639010d07c1161019057806395d89b411161015f57806395d89b4114610a2a578063a217fddf14610a3f578063a22cb46514610a54578063a3a79ad714610a7457600080fd5b80639010d07c14610994578063915044ec146109b457806391d14854146109ea57806393d81d5814610a0a57600080fd5b8063854ec1af116101cc578063854ec1af1461091357806386850e931461094157806388de44bc146109615780638a6a68671461097457600080fd5b80636352211e1461089e5780636b4a850d146108be5780636c0360eb146108de57806370a08231146108f357600080fd5b80632f2ff15d116102ed57806342842e0e116102805780634f6ccce71161024f5780634f6ccce71461082857806355380dfb1461084857806355f804b31461086857806361728f391461088857600080fd5b806342842e0e1461078e5780634b056743146107ae5780634baeba27146107db5780634d37d731146107fb57600080fd5b806338aa3815116102bc57806338aa38151461070e5780633b2bcbf11461072e5780633e52d5c61461074e5780633f7bab011461076e57600080fd5b80632f2ff15d1461068e5780632f745c59146106ae5780633633aa75146106ce57806336568abe146106ee57600080fd5b80631bbbced71161036557806323b872dd1161033457806323b872dd146105d0578063248a9ca3146105f057806324f746971461062057806327f0c2d11461065257600080fd5b80631bbbced71461052d5780631c42920c1461054d5780631e9eca4b1461057a5780631fe543e3146105b057600080fd5b8063081812fc116103a1578063081812fc14610477578063095ea7b3146104af57806309c1ba2e146104cf57806318160ddd1461050e57600080fd5b806301ffc9a7146103de57806304a82e6f1461041357806305b1e3be1461043557806306fdde031461045557600080fd5b366103d957005b600080fd5b3480156103ea57600080fd5b506103fe6103f9366004613b44565b610d35565b60405190151581526020015b60405180910390f35b34801561041f57600080fd5b5061043361042e366004613c5f565b610d46565b005b34801561044157600080fd5b50610433610450366004613cec565b610e2e565b34801561046157600080fd5b5061046a610ee2565b60405161040a9190613de7565b34801561048357600080fd5b50610497610492366004613dfa565b610f74565b6040516001600160a01b03909116815260200161040a565b3480156104bb57600080fd5b506104336104ca366004613e13565b61100e565b3480156104db57600080fd5b506012546104f690600160301b90046001600160401b031681565b6040516001600160401b03909116815260200161040a565b34801561051a57600080fd5b506008545b60405190815260200161040a565b34801561053957600080fd5b50610433610548366004613cec565b611124565b34801561055957600080fd5b5061051f610568366004613dfa565b601e6020526000908152604090205481565b34801561058657600080fd5b50610497610595366004613dfa565b601a602052600090815260409020546001600160a01b031681565b3480156105bc57600080fd5b506104336105cb366004613e3d565b6111cb565b3480156105dc57600080fd5b506104336105eb366004613e83565b611253565b3480156105fc57600080fd5b5061051f61060b366004613dfa565b6000908152600a602052604090206001015490565b34801561062c57600080fd5b5060125461063d9063ffffffff1681565b60405163ffffffff909116815260200161040a565b34801561065e57600080fd5b5061051f61066d366004613ebf565b60208080526000938452604080852082529284528284209052825290205481565b34801561069a57600080fd5b506104336106a9366004613ef2565b611284565b3480156106ba57600080fd5b5061051f6106c9366004613e13565b6112a9565b3480156106da57600080fd5b50601054610497906001600160a01b031681565b3480156106fa57600080fd5b50610433610709366004613ef2565b61133f565b34801561071a57600080fd5b50610433610729366004613f1e565b6113b9565b34801561073a57600080fd5b50600d54610497906001600160a01b031681565b34801561075a57600080fd5b50610433610769366004613f7b565b611401565b34801561077a57600080fd5b5061051f610789366004613dfa565b6116a1565b34801561079a57600080fd5b506104336107a9366004613e83565b6116c5565b3480156107ba57600080fd5b5061051f6107c9366004613dfa565b60186020526000908152604090205481565b3480156107e757600080fd5b506103fe6107f6366004613ef2565b6116e0565b34801561080757600080fd5b5061051f610816366004613dfa565b601f6020526000908152604090205481565b34801561083457600080fd5b5061051f610843366004613dfa565b6116ff565b34801561085457600080fd5b50600e54610497906001600160a01b031681565b34801561087457600080fd5b50610433610883366004614006565b611792565b34801561089457600080fd5b5061051f60115481565b3480156108aa57600080fd5b506104976108b9366004613dfa565b6117f9565b3480156108ca57600080fd5b5061051f6108d936600461404e565b611870565b3480156108ea57600080fd5b5061046a6118dd565b3480156108ff57600080fd5b5061051f61090e366004614092565b61196b565b34801561091f57600080fd5b5061093361092e366004613ebf565b6119f2565b60405161040a9291906140e8565b34801561094d57600080fd5b5061043361095c366004613dfa565b611ad1565b61043361096f36600461410a565b611b93565b34801561098057600080fd5b5061043361098f36600461410a565b61215a565b3480156109a057600080fd5b506104976109af36600461410a565b6121cb565b3480156109c057600080fd5b506104976109cf366004613dfa565b6019602052600090815260409020546001600160a01b031681565b3480156109f657600080fd5b506103fe610a05366004613ef2565b6121e3565b348015610a1657600080fd5b50610433610a25366004614092565b61220e565b348015610a3657600080fd5b5061046a6122b9565b348015610a4b57600080fd5b5061051f600081565b348015610a6057600080fd5b50610433610a6f36600461412c565b6122c8565b348015610a8057600080fd5b50601554610497906001600160a01b031681565b348015610aa057600080fd5b50600f54610497906001600160a01b031681565b348015610ac057600080fd5b5061051f610acf366004613dfa565b60176020526000908152604090205481565b348015610aed57600080fd5b5061051f610afc366004613dfa565b601b6020526000908152604090205481565b348015610b1a57600080fd5b50610433610b29366004614092565b6122d3565b348015610b3a57600080fd5b50601254610b5190640100000000900461ffff1681565b60405161ffff909116815260200161040a565b348015610b7057600080fd5b50610433610b7f366004614163565b612339565b348015610b9057600080fd5b5061051f610b9f36600461410a565b61236b565b348015610bb057600080fd5b5061051f610bbf3660046141de565b61239c565b348015610bd057600080fd5b5061046a610bdf366004613dfa565b6123ff565b348015610bf057600080fd5b5061051f610bff366004613dfa565b6124f3565b348015610c1057600080fd5b50610433610c1f366004614203565b61250a565b348015610c3057600080fd5b50610433610c3f366004613ef2565b61259c565b348015610c5057600080fd5b50610497610c5f366004613dfa565b6013602052600090815260409020546001600160a01b031681565b348015610c8657600080fd5b506103fe610c95366004614255565b6001600160a01b03918216600090815260056020908152604080832093909416825291909152205460ff1690565b348015610ccf57600080fd5b5061051f60008051602061479283398151915281565b348015610cf157600080fd5b506103fe610d00366004613dfa565b601c6020526000908152604090205460ff1681565b348015610d2157600080fd5b5061051f610d3036600461410a565b6125c1565b6000610d4082612678565b92915050565b600080516020614792833981519152610d5e8161269d565b60008881526018602090815260408083208a90556019825280832080546001600160a01b03808c166001600160a01b031992831617909255601a84528285208054928b1692909116919091179055601b8252808320879055601c8252808320805487151560ff19909116179055601d82529091208351610de092850190613a5b565b507f8b78f541f499e56f67eaabda23f77a3bddf9ef5d38eaa2e1166969be9cdd83a388888888888888604051610e1c979695949392919061427f565b60405180910390a15050505050505050565b600080516020614792833981519152610e468161269d565b60005b8251811015610ea357610e90838281518110610e6757610e676142d4565b60200260200101516021600087815260200190815260200160002061266390919063ffffffff16565b5080610e9b81614300565b915050610e49565b507f65c140369b70af10d0ae5085553f8772643e41f37033fc2dd41441787eb572468383604051610ed592919061431b565b60405180910390a1505050565b606060008054610ef190614372565b80601f0160208091040260200160405190810160405280929190818152602001828054610f1d90614372565b8015610f6a5780601f10610f3f57610100808354040283529160200191610f6a565b820191906000526020600020905b815481529060010190602001808311610f4d57829003601f168201915b5050505050905090565b6000818152600260205260408120546001600160a01b0316610ff25760405162461bcd60e51b815260206004820152602c60248201527f4552433732313a20617070726f76656420717565727920666f72206e6f6e657860448201526b34b9ba32b73a103a37b5b2b760a11b60648201526084015b60405180910390fd5b506000908152600460205260409020546001600160a01b031690565b6000611019826117f9565b9050806001600160a01b0316836001600160a01b031614156110875760405162461bcd60e51b815260206004820152602160248201527f4552433732313a20617070726f76616c20746f2063757272656e74206f776e656044820152603960f91b6064820152608401610fe9565b336001600160a01b03821614806110a357506110a38133610c95565b6111155760405162461bcd60e51b815260206004820152603860248201527f4552433732313a20617070726f76652063616c6c6572206973206e6f74206f7760448201527f6e6572206e6f7220617070726f76656420666f7220616c6c00000000000000006064820152608401610fe9565b61111f83836126aa565b505050565b60008051602061479283398151915261113c8161269d565b60005b82518110156111995761118683828151811061115d5761115d6142d4565b60200260200101516021600087815260200190815260200160002061271890919063ffffffff16565b508061119181614300565b91505061113f565b507fd97b1d4cbbbdeb588e5787219a02ccd8844679b3a012e38f28a1b16cc557e8348383604051610ed592919061431b565b336001600160a01b037f000000000000000000000000000000000000000000000000000000000000000016146112455760405163073e64fd60e21b81523360048201526001600160a01b037f0000000000000000000000000000000000000000000000000000000000000000166024820152604401610fe9565b61124f828261272d565b5050565b61125d3382612951565b6112795760405162461bcd60e51b8152600401610fe9906143ad565b61111f838383612a47565b6000828152600a602052604090206001015461129f8161269d565b61111f8383612bee565b60006112b48361196b565b82106113165760405162461bcd60e51b815260206004820152602b60248201527f455243373231456e756d657261626c653a206f776e657220696e646578206f7560448201526a74206f6620626f756e647360a81b6064820152608401610fe9565b506001600160a01b03919091166000908152600660209081526040808320938352929052205490565b6001600160a01b03811633146113af5760405162461bcd60e51b815260206004820152602f60248201527f416363657373436f6e74726f6c3a2063616e206f6e6c792072656e6f756e636560448201526e103937b632b9903337b91039b2b63360891b6064820152608401610fe9565b61124f8282612c10565b60005b81518110156113fb576113e984848484815181106113dc576113dc6142d4565b60200260200101516116c5565b806113f381614300565b9150506113bc565b50505050565b6002600c5414156114545760405162461bcd60e51b815260206004820152601f60248201527f5265656e7472616e637947756172643a207265656e7472616e742063616c6c006044820152606401610fe9565b6002600c5580516114995760405162461bcd60e51b815260206004820152600f60248201526e0416d6f756e74206d757374203e203608c1b6044820152606401610fe9565b600081516001600160401b038111156114b4576114b4613b8b565b6040519080825280602002602001820160405280156114dd578160200160208202803683370190505b50905060005b82518110156115625760176000848381518110611502576115026142d4565b602002602001015181526020019081526020016000205482828151811061152b5761152b6142d4565b6020026020010181815250506115503361dead8584815181106113dc576113dc6142d4565b8061155a81614300565b9150506114e3565b50600d5460115460125484516040516305d3b1d360e41b81526004810193909352600160301b82046001600160401b03166024840152640100000000820461ffff16604484015263ffffffff91821660648401521660848201526000916001600160a01b031690635d3b1d309060a4016020604051808303816000875af11580156115f1573d6000803e3d6000fd5b505050506040513d601f19601f8201168201806040525081019061161591906143fe565b600081815260136020908152604080832080546001600160a01b03191633179055601482529091208451929350611650929091850190613a5b565b50336001600160a01b03167f6469f394585fa20516cd29f9195504c0762fa8f7286f2cdb9b502c3c9ee7d4368451858560405161168f93929190614417565b60405180910390a250506001600c5550565b6000818152601f6020908152604080832054601e909252822054610d40919061444c565b61111f83838360405180602001604052806000815250612339565b60008281526021602052604081206116f89083612c32565b9392505050565b600061170a60085490565b821061176d5760405162461bcd60e51b815260206004820152602c60248201527f455243373231456e756d657261626c653a20676c6f62616c20696e646578206f60448201526b7574206f6620626f756e647360a01b6064820152608401610fe9565b60088281548110611780576117806142d4565b90600052602060002001549050919050565b6000805160206147928339815191526117aa8161269d565b81516117bd906016906020850190613aa6565b507f23c8c9488efebfd474e85a7956de6f39b17c7ab88502d42a623db2d8e382bbaa826040516117ed9190613de7565b60405180910390a15050565b6000818152600260205260408120546001600160a01b031680610d405760405162461bcd60e51b815260206004820152602960248201527f4552433732313a206f776e657220717565727920666f72206e6f6e657869737460448201526832b73a103a37b5b2b760b91b6064820152608401610fe9565b60008080805b85518110156118c857858181518110611891576118916142d4565b6020026020010151836118a49190614463565b9250828510156118b6578091506118c8565b806118c081614300565b915050611876565b506118d4816001614463565b95945050505050565b601680546118ea90614372565b80601f016020809104026020016040519081016040528092919081815260200182805461191690614372565b80156119635780601f1061193857610100808354040283529160200191611963565b820191906000526020600020905b81548152906001019060200180831161194657829003601f168201915b505050505081565b60006001600160a01b0382166119d65760405162461bcd60e51b815260206004820152602a60248201527f4552433732313a2062616c616e636520717565727920666f7220746865207a65604482015269726f206164647265737360b01b6064820152608401610fe9565b506001600160a01b031660009081526003602052604090205490565b606060008284611a018761196b565b611a0b919061444c565b811115611a295784611a1c8761196b565b611a26919061444c565b90505b6000816001600160401b03811115611a4357611a43613b8b565b604051908082528060200260200182016040528015611a6c578160200160208202803683370190505b50905060005b82811015611ab757611a88886106c9838a614463565b828281518110611a9a57611a9a6142d4565b602090810291909101015280611aaf81614300565b915050611a72565b5080611ac38388614463565b935093505050935093915050565b600080516020614792833981519152611ae98161269d565b600e54600d5460125460408051600160301b9092046001600160401b031660208301526001600160a01b0393841693634000aea09316918691016040516020818303038152906040526040518463ffffffff1660e01b8152600401611b509392919061447b565b6020604051808303816000875af1158015611b6f573d6000803e3d6000fd5b505050506040513d601f19601f8201168201806040525081019061111f91906144a2565b6002600c541415611be65760405162461bcd60e51b815260206004820152601f60248201527f5265656e7472616e637947756172643a207265656e7472616e742063616c6c006044820152606401610fe9565b6002600c5581611c2a5760405162461bcd60e51b815260206004820152600f60248201526e0416d6f756e74206d757374203e203608c1b6044820152606401610fe9565b81611c3682334261239c565b1015611c905760405162461bcd60e51b815260206004820152602360248201527f416d6f756e7420657863656564732074686520686f75726c7920627579206c696044820152621b5a5d60ea1b6064820152608401610fe9565b81611c9a826116a1565b1015611ce85760405162461bcd60e51b815260206004820152601760248201527f4e6f7420656e6f75676820626f78657320737570706c790000000000000000006044820152606401610fe9565b600081815260186020526040902054611d565760405162461bcd60e51b815260206004820152602a60248201527f54686520626f78207072696365206f66207468697320626f7820686173206e6f6044820152691d081899595b881cd95d60b21b6064820152608401610fe9565b6000818152601a60205260409020546001600160a01b0316611dd55760405162461bcd60e51b815260206004820152603260248201527f54686520726563656976696e672061646472657373206f66207468697320626f6044820152711e081a185cc81b9bdd081899595b881cd95d60721b6064820152608401610fe9565b6000818152601d6020526040902054611e4a5760405162461bcd60e51b815260206004820152603160248201527f546865206865726f2070726f626162696c697479206f66207468697320626f78604482015270081a185cc81b9bdd081899595b881cd95d607a1b6064820152608401610fe9565b6000818152601c602052604090205460ff1615611ed3576000818152602160205260409020611e799033612c32565b611ed35760405162461bcd60e51b815260206004820152602560248201527f596f75722061646472657373206d757374206265206f6e207468652077686974604482015264195b1a5cdd60da1b6064820152608401610fe9565b600081815260186020526040812054611eec90846144bf565b6000838152601960205260409020549091506001600160a01b0316611f9557803414611f4b5760405162461bcd60e51b815260206004820152600e60248201526d0a0e4d2c6ca40dad2e6dac2e8c6d60931b6044820152606401610fe9565b6000828152601a60205260408082205490516001600160a01b039091169183156108fc02918491818181858888f19350505050158015611f8f573d6000803e3d6000fd5b50611fcd565b600082815260196020908152604080832054601a909252909120546001600160a01b0391821691611fcb91839133911685612c54565b505b6000836001600160401b03811115611fe757611fe7613b8b565b604051908082528060200260200182016040528015612010578160200160208202803683370190505b50905060005b848110156120a557600854828281518110612033576120336142d4565b6020026020010181815250508360176000848481518110612056576120566142d4565b602002602001015181526020019081526020016000208190555061209333838381518110612086576120866142d4565b6020026020010151612cae565b8061209d81614300565b915050612016565b5033600090815260208080526040808320868452909152812085916120cc610e10426144f4565b815260200190815260200160002060008282546120e99190614463565b90915550506000838152601f60205260408120805486929061210c908490614463565b909155505060405133907f0badb0ca8b7a0f90fdc0e2782b708af448dbede2dfc259e09d8e4f7bc36589c79061214790879085908890614508565b60405180910390a250506001600c555050565b6000805160206147928339815191526121728161269d565b6000828152601e602052604081208054859290612190908490614463565b909155505060408051848152602081018490527f5a6366ce46036f9fea2906d9a4ee6e497062c982be021c762e1af1ccc6c373349101610ed5565b6000828152600b602052604081206116f89083612cc8565b6000918252600a602090815260408084206001600160a01b0393909316845291905290205460ff1690565b6000805160206147928339815191526122268161269d565b600d54601254604051630d7ae1d360e41b8152600160301b9091046001600160401b031660048201526001600160a01b0384811660248301529091169063d7ae1d3090604401600060405180830381600087803b15801561228657600080fd5b505af115801561229a573d6000803e3d6000fd5b5050601280546dffffffffffffffff0000000000001916905550505050565b606060018054610ef190614372565b61124f338383612cd4565b6000805160206147928339815191526122eb8161269d565b601580546001600160a01b0319166001600160a01b0384169081179091556040519081527ff433bac3f36b8750f6fcd820d9a15960466d2527d1bd091107fee6a5766de9db906020016117ed565b6123433383612951565b61235f5760405162461bcd60e51b8152600401610fe9906143ad565b6113fb84848484612da3565b6014602052816000526040600020818154811061238757600080fd5b90600052602060002001600091509150505481565b6001600160a01b0382166000908152602080805260408083208684529091528120816123ca610e10856144f4565b815260200190815260200160002054601b6000868152602001908152602001600020546123f7919061444c565b949350505050565b6000818152600260205260409020546060906001600160a01b031661247e5760405162461bcd60e51b815260206004820152602f60248201527f4552433732314d657461646174613a2055524920717565727920666f72206e6f60448201526e3732bc34b9ba32b73a103a37b5b2b760891b6064820152608401610fe9565b60006016805461248d90614372565b9050116124a95760405180602001604052806000815250610d40565b60166124b483612dd6565b6000848152601760205260409020546124cc90612dd6565b6040516020016124de9392919061454d565b60405160208183030381529060405292915050565b6000818152600b60205260408120610d4090612ed3565b6000805160206147928339815191526125228161269d565b60118490556012805463ffffffff851665ffffffffffff19909116811764010000000061ffff8616908102919091179092556040805187815260208101929092528101919091527f612ba1742bba3159e8abd185471e4d96f8e0dc2bc8e01b96e2a937cd681a5c4c9060600160405180910390a150505050565b6000828152600a60205260409020600101546125b78161269d565b61111f8383612c10565b601d602052816000526040600020818154811061238757600080fd5b6125e782826121e3565b61124f576000828152600a602090815260408083206001600160a01b03851684529091529020805460ff1916600117905561261f3390565b6001600160a01b0316816001600160a01b0316837f2f8788117e7eff1d82e926ec794901d17c78024a50270940304540a733656f0d60405160405180910390a45050565b60006116f8836001600160a01b038416612edd565b60006001600160e01b03198216635a05180f60e01b1480610d405750610d4082612f2c565b6126a78133612f51565b50565b600081815260046020526040902080546001600160a01b0319166001600160a01b03841690811790915581906126df826117f9565b6001600160a01b03167f8c5be1e5ebec7d5bd14f71427d1e84f3dd0314c0f7b2291e5b200ac8c7c3b92560405160405180910390a45050565b60006116f8836001600160a01b038416612fb5565b600081516001600160401b0381111561274857612748613b8b565b604051908082528060200260200182016040528015612771578160200160208202803683370190505b50905060005b82518110156128f457600061283c601d60006014600089815260200190815260200160002085815481106127ad576127ad6142d4565b9060005260206000200154815260200190815260200160002080548060200260200160405190810160405280929190818152602001828054801561281057602002820191906000526020600020905b8154815260200190600101908083116127fc575b505050505061271086858151811061282a5761282a6142d4565b60200260200101516108d99190614604565b601554600087815260136020526040908190205490516330a348d960e11b8152600481018490526001600160a01b039182166024820152929350169063614691b2906044016020604051808303816000875af11580156128a0573d6000803e3d6000fd5b505050506040513d601f19601f820116820180604052508101906128c491906143fe565b8383815181106128d6576128d66142d4565b602090810291909101015250806128ec81614300565b915050612777565b506000838152601360205260409081902054835191516001600160a01b03909116917fbfa75690a552d1f04567c81a7b675e4c01e07d20b92f65819b839d96aa1e4c899161294491908590614618565b60405180910390a2505050565b6000818152600260205260408120546001600160a01b03166129ca5760405162461bcd60e51b815260206004820152602c60248201527f4552433732313a206f70657261746f7220717565727920666f72206e6f6e657860448201526b34b9ba32b73a103a37b5b2b760a11b6064820152608401610fe9565b60006129d5836117f9565b9050806001600160a01b0316846001600160a01b03161480612a1c57506001600160a01b0380821660009081526005602090815260408083209388168352929052205460ff165b806123f75750836001600160a01b0316612a3584610f74565b6001600160a01b031614949350505050565b826001600160a01b0316612a5a826117f9565b6001600160a01b031614612abe5760405162461bcd60e51b815260206004820152602560248201527f4552433732313a207472616e736665722066726f6d20696e636f72726563742060448201526437bbb732b960d91b6064820152608401610fe9565b6001600160a01b038216612b205760405162461bcd60e51b8152602060048201526024808201527f4552433732313a207472616e7366657220746f20746865207a65726f206164646044820152637265737360e01b6064820152608401610fe9565b612b2b8383836130a8565b612b366000826126aa565b6001600160a01b0383166000908152600360205260408120805460019290612b5f90849061444c565b90915550506001600160a01b0382166000908152600360205260408120805460019290612b8d908490614463565b909155505060008181526002602052604080822080546001600160a01b0319166001600160a01b0386811691821790925591518493918716917fddf252ad1be2c89b69c2b068fc378daa952ba7f163c4a11628f55a4df523b3ef91a4505050565b612bf882826125dd565b6000828152600b6020526040902061111f9082612663565b612c1a8282613160565b6000828152600b6020526040902061111f9082612718565b6001600160a01b038116600090815260018301602052604081205415156116f8565b604080516001600160a01b0385811660248301528416604482015260648082018490528251808303909101815260849091019091526020810180516001600160e01b03166323b872dd60e01b1790526113fb9085906131c7565b61124f828260405180602001604052806000815250613299565b60006116f883836132cc565b816001600160a01b0316836001600160a01b03161415612d365760405162461bcd60e51b815260206004820152601960248201527f4552433732313a20617070726f766520746f2063616c6c6572000000000000006044820152606401610fe9565b6001600160a01b03838116600081815260056020908152604080832094871680845294825291829020805460ff191686151590811790915591519182527f17307eab39ab6107e8899845ad3d59bd9653f200f220920489ca2b5937696c31910160405180910390a3505050565b612dae848484612a47565b612dba848484846132f6565b6113fb5760405162461bcd60e51b8152600401610fe990614631565b606081612dfa5750506040805180820190915260018152600360fc1b602082015290565b8160005b8115612e245780612e0e81614300565b9150612e1d9050600a836144f4565b9150612dfe565b6000816001600160401b03811115612e3e57612e3e613b8b565b6040519080825280601f01601f191660200182016040528015612e68576020820181803683370190505b5090505b84156123f757612e7d60018361444c565b9150612e8a600a86614604565b612e95906030614463565b60f81b818381518110612eaa57612eaa6142d4565b60200101906001600160f81b031916908160001a905350612ecc600a866144f4565b9450612e6c565b6000610d40825490565b6000818152600183016020526040812054612f2457508154600181810184556000848152602080822090930184905584548482528286019093526040902091909155610d40565b506000610d40565b60006001600160e01b03198216637965db0b60e01b1480610d405750610d40826133f4565b612f5b82826121e3565b61124f57612f73816001600160a01b03166014613419565b612f7e836020613419565b604051602001612f8f929190614683565b60408051601f198184030181529082905262461bcd60e51b8252610fe991600401613de7565b6000818152600183016020526040812054801561309e576000612fd960018361444c565b8554909150600090612fed9060019061444c565b905081811461305257600086600001828154811061300d5761300d6142d4565b9060005260206000200154905080876000018481548110613030576130306142d4565b6000918252602080832090910192909255918252600188019052604090208390555b8554869080613063576130636146f8565b600190038181906000526020600020016000905590558560010160008681526020019081526020016000206000905560019350505050610d40565b6000915050610d40565b6001600160a01b038316613103576130fe81600880546000838152600960205260408120829055600182018355919091527ff3f7a9fe364faab93b216da50a3214154f22a0a2b415b23a84c8169e8b636ee30155565b613126565b816001600160a01b0316836001600160a01b0316146131265761312683826135b4565b6001600160a01b03821661313d5761111f81613651565b826001600160a01b0316826001600160a01b03161461111f5761111f8282613700565b61316a82826121e3565b1561124f576000828152600a602090815260408083206001600160a01b0385168085529252808320805460ff1916905551339285917ff6391f5c32d9c69d2a47ea670b442974b53935d1edc7fd64eb21e047a839171b9190a45050565b600061321c826040518060400160405280602081526020017f5361666545524332303a206c6f772d6c6576656c2063616c6c206661696c6564815250856001600160a01b03166137449092919063ffffffff16565b80519091501561111f578080602001905181019061323a91906144a2565b61111f5760405162461bcd60e51b815260206004820152602a60248201527f5361666545524332303a204552433230206f7065726174696f6e20646964206e6044820152691bdd081cdd58d8d9595960b21b6064820152608401610fe9565b6132a38383613753565b6132b060008484846132f6565b61111f5760405162461bcd60e51b8152600401610fe990614631565b60008260000182815481106132e3576132e36142d4565b9060005260206000200154905092915050565b60006001600160a01b0384163b156133e957604051630a85bd0160e11b81526001600160a01b0385169063150b7a029061333a90339089908890889060040161470e565b6020604051808303816000875af1925050508015613375575060408051601f3d908101601f1916820190925261337291810190614741565b60015b6133cf573d8080156133a3576040519150601f19603f3d011682016040523d82523d6000602084013e6133a8565b606091505b5080516133c75760405162461bcd60e51b8152600401610fe990614631565b805181602001fd5b6001600160e01b031916630a85bd0160e11b1490506123f7565b506001949350505050565b60006001600160e01b0319821663780e9d6360e01b1480610d405750610d40826138a1565b606060006134288360026144bf565b613433906002614463565b6001600160401b0381111561344a5761344a613b8b565b6040519080825280601f01601f191660200182016040528015613474576020820181803683370190505b509050600360fc1b8160008151811061348f5761348f6142d4565b60200101906001600160f81b031916908160001a905350600f60fb1b816001815181106134be576134be6142d4565b60200101906001600160f81b031916908160001a90535060006134e28460026144bf565b6134ed906001614463565b90505b6001811115613565576f181899199a1a9b1b9c1cb0b131b232b360811b85600f1660108110613521576135216142d4565b1a60f81b828281518110613537576135376142d4565b60200101906001600160f81b031916908160001a90535060049490941c9361355e8161475e565b90506134f0565b5083156116f85760405162461bcd60e51b815260206004820181905260248201527f537472696e67733a20686578206c656e67746820696e73756666696369656e746044820152606401610fe9565b600060016135c18461196b565b6135cb919061444c565b60008381526007602052604090205490915080821461361e576001600160a01b03841660009081526006602090815260408083208584528252808320548484528184208190558352600790915290208190555b5060009182526007602090815260408084208490556001600160a01b039094168352600681528383209183525290812055565b6008546000906136639060019061444c565b6000838152600960205260408120546008805493945090928490811061368b5761368b6142d4565b9060005260206000200154905080600883815481106136ac576136ac6142d4565b60009182526020808320909101929092558281526009909152604080822084905585825281205560088054806136e4576136e46146f8565b6001900381819060005260206000200160009055905550505050565b600061370b8361196b565b6001600160a01b039093166000908152600660209081526040808320868452825280832085905593825260079052919091209190915550565b60606123f784846000856138f1565b6001600160a01b0382166137a95760405162461bcd60e51b815260206004820181905260248201527f4552433732313a206d696e7420746f20746865207a65726f20616464726573736044820152606401610fe9565b6000818152600260205260409020546001600160a01b03161561380e5760405162461bcd60e51b815260206004820152601c60248201527f4552433732313a20746f6b656e20616c7265616479206d696e746564000000006044820152606401610fe9565b61381a600083836130a8565b6001600160a01b0382166000908152600360205260408120805460019290613843908490614463565b909155505060008181526002602052604080822080546001600160a01b0319166001600160a01b03861690811790915590518392907fddf252ad1be2c89b69c2b068fc378daa952ba7f163c4a11628f55a4df523b3ef908290a45050565b60006001600160e01b031982166380ac58cd60e01b14806138d257506001600160e01b03198216635b5e139f60e01b145b80610d4057506301ffc9a760e01b6001600160e01b0319831614610d40565b6060824710156139525760405162461bcd60e51b815260206004820152602660248201527f416464726573733a20696e73756666696369656e742062616c616e636520666f6044820152651c8818d85b1b60d21b6064820152608401610fe9565b6001600160a01b0385163b6139a95760405162461bcd60e51b815260206004820152601d60248201527f416464726573733a2063616c6c20746f206e6f6e2d636f6e74726163740000006044820152606401610fe9565b600080866001600160a01b031685876040516139c59190614775565b60006040518083038185875af1925050503d8060008114613a02576040519150601f19603f3d011682016040523d82523d6000602084013e613a07565b606091505b5091509150613a17828286613a22565b979650505050505050565b60608315613a315750816116f8565b825115613a415782518084602001fd5b8160405162461bcd60e51b8152600401610fe99190613de7565b828054828255906000526020600020908101928215613a96579160200282015b82811115613a96578251825591602001919060010190613a7b565b50613aa2929150613b19565b5090565b828054613ab290614372565b90600052602060002090601f016020900481019282613ad45760008555613a96565b82601f10613aed57805160ff1916838001178555613a96565b82800160010185558215613a965791820182811115613a96578251825591602001919060010190613a7b565b5b80821115613aa25760008155600101613b1a565b6001600160e01b0319811681146126a757600080fd5b600060208284031215613b5657600080fd5b81356116f881613b2e565b80356001600160a01b0381168114613b7857600080fd5b919050565b80151581146126a757600080fd5b634e487b7160e01b600052604160045260246000fd5b604051601f8201601f191681016001600160401b0381118282101715613bc957613bc9613b8b565b604052919050565b60006001600160401b03821115613bea57613bea613b8b565b5060051b60200190565b600082601f830112613c0557600080fd5b81356020613c1a613c1583613bd1565b613ba1565b82815260059290921b84018101918181019086841115613c3957600080fd5b8286015b84811015613c545780358352918301918301613c3d565b509695505050505050565b600080600080600080600060e0888a031215613c7a57600080fd5b8735965060208801359550613c9160408901613b61565b9450613c9f60608901613b61565b93506080880135925060a0880135613cb681613b7d565b915060c08801356001600160401b03811115613cd157600080fd5b613cdd8a828b01613bf4565b91505092959891949750929550565b60008060408385031215613cff57600080fd5b823591506020808401356001600160401b03811115613d1d57600080fd5b8401601f81018613613d2e57600080fd5b8035613d3c613c1582613bd1565b81815260059190911b82018301908381019088831115613d5b57600080fd5b928401925b82841015613d8057613d7184613b61565b82529284019290840190613d60565b80955050505050509250929050565b60005b83811015613daa578181015183820152602001613d92565b838111156113fb5750506000910152565b60008151808452613dd3816020860160208601613d8f565b601f01601f19169290920160200192915050565b6020815260006116f86020830184613dbb565b600060208284031215613e0c57600080fd5b5035919050565b60008060408385031215613e2657600080fd5b613e2f83613b61565b946020939093013593505050565b60008060408385031215613e5057600080fd5b8235915060208301356001600160401b03811115613e6d57600080fd5b613e7985828601613bf4565b9150509250929050565b600080600060608486031215613e9857600080fd5b613ea184613b61565b9250613eaf60208501613b61565b9150604084013590509250925092565b600080600060608486031215613ed457600080fd5b613edd84613b61565b95602085013595506040909401359392505050565b60008060408385031215613f0557600080fd5b82359150613f1560208401613b61565b90509250929050565b600080600060608486031215613f3357600080fd5b613f3c84613b61565b9250613f4a60208501613b61565b915060408401356001600160401b03811115613f6557600080fd5b613f7186828701613bf4565b9150509250925092565b600060208284031215613f8d57600080fd5b81356001600160401b03811115613fa357600080fd5b6123f784828501613bf4565b60006001600160401b03831115613fc857613fc8613b8b565b613fdb601f8401601f1916602001613ba1565b9050828152838383011115613fef57600080fd5b828260208301376000602084830101529392505050565b60006020828403121561401857600080fd5b81356001600160401b0381111561402e57600080fd5b8201601f8101841361403f57600080fd5b6123f784823560208401613faf565b6000806040838503121561406157600080fd5b82356001600160401b0381111561407757600080fd5b61408385828601613bf4565b95602094909401359450505050565b6000602082840312156140a457600080fd5b6116f882613b61565b600081518084526020808501945080840160005b838110156140dd578151875295820195908201906001016140c1565b509495945050505050565b6040815260006140fb60408301856140ad565b90508260208301529392505050565b6000806040838503121561411d57600080fd5b50508035926020909101359150565b6000806040838503121561413f57600080fd5b61414883613b61565b9150602083013561415881613b7d565b809150509250929050565b6000806000806080858703121561417957600080fd5b61418285613b61565b935061419060208601613b61565b92506040850135915060608501356001600160401b038111156141b257600080fd5b8501601f810187136141c357600080fd5b6141d287823560208401613faf565b91505092959194509250565b6000806000606084860312156141f357600080fd5b83359250613eaf60208501613b61565b60008060006060848603121561421857600080fd5b83359250602084013563ffffffff8116811461423357600080fd5b9150604084013561ffff8116811461424a57600080fd5b809150509250925092565b6000806040838503121561426857600080fd5b61427183613b61565b9150613f1560208401613b61565b878152602081018790526001600160a01b038681166040830152851660608201526080810184905282151560a082015260e060c082018190526000906142c7908301846140ad565b9998505050505050505050565b634e487b7160e01b600052603260045260246000fd5b634e487b7160e01b600052601160045260246000fd5b6000600019821415614314576143146142ea565b5060010190565b6000604082018483526020604081850152818551808452606086019150828701935060005b818110156143655784516001600160a01b031683529383019391830191600101614340565b5090979650505050505050565b600181811c9082168061438657607f821691505b602082108114156143a757634e487b7160e01b600052602260045260246000fd5b50919050565b60208082526031908201527f4552433732313a207472616e736665722063616c6c6572206973206e6f74206f6040820152701ddb995c881b9bdc88185c1c1c9bdd9959607a1b606082015260800190565b60006020828403121561441057600080fd5b5051919050565b83815260606020820152600061443060608301856140ad565b828103604084015261444281856140ad565b9695505050505050565b60008282101561445e5761445e6142ea565b500390565b60008219821115614476576144766142ea565b500190565b60018060a01b03841681528260208201526060604082015260006118d46060830184613dbb565b6000602082840312156144b457600080fd5b81516116f881613b7d565b60008160001904831182151516156144d9576144d96142ea565b500290565b634e487b7160e01b600052601260045260246000fd5b600082614503576145036144de565b500490565b83815260606020820152600061452160608301856140ad565b9050826040830152949350505050565b60008151614543818560208601613d8f565b9290920192915050565b600080855481600182811c91508083168061456957607f831692505b602080841082141561458957634e487b7160e01b86526022600452602486fd5b81801561459d57600181146145ae576145db565b60ff198616895284890196506145db565b60008c81526020902060005b868110156145d35781548b8201529085019083016145ba565b505084890196505b5050505050506144426145fe6145f18388614531565b602d60f81b815260010190565b85614531565b600082614613576146136144de565b500690565b8281526040602082015260006123f760408301846140ad565b60208082526032908201527f4552433732313a207472616e7366657220746f206e6f6e20455243373231526560408201527131b2b4bb32b91034b6b83632b6b2b73a32b960711b606082015260800190565b7f416363657373436f6e74726f6c3a206163636f756e74200000000000000000008152600083516146bb816017850160208801613d8f565b7001034b99036b4b9b9b4b733903937b6329607d1b60179184019182015283516146ec816028840160208801613d8f565b01602801949350505050565b634e487b7160e01b600052603160045260246000fd5b6001600160a01b038581168252841660208201526040810183905260806060820181905260009061444290830184613dbb565b60006020828403121561475357600080fd5b81516116f881613b2e565b60008161476d5761476d6142ea565b506000190190565b60008251614787818460208701613d8f565b919091019291505056fe241ecf16d79d0f8dbfb92cbc07fe17840425976cf0667f022fe9877caa831b08a26469706673582212203f2f2c41884dbc6b338bc2cf229a04f82aeead9057d7c273dca902c11b7a20c664736f6c634300080c0033",
  "linkReferences": {},
  "deployedLinkReferences": {}
}