{
  "_format": "hh-sol-artifact-1",
  "contractName": "CS",
  "sourceName": "contracts/token/CS.sol",
  "abi": [
    {
      "inputs": [
        {
          "internalType": "address",
          "name": "manager",
          "type": "address"
        }
      ],
      "stateMutability": "nonpayable",
      "type": "constructor"
    },
    {
      "anonymous": false,
      "inputs": [
        {
          "indexed": true,
          "internalType": "address",
          "name": "owner",
          "type": "address"
        },
        {
          "indexed": true,
          "internalType": "address",
          "name": "approved",
          "type": "address"
        },
        {
          "indexed": true,
          "internalType": "uint256",
          "name": "tokenId",
          "type": "uint256"
        }
      ],
      "name": "Approval",
      "type": "event"
    },
    {
      "anonymous": false,
      "inputs": [
        {
          "indexed": true,
          "internalType": "address",
          "name": "owner",
          "type": "address"
        },
        {
          "indexed": true,
          "internalType": "address",
          "name": "operator",
          "type": "address"
        },
        {
          "indexed": false,
          "internalType": "bool",
          "name": "approved",
          "type": "bool"
        }
      ],
      "name": "ApprovalForAll",
      "type": "event"
    },
    {
      "anonymous": false,
      "inputs": [
        {
          "indexed": true,
          "internalType": "address",
          "name": "user",
          "type": "address"
        },
        {
          "indexed": false,
          "internalType": "uint256",
          "name": "hero",
          "type": "uint256"
        },
        {
          "indexed": false,
          "internalType": "uint256",
          "name": "length",
          "type": "uint256"
        },
        {
          "indexed": false,
          "internalType": "uint256[]",
          "name": "cnIds",
          "type": "uint256[]"
        }
      ],
      "name": "Craft",
      "type": "event"
    },
    {
      "anonymous": false,
      "inputs": [
        {
          "indexed": true,
          "internalType": "bytes32",
          "name": "role",
          "type": "bytes32"
        },
        {
          "indexed": true,
          "internalType": "bytes32",
          "name": "previousAdminRole",
          "type": "bytes32"
        },
        {
          "indexed": true,
          "internalType": "bytes32",
          "name": "newAdminRole",
          "type": "bytes32"
        }
      ],
      "name": "RoleAdminChanged",
      "type": "event"
    },
    {
      "anonymous": false,
      "inputs": [
        {
          "indexed": true,
          "internalType": "bytes32",
          "name": "role",
          "type": "bytes32"
        },
        {
          "indexed": true,
          "internalType": "address",
          "name": "account",
          "type": "address"
        },
        {
          "indexed": true,
          "internalType": "address",
          "name": "sender",
          "type": "address"
        }
      ],
      "name": "RoleGranted",
      "type": "event"
    },
    {
      "anonymous": false,
      "inputs": [
        {
          "indexed": true,
          "internalType": "bytes32",
          "name": "role",
          "type": "bytes32"
        },
        {
          "indexed": true,
          "internalType": "address",
          "name": "account",
          "type": "address"
        },
        {
          "indexed": true,
          "internalType": "address",
          "name": "sender",
          "type": "address"
        }
      ],
      "name": "RoleRevoked",
      "type": "event"
    },
    {
      "anonymous": false,
      "inputs": [
        {
          "indexed": false,
          "internalType": "address",
          "name": "funAddr",
          "type": "address"
        },
        {
          "indexed": false,
          "internalType": "address",
          "name": "cnAddr",
          "type": "address"
        }
      ],
      "name": "SetAddrs",
      "type": "event"
    },
    {
      "anonymous": false,
      "inputs": [
        {
          "indexed": false,
          "internalType": "string",
          "name": "uri",
          "type": "string"
        }
      ],
      "name": "SetBaseURI",
      "type": "event"
    },
    {
      "anonymous": false,
      "inputs": [
        {
          "indexed": true,
          "internalType": "uint256",
          "name": "csId",
          "type": "uint256"
        },
        {
          "indexed": false,
          "internalType": "string",
          "name": "slot",
          "type": "string"
        },
        {
          "indexed": false,
          "internalType": "uint256",
          "name": "data",
          "type": "uint256"
        }
      ],
      "name": "SetData",
      "type": "event"
    },
    {
      "anonymous": false,
      "inputs": [
        {
          "indexed": true,
          "internalType": "uint256",
          "name": "csId",
          "type": "uint256"
        },
        {
          "indexed": false,
          "internalType": "string",
          "name": "slot",
          "type": "string"
        },
        {
          "indexed": false,
          "internalType": "uint256[]",
          "name": "datas",
          "type": "uint256[]"
        }
      ],
      "name": "SetDatas",
      "type": "event"
    },
    {
      "anonymous": false,
      "inputs": [
        {
          "indexed": false,
          "internalType": "uint256[]",
          "name": "prices",
          "type": "uint256[]"
        }
      ],
      "name": "SetPrices",
      "type": "event"
    },
    {
      "anonymous": false,
      "inputs": [
        {
          "indexed": true,
          "internalType": "address",
          "name": "to",
          "type": "address"
        },
        {
          "indexed": false,
          "internalType": "uint256[]",
          "name": "csIds",
          "type": "uint256[]"
        },
        {
          "indexed": false,
          "internalType": "uint256[]",
          "name": "heros",
          "type": "uint256[]"
        }
      ],
      "name": "SpawnCss",
      "type": "event"
    },
    {
      "anonymous": false,
      "inputs": [
        {
          "indexed": true,
          "internalType": "address",
          "name": "from",
          "type": "address"
        },
        {
          "indexed": true,
          "internalType": "address",
          "name": "to",
          "type": "address"
        },
        {
          "indexed": true,
          "internalType": "uint256",
          "name": "tokenId",
          "type": "uint256"
        }
      ],
      "name": "Transfer",
      "type": "event"
    },
    {
      "inputs": [],
      "name": "DEFAULT_ADMIN_ROLE",
      "outputs": [
        {
          "internalType": "bytes32",
          "name": "",
          "type": "bytes32"
        }
      ],
      "stateMutability": "view",
      "type": "function"
    },
    {
      "inputs": [],
      "name": "MANAGER_ROLE",
      "outputs": [
        {
          "internalType": "bytes32",
          "name": "",
          "type": "bytes32"
        }
      ],
      "stateMutability": "view",
      "type": "function"
    },
    {
      "inputs": [],
      "name": "SETTER_ROLE",
      "outputs": [
        {
          "internalType": "bytes32",
          "name": "",
          "type": "bytes32"
        }
      ],
      "stateMutability": "view",
      "type": "function"
    },
    {
      "inputs": [],
      "name": "SPAWNER_ROLE",
      "outputs": [
        {
          "internalType": "bytes32",
          "name": "",
          "type": "bytes32"
        }
      ],
      "stateMutability": "view",
      "type": "function"
    },
    {
      "inputs": [
        {
          "internalType": "address",
          "name": "to",
          "type": "address"
        },
        {
          "internalType": "uint256",
          "name": "tokenId",
          "type": "uint256"
        }
      ],
      "name": "approve",
      "outputs": [],
      "stateMutability": "nonpayable",
      "type": "function"
    },
    {
      "inputs": [
        {
          "internalType": "address",
          "name": "owner",
          "type": "address"
        }
      ],
      "name": "balanceOf",
      "outputs": [
        {
          "internalType": "uint256",
          "name": "",
          "type": "uint256"
        }
      ],
      "stateMutability": "view",
      "type": "function"
    },
    {
      "inputs": [],
      "name": "baseURI",
      "outputs": [
        {
          "internalType": "string",
          "name": "",
          "type": "string"
        }
      ],
      "stateMutability": "view",
      "type": "function"
    },
    {
      "inputs": [],
      "name": "cn",
      "outputs": [
        {
          "internalType": "contract ICN",
          "name": "",
          "type": "address"
        }
      ],
      "stateMutability": "view",
      "type": "function"
    },
    {
      "inputs": [
        {
          "internalType": "uint256[]",
          "name": "csIds",
          "type": "uint256[]"
        }
      ],
      "name": "craft",
      "outputs": [],
      "stateMutability": "nonpayable",
      "type": "function"
    },
    {
      "inputs": [
        {
          "internalType": "uint256",
          "name": "",
          "type": "uint256"
        }
      ],
      "name": "craftPrices",
      "outputs": [
        {
          "internalType": "uint256",
          "name": "",
          "type": "uint256"
        }
      ],
      "stateMutability": "view",
      "type": "function"
    },
    {
      "inputs": [
        {
          "internalType": "uint256",
          "name": "",
          "type": "uint256"
        },
        {
          "internalType": "string",
          "name": "",
          "type": "string"
        }
      ],
      "name": "data",
      "outputs": [
        {
          "internalType": "uint256",
          "name": "",
          "type": "uint256"
        }
      ],
      "stateMutability": "view",
      "type": "function"
    },
    {
      "inputs": [
        {
          "internalType": "uint256",
          "name": "",
          "type": "uint256"
        },
        {
          "internalType": "string",
          "name": "",
          "type": "string"
        },
        {
          "internalType": "uint256",
          "name": "",
          "type": "uint256"
        }
      ],
      "name": "datas",
      "outputs": [
        {
          "internalType": "uint256",
          "name": "",
          "type": "uint256"
        }
      ],
      "stateMutability": "view",
      "type": "function"
    },
    {
      "inputs": [],
      "name": "fun",
      "outputs": [
        {
          "internalType": "contract IERC20",
          "name": "",
          "type": "address"
        }
      ],
      "stateMutability": "view",
      "type": "function"
    },
    {
      "inputs": [
        {
          "internalType": "uint256",
          "name": "tokenId",
          "type": "uint256"
        }
      ],
      "name": "getApproved",
      "outputs": [
        {
          "internalType": "address",
          "name": "",
          "type": "address"
        }
      ],
      "stateMutability": "view",
      "type": "function"
    },
    {
      "inputs": [
        {
          "internalType": "uint256[]",
          "name": "csIds",
          "type": "uint256[]"
        }
      ],
      "name": "getCraftPrice",
      "outputs": [
        {
          "internalType": "uint256",
          "name": "",
          "type": "uint256"
        }
      ],
      "stateMutability": "view",
      "type": "function"
    },
    {
      "inputs": [
        {
          "internalType": "uint256",
          "name": "csId",
          "type": "uint256"
        },
        {
          "internalType": "string",
          "name": "slot",
          "type": "string"
        }
      ],
      "name": "getDatas",
      "outputs": [
        {
          "internalType": "uint256[]",
          "name": "",
          "type": "uint256[]"
        }
      ],
      "stateMutability": "view",
      "type": "function"
    },
    {
      "inputs": [
        {
          "internalType": "uint256",
          "name": "csId",
          "type": "uint256"
        },
        {
          "internalType": "string",
          "name": "slot",
          "type": "string"
        },
        {
          "internalType": "uint256",
          "name": "base",
          "type": "uint256"
        },
        {
          "internalType": "uint256",
          "name": "range",
          "type": "uint256"
        }
      ],
      "name": "getRandomNumber",
      "outputs": [
        {
          "internalType": "uint256",
          "name": "",
          "type": "uint256"
        }
      ],
      "stateMutability": "pure",
      "type": "function"
    },
    {
      "inputs": [
        {
          "internalType": "bytes32",
          "name": "role",
          "type": "bytes32"
        }
      ],
      "name": "getRoleAdmin",
      "outputs": [
        {
          "internalType": "bytes32",
          "name": "",
          "type": "bytes32"
        }
      ],
      "stateMutability": "view",
      "type": "function"
    },
    {
      "inputs": [
        {
          "internalType": "bytes32",
          "name": "role",
          "type": "bytes32"
        },
        {
          "internalType": "uint256",
          "name": "index",
          "type": "uint256"
        }
      ],
      "name": "getRoleMember",
      "outputs": [
        {
          "internalType": "address",
          "name": "",
          "type": "address"
        }
      ],
      "stateMutability": "view",
      "type": "function"
    },
    {
      "inputs": [
        {
          "internalType": "bytes32",
          "name": "role",
          "type": "bytes32"
        }
      ],
      "name": "getRoleMemberCount",
      "outputs": [
        {
          "internalType": "uint256",
          "name": "",
          "type": "uint256"
        }
      ],
      "stateMutability": "view",
      "type": "function"
    },
    {
      "inputs": [
        {
          "internalType": "bytes32",
          "name": "role",
          "type": "bytes32"
        },
        {
          "internalType": "address",
          "name": "account",
          "type": "address"
        }
      ],
      "name": "grantRole",
      "outputs": [],
      "stateMutability": "nonpayable",
      "type": "function"
    },
    {
      "inputs": [
        {
          "internalType": "bytes32",
          "name": "role",
          "type": "bytes32"
        },
        {
          "internalType": "address",
          "name": "account",
          "type": "address"
        }
      ],
      "name": "hasRole",
      "outputs": [
        {
          "internalType": "bool",
          "name": "",
          "type": "bool"
        }
      ],
      "stateMutability": "view",
      "type": "function"
    },
    {
      "inputs": [
        {
          "internalType": "address",
          "name": "owner",
          "type": "address"
        },
        {
          "internalType": "address",
          "name": "operator",
          "type": "address"
        }
      ],
      "name": "isApprovedForAll",
      "outputs": [
        {
          "internalType": "bool",
          "name": "",
          "type": "bool"
        }
      ],
      "stateMutability": "view",
      "type": "function"
    },
    {
      "inputs": [],
      "name": "name",
      "outputs": [
        {
          "internalType": "string",
          "name": "",
          "type": "string"
        }
      ],
      "stateMutability": "view",
      "type": "function"
    },
    {
      "inputs": [
        {
          "internalType": "uint256",
          "name": "tokenId",
          "type": "uint256"
        }
      ],
      "name": "ownerOf",
      "outputs": [
        {
          "internalType": "address",
          "name": "",
          "type": "address"
        }
      ],
      "stateMutability": "view",
      "type": "function"
    },
    {
      "inputs": [
        {
          "internalType": "bytes32",
          "name": "role",
          "type": "bytes32"
        },
        {
          "internalType": "address",
          "name": "account",
          "type": "address"
        }
      ],
      "name": "renounceRole",
      "outputs": [],
      "stateMutability": "nonpayable",
      "type": "function"
    },
    {
      "inputs": [
        {
          "internalType": "bytes32",
          "name": "role",
          "type": "bytes32"
        },
        {
          "internalType": "address",
          "name": "account",
          "type": "address"
        }
      ],
      "name": "revokeRole",
      "outputs": [],
      "stateMutability": "nonpayable",
      "type": "function"
    },
    {
      "inputs": [
        {
          "internalType": "address",
          "name": "from",
          "type": "address"
        },
        {
          "internalType": "address",
          "name": "to",
          "type": "address"
        },
        {
          "internalType": "uint256",
          "name": "tokenId",
          "type": "uint256"
        }
      ],
      "name": "safeTransferFrom",
      "outputs": [],
      "stateMutability": "nonpayable",
      "type": "function"
    },
    {
      "inputs": [
        {
          "internalType": "address",
          "name": "from",
          "type": "address"
        },
        {
          "internalType": "address",
          "name": "to",
          "type": "address"
        },
        {
          "internalType": "uint256",
          "name": "tokenId",
          "type": "uint256"
        },
        {
          "internalType": "bytes",
          "name": "_data",
          "type": "bytes"
        }
      ],
      "name": "safeTransferFrom",
      "outputs": [],
      "stateMutability": "nonpayable",
      "type": "function"
    },
    {
      "inputs": [
        {
          "internalType": "address",
          "name": "from",
          "type": "address"
        },
        {
          "internalType": "address",
          "name": "to",
          "type": "address"
        },
        {
          "internalType": "uint256[]",
          "name": "tokenIds",
          "type": "uint256[]"
        }
      ],
      "name": "safeTransferFromBatch",
      "outputs": [],
      "stateMutability": "nonpayable",
      "type": "function"
    },
    {
      "inputs": [
        {
          "internalType": "address",
          "name": "funAddr",
          "type": "address"
        },
        {
          "internalType": "address",
          "name": "cnAddr",
          "type": "address"
        }
      ],
      "name": "setAddrs",
      "outputs": [],
      "stateMutability": "nonpayable",
      "type": "function"
    },
    {
      "inputs": [
        {
          "internalType": "address",
          "name": "operator",
          "type": "address"
        },
        {
          "internalType": "bool",
          "name": "approved",
          "type": "bool"
        }
      ],
      "name": "setApprovalForAll",
      "outputs": [],
      "stateMutability": "nonpayable",
      "type": "function"
    },
    {
      "inputs": [
        {
          "internalType": "string",
          "name": "uri",
          "type": "string"
        }
      ],
      "name": "setBaseURI",
      "outputs": [],
      "stateMutability": "nonpayable",
      "type": "function"
    },
    {
      "inputs": [
        {
          "internalType": "uint256",
          "name": "csId",
          "type": "uint256"
        },
        {
          "internalType": "string",
          "name": "slot",
          "type": "string"
        },
        {
          "internalType": "uint256",
          "name": "_data",
          "type": "uint256"
        }
      ],
      "name": "setData",
      "outputs": [],
      "stateMutability": "nonpayable",
      "type": "function"
    },
    {
      "inputs": [
        {
          "internalType": "uint256",
          "name": "csId",
          "type": "uint256"
        },
        {
          "internalType": "string",
          "name": "slot",
          "type": "string"
        },
        {
          "internalType": "uint256[]",
          "name": "_datas",
          "type": "uint256[]"
        }
      ],
      "name": "setDatas",
      "outputs": [],
      "stateMutability": "nonpayable",
      "type": "function"
    },
    {
      "inputs": [
        {
          "internalType": "uint256[]",
          "name": "prices",
          "type": "uint256[]"
        }
      ],
      "name": "setPrices",
      "outputs": [],
      "stateMutability": "nonpayable",
      "type": "function"
    },
    {
      "inputs": [
        {
          "internalType": "uint256[]",
          "name": "heros",
          "type": "uint256[]"
        },
        {
          "internalType": "address",
          "name": "to",
          "type": "address"
        }
      ],
      "name": "spawnCss",
      "outputs": [
        {
          "internalType": "uint256[]",
          "name": "",
          "type": "uint256[]"
        }
      ],
      "stateMutability": "nonpayable",
      "type": "function"
    },
    {
      "inputs": [
        {
          "internalType": "bytes4",
          "name": "interfaceId",
          "type": "bytes4"
        }
      ],
      "name": "supportsInterface",
      "outputs": [
        {
          "internalType": "bool",
          "name": "",
          "type": "bool"
        }
      ],
      "stateMutability": "view",
      "type": "function"
    },
    {
      "inputs": [],
      "name": "symbol",
      "outputs": [
        {
          "internalType": "string",
          "name": "",
          "type": "string"
        }
      ],
      "stateMutability": "view",
      "type": "function"
    },
    {
      "inputs": [
        {
          "internalType": "uint256",
          "name": "index",
          "type": "uint256"
        }
      ],
      "name": "tokenByIndex",
      "outputs": [
        {
          "internalType": "uint256",
          "name": "",
          "type": "uint256"
        }
      ],
      "stateMutability": "view",
      "type": "function"
    },
    {
      "inputs": [
        {
          "internalType": "address",
          "name": "owner",
          "type": "address"
        },
        {
          "internalType": "uint256",
          "name": "index",
          "type": "uint256"
        }
      ],
      "name": "tokenOfOwnerByIndex",
      "outputs": [
        {
          "internalType": "uint256",
          "name": "",
          "type": "uint256"
        }
      ],
      "stateMutability": "view",
      "type": "function"
    },
    {
      "inputs": [
        {
          "internalType": "uint256",
          "name": "tokenId",
          "type": "uint256"
        }
      ],
      "name": "tokenURI",
      "outputs": [
        {
          "internalType": "string",
          "name": "",
          "type": "string"
        }
      ],
      "stateMutability": "view",
      "type": "function"
    },
    {
      "inputs": [
        {
          "internalType": "address",
          "name": "user",
          "type": "address"
        },
        {
          "internalType": "uint256",
          "name": "cursor",
          "type": "uint256"
        },
        {
          "internalType": "uint256",
          "name": "size",
          "type": "uint256"
        }
      ],
      "name": "tokensOfOwnerBySize",
      "outputs": [
        {
          "internalType": "uint256[]",
          "name": "",
          "type": "uint256[]"
        },
        {
          "internalType": "uint256",
          "name": "",
          "type": "uint256"
        }
      ],
      "stateMutability": "view",
      "type": "function"
    },
    {
      "inputs": [],
      "name": "totalSupply",
      "outputs": [
        {
          "internalType": "uint256",
          "name": "",
          "type": "uint256"
        }
      ],
      "stateMutability": "view",
      "type": "function"
    },
    {
      "inputs": [
        {
          "internalType": "address",
          "name": "from",
          "type": "address"
        },
        {
          "internalType": "address",
          "name": "to",
          "type": "address"
        },
        {
          "internalType": "uint256",
          "name": "tokenId",
          "type": "uint256"
        }
      ],
      "name": "transferFrom",
      "outputs": [],
      "stateMutability": "nonpayable",
      "type": "function"
    }
  ],
  "bytecode": "0x6102606040526064608081815260a082905260c09190915260c860e08190526101008190526101205261012c6101408190526101608190526101808190526101a08190526101c0526101906101e0819052610200819052610220819052610240526200007090601090600f620002bb565b503480156200007e57600080fd5b5060405162003cba38038062003cba833981016040819052620000a191620003a5565b6040805180820182526011815270437962657220476561722053686172647360781b602080830191825283518085019094526002845261435360f01b908401528151919291620000f49160009162000311565b5080516200010a90600190602084019062000311565b50506001600c55506200011f60003362000152565b6200014b7f241ecf16d79d0f8dbfb92cbc07fe17840425976cf0667f022fe9877caa831b088262000152565b5062000414565b6200015e828262000162565b5050565b620001798282620001a560201b62001a071760201c565b6000828152600b60209081526040909120620001a091839062001a8d62000249821b17901c565b505050565b6000828152600a602090815260408083206001600160a01b038516845290915290205460ff166200015e576000828152600a602090815260408083206001600160a01b03851684529091529020805460ff19166001179055620002053390565b6001600160a01b0316816001600160a01b0316837f2f8788117e7eff1d82e926ec794901d17c78024a50270940304540a733656f0d60405160405180910390a45050565b600062000260836001600160a01b03841662000269565b90505b92915050565b6000818152600183016020526040812054620002b25750815460018181018455600084815260208082209093018490558454848252828601909352604090209190915562000263565b50600062000263565b828054828255906000526020600020908101928215620002ff579160200282015b82811115620002ff578251829061ffff16905591602001919060010190620002dc565b506200030d9291506200038e565b5090565b8280546200031f90620003d7565b90600052602060002090601f016020900481019282620003435760008555620002ff565b82601f106200035e57805160ff1916838001178555620002ff565b82800160010185558215620002ff579182015b82811115620002ff57825182559160200191906001019062000371565b5b808211156200030d57600081556001016200038f565b600060208284031215620003b857600080fd5b81516001600160a01b0381168114620003d057600080fd5b9392505050565b600181811c90821680620003ec57607f821691505b602082108114156200040e57634e487b7160e01b600052602260045260246000fd5b50919050565b61389680620004246000396000f3fe608060405234801561001057600080fd5b506004361061027f5760003560e01c806379cf92d31161015c578063a3a79ad7116100ce578063d547741f11610087578063d547741f146105e4578063e985e9c5146105f7578063ec87621c14610633578063f3b0bebe14610648578063f54a867e1461065b578063fd577d0b1461066e57600080fd5b8063a3a79ad714610572578063b88d4fde14610585578063c1200e8f14610598578063c772e114146105ab578063c87b56dd146105be578063ca15c873146105d157600080fd5b8063946644cd11610120578063946644cd1461050257806395d89b41146105155780639718a93b1461051d578063a2011b3f14610530578063a217fddf14610557578063a22cb4651461055f57600080fd5b806379cf92d314610495578063854ec1af146104a85780639010d07c146104c957806391d14854146104dc57806391fd28af146104ef57600080fd5b806336568abe116101f557806357b0c99f116101b957806357b0c99f146104215780636043454f146104415780636352211e146104545780636c0360eb1461046757806370a082311461046f578063790587201461048257600080fd5b806336568abe146103c257806338aa3815146103d557806342842e0e146103e85780634f6ccce7146103fb57806355f804b31461040e57600080fd5b806318160ddd1161024757806318160ddd1461034b57806323b872dd14610353578063248a9ca314610366578063251d13ba146103895780632f2ff15d1461039c5780632f745c59146103af57600080fd5b806301ffc9a71461028457806306fdde03146102ac578063081812fc146102c1578063090a0eae146102ec578063095ea7b314610336575b600080fd5b610297610292366004612d25565b610695565b60405190151581526020015b60405180910390f35b6102b46106a6565b6040516102a39190612d9a565b6102d46102cf366004612dad565b610738565b6040516001600160a01b0390911681526020016102a3565b6103286102fa366004612e83565b6011602090815260009283526040909220815180830184018051928152908401929093019190912091525481565b6040519081526020016102a3565b610349610344366004612ee5565b6107d2565b005b600854610328565b610349610361366004612f0f565b6108e8565b610328610374366004612dad565b6000908152600a602052604090206001015490565b610328610397366004612f4b565b610919565b6103496103aa366004612f9a565b610966565b6103286103bd366004612ee5565b61098b565b6103496103d0366004612f9a565b610a21565b6103496103e336600461303a565b610a9f565b6103496103f6366004612f0f565b610ae7565b610328610409366004612dad565b610b02565b61034961041c366004613097565b610b95565b61043461042f366004612e83565b610bfc565b6040516102a39190613106565b61032861044f366004613119565b610c7e565b6102d4610462366004612dad565b610d25565b6102b4610d9c565b61032861047d36600461314d565b610e2a565b610349610490366004613119565b610eb1565b6103496104a3366004613119565b611335565b6104bb6104b6366004613168565b611390565b6040516102a392919061319b565b6102d46104d73660046131bd565b61146f565b6102976104ea366004612f9a565b611487565b6103286104fd3660046131df565b6114b2565b600e546102d4906001600160a01b031681565b6102b4611502565b61034961052b366004613235565b611511565b6103287f61c92169ef077349011ff0b1383c894d86c5f0b41d986366b58a6cf31e93beda81565b610328600081565b61034961056d36600461326d565b611598565b600f546102d4906001600160a01b031681565b6103496105933660046132a4565b6115a3565b6103496105a636600461331f565b6115d5565b6103286105b9366004612dad565b611683565b6102b46105cc366004612dad565b6116a4565b6103286105df366004612dad565b6117b6565b6103496105f2366004612f9a565b6117cd565b610297610605366004613235565b6001600160a01b03918216600090815260056020908152604080832093909416825291909152205460ff1690565b61032860008051602061384183398151915281565b610434610656366004613381565b6117f2565b610349610669366004612f4b565b611977565b6103287f6cd0800d4f4ba3dc6faecb926dc1f046e4172cd4d0318c3b8740bdce16fe8d5281565b60006106a082611aa2565b92915050565b6060600080546106b5906133c5565b80601f01602080910402602001604051908101604052809291908181526020018280546106e1906133c5565b801561072e5780601f106107035761010080835404028352916020019161072e565b820191906000526020600020905b81548152906001019060200180831161071157829003601f168201915b5050505050905090565b6000818152600260205260408120546001600160a01b03166107b65760405162461bcd60e51b815260206004820152602c60248201527f4552433732313a20617070726f76656420717565727920666f72206e6f6e657860448201526b34b9ba32b73a103a37b5b2b760a11b60648201526084015b60405180910390fd5b506000908152600460205260409020546001600160a01b031690565b60006107dd82610d25565b9050806001600160a01b0316836001600160a01b0316141561084b5760405162461bcd60e51b815260206004820152602160248201527f4552433732313a20617070726f76616c20746f2063757272656e74206f776e656044820152603960f91b60648201526084016107ad565b336001600160a01b038216148061086757506108678133610605565b6108d95760405162461bcd60e51b815260206004820152603860248201527f4552433732313a20617070726f76652063616c6c6572206973206e6f74206f7760448201527f6e6572206e6f7220617070726f76656420666f7220616c6c000000000000000060648201526084016107ad565b6108e38383611ac7565b505050565b6108f23382611b35565b61090e5760405162461bcd60e51b81526004016107ad90613400565b6108e3838383611c2b565b6012602090815260008481526040902083518085018301805192815290830192850192909220915280548290811061095057600080fd5b9060005260206000200160009250925050505481565b6000828152600a602052604090206001015461098181611dd2565b6108e38383611ddf565b600061099683610e2a565b82106109f85760405162461bcd60e51b815260206004820152602b60248201527f455243373231456e756d657261626c653a206f776e657220696e646578206f7560448201526a74206f6620626f756e647360a81b60648201526084016107ad565b506001600160a01b03919091166000908152600660209081526040808320938352929052205490565b6001600160a01b0381163314610a915760405162461bcd60e51b815260206004820152602f60248201527f416363657373436f6e74726f6c3a2063616e206f6e6c792072656e6f756e636560448201526e103937b632b9903337b91039b2b63360891b60648201526084016107ad565b610a9b8282611e01565b5050565b60005b8151811015610ae157610acf8484848481518110610ac257610ac2613451565b6020026020010151610ae7565b80610ad98161347d565b915050610aa2565b50505050565b6108e3838383604051806020016040528060008152506115a3565b6000610b0d60085490565b8210610b705760405162461bcd60e51b815260206004820152602c60248201527f455243373231456e756d657261626c653a20676c6f62616c20696e646578206f60448201526b7574206f6620626f756e647360a01b60648201526084016107ad565b60088281548110610b8357610b83613451565b90600052602060002001549050919050565b600080516020613841833981519152610bad81611dd2565b8151610bc090600d906020850190612c3c565b507f23c8c9488efebfd474e85a7956de6f39b17c7ab88502d42a623db2d8e382bbaa82604051610bf09190612d9a565b60405180910390a15050565b60606012600084815260200190815260200160002082604051610c1f91906134b4565b9081526040805191829003602090810183208054808302850183019093528284529190830182828015610c7157602002820191906000526020600020905b815481526020019060010190808311610c5d575b5050505050905092915050565b6000806011600084600081518110610c9857610c98613451565b60200260200101518152602001908152602001600020604051610cba906134d0565b9081526020016040518091039020549050600a8351610cd991906134f6565b6010610ce660018461350a565b81548110610cf657610cf6613451565b9060005260206000200154670de0b6b3a7640000610d149190613521565b610d1e9190613521565b9392505050565b6000818152600260205260408120546001600160a01b0316806106a05760405162461bcd60e51b815260206004820152602960248201527f4552433732313a206f776e657220717565727920666f72206e6f6e657869737460448201526832b73a103a37b5b2b760b91b60648201526084016107ad565b600d8054610da9906133c5565b80601f0160208091040260200160405190810160405280929190818152602001828054610dd5906133c5565b8015610e225780601f10610df757610100808354040283529160200191610e22565b820191906000526020600020905b815481529060010190602001808311610e0557829003601f168201915b505050505081565b60006001600160a01b038216610e955760405162461bcd60e51b815260206004820152602a60248201527f4552433732313a2062616c616e636520717565727920666f7220746865207a65604482015269726f206164647265737360b01b60648201526084016107ad565b506001600160a01b031660009081526003602052604090205490565b6002600c541415610f045760405162461bcd60e51b815260206004820152601f60248201527f5265656e7472616e637947756172643a207265656e7472616e742063616c6c0060448201526064016107ad565b6002600c558051610f4f5760405162461bcd60e51b815260206004820152601560248201527404373496473206c656e677468206d757374203e203605c1b60448201526064016107ad565b606481511115610fa15760405162461bcd60e51b815260206004820152601860248201527f4373496473206c656e677468206d757374203c3d20313030000000000000000060448201526064016107ad565b600a8151610faf9190613540565b15610ffc5760405162461bcd60e51b815260206004820152601b60248201527f4373496473206c656e6774682025203130206d757374203d3d2030000000000060448201526064016107ad565b6000601160008360008151811061101557611015613451565b60200260200101518152602001908152602001600020604051611037906134d0565b90815260200160405180910390205490506064811061108a5760405162461bcd60e51b815260206004820152600f60248201526e04865726f206d757374203c2031303608c1b60448201526064016107ad565b600061109583610c7e565b600e549091506110b2906001600160a01b03163361dead84611e23565b6000600a84516110c291906134f6565b6001600160401b038111156110d9576110d9612dc6565b604051908082528060200260200182016040528015611102578160200160208202803683370190505b50905060005b84518110156112eb5760005b600a81101561123c5784601160008861112d8587613554565b8151811061113d5761113d613451565b6020026020010151815260200190815260200160002060405161115f906134d0565b90815260200160405180910390205414806111c9575060116000876111848486613554565b8151811061119457611194613451565b602002602001015181526020019081526020016000206040516111b6906134d0565b9081526020016040518091039020546064145b6112085760405162461bcd60e51b815260206004820152601060248201526f086e640d0cae4de40dad2e6dac2e8c6d60831b60448201526064016107ad565b61122a3361dead8861121a8587613554565b81518110610ac257610ac2613451565b806112348161347d565b915050611114565b50600f546040516330a348d960e11b8152600481018690523360248201526001600160a01b039091169063614691b2906044016020604051808303816000875af115801561128e573d6000803e3d6000fd5b505050506040513d601f19601f820116820180604052508101906112b2919061356c565b826112be600a846134f6565b815181106112ce576112ce613451565b60209081029190910101526112e4600a82613554565b9050611108565b50805160405133917f0a24a9e61dfe13af042c4e740ee11314545c736a74cafef2d9e90d9d20762f25916113229187918690613585565b60405180910390a250506001600c555050565b60008051602061384183398151915261134d81611dd2565b8151611360906010906020850190612cc0565b507f12d1878396fba767a3caf43b64d874fc1f51797ce34a657529f2e54b7813e8cc82604051610bf09190613106565b60606000828461139f87610e2a565b6113a9919061350a565b8111156113c757846113ba87610e2a565b6113c4919061350a565b90505b6000816001600160401b038111156113e1576113e1612dc6565b60405190808252806020026020018201604052801561140a578160200160208202803683370190505b50905060005b8281101561145557611426886103bd838a613554565b82828151811061143857611438613451565b60209081029190910101528061144d8161347d565b915050611410565b50806114618388613554565b935093505050935093915050565b6000828152600b60205260408120610d1e9083611e7d565b6000918252600a602090815260408084206001600160a01b0393909316845291905290205460ff1690565b60008085856040516020016114c89291906135ad565b60408051601f19818403018152919052805160209091012090506114ec8382613540565b6114f69085613554565b9150505b949350505050565b6060600180546106b5906133c5565b60008051602061384183398151915261152981611dd2565b600e80546001600160a01b038581166001600160a01b03199283168117909355600f80549186169190921681179091556040805192835260208301919091527f17a210d05f0d83f234a5500d361358d453f15293eff4676364db5ae8e884e36f910160405180910390a1505050565b610a9b338383611e89565b6115ad3383611b35565b6115c95760405162461bcd60e51b81526004016107ad90613400565b610ae184848484611f58565b7f61c92169ef077349011ff0b1383c894d86c5f0b41d986366b58a6cf31e93beda6115ff81611dd2565b81601260008681526020019081526020016000208460405161162191906134b4565b90815260200160405180910390209080519060200190611642929190612cc0565b50837faf34a1a89164056fa5ddfee9bdd7384e79b0f27a493cc80c478d9068ea15c61284846040516116759291906135d3565b60405180910390a250505050565b6010818154811061169357600080fd5b600091825260209091200154905081565b6000818152600260205260409020546060906001600160a01b03166117235760405162461bcd60e51b815260206004820152602f60248201527f4552433732314d657461646174613a2055524920717565727920666f72206e6f60448201526e3732bc34b9ba32b73a103a37b5b2b760891b60648201526084016107ad565b6000600d8054611732906133c5565b90501161174e57604051806020016040528060008152506106a0565b600d61175983611f8b565b61178f6011600086815260200190815260200160002060405161177b906134d0565b908152602001604051809103902054611f8b565b6040516020016117a1939291906135f8565b60405160208183030381529060405292915050565b6000818152600b602052604081206106a090612088565b6000828152600a60205260409020600101546117e881611dd2565b6108e38383611e01565b60607f6cd0800d4f4ba3dc6faecb926dc1f046e4172cd4d0318c3b8740bdce16fe8d5261181e81611dd2565b600084516001600160401b0381111561183957611839612dc6565b604051908082528060200260200182016040528015611862578160200160208202803683370190505b50905060005b855181101561192b5760085482828151811061188657611886613451565b6020026020010181815250508581815181106118a4576118a4613451565b6020026020010151601160008484815181106118c2576118c2613451565b602002602001015181526020019081526020016000206040516118e4906134d0565b9081526020016040518091039020819055506119198583838151811061190c5761190c613451565b6020026020010151612092565b806119238161347d565b915050611868565b50836001600160a01b03167f9be22d4f315ebb5f590c7bc9de32f827d1648bfe08327b36eba63bcd1d36f31482876040516119679291906136af565b60405180910390a2949350505050565b7f61c92169ef077349011ff0b1383c894d86c5f0b41d986366b58a6cf31e93beda6119a181611dd2565b8160116000868152602001908152602001600020846040516119c391906134b4565b908152602001604051809103902081905550837feac7fa0927090dca3b0cce570fa0e4b428cbd28ba251bcd0d9d33d629a2936be84846040516116759291906136c2565b611a118282611487565b610a9b576000828152600a602090815260408083206001600160a01b03851684529091529020805460ff19166001179055611a493390565b6001600160a01b0316816001600160a01b0316837f2f8788117e7eff1d82e926ec794901d17c78024a50270940304540a733656f0d60405160405180910390a45050565b6000610d1e836001600160a01b0384166120ac565b60006001600160e01b03198216635a05180f60e01b14806106a057506106a0826120fb565b600081815260046020526040902080546001600160a01b0319166001600160a01b0384169081179091558190611afc82610d25565b6001600160a01b03167f8c5be1e5ebec7d5bd14f71427d1e84f3dd0314c0f7b2291e5b200ac8c7c3b92560405160405180910390a45050565b6000818152600260205260408120546001600160a01b0316611bae5760405162461bcd60e51b815260206004820152602c60248201527f4552433732313a206f70657261746f7220717565727920666f72206e6f6e657860448201526b34b9ba32b73a103a37b5b2b760a11b60648201526084016107ad565b6000611bb983610d25565b9050806001600160a01b0316846001600160a01b03161480611c0057506001600160a01b0380821660009081526005602090815260408083209388168352929052205460ff165b806114fa5750836001600160a01b0316611c1984610738565b6001600160a01b031614949350505050565b826001600160a01b0316611c3e82610d25565b6001600160a01b031614611ca25760405162461bcd60e51b815260206004820152602560248201527f4552433732313a207472616e736665722066726f6d20696e636f72726563742060448201526437bbb732b960d91b60648201526084016107ad565b6001600160a01b038216611d045760405162461bcd60e51b8152602060048201526024808201527f4552433732313a207472616e7366657220746f20746865207a65726f206164646044820152637265737360e01b60648201526084016107ad565b611d0f838383612120565b611d1a600082611ac7565b6001600160a01b0383166000908152600360205260408120805460019290611d4390849061350a565b90915550506001600160a01b0382166000908152600360205260408120805460019290611d71908490613554565b909155505060008181526002602052604080822080546001600160a01b0319166001600160a01b0386811691821790925591518493918716917fddf252ad1be2c89b69c2b068fc378daa952ba7f163c4a11628f55a4df523b3ef91a4505050565b611ddc81336121d8565b50565b611de98282611a07565b6000828152600b602052604090206108e39082611a8d565b611e0b828261223c565b6000828152600b602052604090206108e390826122a3565b604080516001600160a01b0385811660248301528416604482015260648082018490528251808303909101815260849091019091526020810180516001600160e01b03166323b872dd60e01b179052610ae19085906122b8565b6000610d1e838361238a565b816001600160a01b0316836001600160a01b03161415611eeb5760405162461bcd60e51b815260206004820152601960248201527f4552433732313a20617070726f766520746f2063616c6c65720000000000000060448201526064016107ad565b6001600160a01b03838116600081815260056020908152604080832094871680845294825291829020805460ff191686151590811790915591519182527f17307eab39ab6107e8899845ad3d59bd9653f200f220920489ca2b5937696c31910160405180910390a3505050565b611f63848484611c2b565b611f6f848484846123b4565b610ae15760405162461bcd60e51b81526004016107ad906136d5565b606081611faf5750506040805180820190915260018152600360fc1b602082015290565b8160005b8115611fd95780611fc38161347d565b9150611fd29050600a836134f6565b9150611fb3565b6000816001600160401b03811115611ff357611ff3612dc6565b6040519080825280601f01601f19166020018201604052801561201d576020820181803683370190505b5090505b84156114fa5761203260018361350a565b915061203f600a86613540565b61204a906030613554565b60f81b81838151811061205f5761205f613451565b60200101906001600160f81b031916908160001a905350612081600a866134f6565b9450612021565b60006106a0825490565b610a9b8282604051806020016040528060008152506124af565b60008181526001830160205260408120546120f3575081546001818101845560008481526020808220909301849055845484825282860190935260409020919091556106a0565b5060006106a0565b60006001600160e01b03198216637965db0b60e01b14806106a057506106a0826124e2565b6001600160a01b03831661217b5761217681600880546000838152600960205260408120829055600182018355919091527ff3f7a9fe364faab93b216da50a3214154f22a0a2b415b23a84c8169e8b636ee30155565b61219e565b816001600160a01b0316836001600160a01b03161461219e5761219e8382612507565b6001600160a01b0382166121b5576108e3816125a4565b826001600160a01b0316826001600160a01b0316146108e3576108e38282612653565b6121e28282611487565b610a9b576121fa816001600160a01b03166014612697565b612205836020612697565b604051602001612216929190613727565b60408051601f198184030181529082905262461bcd60e51b82526107ad91600401612d9a565b6122468282611487565b15610a9b576000828152600a602090815260408083206001600160a01b0385168085529252808320805460ff1916905551339285917ff6391f5c32d9c69d2a47ea670b442974b53935d1edc7fd64eb21e047a839171b9190a45050565b6000610d1e836001600160a01b038416612832565b600061230d826040518060400160405280602081526020017f5361666545524332303a206c6f772d6c6576656c2063616c6c206661696c6564815250856001600160a01b03166129259092919063ffffffff16565b8051909150156108e3578080602001905181019061232b919061379c565b6108e35760405162461bcd60e51b815260206004820152602a60248201527f5361666545524332303a204552433230206f7065726174696f6e20646964206e6044820152691bdd081cdd58d8d9595960b21b60648201526084016107ad565b60008260000182815481106123a1576123a1613451565b9060005260206000200154905092915050565b60006001600160a01b0384163b156124a757604051630a85bd0160e11b81526001600160a01b0385169063150b7a02906123f89033908990889088906004016137b9565b6020604051808303816000875af1925050508015612433575060408051601f3d908101601f19168201909252612430918101906137f6565b60015b61248d573d808015612461576040519150601f19603f3d011682016040523d82523d6000602084013e612466565b606091505b5080516124855760405162461bcd60e51b81526004016107ad906136d5565b805181602001fd5b6001600160e01b031916630a85bd0160e11b1490506114fa565b5060016114fa565b6124b98383612934565b6124c660008484846123b4565b6108e35760405162461bcd60e51b81526004016107ad906136d5565b60006001600160e01b0319821663780e9d6360e01b14806106a057506106a082612a82565b6000600161251484610e2a565b61251e919061350a565b600083815260076020526040902054909150808214612571576001600160a01b03841660009081526006602090815260408083208584528252808320548484528184208190558352600790915290208190555b5060009182526007602090815260408084208490556001600160a01b039094168352600681528383209183525290812055565b6008546000906125b69060019061350a565b600083815260096020526040812054600880549394509092849081106125de576125de613451565b9060005260206000200154905080600883815481106125ff576125ff613451565b600091825260208083209091019290925582815260099091526040808220849055858252812055600880548061263757612637613813565b6001900381819060005260206000200160009055905550505050565b600061265e83610e2a565b6001600160a01b039093166000908152600660209081526040808320868452825280832085905593825260079052919091209190915550565b606060006126a6836002613521565b6126b1906002613554565b6001600160401b038111156126c8576126c8612dc6565b6040519080825280601f01601f1916602001820160405280156126f2576020820181803683370190505b509050600360fc1b8160008151811061270d5761270d613451565b60200101906001600160f81b031916908160001a905350600f60fb1b8160018151811061273c5761273c613451565b60200101906001600160f81b031916908160001a9053506000612760846002613521565b61276b906001613554565b90505b60018111156127e3576f181899199a1a9b1b9c1cb0b131b232b360811b85600f166010811061279f5761279f613451565b1a60f81b8282815181106127b5576127b5613451565b60200101906001600160f81b031916908160001a90535060049490941c936127dc81613829565b905061276e565b508315610d1e5760405162461bcd60e51b815260206004820181905260248201527f537472696e67733a20686578206c656e67746820696e73756666696369656e7460448201526064016107ad565b6000818152600183016020526040812054801561291b57600061285660018361350a565b855490915060009061286a9060019061350a565b90508181146128cf57600086600001828154811061288a5761288a613451565b90600052602060002001549050808760000184815481106128ad576128ad613451565b6000918252602080832090910192909255918252600188019052604090208390555b85548690806128e0576128e0613813565b6001900381819060005260206000200160009055905585600101600086815260200190815260200160002060009055600193505050506106a0565b60009150506106a0565b60606114fa8484600085612ad2565b6001600160a01b03821661298a5760405162461bcd60e51b815260206004820181905260248201527f4552433732313a206d696e7420746f20746865207a65726f206164647265737360448201526064016107ad565b6000818152600260205260409020546001600160a01b0316156129ef5760405162461bcd60e51b815260206004820152601c60248201527f4552433732313a20746f6b656e20616c7265616479206d696e7465640000000060448201526064016107ad565b6129fb60008383612120565b6001600160a01b0382166000908152600360205260408120805460019290612a24908490613554565b909155505060008181526002602052604080822080546001600160a01b0319166001600160a01b03861690811790915590518392907fddf252ad1be2c89b69c2b068fc378daa952ba7f163c4a11628f55a4df523b3ef908290a45050565b60006001600160e01b031982166380ac58cd60e01b1480612ab357506001600160e01b03198216635b5e139f60e01b145b806106a057506301ffc9a760e01b6001600160e01b03198316146106a0565b606082471015612b335760405162461bcd60e51b815260206004820152602660248201527f416464726573733a20696e73756666696369656e742062616c616e636520666f6044820152651c8818d85b1b60d21b60648201526084016107ad565b6001600160a01b0385163b612b8a5760405162461bcd60e51b815260206004820152601d60248201527f416464726573733a2063616c6c20746f206e6f6e2d636f6e747261637400000060448201526064016107ad565b600080866001600160a01b03168587604051612ba691906134b4565b60006040518083038185875af1925050503d8060008114612be3576040519150601f19603f3d011682016040523d82523d6000602084013e612be8565b606091505b5091509150612bf8828286612c03565b979650505050505050565b60608315612c12575081610d1e565b825115612c225782518084602001fd5b8160405162461bcd60e51b81526004016107ad9190612d9a565b828054612c48906133c5565b90600052602060002090601f016020900481019282612c6a5760008555612cb0565b82601f10612c8357805160ff1916838001178555612cb0565b82800160010185558215612cb0579182015b82811115612cb0578251825591602001919060010190612c95565b50612cbc929150612cfa565b5090565b828054828255906000526020600020908101928215612cb05791602002820182811115612cb0578251825591602001919060010190612c95565b5b80821115612cbc5760008155600101612cfb565b6001600160e01b031981168114611ddc57600080fd5b600060208284031215612d3757600080fd5b8135610d1e81612d0f565b60005b83811015612d5d578181015183820152602001612d45565b83811115610ae15750506000910152565b60008151808452612d86816020860160208601612d42565b601f01601f19169290920160200192915050565b602081526000610d1e6020830184612d6e565b600060208284031215612dbf57600080fd5b5035919050565b634e487b7160e01b600052604160045260246000fd5b604051601f8201601f191681016001600160401b0381118282101715612e0457612e04612dc6565b604052919050565b60006001600160401b03831115612e2557612e25612dc6565b612e38601f8401601f1916602001612ddc565b9050828152838383011115612e4c57600080fd5b828260208301376000602084830101529392505050565b600082601f830112612e7457600080fd5b610d1e83833560208501612e0c565b60008060408385031215612e9657600080fd5b8235915060208301356001600160401b03811115612eb357600080fd5b612ebf85828601612e63565b9150509250929050565b80356001600160a01b0381168114612ee057600080fd5b919050565b60008060408385031215612ef857600080fd5b612f0183612ec9565b946020939093013593505050565b600080600060608486031215612f2457600080fd5b612f2d84612ec9565b9250612f3b60208501612ec9565b9150604084013590509250925092565b600080600060608486031215612f6057600080fd5b8335925060208401356001600160401b03811115612f7d57600080fd5b612f8986828701612e63565b925050604084013590509250925092565b60008060408385031215612fad57600080fd5b82359150612fbd60208401612ec9565b90509250929050565b600082601f830112612fd757600080fd5b813560206001600160401b03821115612ff257612ff2612dc6565b8160051b613001828201612ddc565b928352848101820192828101908785111561301b57600080fd5b83870192505b84831015612bf857823582529183019190830190613021565b60008060006060848603121561304f57600080fd5b61305884612ec9565b925061306660208501612ec9565b915060408401356001600160401b0381111561308157600080fd5b61308d86828701612fc6565b9150509250925092565b6000602082840312156130a957600080fd5b81356001600160401b038111156130bf57600080fd5b6114fa84828501612e63565b600081518084526020808501945080840160005b838110156130fb578151875295820195908201906001016130df565b509495945050505050565b602081526000610d1e60208301846130cb565b60006020828403121561312b57600080fd5b81356001600160401b0381111561314157600080fd5b6114fa84828501612fc6565b60006020828403121561315f57600080fd5b610d1e82612ec9565b60008060006060848603121561317d57600080fd5b61318684612ec9565b95602085013595506040909401359392505050565b6040815260006131ae60408301856130cb565b90508260208301529392505050565b600080604083850312156131d057600080fd5b50508035926020909101359150565b600080600080608085870312156131f557600080fd5b8435935060208501356001600160401b0381111561321257600080fd5b61321e87828801612e63565b949794965050505060408301359260600135919050565b6000806040838503121561324857600080fd5b61325183612ec9565b9150612fbd60208401612ec9565b8015158114611ddc57600080fd5b6000806040838503121561328057600080fd5b61328983612ec9565b915060208301356132998161325f565b809150509250929050565b600080600080608085870312156132ba57600080fd5b6132c385612ec9565b93506132d160208601612ec9565b92506040850135915060608501356001600160401b038111156132f357600080fd5b8501601f8101871361330457600080fd5b61331387823560208401612e0c565b91505092959194509250565b60008060006060848603121561333457600080fd5b8335925060208401356001600160401b038082111561335257600080fd5b61335e87838801612e63565b9350604086013591508082111561337457600080fd5b5061308d86828701612fc6565b6000806040838503121561339457600080fd5b82356001600160401b038111156133aa57600080fd5b6133b685828601612fc6565b925050612fbd60208401612ec9565b600181811c908216806133d957607f821691505b602082108114156133fa57634e487b7160e01b600052602260045260246000fd5b50919050565b60208082526031908201527f4552433732313a207472616e736665722063616c6c6572206973206e6f74206f6040820152701ddb995c881b9bdc88185c1c1c9bdd9959607a1b606082015260800190565b634e487b7160e01b600052603260045260246000fd5b634e487b7160e01b600052601160045260246000fd5b600060001982141561349157613491613467565b5060010190565b600081516134aa818560208601612d42565b9290920192915050565b600082516134c6818460208701612d42565b9190910192915050565b636865726f60e01b815260040190565b634e487b7160e01b600052601260045260246000fd5b600082613505576135056134e0565b500490565b60008282101561351c5761351c613467565b500390565b600081600019048311821515161561353b5761353b613467565b500290565b60008261354f5761354f6134e0565b500690565b6000821982111561356757613567613467565b500190565b60006020828403121561357e57600080fd5b5051919050565b8381528260208201526060604082015260006135a460608301846130cb565b95945050505050565b828152600082516135c5816020850160208701612d42565b919091016020019392505050565b6040815260006135e66040830185612d6e565b82810360208401526135a481856130cb565b600080855481600182811c91508083168061361457607f831692505b602080841082141561363457634e487b7160e01b86526022600452602486fd5b818015613648576001811461365957613686565b60ff19861689528489019650613686565b60008c81526020902060005b8681101561367e5781548b820152908501908301613665565b505084890196505b5050505050506114f66136a961369c8388613498565b602d60f81b815260010190565b85613498565b6040815260006135e660408301856130cb565b6040815260006131ae6040830185612d6e565b60208082526032908201527f4552433732313a207472616e7366657220746f206e6f6e20455243373231526560408201527131b2b4bb32b91034b6b83632b6b2b73a32b960711b606082015260800190565b7f416363657373436f6e74726f6c3a206163636f756e742000000000000000000081526000835161375f816017850160208801612d42565b7001034b99036b4b9b9b4b733903937b6329607d1b6017918401918201528351613790816028840160208801612d42565b01602801949350505050565b6000602082840312156137ae57600080fd5b8151610d1e8161325f565b6001600160a01b03858116825284166020820152604081018390526080606082018190526000906137ec90830184612d6e565b9695505050505050565b60006020828403121561380857600080fd5b8151610d1e81612d0f565b634e487b7160e01b600052603160045260246000fd5b60008161383857613838613467565b50600019019056fe241ecf16d79d0f8dbfb92cbc07fe17840425976cf0667f022fe9877caa831b08a26469706673582212200c652f3c3d100f09bc7ced973d50d2d7b70d67ae9037a6afadc41817ead8091364736f6c634300080c0033",
  "linkReferences": {},
  "deployedLinkReferences": {}
}