{
  "_format": "hh-sol-artifact-1",
  "contractName": "CS",
  "sourceName": "contracts/token/CS.sol",
  "abi": [
    {
      "inputs": [
        {
          "internalType": "address",
          "name": "manager",
          "type": "address"
        }
      ],
      "stateMutability": "nonpayable",
      "type": "constructor"
    },
    {
      "anonymous": false,
      "inputs": [
        {
          "indexed": true,
          "internalType": "address",
          "name": "owner",
          "type": "address"
        },
        {
          "indexed": true,
          "internalType": "address",
          "name": "approved",
          "type": "address"
        },
        {
          "indexed": true,
          "internalType": "uint256",
          "name": "tokenId",
          "type": "uint256"
        }
      ],
      "name": "Approval",
      "type": "event"
    },
    {
      "anonymous": false,
      "inputs": [
        {
          "indexed": true,
          "internalType": "address",
          "name": "owner",
          "type": "address"
        },
        {
          "indexed": true,
          "internalType": "address",
          "name": "operator",
          "type": "address"
        },
        {
          "indexed": false,
          "internalType": "bool",
          "name": "approved",
          "type": "bool"
        }
      ],
      "name": "ApprovalForAll",
      "type": "event"
    },
    {
      "anonymous": false,
      "inputs": [
        {
          "indexed": true,
          "internalType": "address",
          "name": "user",
          "type": "address"
        },
        {
          "indexed": false,
          "internalType": "uint256",
          "name": "hero",
          "type": "uint256"
        },
        {
          "indexed": false,
          "internalType": "uint256",
          "name": "length",
          "type": "uint256"
        },
        {
          "indexed": false,
          "internalType": "uint256[]",
          "name": "cnIds",
          "type": "uint256[]"
        }
      ],
      "name": "Craft",
      "type": "event"
    },
    {
      "anonymous": false,
      "inputs": [
        {
          "indexed": true,
          "internalType": "bytes32",
          "name": "role",
          "type": "bytes32"
        },
        {
          "indexed": true,
          "internalType": "bytes32",
          "name": "previousAdminRole",
          "type": "bytes32"
        },
        {
          "indexed": true,
          "internalType": "bytes32",
          "name": "newAdminRole",
          "type": "bytes32"
        }
      ],
      "name": "RoleAdminChanged",
      "type": "event"
    },
    {
      "anonymous": false,
      "inputs": [
        {
          "indexed": true,
          "internalType": "bytes32",
          "name": "role",
          "type": "bytes32"
        },
        {
          "indexed": true,
          "internalType": "address",
          "name": "account",
          "type": "address"
        },
        {
          "indexed": true,
          "internalType": "address",
          "name": "sender",
          "type": "address"
        }
      ],
      "name": "RoleGranted",
      "type": "event"
    },
    {
      "anonymous": false,
      "inputs": [
        {
          "indexed": true,
          "internalType": "bytes32",
          "name": "role",
          "type": "bytes32"
        },
        {
          "indexed": true,
          "internalType": "address",
          "name": "account",
          "type": "address"
        },
        {
          "indexed": true,
          "internalType": "address",
          "name": "sender",
          "type": "address"
        }
      ],
      "name": "RoleRevoked",
      "type": "event"
    },
    {
      "anonymous": false,
      "inputs": [
        {
          "indexed": false,
          "internalType": "address",
          "name": "funAddr",
          "type": "address"
        },
        {
          "indexed": false,
          "internalType": "address",
          "name": "cnAddr",
          "type": "address"
        }
      ],
      "name": "SetAddrs",
      "type": "event"
    },
    {
      "anonymous": false,
      "inputs": [
        {
          "indexed": false,
          "internalType": "string",
          "name": "uri",
          "type": "string"
        }
      ],
      "name": "SetBaseURI",
      "type": "event"
    },
    {
      "anonymous": false,
      "inputs": [
        {
          "indexed": true,
          "internalType": "uint256",
          "name": "csId",
          "type": "uint256"
        },
        {
          "indexed": false,
          "internalType": "string",
          "name": "slot",
          "type": "string"
        },
        {
          "indexed": false,
          "internalType": "uint256",
          "name": "data",
          "type": "uint256"
        }
      ],
      "name": "SetData",
      "type": "event"
    },
    {
      "anonymous": false,
      "inputs": [
        {
          "indexed": true,
          "internalType": "uint256",
          "name": "csId",
          "type": "uint256"
        },
        {
          "indexed": false,
          "internalType": "string",
          "name": "slot",
          "type": "string"
        },
        {
          "indexed": false,
          "internalType": "uint256[]",
          "name": "datas",
          "type": "uint256[]"
        }
      ],
      "name": "SetDatas",
      "type": "event"
    },
    {
      "anonymous": false,
      "inputs": [
        {
          "indexed": false,
          "internalType": "uint256[15]",
          "name": "prices",
          "type": "uint256[15]"
        }
      ],
      "name": "SetPrices",
      "type": "event"
    },
    {
      "anonymous": false,
      "inputs": [
        {
          "indexed": true,
          "internalType": "address",
          "name": "to",
          "type": "address"
        },
        {
          "indexed": false,
          "internalType": "uint256[]",
          "name": "csIds",
          "type": "uint256[]"
        },
        {
          "indexed": false,
          "internalType": "uint256[]",
          "name": "heros",
          "type": "uint256[]"
        }
      ],
      "name": "SpawnCss",
      "type": "event"
    },
    {
      "anonymous": false,
      "inputs": [
        {
          "indexed": true,
          "internalType": "address",
          "name": "from",
          "type": "address"
        },
        {
          "indexed": true,
          "internalType": "address",
          "name": "to",
          "type": "address"
        },
        {
          "indexed": true,
          "internalType": "uint256",
          "name": "tokenId",
          "type": "uint256"
        }
      ],
      "name": "Transfer",
      "type": "event"
    },
    {
      "inputs": [],
      "name": "DEFAULT_ADMIN_ROLE",
      "outputs": [
        {
          "internalType": "bytes32",
          "name": "",
          "type": "bytes32"
        }
      ],
      "stateMutability": "view",
      "type": "function"
    },
    {
      "inputs": [],
      "name": "MANAGER_ROLE",
      "outputs": [
        {
          "internalType": "bytes32",
          "name": "",
          "type": "bytes32"
        }
      ],
      "stateMutability": "view",
      "type": "function"
    },
    {
      "inputs": [],
      "name": "SETTER_ROLE",
      "outputs": [
        {
          "internalType": "bytes32",
          "name": "",
          "type": "bytes32"
        }
      ],
      "stateMutability": "view",
      "type": "function"
    },
    {
      "inputs": [],
      "name": "SPAWNER_ROLE",
      "outputs": [
        {
          "internalType": "bytes32",
          "name": "",
          "type": "bytes32"
        }
      ],
      "stateMutability": "view",
      "type": "function"
    },
    {
      "inputs": [
        {
          "internalType": "address",
          "name": "to",
          "type": "address"
        },
        {
          "internalType": "uint256",
          "name": "tokenId",
          "type": "uint256"
        }
      ],
      "name": "approve",
      "outputs": [],
      "stateMutability": "nonpayable",
      "type": "function"
    },
    {
      "inputs": [
        {
          "internalType": "address",
          "name": "owner",
          "type": "address"
        }
      ],
      "name": "balanceOf",
      "outputs": [
        {
          "internalType": "uint256",
          "name": "",
          "type": "uint256"
        }
      ],
      "stateMutability": "view",
      "type": "function"
    },
    {
      "inputs": [],
      "name": "baseURI",
      "outputs": [
        {
          "internalType": "string",
          "name": "",
          "type": "string"
        }
      ],
      "stateMutability": "view",
      "type": "function"
    },
    {
      "inputs": [],
      "name": "cn",
      "outputs": [
        {
          "internalType": "contract ICN",
          "name": "",
          "type": "address"
        }
      ],
      "stateMutability": "view",
      "type": "function"
    },
    {
      "inputs": [
        {
          "internalType": "uint256[]",
          "name": "csIds",
          "type": "uint256[]"
        }
      ],
      "name": "craft",
      "outputs": [],
      "stateMutability": "nonpayable",
      "type": "function"
    },
    {
      "inputs": [
        {
          "internalType": "uint256",
          "name": "",
          "type": "uint256"
        }
      ],
      "name": "craftPrices",
      "outputs": [
        {
          "internalType": "uint256",
          "name": "",
          "type": "uint256"
        }
      ],
      "stateMutability": "view",
      "type": "function"
    },
    {
      "inputs": [
        {
          "internalType": "uint256",
          "name": "",
          "type": "uint256"
        },
        {
          "internalType": "string",
          "name": "",
          "type": "string"
        }
      ],
      "name": "data",
      "outputs": [
        {
          "internalType": "uint256",
          "name": "",
          "type": "uint256"
        }
      ],
      "stateMutability": "view",
      "type": "function"
    },
    {
      "inputs": [
        {
          "internalType": "uint256",
          "name": "",
          "type": "uint256"
        },
        {
          "internalType": "string",
          "name": "",
          "type": "string"
        },
        {
          "internalType": "uint256",
          "name": "",
          "type": "uint256"
        }
      ],
      "name": "datas",
      "outputs": [
        {
          "internalType": "uint256",
          "name": "",
          "type": "uint256"
        }
      ],
      "stateMutability": "view",
      "type": "function"
    },
    {
      "inputs": [],
      "name": "fun",
      "outputs": [
        {
          "internalType": "contract IERC20",
          "name": "",
          "type": "address"
        }
      ],
      "stateMutability": "view",
      "type": "function"
    },
    {
      "inputs": [
        {
          "internalType": "uint256",
          "name": "tokenId",
          "type": "uint256"
        }
      ],
      "name": "getApproved",
      "outputs": [
        {
          "internalType": "address",
          "name": "",
          "type": "address"
        }
      ],
      "stateMutability": "view",
      "type": "function"
    },
    {
      "inputs": [
        {
          "internalType": "uint256[]",
          "name": "csIds",
          "type": "uint256[]"
        }
      ],
      "name": "getCraftPrice",
      "outputs": [
        {
          "internalType": "uint256",
          "name": "",
          "type": "uint256"
        }
      ],
      "stateMutability": "view",
      "type": "function"
    },
    {
      "inputs": [
        {
          "internalType": "uint256",
          "name": "csId",
          "type": "uint256"
        },
        {
          "internalType": "string",
          "name": "slot",
          "type": "string"
        }
      ],
      "name": "getDatas",
      "outputs": [
        {
          "internalType": "uint256[]",
          "name": "",
          "type": "uint256[]"
        }
      ],
      "stateMutability": "view",
      "type": "function"
    },
    {
      "inputs": [
        {
          "internalType": "uint256",
          "name": "csId",
          "type": "uint256"
        },
        {
          "internalType": "string",
          "name": "slot",
          "type": "string"
        },
        {
          "internalType": "uint256",
          "name": "base",
          "type": "uint256"
        },
        {
          "internalType": "uint256",
          "name": "range",
          "type": "uint256"
        }
      ],
      "name": "getRandomNumber",
      "outputs": [
        {
          "internalType": "uint256",
          "name": "",
          "type": "uint256"
        }
      ],
      "stateMutability": "pure",
      "type": "function"
    },
    {
      "inputs": [
        {
          "internalType": "bytes32",
          "name": "role",
          "type": "bytes32"
        }
      ],
      "name": "getRoleAdmin",
      "outputs": [
        {
          "internalType": "bytes32",
          "name": "",
          "type": "bytes32"
        }
      ],
      "stateMutability": "view",
      "type": "function"
    },
    {
      "inputs": [
        {
          "internalType": "bytes32",
          "name": "role",
          "type": "bytes32"
        },
        {
          "internalType": "uint256",
          "name": "index",
          "type": "uint256"
        }
      ],
      "name": "getRoleMember",
      "outputs": [
        {
          "internalType": "address",
          "name": "",
          "type": "address"
        }
      ],
      "stateMutability": "view",
      "type": "function"
    },
    {
      "inputs": [
        {
          "internalType": "bytes32",
          "name": "role",
          "type": "bytes32"
        }
      ],
      "name": "getRoleMemberCount",
      "outputs": [
        {
          "internalType": "uint256",
          "name": "",
          "type": "uint256"
        }
      ],
      "stateMutability": "view",
      "type": "function"
    },
    {
      "inputs": [
        {
          "internalType": "bytes32",
          "name": "role",
          "type": "bytes32"
        },
        {
          "internalType": "address",
          "name": "account",
          "type": "address"
        }
      ],
      "name": "grantRole",
      "outputs": [],
      "stateMutability": "nonpayable",
      "type": "function"
    },
    {
      "inputs": [
        {
          "internalType": "bytes32",
          "name": "role",
          "type": "bytes32"
        },
        {
          "internalType": "address",
          "name": "account",
          "type": "address"
        }
      ],
      "name": "hasRole",
      "outputs": [
        {
          "internalType": "bool",
          "name": "",
          "type": "bool"
        }
      ],
      "stateMutability": "view",
      "type": "function"
    },
    {
      "inputs": [
        {
          "internalType": "address",
          "name": "owner",
          "type": "address"
        },
        {
          "internalType": "address",
          "name": "operator",
          "type": "address"
        }
      ],
      "name": "isApprovedForAll",
      "outputs": [
        {
          "internalType": "bool",
          "name": "",
          "type": "bool"
        }
      ],
      "stateMutability": "view",
      "type": "function"
    },
    {
      "inputs": [],
      "name": "name",
      "outputs": [
        {
          "internalType": "string",
          "name": "",
          "type": "string"
        }
      ],
      "stateMutability": "view",
      "type": "function"
    },
    {
      "inputs": [
        {
          "internalType": "uint256",
          "name": "tokenId",
          "type": "uint256"
        }
      ],
      "name": "ownerOf",
      "outputs": [
        {
          "internalType": "address",
          "name": "",
          "type": "address"
        }
      ],
      "stateMutability": "view",
      "type": "function"
    },
    {
      "inputs": [
        {
          "internalType": "bytes32",
          "name": "role",
          "type": "bytes32"
        },
        {
          "internalType": "address",
          "name": "account",
          "type": "address"
        }
      ],
      "name": "renounceRole",
      "outputs": [],
      "stateMutability": "nonpayable",
      "type": "function"
    },
    {
      "inputs": [
        {
          "internalType": "bytes32",
          "name": "role",
          "type": "bytes32"
        },
        {
          "internalType": "address",
          "name": "account",
          "type": "address"
        }
      ],
      "name": "revokeRole",
      "outputs": [],
      "stateMutability": "nonpayable",
      "type": "function"
    },
    {
      "inputs": [
        {
          "internalType": "address",
          "name": "from",
          "type": "address"
        },
        {
          "internalType": "address",
          "name": "to",
          "type": "address"
        },
        {
          "internalType": "uint256",
          "name": "tokenId",
          "type": "uint256"
        }
      ],
      "name": "safeTransferFrom",
      "outputs": [],
      "stateMutability": "nonpayable",
      "type": "function"
    },
    {
      "inputs": [
        {
          "internalType": "address",
          "name": "from",
          "type": "address"
        },
        {
          "internalType": "address",
          "name": "to",
          "type": "address"
        },
        {
          "internalType": "uint256",
          "name": "tokenId",
          "type": "uint256"
        },
        {
          "internalType": "bytes",
          "name": "_data",
          "type": "bytes"
        }
      ],
      "name": "safeTransferFrom",
      "outputs": [],
      "stateMutability": "nonpayable",
      "type": "function"
    },
    {
      "inputs": [
        {
          "internalType": "address",
          "name": "from",
          "type": "address"
        },
        {
          "internalType": "address",
          "name": "to",
          "type": "address"
        },
        {
          "internalType": "uint256[]",
          "name": "tokenIds",
          "type": "uint256[]"
        }
      ],
      "name": "safeTransferFromBatch",
      "outputs": [],
      "stateMutability": "nonpayable",
      "type": "function"
    },
    {
      "inputs": [
        {
          "internalType": "address",
          "name": "funAddr",
          "type": "address"
        },
        {
          "internalType": "address",
          "name": "cnAddr",
          "type": "address"
        }
      ],
      "name": "setAddrs",
      "outputs": [],
      "stateMutability": "nonpayable",
      "type": "function"
    },
    {
      "inputs": [
        {
          "internalType": "address",
          "name": "operator",
          "type": "address"
        },
        {
          "internalType": "bool",
          "name": "approved",
          "type": "bool"
        }
      ],
      "name": "setApprovalForAll",
      "outputs": [],
      "stateMutability": "nonpayable",
      "type": "function"
    },
    {
      "inputs": [
        {
          "internalType": "string",
          "name": "uri",
          "type": "string"
        }
      ],
      "name": "setBaseURI",
      "outputs": [],
      "stateMutability": "nonpayable",
      "type": "function"
    },
    {
      "inputs": [
        {
          "internalType": "uint256",
          "name": "csId",
          "type": "uint256"
        },
        {
          "internalType": "string",
          "name": "slot",
          "type": "string"
        },
        {
          "internalType": "uint256",
          "name": "_data",
          "type": "uint256"
        }
      ],
      "name": "setData",
      "outputs": [],
      "stateMutability": "nonpayable",
      "type": "function"
    },
    {
      "inputs": [
        {
          "internalType": "uint256",
          "name": "csId",
          "type": "uint256"
        },
        {
          "internalType": "string",
          "name": "slot",
          "type": "string"
        },
        {
          "internalType": "uint256[]",
          "name": "_datas",
          "type": "uint256[]"
        }
      ],
      "name": "setDatas",
      "outputs": [],
      "stateMutability": "nonpayable",
      "type": "function"
    },
    {
      "inputs": [
        {
          "internalType": "uint256[15]",
          "name": "prices",
          "type": "uint256[15]"
        }
      ],
      "name": "setPrices",
      "outputs": [],
      "stateMutability": "nonpayable",
      "type": "function"
    },
    {
      "inputs": [
        {
          "internalType": "uint256[]",
          "name": "heros",
          "type": "uint256[]"
        },
        {
          "internalType": "address",
          "name": "to",
          "type": "address"
        }
      ],
      "name": "spawnCss",
      "outputs": [
        {
          "internalType": "uint256[]",
          "name": "",
          "type": "uint256[]"
        }
      ],
      "stateMutability": "nonpayable",
      "type": "function"
    },
    {
      "inputs": [
        {
          "internalType": "bytes4",
          "name": "interfaceId",
          "type": "bytes4"
        }
      ],
      "name": "supportsInterface",
      "outputs": [
        {
          "internalType": "bool",
          "name": "",
          "type": "bool"
        }
      ],
      "stateMutability": "view",
      "type": "function"
    },
    {
      "inputs": [],
      "name": "symbol",
      "outputs": [
        {
          "internalType": "string",
          "name": "",
          "type": "string"
        }
      ],
      "stateMutability": "view",
      "type": "function"
    },
    {
      "inputs": [
        {
          "internalType": "uint256",
          "name": "index",
          "type": "uint256"
        }
      ],
      "name": "tokenByIndex",
      "outputs": [
        {
          "internalType": "uint256",
          "name": "",
          "type": "uint256"
        }
      ],
      "stateMutability": "view",
      "type": "function"
    },
    {
      "inputs": [
        {
          "internalType": "address",
          "name": "owner",
          "type": "address"
        },
        {
          "internalType": "uint256",
          "name": "index",
          "type": "uint256"
        }
      ],
      "name": "tokenOfOwnerByIndex",
      "outputs": [
        {
          "internalType": "uint256",
          "name": "",
          "type": "uint256"
        }
      ],
      "stateMutability": "view",
      "type": "function"
    },
    {
      "inputs": [
        {
          "internalType": "uint256",
          "name": "tokenId",
          "type": "uint256"
        }
      ],
      "name": "tokenURI",
      "outputs": [
        {
          "internalType": "string",
          "name": "",
          "type": "string"
        }
      ],
      "stateMutability": "view",
      "type": "function"
    },
    {
      "inputs": [
        {
          "internalType": "address",
          "name": "user",
          "type": "address"
        },
        {
          "internalType": "uint256",
          "name": "cursor",
          "type": "uint256"
        },
        {
          "internalType": "uint256",
          "name": "size",
          "type": "uint256"
        }
      ],
      "name": "tokensOfOwnerBySize",
      "outputs": [
        {
          "internalType": "uint256[]",
          "name": "",
          "type": "uint256[]"
        },
        {
          "internalType": "uint256",
          "name": "",
          "type": "uint256"
        }
      ],
      "stateMutability": "view",
      "type": "function"
    },
    {
      "inputs": [],
      "name": "totalSupply",
      "outputs": [
        {
          "internalType": "uint256",
          "name": "",
          "type": "uint256"
        }
      ],
      "stateMutability": "view",
      "type": "function"
    },
    {
      "inputs": [
        {
          "internalType": "address",
          "name": "from",
          "type": "address"
        },
        {
          "internalType": "address",
          "name": "to",
          "type": "address"
        },
        {
          "internalType": "uint256",
          "name": "tokenId",
          "type": "uint256"
        }
      ],
      "name": "transferFrom",
      "outputs": [],
      "stateMutability": "nonpayable",
      "type": "function"
    }
  ],
  "bytecode": "0x6080604052604051806101e00160405280606461ffff168152602001606461ffff168152602001606461ffff168152602001606461ffff16815260200160c861ffff16815260200160c861ffff16815260200160c861ffff16815260200161012c61ffff16815260200161012c61ffff16815260200161012c61ffff16815260200161012c61ffff16815260200161019061ffff16815260200161019061ffff16815260200161019061ffff16815260200161019061ffff16815250601090600f620000cd9291906200048f565b50348015620000db57600080fd5b5060405162006b9538038062006b958339818101604052810190620001019190620005f4565b6040518060400160405280601181526020017f43796265722047656172205368617264730000000000000000000000000000008152506040518060400160405280600281526020017f4353000000000000000000000000000000000000000000000000000000000000815250816000908051906020019062000185929190620004da565b5080600190805190602001906200019e929190620004da565b5050506001600c81905550620001be6000801b33620001f760201b60201c565b620001f07f241ecf16d79d0f8dbfb92cbc07fe17840425976cf0667f022fe9877caa831b0882620001f760201b60201c565b506200068b565b6200020982826200020d60201b60201c565b5050565b6200022482826200025560201b620021041760201c565b6200025081600b60008581526020019081526020016000206200034760201b620021e51790919060201c565b505050565b6200026782826200037f60201b60201c565b62000343576001600a600084815260200190815260200160002060000160008373ffffffffffffffffffffffffffffffffffffffff1673ffffffffffffffffffffffffffffffffffffffff16815260200190815260200160002060006101000a81548160ff021916908315150217905550620002e8620003ea60201b60201c565b73ffffffffffffffffffffffffffffffffffffffff168173ffffffffffffffffffffffffffffffffffffffff16837f2f8788117e7eff1d82e926ec794901d17c78024a50270940304540a733656f0d60405160405180910390a45b5050565b600062000377836000018373ffffffffffffffffffffffffffffffffffffffff1660001b620003f260201b60201c565b905092915050565b6000600a600084815260200190815260200160002060000160008373ffffffffffffffffffffffffffffffffffffffff1673ffffffffffffffffffffffffffffffffffffffff16815260200190815260200160002060009054906101000a900460ff16905092915050565b600033905090565b60006200040683836200046c60201b60201c565b6200046157826000018290806001815401808255809150506001900390600052602060002001600090919091909150558260000180549050836001016000848152602001908152602001600020819055506001905062000466565b600090505b92915050565b600080836001016000848152602001908152602001600020541415905092915050565b82600f8101928215620004c7579160200282015b82811115620004c6578251829061ffff16905591602001919060010190620004a3565b5b509050620004d691906200056b565b5090565b828054620004e89062000655565b90600052602060002090601f0160209004810192826200050c576000855562000558565b82601f106200052757805160ff191683800117855562000558565b8280016001018555821562000558579182015b82811115620005575782518255916020019190600101906200053a565b5b5090506200056791906200056b565b5090565b5b80821115620005865760008160009055506001016200056c565b5090565b600080fd5b600073ffffffffffffffffffffffffffffffffffffffff82169050919050565b6000620005bc826200058f565b9050919050565b620005ce81620005af565b8114620005da57600080fd5b50565b600081519050620005ee81620005c3565b92915050565b6000602082840312156200060d576200060c6200058a565b5b60006200061d84828501620005dd565b91505092915050565b7f4e487b7100000000000000000000000000000000000000000000000000000000600052602260045260246000fd5b600060028204905060018216806200066e57607f821691505b6020821081141562000685576200068462000626565b5b50919050565b6164fa806200069b6000396000f3fe608060405234801561001057600080fd5b506004361061027f5760003560e01c8063854ec1af1161015c578063b88d4fde116100ce578063d547741f11610087578063d547741f14610841578063e985e9c51461085d578063ec87621c1461088d578063f3b0bebe146108ab578063f54a867e146108db578063fd577d0b146108f75761027f565b8063b88d4fde1461075d578063c1200e8f14610779578063c14bc07b14610795578063c772e114146107b1578063c87b56dd146107e1578063ca15c873146108115761027f565b806395d89b411161012057806395d89b41146106ad5780639718a93b146106cb578063a2011b3f146106e7578063a217fddf14610705578063a22cb46514610723578063a3a79ad71461073f5761027f565b8063854ec1af146105ce5780639010d07c146105ff57806391d148541461062f57806391fd28af1461065f578063946644cd1461068f5761027f565b806336568abe116101f557806357b0c99f116101b957806357b0c99f146104d45780636043454f146105045780636352211e146105345780636c0360eb1461056457806370a082311461058257806379058720146105b25761027f565b806336568abe1461043457806338aa38151461045057806342842e0e1461046c5780634f6ccce71461048857806355f804b3146104b85761027f565b806318160ddd1161024757806318160ddd1461034e57806323b872dd1461036c578063248a9ca314610388578063251d13ba146103b85780632f2ff15d146103e85780632f745c59146104045761027f565b806301ffc9a71461028457806306fdde03146102b4578063081812fc146102d2578063090a0eae14610302578063095ea7b314610332575b600080fd5b61029e60048036038101906102999190613f85565b610915565b6040516102ab9190613fcd565b60405180910390f35b6102bc610927565b6040516102c99190614081565b60405180910390f35b6102ec60048036038101906102e791906140d9565b6109b9565b6040516102f99190614147565b60405180910390f35b61031c60048036038101906103179190614297565b610a3e565b6040516103299190614302565b60405180910390f35b61034c60048036038101906103479190614349565b610a79565b005b610356610b91565b6040516103639190614302565b60405180910390f35b61038660048036038101906103819190614389565b610b9e565b005b6103a2600480360381019061039d9190614412565b610bfe565b6040516103af919061444e565b60405180910390f35b6103d260048036038101906103cd9190614469565b610c1e565b6040516103df9190614302565b60405180910390f35b61040260048036038101906103fd91906144d8565b610c71565b005b61041e60048036038101906104199190614349565b610c92565b60405161042b9190614302565b60405180910390f35b61044e600480360381019061044991906144d8565b610d37565b005b61046a600480360381019061046591906145e0565b610dba565b005b61048660048036038101906104819190614389565b610e04565b005b6104a2600480360381019061049d91906140d9565b610e24565b6040516104af9190614302565b60405180910390f35b6104d260048036038101906104cd919061464f565b610e95565b005b6104ee60048036038101906104e99190614297565b610f11565b6040516104fb9190614756565b60405180910390f35b61051e60048036038101906105199190614778565b610f99565b60405161052b9190614302565b60405180910390f35b61054e600480360381019061054991906140d9565b61103c565b60405161055b9190614147565b60405180910390f35b61056c6110ee565b6040516105799190614081565b60405180910390f35b61059c600480360381019061059791906147c1565b61117c565b6040516105a99190614302565b60405180910390f35b6105cc60048036038101906105c79190614778565b611234565b005b6105e860048036038101906105e391906147ee565b611733565b6040516105f6929190614841565b60405180910390f35b61061960048036038101906106149190614871565b611828565b6040516106269190614147565b60405180910390f35b610649600480360381019061064491906144d8565b611857565b6040516106569190613fcd565b60405180910390f35b610679600480360381019061067491906148b1565b6118c2565b6040516106869190614302565b60405180910390f35b610697611915565b6040516106a49190614993565b60405180910390f35b6106b561193b565b6040516106c29190614081565b60405180910390f35b6106e560048036038101906106e091906149ae565b6119cd565b005b6106ef611ab7565b6040516106fc919061444e565b60405180910390f35b61070d611adb565b60405161071a919061444e565b60405180910390f35b61073d60048036038101906107389190614a1a565b611ae2565b005b610747611af8565b6040516107549190614a7b565b60405180910390f35b61077760048036038101906107729190614b37565b611b1e565b005b610793600480360381019061078e9190614bba565b611b80565b005b6107af60048036038101906107aa9190614cf6565b611c2e565b005b6107cb60048036038101906107c691906140d9565b611ca5565b6040516107d89190614302565b60405180910390f35b6107fb60048036038101906107f691906140d9565b611cc0565b6040516108089190614081565b60405180910390f35b61082b60048036038101906108269190614412565b611d9f565b6040516108389190614302565b60405180910390f35b61085b600480360381019061085691906144d8565b611dc3565b005b610877600480360381019061087291906149ae565b611de4565b6040516108849190613fcd565b60405180910390f35b610895611e78565b6040516108a2919061444e565b60405180910390f35b6108c560048036038101906108c09190614d24565b611e9c565b6040516108d29190614756565b60405180910390f35b6108f560048036038101906108f09190614469565b612042565b005b6108ff6120e0565b60405161090c919061444e565b60405180910390f35b600061092082612215565b9050919050565b60606000805461093690614daf565b80601f016020809104026020016040519081016040528092919081815260200182805461096290614daf565b80156109af5780601f10610984576101008083540402835291602001916109af565b820191906000526020600020905b81548152906001019060200180831161099257829003601f168201915b5050505050905090565b60006109c48261228f565b610a03576040517f08c379a00000000000000000000000000000000000000000000000000000000081526004016109fa90614e53565b60405180910390fd5b6004600083815260200190815260200160002060009054906101000a900473ffffffffffffffffffffffffffffffffffffffff169050919050565b601f60205281600052604060002081805160208101820180518482526020830160208501208183528095505050505050600091509150505481565b6000610a848261103c565b90508073ffffffffffffffffffffffffffffffffffffffff168373ffffffffffffffffffffffffffffffffffffffff161415610af5576040517f08c379a0000000000000000000000000000000000000000000000000000000008152600401610aec90614ee5565b60405180910390fd5b8073ffffffffffffffffffffffffffffffffffffffff16610b146122fb565b73ffffffffffffffffffffffffffffffffffffffff161480610b435750610b4281610b3d6122fb565b611de4565b5b610b82576040517f08c379a0000000000000000000000000000000000000000000000000000000008152600401610b7990614f77565b60405180910390fd5b610b8c8383612303565b505050565b6000600880549050905090565b610baf610ba96122fb565b826123bc565b610bee576040517f08c379a0000000000000000000000000000000000000000000000000000000008152600401610be590615009565b60405180910390fd5b610bf983838361249a565b505050565b6000600a6000838152602001908152602001600020600101549050919050565b60208052826000526040600020828051602081018201805184825260208301602085012081835280955050505050508181548110610c5b57600080fd5b9060005260206000200160009250925050505481565b610c7a82610bfe565b610c8381612701565b610c8d8383612715565b505050565b6000610c9d8361117c565b8210610cde576040517f08c379a0000000000000000000000000000000000000000000000000000000008152600401610cd59061509b565b60405180910390fd5b600660008473ffffffffffffffffffffffffffffffffffffffff1673ffffffffffffffffffffffffffffffffffffffff168152602001908152602001600020600083815260200190815260200160002054905092915050565b610d3f6122fb565b73ffffffffffffffffffffffffffffffffffffffff168173ffffffffffffffffffffffffffffffffffffffff1614610dac576040517f08c379a0000000000000000000000000000000000000000000000000000000008152600401610da39061512d565b60405180910390fd5b610db68282612749565b5050565b60005b8151811015610dfe57610deb8484848481518110610dde57610ddd61514d565b5b6020026020010151610e04565b8080610df6906151ab565b915050610dbd565b50505050565b610e1f83838360405180602001604052806000815250611b1e565b505050565b6000610e2e610b91565b8210610e6f576040517f08c379a0000000000000000000000000000000000000000000000000000000008152600401610e6690615266565b60405180910390fd5b60088281548110610e8357610e8261514d565b5b90600052602060002001549050919050565b7f241ecf16d79d0f8dbfb92cbc07fe17840425976cf0667f022fe9877caa831b08610ebf81612701565b81600d9080519060200190610ed5929190613de9565b507f23c8c9488efebfd474e85a7956de6f39b17c7ab88502d42a623db2d8e382bbaa82604051610f059190614081565b60405180910390a15050565b60606020600084815260200190815260200160002082604051610f3491906152c2565b9081526020016040518091039020805480602002602001604051908101604052809291908181526020018280548015610f8c57602002820191906000526020600020905b815481526020019060010190808311610f78575b5050505050905092915050565b600080601f600084600081518110610fb457610fb361514d565b5b60200260200101518152602001908152602001600020604051610fd690615325565b9081526020016040518091039020549050600a8351610ff59190615369565b670de0b6b3a7640000601060018461100d919061539a565b600f811061101e5761101d61514d565b5b015461102a91906153ce565b61103491906153ce565b915050919050565b6000806002600084815260200190815260200160002060009054906101000a900473ffffffffffffffffffffffffffffffffffffffff169050600073ffffffffffffffffffffffffffffffffffffffff168173ffffffffffffffffffffffffffffffffffffffff1614156110e5576040517f08c379a00000000000000000000000000000000000000000000000000000000081526004016110dc9061549a565b60405180910390fd5b80915050919050565b600d80546110fb90614daf565b80601f016020809104026020016040519081016040528092919081815260200182805461112790614daf565b80156111745780601f1061114957610100808354040283529160200191611174565b820191906000526020600020905b81548152906001019060200180831161115757829003601f168201915b505050505081565b60008073ffffffffffffffffffffffffffffffffffffffff168273ffffffffffffffffffffffffffffffffffffffff1614156111ed576040517f08c379a00000000000000000000000000000000000000000000000000000000081526004016111e49061552c565b60405180910390fd5b600360008373ffffffffffffffffffffffffffffffffffffffff1673ffffffffffffffffffffffffffffffffffffffff168152602001908152602001600020549050919050565b6002600c54141561127a576040517f08c379a000000000000000000000000000000000000000000000000000000000815260040161127190615598565b60405180910390fd5b6002600c8190555060008151116112c6576040517f08c379a00000000000000000000000000000000000000000000000000000000081526004016112bd90615604565b60405180910390fd5b60648151111561130b576040517f08c379a000000000000000000000000000000000000000000000000000000000815260040161130290615670565b60405180910390fd5b6000600a825161131b9190615690565b1461135b576040517f08c379a00000000000000000000000000000000000000000000000000000000081526004016113529061570d565b60405180910390fd5b6000601f6000836000815181106113755761137461514d565b5b6020026020010151815260200190815260200160002060405161139790615325565b9081526020016040518091039020549050606481106113eb576040517f08c379a00000000000000000000000000000000000000000000000000000000081526004016113e290615779565b60405180910390fd5b60006113f683610f99565b90506114493361dead83600e60009054906101000a900473ffffffffffffffffffffffffffffffffffffffff1673ffffffffffffffffffffffffffffffffffffffff1661277d909392919063ffffffff16565b6000600a84516114599190615369565b67ffffffffffffffff8111156114725761147161416c565b5b6040519080825280602002602001820160405280156114a05781602001602082028036833780820191505090505b50905060005b84518110156116d15760005b600a8110156115f15784601f60008884866114cd9190615799565b815181106114de576114dd61514d565b5b6020026020010151815260200190815260200160002060405161150090615325565b908152602001604051809103902054148061156d57506064601f60008884866115299190615799565b8151811061153a5761153961514d565b5b6020026020010151815260200190815260200160002060405161155c90615325565b908152602001604051809103902054145b6115ac576040517f08c379a00000000000000000000000000000000000000000000000000000000081526004016115a39061583b565b60405180910390fd5b6115de3361dead8884866115c09190615799565b815181106115d1576115d061514d565b5b6020026020010151610e04565b80806115e9906151ab565b9150506114b2565b50600f60009054906101000a900473ffffffffffffffffffffffffffffffffffffffff1673ffffffffffffffffffffffffffffffffffffffff1663614691b285336040518363ffffffff1660e01b815260040161164f92919061585b565b6020604051808303816000875af115801561166e573d6000803e3d6000fd5b505050506040513d601f19601f820116820180604052508101906116929190615899565b82600a836116a09190615369565b815181106116b1576116b061514d565b5b602002602001018181525050600a816116ca9190615799565b90506114a6565b503373ffffffffffffffffffffffffffffffffffffffff167f0a24a9e61dfe13af042c4e740ee11314545c736a74cafef2d9e90d9d20762f258483518460405161171d939291906158c6565b60405180910390a25050506001600c8190555050565b6060600080839050846117458761117c565b61174f919061539a565b81111561176d57846117608761117c565b61176a919061539a565b90505b60008167ffffffffffffffff8111156117895761178861416c565b5b6040519080825280602002602001820160405280156117b75781602001602082028036833780820191505090505b50905060005b8281101561180c576117da8882896117d59190615799565b610c92565b8282815181106117ed576117ec61514d565b5b6020026020010181815250508080611804906151ab565b9150506117bd565b5080828761181a9190615799565b935093505050935093915050565b600061184f82600b600086815260200190815260200160002061280690919063ffffffff16565b905092915050565b6000600a600084815260200190815260200160002060000160008373ffffffffffffffffffffffffffffffffffffffff1673ffffffffffffffffffffffffffffffffffffffff16815260200190815260200160002060009054906101000a900460ff16905092915050565b60008085856040516020016118d8929190615925565b6040516020818303038152906040528051906020012060001c905082816118ff9190615690565b8461190a9190615799565b915050949350505050565b600e60009054906101000a900473ffffffffffffffffffffffffffffffffffffffff1681565b60606001805461194a90614daf565b80601f016020809104026020016040519081016040528092919081815260200182805461197690614daf565b80156119c35780601f10611998576101008083540402835291602001916119c3565b820191906000526020600020905b8154815290600101906020018083116119a657829003601f168201915b5050505050905090565b7f241ecf16d79d0f8dbfb92cbc07fe17840425976cf0667f022fe9877caa831b086119f781612701565b82600e60006101000a81548173ffffffffffffffffffffffffffffffffffffffff021916908373ffffffffffffffffffffffffffffffffffffffff16021790555081600f60006101000a81548173ffffffffffffffffffffffffffffffffffffffff021916908373ffffffffffffffffffffffffffffffffffffffff1602179055507f17a210d05f0d83f234a5500d361358d453f15293eff4676364db5ae8e884e36f8383604051611aaa92919061594d565b60405180910390a1505050565b7f61c92169ef077349011ff0b1383c894d86c5f0b41d986366b58a6cf31e93beda81565b6000801b81565b611af4611aed6122fb565b8383612820565b5050565b600f60009054906101000a900473ffffffffffffffffffffffffffffffffffffffff1681565b611b2f611b296122fb565b836123bc565b611b6e576040517f08c379a0000000000000000000000000000000000000000000000000000000008152600401611b6590615009565b60405180910390fd5b611b7a8484848461298d565b50505050565b7f61c92169ef077349011ff0b1383c894d86c5f0b41d986366b58a6cf31e93beda611baa81612701565b816020600086815260200190815260200160002084604051611bcc91906152c2565b90815260200160405180910390209080519060200190611bed929190613e6f565b50837faf34a1a89164056fa5ddfee9bdd7384e79b0f27a493cc80c478d9068ea15c6128484604051611c20929190615976565b60405180910390a250505050565b7f241ecf16d79d0f8dbfb92cbc07fe17840425976cf0667f022fe9877caa831b08611c5881612701565b81601090600f611c69929190613ebc565b507f8443378c7442c16d64b1115b4efeba851e23b1eb9b5b20c6293fd9f9da92890082604051611c999190615a31565b60405180910390a15050565b601081600f8110611cb557600080fd5b016000915090505481565b6060611ccb8261228f565b611d0a576040517f08c379a0000000000000000000000000000000000000000000000000000000008152600401611d0190615abf565b60405180910390fd5b6000600d8054611d1990614daf565b905011611d355760405180602001604052806000815250611d98565b600d611d40836129e9565b611d76601f6000868152602001908152602001600020604051611d6290615325565b9081526020016040518091039020546129e9565b604051602001611d8893929190615bbf565b6040516020818303038152906040525b9050919050565b6000611dbc600b6000848152602001908152602001600020612b4a565b9050919050565b611dcc82610bfe565b611dd581612701565b611ddf8383612749565b505050565b6000600560008473ffffffffffffffffffffffffffffffffffffffff1673ffffffffffffffffffffffffffffffffffffffff16815260200190815260200160002060008373ffffffffffffffffffffffffffffffffffffffff1673ffffffffffffffffffffffffffffffffffffffff16815260200190815260200160002060009054906101000a900460ff16905092915050565b7f241ecf16d79d0f8dbfb92cbc07fe17840425976cf0667f022fe9877caa831b0881565b60607f6cd0800d4f4ba3dc6faecb926dc1f046e4172cd4d0318c3b8740bdce16fe8d52611ec881612701565b6000845167ffffffffffffffff811115611ee557611ee461416c565b5b604051908082528060200260200182016040528015611f135781602001602082028036833780820191505090505b50905060005b8551811015611fe657611f2a610b91565b828281518110611f3d57611f3c61514d565b5b602002602001018181525050858181518110611f5c57611f5b61514d565b5b6020026020010151601f6000848481518110611f7b57611f7a61514d565b5b60200260200101518152602001908152602001600020604051611f9d90615325565b908152602001604051809103902081905550611fd385838381518110611fc657611fc561514d565b5b6020026020010151612b5f565b8080611fde906151ab565b915050611f19565b508373ffffffffffffffffffffffffffffffffffffffff167f9be22d4f315ebb5f590c7bc9de32f827d1648bfe08327b36eba63bcd1d36f314828760405161202f929190615bfb565b60405180910390a2809250505092915050565b7f61c92169ef077349011ff0b1383c894d86c5f0b41d986366b58a6cf31e93beda61206c81612701565b81601f60008681526020019081526020016000208460405161208e91906152c2565b908152602001604051809103902081905550837feac7fa0927090dca3b0cce570fa0e4b428cbd28ba251bcd0d9d33d629a2936be84846040516120d2929190615c32565b60405180910390a250505050565b7f6cd0800d4f4ba3dc6faecb926dc1f046e4172cd4d0318c3b8740bdce16fe8d5281565b61210e8282611857565b6121e1576001600a600084815260200190815260200160002060000160008373ffffffffffffffffffffffffffffffffffffffff1673ffffffffffffffffffffffffffffffffffffffff16815260200190815260200160002060006101000a81548160ff0219169083151502179055506121866122fb565b73ffffffffffffffffffffffffffffffffffffffff168173ffffffffffffffffffffffffffffffffffffffff16837f2f8788117e7eff1d82e926ec794901d17c78024a50270940304540a733656f0d60405160405180910390a45b5050565b600061220d836000018373ffffffffffffffffffffffffffffffffffffffff1660001b612b7d565b905092915050565b60007f5a05180f000000000000000000000000000000000000000000000000000000007bffffffffffffffffffffffffffffffffffffffffffffffffffffffff1916827bffffffffffffffffffffffffffffffffffffffffffffffffffffffff19161480612288575061228782612bed565b5b9050919050565b60008073ffffffffffffffffffffffffffffffffffffffff166002600084815260200190815260200160002060009054906101000a900473ffffffffffffffffffffffffffffffffffffffff1673ffffffffffffffffffffffffffffffffffffffff1614159050919050565b600033905090565b816004600083815260200190815260200160002060006101000a81548173ffffffffffffffffffffffffffffffffffffffff021916908373ffffffffffffffffffffffffffffffffffffffff160217905550808273ffffffffffffffffffffffffffffffffffffffff166123768361103c565b73ffffffffffffffffffffffffffffffffffffffff167f8c5be1e5ebec7d5bd14f71427d1e84f3dd0314c0f7b2291e5b200ac8c7c3b92560405160405180910390a45050565b60006123c78261228f565b612406576040517f08c379a00000000000000000000000000000000000000000000000000000000081526004016123fd90615cd4565b60405180910390fd5b60006124118361103c565b90508073ffffffffffffffffffffffffffffffffffffffff168473ffffffffffffffffffffffffffffffffffffffff16148061245357506124528185611de4565b5b8061249157508373ffffffffffffffffffffffffffffffffffffffff16612479846109b9565b73ffffffffffffffffffffffffffffffffffffffff16145b91505092915050565b8273ffffffffffffffffffffffffffffffffffffffff166124ba8261103c565b73ffffffffffffffffffffffffffffffffffffffff1614612510576040517f08c379a000000000000000000000000000000000000000000000000000000000815260040161250790615d66565b60405180910390fd5b600073ffffffffffffffffffffffffffffffffffffffff168273ffffffffffffffffffffffffffffffffffffffff161415612580576040517f08c379a000000000000000000000000000000000000000000000000000000000815260040161257790615df8565b60405180910390fd5b61258b838383612c67565b612596600082612303565b6001600360008573ffffffffffffffffffffffffffffffffffffffff1673ffffffffffffffffffffffffffffffffffffffff16815260200190815260200160002060008282546125e6919061539a565b925050819055506001600360008473ffffffffffffffffffffffffffffffffffffffff1673ffffffffffffffffffffffffffffffffffffffff168152602001908152602001600020600082825461263d9190615799565b92505081905550816002600083815260200190815260200160002060006101000a81548173ffffffffffffffffffffffffffffffffffffffff021916908373ffffffffffffffffffffffffffffffffffffffff160217905550808273ffffffffffffffffffffffffffffffffffffffff168473ffffffffffffffffffffffffffffffffffffffff167fddf252ad1be2c89b69c2b068fc378daa952ba7f163c4a11628f55a4df523b3ef60405160405180910390a46126fc838383612d7b565b505050565b6127128161270d6122fb565b612d80565b50565b61271f8282612104565b61274481600b60008581526020019081526020016000206121e590919063ffffffff16565b505050565b6127538282612e1d565b61277881600b6000858152602001908152602001600020612eff90919063ffffffff16565b505050565b612800846323b872dd60e01b85858560405160240161279e93929190615e18565b604051602081830303815290604052907bffffffffffffffffffffffffffffffffffffffffffffffffffffffff19166020820180517bffffffffffffffffffffffffffffffffffffffffffffffffffffffff8381831617835250505050612f2f565b50505050565b60006128158360000183612ff6565b60001c905092915050565b8173ffffffffffffffffffffffffffffffffffffffff168373ffffffffffffffffffffffffffffffffffffffff16141561288f576040517f08c379a000000000000000000000000000000000000000000000000000000000815260040161288690615e9b565b60405180910390fd5b80600560008573ffffffffffffffffffffffffffffffffffffffff1673ffffffffffffffffffffffffffffffffffffffff16815260200190815260200160002060008473ffffffffffffffffffffffffffffffffffffffff1673ffffffffffffffffffffffffffffffffffffffff16815260200190815260200160002060006101000a81548160ff0219169083151502179055508173ffffffffffffffffffffffffffffffffffffffff168373ffffffffffffffffffffffffffffffffffffffff167f17307eab39ab6107e8899845ad3d59bd9653f200f220920489ca2b5937696c31836040516129809190613fcd565b60405180910390a3505050565b61299884848461249a565b6129a484848484613021565b6129e3576040517f08c379a00000000000000000000000000000000000000000000000000000000081526004016129da90615f2d565b60405180910390fd5b50505050565b60606000821415612a31576040518060400160405280600181526020017f30000000000000000000000000000000000000000000000000000000000000008152509050612b45565b600082905060005b60008214612a63578080612a4c906151ab565b915050600a82612a5c9190615369565b9150612a39565b60008167ffffffffffffffff811115612a7f57612a7e61416c565b5b6040519080825280601f01601f191660200182016040528015612ab15781602001600182028036833780820191505090505b5090505b60008514612b3e57600182612aca919061539a565b9150600a85612ad99190615690565b6030612ae59190615799565b60f81b818381518110612afb57612afa61514d565b5b60200101907effffffffffffffffffffffffffffffffffffffffffffffffffffffffffffff1916908160001a905350600a85612b379190615369565b9450612ab5565b8093505050505b919050565b6000612b58826000016131a9565b9050919050565b612b798282604051806020016040528060008152506131ba565b5050565b6000612b898383613215565b612be2578260000182908060018154018082558091505060019003906000526020600020016000909190919091505582600001805490508360010160008481526020019081526020016000208190555060019050612be7565b600090505b92915050565b60007f7965db0b000000000000000000000000000000000000000000000000000000007bffffffffffffffffffffffffffffffffffffffffffffffffffffffff1916827bffffffffffffffffffffffffffffffffffffffffffffffffffffffff19161480612c605750612c5f82613238565b5b9050919050565b612c728383836132b2565b600073ffffffffffffffffffffffffffffffffffffffff168373ffffffffffffffffffffffffffffffffffffffff161415612cb557612cb0816132b7565b612cf4565b8173ffffffffffffffffffffffffffffffffffffffff168373ffffffffffffffffffffffffffffffffffffffff1614612cf357612cf28382613300565b5b5b600073ffffffffffffffffffffffffffffffffffffffff168273ffffffffffffffffffffffffffffffffffffffff161415612d3757612d328161346d565b612d76565b8273ffffffffffffffffffffffffffffffffffffffff168273ffffffffffffffffffffffffffffffffffffffff1614612d7557612d74828261353e565b5b5b505050565b505050565b612d8a8282611857565b612e1957612daf8173ffffffffffffffffffffffffffffffffffffffff1660146135bd565b612dbd8360001c60206135bd565b604051602001612dce929190615fe5565b6040516020818303038152906040526040517f08c379a0000000000000000000000000000000000000000000000000000000008152600401612e109190614081565b60405180910390fd5b5050565b612e278282611857565b15612efb576000600a600084815260200190815260200160002060000160008373ffffffffffffffffffffffffffffffffffffffff1673ffffffffffffffffffffffffffffffffffffffff16815260200190815260200160002060006101000a81548160ff021916908315150217905550612ea06122fb565b73ffffffffffffffffffffffffffffffffffffffff168173ffffffffffffffffffffffffffffffffffffffff16837ff6391f5c32d9c69d2a47ea670b442974b53935d1edc7fd64eb21e047a839171b60405160405180910390a45b5050565b6000612f27836000018373ffffffffffffffffffffffffffffffffffffffff1660001b6137f9565b905092915050565b6000612f91826040518060400160405280602081526020017f5361666545524332303a206c6f772d6c6576656c2063616c6c206661696c65648152508573ffffffffffffffffffffffffffffffffffffffff1661390d9092919063ffffffff16565b9050600081511115612ff15780806020019051810190612fb19190616034565b612ff0576040517f08c379a0000000000000000000000000000000000000000000000000000000008152600401612fe7906160d3565b60405180910390fd5b5b505050565b600082600001828154811061300e5761300d61514d565b5b9060005260206000200154905092915050565b60006130428473ffffffffffffffffffffffffffffffffffffffff16613925565b1561319c578373ffffffffffffffffffffffffffffffffffffffff1663150b7a0261306b6122fb565b8786866040518563ffffffff1660e01b815260040161308d9493929190616148565b6020604051808303816000875af19250505080156130c957506040513d601f19601f820116820180604052508101906130c691906161a9565b60015b61314c573d80600081146130f9576040519150601f19603f3d011682016040523d82523d6000602084013e6130fe565b606091505b50600081511415613144576040517f08c379a000000000000000000000000000000000000000000000000000000000815260040161313b90615f2d565b60405180910390fd5b805181602001fd5b63150b7a0260e01b7bffffffffffffffffffffffffffffffffffffffffffffffffffffffff1916817bffffffffffffffffffffffffffffffffffffffffffffffffffffffff1916149150506131a1565b600190505b949350505050565b600081600001805490509050919050565b6131c48383613948565b6131d16000848484613021565b613210576040517f08c379a000000000000000000000000000000000000000000000000000000000815260040161320790615f2d565b60405180910390fd5b505050565b600080836001016000848152602001908152602001600020541415905092915050565b60007f780e9d63000000000000000000000000000000000000000000000000000000007bffffffffffffffffffffffffffffffffffffffffffffffffffffffff1916827bffffffffffffffffffffffffffffffffffffffffffffffffffffffff191614806132ab57506132aa82613b22565b5b9050919050565b505050565b6008805490506009600083815260200190815260200160002081905550600881908060018154018082558091505060019003906000526020600020016000909190919091505550565b6000600161330d8461117c565b613317919061539a565b90506000600760008481526020019081526020016000205490508181146133fc576000600660008673ffffffffffffffffffffffffffffffffffffffff1673ffffffffffffffffffffffffffffffffffffffff168152602001908152602001600020600084815260200190815260200160002054905080600660008773ffffffffffffffffffffffffffffffffffffffff1673ffffffffffffffffffffffffffffffffffffffff168152602001908152602001600020600084815260200190815260200160002081905550816007600083815260200190815260200160002081905550505b6007600084815260200190815260200160002060009055600660008573ffffffffffffffffffffffffffffffffffffffff1673ffffffffffffffffffffffffffffffffffffffff16815260200190815260200160002060008381526020019081526020016000206000905550505050565b60006001600880549050613481919061539a565b90506000600960008481526020019081526020016000205490506000600883815481106134b1576134b061514d565b5b9060005260206000200154905080600883815481106134d3576134d261514d565b5b906000526020600020018190555081600960008381526020019081526020016000208190555060096000858152602001908152602001600020600090556008805480613522576135216161d6565b5b6001900381819060005260206000200160009055905550505050565b60006135498361117c565b905081600660008573ffffffffffffffffffffffffffffffffffffffff1673ffffffffffffffffffffffffffffffffffffffff168152602001908152602001600020600083815260200190815260200160002081905550806007600084815260200190815260200160002081905550505050565b6060600060028360026135d091906153ce565b6135da9190615799565b67ffffffffffffffff8111156135f3576135f261416c565b5b6040519080825280601f01601f1916602001820160405280156136255781602001600182028036833780820191505090505b5090507f30000000000000000000000000000000000000000000000000000000000000008160008151811061365d5761365c61514d565b5b60200101907effffffffffffffffffffffffffffffffffffffffffffffffffffffffffffff1916908160001a9053507f7800000000000000000000000000000000000000000000000000000000000000816001815181106136c1576136c061514d565b5b60200101907effffffffffffffffffffffffffffffffffffffffffffffffffffffffffffff1916908160001a9053506000600184600261370191906153ce565b61370b9190615799565b90505b60018111156137ab577f3031323334353637383961626364656600000000000000000000000000000000600f86166010811061374d5761374c61514d565b5b1a60f81b8282815181106137645761376361514d565b5b60200101907effffffffffffffffffffffffffffffffffffffffffffffffffffffffffffff1916908160001a905350600485901c9450806137a490616205565b905061370e565b50600084146137ef576040517f08c379a00000000000000000000000000000000000000000000000000000000081526004016137e69061627b565b60405180910390fd5b8091505092915050565b6000808360010160008481526020019081526020016000205490506000811461390157600060018261382b919061539a565b9050600060018660000180549050613843919061539a565b90508181146138b25760008660000182815481106138645761386361514d565b5b90600052602060002001549050808760000184815481106138885761388761514d565b5b90600052602060002001819055508387600101600083815260200190815260200160002081905550505b856000018054806138c6576138c56161d6565b5b600190038181906000526020600020016000905590558560010160008681526020019081526020016000206000905560019350505050613907565b60009150505b92915050565b606061391c8484600085613c04565b90509392505050565b6000808273ffffffffffffffffffffffffffffffffffffffff163b119050919050565b600073ffffffffffffffffffffffffffffffffffffffff168273ffffffffffffffffffffffffffffffffffffffff1614156139b8576040517f08c379a00000000000000000000000000000000000000000000000000000000081526004016139af906162e7565b60405180910390fd5b6139c18161228f565b15613a01576040517f08c379a00000000000000000000000000000000000000000000000000000000081526004016139f890616353565b60405180910390fd5b613a0d60008383612c67565b6001600360008473ffffffffffffffffffffffffffffffffffffffff1673ffffffffffffffffffffffffffffffffffffffff1681526020019081526020016000206000828254613a5d9190615799565b92505081905550816002600083815260200190815260200160002060006101000a81548173ffffffffffffffffffffffffffffffffffffffff021916908373ffffffffffffffffffffffffffffffffffffffff160217905550808273ffffffffffffffffffffffffffffffffffffffff16600073ffffffffffffffffffffffffffffffffffffffff167fddf252ad1be2c89b69c2b068fc378daa952ba7f163c4a11628f55a4df523b3ef60405160405180910390a4613b1e60008383612d7b565b5050565b60007f80ac58cd000000000000000000000000000000000000000000000000000000007bffffffffffffffffffffffffffffffffffffffffffffffffffffffff1916827bffffffffffffffffffffffffffffffffffffffffffffffffffffffff19161480613bed57507f5b5e139f000000000000000000000000000000000000000000000000000000007bffffffffffffffffffffffffffffffffffffffffffffffffffffffff1916827bffffffffffffffffffffffffffffffffffffffffffffffffffffffff1916145b80613bfd5750613bfc82613d18565b5b9050919050565b606082471015613c49576040517f08c379a0000000000000000000000000000000000000000000000000000000008152600401613c40906163e5565b60405180910390fd5b613c5285613925565b613c91576040517f08c379a0000000000000000000000000000000000000000000000000000000008152600401613c8890616451565b60405180910390fd5b6000808673ffffffffffffffffffffffffffffffffffffffff168587604051613cba91906164ad565b60006040518083038185875af1925050503d8060008114613cf7576040519150601f19603f3d011682016040523d82523d6000602084013e613cfc565b606091505b5091509150613d0c828286613d82565b92505050949350505050565b60007f01ffc9a7000000000000000000000000000000000000000000000000000000007bffffffffffffffffffffffffffffffffffffffffffffffffffffffff1916827bffffffffffffffffffffffffffffffffffffffffffffffffffffffff1916149050919050565b60608315613d9257829050613de2565b600083511115613da55782518084602001fd5b816040517f08c379a0000000000000000000000000000000000000000000000000000000008152600401613dd99190614081565b60405180910390fd5b9392505050565b828054613df590614daf565b90600052602060002090601f016020900481019282613e175760008555613e5e565b82601f10613e3057805160ff1916838001178555613e5e565b82800160010185558215613e5e579182015b82811115613e5d578251825591602001919060010190613e42565b5b509050613e6b9190613efc565b5090565b828054828255906000526020600020908101928215613eab579160200282015b82811115613eaa578251825591602001919060010190613e8f565b5b509050613eb89190613efc565b5090565b82600f8101928215613eeb579160200282015b82811115613eea578251825591602001919060010190613ecf565b5b509050613ef89190613efc565b5090565b5b80821115613f15576000816000905550600101613efd565b5090565b6000604051905090565b600080fd5b600080fd5b60007fffffffff0000000000000000000000000000000000000000000000000000000082169050919050565b613f6281613f2d565b8114613f6d57600080fd5b50565b600081359050613f7f81613f59565b92915050565b600060208284031215613f9b57613f9a613f23565b5b6000613fa984828501613f70565b91505092915050565b60008115159050919050565b613fc781613fb2565b82525050565b6000602082019050613fe26000830184613fbe565b92915050565b600081519050919050565b600082825260208201905092915050565b60005b83811015614022578082015181840152602081019050614007565b83811115614031576000848401525b50505050565b6000601f19601f8301169050919050565b600061405382613fe8565b61405d8185613ff3565b935061406d818560208601614004565b61407681614037565b840191505092915050565b6000602082019050818103600083015261409b8184614048565b905092915050565b6000819050919050565b6140b6816140a3565b81146140c157600080fd5b50565b6000813590506140d3816140ad565b92915050565b6000602082840312156140ef576140ee613f23565b5b60006140fd848285016140c4565b91505092915050565b600073ffffffffffffffffffffffffffffffffffffffff82169050919050565b600061413182614106565b9050919050565b61414181614126565b82525050565b600060208201905061415c6000830184614138565b92915050565b600080fd5b600080fd5b7f4e487b7100000000000000000000000000000000000000000000000000000000600052604160045260246000fd5b6141a482614037565b810181811067ffffffffffffffff821117156141c3576141c261416c565b5b80604052505050565b60006141d6613f19565b90506141e2828261419b565b919050565b600067ffffffffffffffff8211156142025761420161416c565b5b61420b82614037565b9050602081019050919050565b82818337600083830152505050565b600061423a614235846141e7565b6141cc565b90508281526020810184848401111561425657614255614167565b5b614261848285614218565b509392505050565b600082601f83011261427e5761427d614162565b5b813561428e848260208601614227565b91505092915050565b600080604083850312156142ae576142ad613f23565b5b60006142bc858286016140c4565b925050602083013567ffffffffffffffff8111156142dd576142dc613f28565b5b6142e985828601614269565b9150509250929050565b6142fc816140a3565b82525050565b600060208201905061431760008301846142f3565b92915050565b61432681614126565b811461433157600080fd5b50565b6000813590506143438161431d565b92915050565b600080604083850312156143605761435f613f23565b5b600061436e85828601614334565b925050602061437f858286016140c4565b9150509250929050565b6000806000606084860312156143a2576143a1613f23565b5b60006143b086828701614334565b93505060206143c186828701614334565b92505060406143d2868287016140c4565b9150509250925092565b6000819050919050565b6143ef816143dc565b81146143fa57600080fd5b50565b60008135905061440c816143e6565b92915050565b60006020828403121561442857614427613f23565b5b6000614436848285016143fd565b91505092915050565b614448816143dc565b82525050565b6000602082019050614463600083018461443f565b92915050565b60008060006060848603121561448257614481613f23565b5b6000614490868287016140c4565b935050602084013567ffffffffffffffff8111156144b1576144b0613f28565b5b6144bd86828701614269565b92505060406144ce868287016140c4565b9150509250925092565b600080604083850312156144ef576144ee613f23565b5b60006144fd858286016143fd565b925050602061450e85828601614334565b9150509250929050565b600067ffffffffffffffff8211156145335761453261416c565b5b602082029050602081019050919050565b600080fd5b600061455c61455784614518565b6141cc565b9050808382526020820190506020840283018581111561457f5761457e614544565b5b835b818110156145a8578061459488826140c4565b845260208401935050602081019050614581565b5050509392505050565b600082601f8301126145c7576145c6614162565b5b81356145d7848260208601614549565b91505092915050565b6000806000606084860312156145f9576145f8613f23565b5b600061460786828701614334565b935050602061461886828701614334565b925050604084013567ffffffffffffffff81111561463957614638613f28565b5b614645868287016145b2565b9150509250925092565b60006020828403121561466557614664613f23565b5b600082013567ffffffffffffffff81111561468357614682613f28565b5b61468f84828501614269565b91505092915050565b600081519050919050565b600082825260208201905092915050565b6000819050602082019050919050565b6146cd816140a3565b82525050565b60006146df83836146c4565b60208301905092915050565b6000602082019050919050565b600061470382614698565b61470d81856146a3565b9350614718836146b4565b8060005b8381101561474957815161473088826146d3565b975061473b836146eb565b92505060018101905061471c565b5085935050505092915050565b6000602082019050818103600083015261477081846146f8565b905092915050565b60006020828403121561478e5761478d613f23565b5b600082013567ffffffffffffffff8111156147ac576147ab613f28565b5b6147b8848285016145b2565b91505092915050565b6000602082840312156147d7576147d6613f23565b5b60006147e584828501614334565b91505092915050565b60008060006060848603121561480757614806613f23565b5b600061481586828701614334565b9350506020614826868287016140c4565b9250506040614837868287016140c4565b9150509250925092565b6000604082019050818103600083015261485b81856146f8565b905061486a60208301846142f3565b9392505050565b6000806040838503121561488857614887613f23565b5b6000614896858286016143fd565b92505060206148a7858286016140c4565b9150509250929050565b600080600080608085870312156148cb576148ca613f23565b5b60006148d9878288016140c4565b945050602085013567ffffffffffffffff8111156148fa576148f9613f28565b5b61490687828801614269565b9350506040614917878288016140c4565b9250506060614928878288016140c4565b91505092959194509250565b6000819050919050565b600061495961495461494f84614106565b614934565b614106565b9050919050565b600061496b8261493e565b9050919050565b600061497d82614960565b9050919050565b61498d81614972565b82525050565b60006020820190506149a86000830184614984565b92915050565b600080604083850312156149c5576149c4613f23565b5b60006149d385828601614334565b92505060206149e485828601614334565b9150509250929050565b6149f781613fb2565b8114614a0257600080fd5b50565b600081359050614a14816149ee565b92915050565b60008060408385031215614a3157614a30613f23565b5b6000614a3f85828601614334565b9250506020614a5085828601614a05565b9150509250929050565b6000614a6582614960565b9050919050565b614a7581614a5a565b82525050565b6000602082019050614a906000830184614a6c565b92915050565b600067ffffffffffffffff821115614ab157614ab061416c565b5b614aba82614037565b9050602081019050919050565b6000614ada614ad584614a96565b6141cc565b905082815260208101848484011115614af657614af5614167565b5b614b01848285614218565b509392505050565b600082601f830112614b1e57614b1d614162565b5b8135614b2e848260208601614ac7565b91505092915050565b60008060008060808587031215614b5157614b50613f23565b5b6000614b5f87828801614334565b9450506020614b7087828801614334565b9350506040614b81878288016140c4565b925050606085013567ffffffffffffffff811115614ba257614ba1613f28565b5b614bae87828801614b09565b91505092959194509250565b600080600060608486031215614bd357614bd2613f23565b5b6000614be1868287016140c4565b935050602084013567ffffffffffffffff811115614c0257614c01613f28565b5b614c0e86828701614269565b925050604084013567ffffffffffffffff811115614c2f57614c2e613f28565b5b614c3b868287016145b2565b9150509250925092565b600067ffffffffffffffff821115614c6057614c5f61416c565b5b602082029050919050565b6000614c7e614c7984614c45565b6141cc565b90508060208402830185811115614c9857614c97614544565b5b835b81811015614cc15780614cad88826140c4565b845260208401935050602081019050614c9a565b5050509392505050565b600082601f830112614ce057614cdf614162565b5b600f614ced848285614c6b565b91505092915050565b60006101e08284031215614d0d57614d0c613f23565b5b6000614d1b84828501614ccb565b91505092915050565b60008060408385031215614d3b57614d3a613f23565b5b600083013567ffffffffffffffff811115614d5957614d58613f28565b5b614d65858286016145b2565b9250506020614d7685828601614334565b9150509250929050565b7f4e487b7100000000000000000000000000000000000000000000000000000000600052602260045260246000fd5b60006002820490506001821680614dc757607f821691505b60208210811415614ddb57614dda614d80565b5b50919050565b7f4552433732313a20617070726f76656420717565727920666f72206e6f6e657860008201527f697374656e7420746f6b656e0000000000000000000000000000000000000000602082015250565b6000614e3d602c83613ff3565b9150614e4882614de1565b604082019050919050565b60006020820190508181036000830152614e6c81614e30565b9050919050565b7f4552433732313a20617070726f76616c20746f2063757272656e74206f776e6560008201527f7200000000000000000000000000000000000000000000000000000000000000602082015250565b6000614ecf602183613ff3565b9150614eda82614e73565b604082019050919050565b60006020820190508181036000830152614efe81614ec2565b9050919050565b7f4552433732313a20617070726f76652063616c6c6572206973206e6f74206f7760008201527f6e6572206e6f7220617070726f76656420666f7220616c6c0000000000000000602082015250565b6000614f61603883613ff3565b9150614f6c82614f05565b604082019050919050565b60006020820190508181036000830152614f9081614f54565b9050919050565b7f4552433732313a207472616e736665722063616c6c6572206973206e6f74206f60008201527f776e6572206e6f7220617070726f766564000000000000000000000000000000602082015250565b6000614ff3603183613ff3565b9150614ffe82614f97565b604082019050919050565b6000602082019050818103600083015261502281614fe6565b9050919050565b7f455243373231456e756d657261626c653a206f776e657220696e646578206f7560008201527f74206f6620626f756e6473000000000000000000000000000000000000000000602082015250565b6000615085602b83613ff3565b915061509082615029565b604082019050919050565b600060208201905081810360008301526150b481615078565b9050919050565b7f416363657373436f6e74726f6c3a2063616e206f6e6c792072656e6f756e636560008201527f20726f6c657320666f722073656c660000000000000000000000000000000000602082015250565b6000615117602f83613ff3565b9150615122826150bb565b604082019050919050565b600060208201905081810360008301526151468161510a565b9050919050565b7f4e487b7100000000000000000000000000000000000000000000000000000000600052603260045260246000fd5b7f4e487b7100000000000000000000000000000000000000000000000000000000600052601160045260246000fd5b60006151b6826140a3565b91507fffffffffffffffffffffffffffffffffffffffffffffffffffffffffffffffff8214156151e9576151e861517c565b5b600182019050919050565b7f455243373231456e756d657261626c653a20676c6f62616c20696e646578206f60008201527f7574206f6620626f756e64730000000000000000000000000000000000000000602082015250565b6000615250602c83613ff3565b915061525b826151f4565b604082019050919050565b6000602082019050818103600083015261527f81615243565b9050919050565b600081905092915050565b600061529c82613fe8565b6152a68185615286565b93506152b6818560208601614004565b80840191505092915050565b60006152ce8284615291565b915081905092915050565b7f6865726f00000000000000000000000000000000000000000000000000000000600082015250565b600061530f600483615286565b915061531a826152d9565b600482019050919050565b600061533082615302565b9150819050919050565b7f4e487b7100000000000000000000000000000000000000000000000000000000600052601260045260246000fd5b6000615374826140a3565b915061537f836140a3565b92508261538f5761538e61533a565b5b828204905092915050565b60006153a5826140a3565b91506153b0836140a3565b9250828210156153c3576153c261517c565b5b828203905092915050565b60006153d9826140a3565b91506153e4836140a3565b9250817fffffffffffffffffffffffffffffffffffffffffffffffffffffffffffffffff048311821515161561541d5761541c61517c565b5b828202905092915050565b7f4552433732313a206f776e657220717565727920666f72206e6f6e657869737460008201527f656e7420746f6b656e0000000000000000000000000000000000000000000000602082015250565b6000615484602983613ff3565b915061548f82615428565b604082019050919050565b600060208201905081810360008301526154b381615477565b9050919050565b7f4552433732313a2062616c616e636520717565727920666f7220746865207a6560008201527f726f206164647265737300000000000000000000000000000000000000000000602082015250565b6000615516602a83613ff3565b9150615521826154ba565b604082019050919050565b6000602082019050818103600083015261554581615509565b9050919050565b7f5265656e7472616e637947756172643a207265656e7472616e742063616c6c00600082015250565b6000615582601f83613ff3565b915061558d8261554c565b602082019050919050565b600060208201905081810360008301526155b181615575565b9050919050565b7f4373496473206c656e677468206d757374203e20300000000000000000000000600082015250565b60006155ee601583613ff3565b91506155f9826155b8565b602082019050919050565b6000602082019050818103600083015261561d816155e1565b9050919050565b7f4373496473206c656e677468206d757374203c3d203130300000000000000000600082015250565b600061565a601883613ff3565b915061566582615624565b602082019050919050565b600060208201905081810360008301526156898161564d565b9050919050565b600061569b826140a3565b91506156a6836140a3565b9250826156b6576156b561533a565b5b828206905092915050565b7f4373496473206c656e6774682025203130206d757374203d3d20300000000000600082015250565b60006156f7601b83613ff3565b9150615702826156c1565b602082019050919050565b60006020820190508181036000830152615726816156ea565b9050919050565b7f4865726f206d757374203c203130300000000000000000000000000000000000600082015250565b6000615763600f83613ff3565b915061576e8261572d565b602082019050919050565b6000602082019050818103600083015261579281615756565b9050919050565b60006157a4826140a3565b91506157af836140a3565b9250827fffffffffffffffffffffffffffffffffffffffffffffffffffffffffffffffff038211156157e4576157e361517c565b5b828201905092915050565b7f4373206865726f206d69736d6174636800000000000000000000000000000000600082015250565b6000615825601083613ff3565b9150615830826157ef565b602082019050919050565b6000602082019050818103600083015261585481615818565b9050919050565b600060408201905061587060008301856142f3565b61587d6020830184614138565b9392505050565b600081519050615893816140ad565b92915050565b6000602082840312156158af576158ae613f23565b5b60006158bd84828501615884565b91505092915050565b60006060820190506158db60008301866142f3565b6158e860208301856142f3565b81810360408301526158fa81846146f8565b9050949350505050565b6000819050919050565b61591f61591a826140a3565b615904565b82525050565b6000615931828561590e565b6020820191506159418284615291565b91508190509392505050565b60006040820190506159626000830185614138565b61596f6020830184614138565b9392505050565b600060408201905081810360008301526159908185614048565b905081810360208301526159a481846146f8565b90509392505050565b6000600f9050919050565b600081905092915050565b6000819050919050565b6000602082019050919050565b6159e3816159ad565b6159ed81846159b8565b92506159f8826159c3565b8060005b83811015615a29578151615a1087826146d3565b9650615a1b836159cd565b9250506001810190506159fc565b505050505050565b60006101e082019050615a4760008301846159da565b92915050565b7f4552433732314d657461646174613a2055524920717565727920666f72206e6f60008201527f6e6578697374656e7420746f6b656e0000000000000000000000000000000000602082015250565b6000615aa9602f83613ff3565b9150615ab482615a4d565b604082019050919050565b60006020820190508181036000830152615ad881615a9c565b9050919050565b60008190508160005260206000209050919050565b60008154615b0181614daf565b615b0b8186615286565b94506001821660008114615b265760018114615b3757615b6a565b60ff19831686528186019350615b6a565b615b4085615adf565b60005b83811015615b6257815481890152600182019150602081019050615b43565b838801955050505b50505092915050565b7f2d00000000000000000000000000000000000000000000000000000000000000600082015250565b6000615ba9600183615286565b9150615bb482615b73565b600182019050919050565b6000615bcb8286615af4565b9150615bd78285615291565b9150615be282615b9c565b9150615bee8284615291565b9150819050949350505050565b60006040820190508181036000830152615c1581856146f8565b90508181036020830152615c2981846146f8565b90509392505050565b60006040820190508181036000830152615c4c8185614048565b9050615c5b60208301846142f3565b9392505050565b7f4552433732313a206f70657261746f7220717565727920666f72206e6f6e657860008201527f697374656e7420746f6b656e0000000000000000000000000000000000000000602082015250565b6000615cbe602c83613ff3565b9150615cc982615c62565b604082019050919050565b60006020820190508181036000830152615ced81615cb1565b9050919050565b7f4552433732313a207472616e736665722066726f6d20696e636f72726563742060008201527f6f776e6572000000000000000000000000000000000000000000000000000000602082015250565b6000615d50602583613ff3565b9150615d5b82615cf4565b604082019050919050565b60006020820190508181036000830152615d7f81615d43565b9050919050565b7f4552433732313a207472616e7366657220746f20746865207a65726f2061646460008201527f7265737300000000000000000000000000000000000000000000000000000000602082015250565b6000615de2602483613ff3565b9150615ded82615d86565b604082019050919050565b60006020820190508181036000830152615e1181615dd5565b9050919050565b6000606082019050615e2d6000830186614138565b615e3a6020830185614138565b615e4760408301846142f3565b949350505050565b7f4552433732313a20617070726f766520746f2063616c6c657200000000000000600082015250565b6000615e85601983613ff3565b9150615e9082615e4f565b602082019050919050565b60006020820190508181036000830152615eb481615e78565b9050919050565b7f4552433732313a207472616e7366657220746f206e6f6e20455243373231526560008201527f63656976657220696d706c656d656e7465720000000000000000000000000000602082015250565b6000615f17603283613ff3565b9150615f2282615ebb565b604082019050919050565b60006020820190508181036000830152615f4681615f0a565b9050919050565b7f416363657373436f6e74726f6c3a206163636f756e7420000000000000000000600082015250565b6000615f83601783615286565b9150615f8e82615f4d565b601782019050919050565b7f206973206d697373696e6720726f6c6520000000000000000000000000000000600082015250565b6000615fcf601183615286565b9150615fda82615f99565b601182019050919050565b6000615ff082615f76565b9150615ffc8285615291565b915061600782615fc2565b91506160138284615291565b91508190509392505050565b60008151905061602e816149ee565b92915050565b60006020828403121561604a57616049613f23565b5b60006160588482850161601f565b91505092915050565b7f5361666545524332303a204552433230206f7065726174696f6e20646964206e60008201527f6f74207375636365656400000000000000000000000000000000000000000000602082015250565b60006160bd602a83613ff3565b91506160c882616061565b604082019050919050565b600060208201905081810360008301526160ec816160b0565b9050919050565b600081519050919050565b600082825260208201905092915050565b600061611a826160f3565b61612481856160fe565b9350616134818560208601614004565b61613d81614037565b840191505092915050565b600060808201905061615d6000830187614138565b61616a6020830186614138565b61617760408301856142f3565b8181036060830152616189818461610f565b905095945050505050565b6000815190506161a381613f59565b92915050565b6000602082840312156161bf576161be613f23565b5b60006161cd84828501616194565b91505092915050565b7f4e487b7100000000000000000000000000000000000000000000000000000000600052603160045260246000fd5b6000616210826140a3565b915060008214156162245761622361517c565b5b600182039050919050565b7f537472696e67733a20686578206c656e67746820696e73756666696369656e74600082015250565b6000616265602083613ff3565b91506162708261622f565b602082019050919050565b6000602082019050818103600083015261629481616258565b9050919050565b7f4552433732313a206d696e7420746f20746865207a65726f2061646472657373600082015250565b60006162d1602083613ff3565b91506162dc8261629b565b602082019050919050565b60006020820190508181036000830152616300816162c4565b9050919050565b7f4552433732313a20746f6b656e20616c7265616479206d696e74656400000000600082015250565b600061633d601c83613ff3565b915061634882616307565b602082019050919050565b6000602082019050818103600083015261636c81616330565b9050919050565b7f416464726573733a20696e73756666696369656e742062616c616e636520666f60008201527f722063616c6c0000000000000000000000000000000000000000000000000000602082015250565b60006163cf602683613ff3565b91506163da82616373565b604082019050919050565b600060208201905081810360008301526163fe816163c2565b9050919050565b7f416464726573733a2063616c6c20746f206e6f6e2d636f6e7472616374000000600082015250565b600061643b601d83613ff3565b915061644682616405565b602082019050919050565b6000602082019050818103600083015261646a8161642e565b9050919050565b600081905092915050565b6000616487826160f3565b6164918185616471565b93506164a1818560208601614004565b80840191505092915050565b60006164b9828461647c565b91508190509291505056fea264697066735822122016ed23928e29810d171c26efb1958112a23101bd54c7484860eb1cc90e76071364736f6c634300080c0033",
  "linkReferences": {},
  "deployedLinkReferences": {}
}