{
  "_format": "hh-sol-artifact-1",
  "contractName": "Market",
  "sourceName": "contracts/pool/Market.sol",
  "abi": [
    {
      "inputs": [
        {
          "internalType": "address",
          "name": "manager",
          "type": "address"
        }
      ],
      "stateMutability": "nonpayable",
      "type": "constructor"
    },
    {
      "anonymous": false,
      "inputs": [
        {
          "indexed": true,
          "internalType": "address",
          "name": "buyer",
          "type": "address"
        },
        {
          "indexed": false,
          "internalType": "address[]",
          "name": "sellers",
          "type": "address[]"
        },
        {
          "indexed": false,
          "internalType": "address[]",
          "name": "nfts",
          "type": "address[]"
        },
        {
          "indexed": false,
          "internalType": "uint256[]",
          "name": "nftIds",
          "type": "uint256[]"
        },
        {
          "indexed": false,
          "internalType": "address[]",
          "name": "tokens",
          "type": "address[]"
        },
        {
          "indexed": false,
          "internalType": "uint256[]",
          "name": "prices",
          "type": "uint256[]"
        }
      ],
      "name": "Buy",
      "type": "event"
    },
    {
      "anonymous": false,
      "inputs": [
        {
          "indexed": true,
          "internalType": "address",
          "name": "seller",
          "type": "address"
        },
        {
          "indexed": false,
          "internalType": "address[]",
          "name": "nfts",
          "type": "address[]"
        },
        {
          "indexed": false,
          "internalType": "uint256[]",
          "name": "nftIds",
          "type": "uint256[]"
        }
      ],
      "name": "Cancel",
      "type": "event"
    },
    {
      "anonymous": false,
      "inputs": [
        {
          "indexed": true,
          "internalType": "bytes32",
          "name": "role",
          "type": "bytes32"
        },
        {
          "indexed": true,
          "internalType": "bytes32",
          "name": "previousAdminRole",
          "type": "bytes32"
        },
        {
          "indexed": true,
          "internalType": "bytes32",
          "name": "newAdminRole",
          "type": "bytes32"
        }
      ],
      "name": "RoleAdminChanged",
      "type": "event"
    },
    {
      "anonymous": false,
      "inputs": [
        {
          "indexed": true,
          "internalType": "bytes32",
          "name": "role",
          "type": "bytes32"
        },
        {
          "indexed": true,
          "internalType": "address",
          "name": "account",
          "type": "address"
        },
        {
          "indexed": true,
          "internalType": "address",
          "name": "sender",
          "type": "address"
        }
      ],
      "name": "RoleGranted",
      "type": "event"
    },
    {
      "anonymous": false,
      "inputs": [
        {
          "indexed": true,
          "internalType": "bytes32",
          "name": "role",
          "type": "bytes32"
        },
        {
          "indexed": true,
          "internalType": "address",
          "name": "account",
          "type": "address"
        },
        {
          "indexed": true,
          "internalType": "address",
          "name": "sender",
          "type": "address"
        }
      ],
      "name": "RoleRevoked",
      "type": "event"
    },
    {
      "anonymous": false,
      "inputs": [
        {
          "indexed": true,
          "internalType": "address",
          "name": "seller",
          "type": "address"
        },
        {
          "indexed": false,
          "internalType": "address[]",
          "name": "nfts",
          "type": "address[]"
        },
        {
          "indexed": false,
          "internalType": "uint256[]",
          "name": "nftIds",
          "type": "uint256[]"
        },
        {
          "indexed": false,
          "internalType": "address[]",
          "name": "tokens",
          "type": "address[]"
        },
        {
          "indexed": false,
          "internalType": "uint256[]",
          "name": "prices",
          "type": "uint256[]"
        }
      ],
      "name": "Sell",
      "type": "event"
    },
    {
      "anonymous": false,
      "inputs": [
        {
          "indexed": false,
          "internalType": "address",
          "name": "treasury",
          "type": "address"
        }
      ],
      "name": "SetAddrs",
      "type": "event"
    },
    {
      "anonymous": false,
      "inputs": [
        {
          "indexed": false,
          "internalType": "uint256",
          "name": "fee",
          "type": "uint256"
        }
      ],
      "name": "SetFee",
      "type": "event"
    },
    {
      "inputs": [],
      "name": "DEFAULT_ADMIN_ROLE",
      "outputs": [
        {
          "internalType": "bytes32",
          "name": "",
          "type": "bytes32"
        }
      ],
      "stateMutability": "view",
      "type": "function"
    },
    {
      "inputs": [],
      "name": "MANAGER_ROLE",
      "outputs": [
        {
          "internalType": "bytes32",
          "name": "",
          "type": "bytes32"
        }
      ],
      "stateMutability": "view",
      "type": "function"
    },
    {
      "inputs": [
        {
          "internalType": "address[]",
          "name": "nfts",
          "type": "address[]"
        },
        {
          "internalType": "uint256[]",
          "name": "nftIds",
          "type": "uint256[]"
        }
      ],
      "name": "buy",
      "outputs": [],
      "stateMutability": "payable",
      "type": "function"
    },
    {
      "inputs": [
        {
          "internalType": "address[]",
          "name": "nfts",
          "type": "address[]"
        },
        {
          "internalType": "uint256[]",
          "name": "nftIds",
          "type": "uint256[]"
        }
      ],
      "name": "cancel",
      "outputs": [],
      "stateMutability": "nonpayable",
      "type": "function"
    },
    {
      "inputs": [],
      "name": "fee",
      "outputs": [
        {
          "internalType": "uint256",
          "name": "",
          "type": "uint256"
        }
      ],
      "stateMutability": "view",
      "type": "function"
    },
    {
      "inputs": [
        {
          "internalType": "bytes32",
          "name": "role",
          "type": "bytes32"
        }
      ],
      "name": "getRoleAdmin",
      "outputs": [
        {
          "internalType": "bytes32",
          "name": "",
          "type": "bytes32"
        }
      ],
      "stateMutability": "view",
      "type": "function"
    },
    {
      "inputs": [
        {
          "internalType": "bytes32",
          "name": "role",
          "type": "bytes32"
        },
        {
          "internalType": "uint256",
          "name": "index",
          "type": "uint256"
        }
      ],
      "name": "getRoleMember",
      "outputs": [
        {
          "internalType": "address",
          "name": "",
          "type": "address"
        }
      ],
      "stateMutability": "view",
      "type": "function"
    },
    {
      "inputs": [
        {
          "internalType": "bytes32",
          "name": "role",
          "type": "bytes32"
        }
      ],
      "name": "getRoleMemberCount",
      "outputs": [
        {
          "internalType": "uint256",
          "name": "",
          "type": "uint256"
        }
      ],
      "stateMutability": "view",
      "type": "function"
    },
    {
      "inputs": [
        {
          "internalType": "bytes32",
          "name": "role",
          "type": "bytes32"
        },
        {
          "internalType": "address",
          "name": "account",
          "type": "address"
        }
      ],
      "name": "grantRole",
      "outputs": [],
      "stateMutability": "nonpayable",
      "type": "function"
    },
    {
      "inputs": [
        {
          "internalType": "bytes32",
          "name": "role",
          "type": "bytes32"
        },
        {
          "internalType": "address",
          "name": "account",
          "type": "address"
        }
      ],
      "name": "hasRole",
      "outputs": [
        {
          "internalType": "bool",
          "name": "",
          "type": "bool"
        }
      ],
      "stateMutability": "view",
      "type": "function"
    },
    {
      "inputs": [
        {
          "internalType": "address",
          "name": "",
          "type": "address"
        },
        {
          "internalType": "address",
          "name": "",
          "type": "address"
        },
        {
          "internalType": "uint256",
          "name": "",
          "type": "uint256"
        },
        {
          "internalType": "bytes",
          "name": "",
          "type": "bytes"
        }
      ],
      "name": "onERC721Received",
      "outputs": [
        {
          "internalType": "bytes4",
          "name": "",
          "type": "bytes4"
        }
      ],
      "stateMutability": "nonpayable",
      "type": "function"
    },
    {
      "inputs": [
        {
          "internalType": "address",
          "name": "",
          "type": "address"
        },
        {
          "internalType": "uint256",
          "name": "",
          "type": "uint256"
        }
      ],
      "name": "price",
      "outputs": [
        {
          "internalType": "uint256",
          "name": "",
          "type": "uint256"
        }
      ],
      "stateMutability": "view",
      "type": "function"
    },
    {
      "inputs": [
        {
          "internalType": "bytes32",
          "name": "role",
          "type": "bytes32"
        },
        {
          "internalType": "address",
          "name": "account",
          "type": "address"
        }
      ],
      "name": "renounceRole",
      "outputs": [],
      "stateMutability": "nonpayable",
      "type": "function"
    },
    {
      "inputs": [
        {
          "internalType": "bytes32",
          "name": "role",
          "type": "bytes32"
        },
        {
          "internalType": "address",
          "name": "account",
          "type": "address"
        }
      ],
      "name": "revokeRole",
      "outputs": [],
      "stateMutability": "nonpayable",
      "type": "function"
    },
    {
      "inputs": [
        {
          "internalType": "address[]",
          "name": "nfts",
          "type": "address[]"
        },
        {
          "internalType": "uint256[]",
          "name": "nftIds",
          "type": "uint256[]"
        },
        {
          "internalType": "address[]",
          "name": "tokens",
          "type": "address[]"
        },
        {
          "internalType": "uint256[]",
          "name": "prices",
          "type": "uint256[]"
        }
      ],
      "name": "sell",
      "outputs": [],
      "stateMutability": "nonpayable",
      "type": "function"
    },
    {
      "inputs": [
        {
          "internalType": "address",
          "name": "",
          "type": "address"
        },
        {
          "internalType": "uint256",
          "name": "",
          "type": "uint256"
        }
      ],
      "name": "seller",
      "outputs": [
        {
          "internalType": "address",
          "name": "",
          "type": "address"
        }
      ],
      "stateMutability": "view",
      "type": "function"
    },
    {
      "inputs": [
        {
          "internalType": "address",
          "name": "_treasury",
          "type": "address"
        }
      ],
      "name": "setAddrs",
      "outputs": [],
      "stateMutability": "nonpayable",
      "type": "function"
    },
    {
      "inputs": [
        {
          "internalType": "uint256",
          "name": "_fee",
          "type": "uint256"
        }
      ],
      "name": "setFee",
      "outputs": [],
      "stateMutability": "nonpayable",
      "type": "function"
    },
    {
      "inputs": [
        {
          "internalType": "bytes4",
          "name": "interfaceId",
          "type": "bytes4"
        }
      ],
      "name": "supportsInterface",
      "outputs": [
        {
          "internalType": "bool",
          "name": "",
          "type": "bool"
        }
      ],
      "stateMutability": "view",
      "type": "function"
    },
    {
      "inputs": [
        {
          "internalType": "address",
          "name": "",
          "type": "address"
        },
        {
          "internalType": "uint256",
          "name": "",
          "type": "uint256"
        }
      ],
      "name": "token",
      "outputs": [
        {
          "internalType": "address",
          "name": "",
          "type": "address"
        }
      ],
      "stateMutability": "view",
      "type": "function"
    },
    {
      "inputs": [],
      "name": "treasury",
      "outputs": [
        {
          "internalType": "address",
          "name": "",
          "type": "address"
        }
      ],
      "stateMutability": "view",
      "type": "function"
    }
  ],
  "bytecode": "0x60806040526101f46004553480156200001757600080fd5b5060405162003dc738038062003dc783398181016040528101906200003d919062000393565b60016002819055506200005a6000801b336200009360201b60201c565b6200008c7f241ecf16d79d0f8dbfb92cbc07fe17840425976cf0667f022fe9877caa831b08826200009360201b60201c565b50620003c5565b620000a58282620000a960201b60201c565b5050565b620000c08282620000f160201b62001ad11760201c565b620000ec8160016000858152602001908152602001600020620001e260201b62001bb11790919060201c565b505050565b6200010382826200021a60201b60201c565b620001de57600160008084815260200190815260200160002060000160008373ffffffffffffffffffffffffffffffffffffffff1673ffffffffffffffffffffffffffffffffffffffff16815260200190815260200160002060006101000a81548160ff021916908315150217905550620001836200028460201b60201c565b73ffffffffffffffffffffffffffffffffffffffff168173ffffffffffffffffffffffffffffffffffffffff16837f2f8788117e7eff1d82e926ec794901d17c78024a50270940304540a733656f0d60405160405180910390a45b5050565b600062000212836000018373ffffffffffffffffffffffffffffffffffffffff1660001b6200028c60201b60201c565b905092915050565b600080600084815260200190815260200160002060000160008373ffffffffffffffffffffffffffffffffffffffff1673ffffffffffffffffffffffffffffffffffffffff16815260200190815260200160002060009054906101000a900460ff16905092915050565b600033905090565b6000620002a083836200030660201b60201c565b620002fb57826000018290806001815401808255809150506001900390600052602060002001600090919091909150558260000180549050836001016000848152602001908152602001600020819055506001905062000300565b600090505b92915050565b600080836001016000848152602001908152602001600020541415905092915050565b600080fd5b600073ffffffffffffffffffffffffffffffffffffffff82169050919050565b60006200035b826200032e565b9050919050565b6200036d816200034e565b81146200037957600080fd5b50565b6000815190506200038d8162000362565b92915050565b600060208284031215620003ac57620003ab62000329565b5b6000620003bc848285016200037c565b91505092915050565b6139f280620003d56000396000f3fe60806040526004361061012a5760003560e01c80639010d07c116100ab578063ca15c8731161006f578063ca15c8731461043a578063d21ac34f14610477578063d547741f14610493578063ddca3f43146104bc578063e38530b4146104e7578063ec87621c146105105761012a565b80639010d07c1461032f57806391d148541461036c578063a217fddf146103a9578063ad9b8024146103d4578063b0d179a5146104115761012a565b806336568abe116100f257806336568abe1461024c57806361d027b31461027557806369fe0e2d146102a05780636f457683146102c957806372d33582146103065761012a565b806301ffc9a71461012f578063150b7a021461016c578063248a9ca3146101a95780632a3c559e146101e65780632f2ff15d14610223575b600080fd5b34801561013b57600080fd5b50610156600480360381019061015191906126b7565b61053b565b60405161016391906126ff565b60405180910390f35b34801561017857600080fd5b50610193600480360381019061018e91906128f4565b6105b5565b6040516101a09190612986565b60405180910390f35b3480156101b557600080fd5b506101d060048036038101906101cb91906129d7565b6105c9565b6040516101dd9190612a13565b60405180910390f35b3480156101f257600080fd5b5061020d60048036038101906102089190612a2e565b6105e8565b60405161021a9190612a7d565b60405180910390f35b34801561022f57600080fd5b5061024a60048036038101906102459190612a98565b61062a565b005b34801561025857600080fd5b50610273600480360381019061026e9190612a98565b61064b565b005b34801561028157600080fd5b5061028a6106ce565b6040516102979190612a7d565b60405180910390f35b3480156102ac57600080fd5b506102c760048036038101906102c29190612ad8565b6106f4565b005b3480156102d557600080fd5b506102f060048036038101906102eb9190612a2e565b6107a4565b6040516102fd9190612a7d565b60405180910390f35b34801561031257600080fd5b5061032d60048036038101906103289190612c90565b6107e6565b005b34801561033b57600080fd5b5061035660048036038101906103519190612d08565b610c39565b6040516103639190612a7d565b60405180910390f35b34801561037857600080fd5b50610393600480360381019061038e9190612a98565b610c68565b6040516103a091906126ff565b60405180910390f35b3480156103b557600080fd5b506103be610cd2565b6040516103cb9190612a13565b60405180910390f35b3480156103e057600080fd5b506103fb60048036038101906103f69190612a2e565b610cd9565b6040516104089190612d57565b60405180910390f35b34801561041d57600080fd5b5061043860048036038101906104339190612d72565b610cfe565b005b34801561044657600080fd5b50610461600480360381019061045c91906129d7565b610da4565b60405161046e9190612d57565b60405180910390f35b610491600480360381019061048c9190612c90565b610dc8565b005b34801561049f57600080fd5b506104ba60048036038101906104b59190612a98565b6116d2565b005b3480156104c857600080fd5b506104d16116f3565b6040516104de9190612d57565b60405180910390f35b3480156104f357600080fd5b5061050e60048036038101906105099190612d9f565b6116f9565b005b34801561051c57600080fd5b50610525611aad565b6040516105329190612a13565b60405180910390f35b60007f5a05180f000000000000000000000000000000000000000000000000000000007bffffffffffffffffffffffffffffffffffffffffffffffffffffffff1916827bffffffffffffffffffffffffffffffffffffffffffffffffffffffff191614806105ae57506105ad82611be1565b5b9050919050565b600063150b7a0260e01b9050949350505050565b6000806000838152602001908152602001600020600101549050919050565b60076020528160005260406000206020528060005260406000206000915091509054906101000a900473ffffffffffffffffffffffffffffffffffffffff1681565b610633826105c9565b61063c81611c5b565b6106468383611c6f565b505050565b610653611ca3565b73ffffffffffffffffffffffffffffffffffffffff168173ffffffffffffffffffffffffffffffffffffffff16146106c0576040517f08c379a00000000000000000000000000000000000000000000000000000000081526004016106b790612ef9565b60405180910390fd5b6106ca8282611cab565b5050565b600360009054906101000a900473ffffffffffffffffffffffffffffffffffffffff1681565b7f241ecf16d79d0f8dbfb92cbc07fe17840425976cf0667f022fe9877caa831b0861071e81611c5b565b611388821115610763576040517f08c379a000000000000000000000000000000000000000000000000000000000815260040161075a90612f65565b60405180910390fd5b816004819055507e172ddfc5ae88d08b3de01a5a187667c37a5a53989e8c175055cb6c993792a7826040516107989190612d57565b60405180910390a15050565b60056020528160005260406000206020528060005260406000206000915091509054906101000a900473ffffffffffffffffffffffffffffffffffffffff1681565b60028054141561082b576040517f08c379a000000000000000000000000000000000000000000000000000000000815260040161082290612fd1565b60405180910390fd5b6002808190555060005b8151811015610bdc573373ffffffffffffffffffffffffffffffffffffffff166007600085848151811061086c5761086b612ff1565b5b602002602001015173ffffffffffffffffffffffffffffffffffffffff1673ffffffffffffffffffffffffffffffffffffffff16815260200190815260200160002060008484815181106108c3576108c2612ff1565b5b6020026020010151815260200190815260200160002060009054906101000a900473ffffffffffffffffffffffffffffffffffffffff1673ffffffffffffffffffffffffffffffffffffffff1614610950576040517f08c379a00000000000000000000000000000000000000000000000000000000081526004016109479061306c565b60405180910390fd5b6005600084838151811061096757610966612ff1565b5b602002602001015173ffffffffffffffffffffffffffffffffffffffff1673ffffffffffffffffffffffffffffffffffffffff16815260200190815260200160002060008383815181106109be576109bd612ff1565b5b6020026020010151815260200190815260200160002060006101000a81549073ffffffffffffffffffffffffffffffffffffffff021916905560066000848381518110610a0e57610a0d612ff1565b5b602002602001015173ffffffffffffffffffffffffffffffffffffffff1673ffffffffffffffffffffffffffffffffffffffff1681526020019081526020016000206000838381518110610a6557610a64612ff1565b5b602002602001015181526020019081526020016000206000905560076000848381518110610a9657610a95612ff1565b5b602002602001015173ffffffffffffffffffffffffffffffffffffffff1673ffffffffffffffffffffffffffffffffffffffff1681526020019081526020016000206000838381518110610aed57610aec612ff1565b5b6020026020010151815260200190815260200160002060006101000a81549073ffffffffffffffffffffffffffffffffffffffff0219169055828181518110610b3957610b38612ff1565b5b602002602001015173ffffffffffffffffffffffffffffffffffffffff166342842e0e3033858581518110610b7157610b70612ff1565b5b60200260200101516040518463ffffffff1660e01b8152600401610b979392919061308c565b600060405180830381600087803b158015610bb157600080fd5b505af1158015610bc5573d6000803e3d6000fd5b505050508080610bd4906130f2565b915050610835565b503373ffffffffffffffffffffffffffffffffffffffff167fcd6162b6b3c4e9f12a0fdf582a65be1140c518ad7cbd81a498b3c4f8054a6f0e8383604051610c259291906132b7565b60405180910390a260016002819055505050565b6000610c608260016000868152602001908152602001600020611cdf90919063ffffffff16565b905092915050565b600080600084815260200190815260200160002060000160008373ffffffffffffffffffffffffffffffffffffffff1673ffffffffffffffffffffffffffffffffffffffff16815260200190815260200160002060009054906101000a900460ff16905092915050565b6000801b81565b6006602052816000526040600020602052806000526040600020600091509150505481565b7f241ecf16d79d0f8dbfb92cbc07fe17840425976cf0667f022fe9877caa831b08610d2881611c5b565b81600360006101000a81548173ffffffffffffffffffffffffffffffffffffffff021916908373ffffffffffffffffffffffffffffffffffffffff1602179055507ff433bac3f36b8750f6fcd820d9a15960466d2527d1bd091107fee6a5766de9db82604051610d989190612a7d565b60405180910390a15050565b6000610dc160016000848152602001908152602001600020611cf9565b9050919050565b600280541415610e0d576040517f08c379a0000000000000000000000000000000000000000000000000000000008152600401610e0490612fd1565b60405180910390fd5b600280819055506000815167ffffffffffffffff811115610e3157610e306127c9565b5b604051908082528060200260200182016040528015610e5f5781602001602082028036833780820191505090505b5090506000825167ffffffffffffffff811115610e7f57610e7e6127c9565b5b604051908082528060200260200182016040528015610ead5781602001602082028036833780820191505090505b5090506000835167ffffffffffffffff811115610ecd57610ecc6127c9565b5b604051908082528060200260200182016040528015610efb5781602001602082028036833780820191505090505b50905060005b845181101561166c5760056000878381518110610f2157610f20612ff1565b5b602002602001015173ffffffffffffffffffffffffffffffffffffffff1673ffffffffffffffffffffffffffffffffffffffff1681526020019081526020016000206000868381518110610f7857610f77612ff1565b5b6020026020010151815260200190815260200160002060009054906101000a900473ffffffffffffffffffffffffffffffffffffffff16848281518110610fc257610fc1612ff1565b5b602002602001019073ffffffffffffffffffffffffffffffffffffffff16908173ffffffffffffffffffffffffffffffffffffffff16815250506006600087838151811061101357611012612ff1565b5b602002602001015173ffffffffffffffffffffffffffffffffffffffff1673ffffffffffffffffffffffffffffffffffffffff168152602001908152602001600020600086838151811061106a57611069612ff1565b5b602002602001015181526020019081526020016000205483828151811061109457611093612ff1565b5b602002602001018181525050600760008783815181106110b7576110b6612ff1565b5b602002602001015173ffffffffffffffffffffffffffffffffffffffff1673ffffffffffffffffffffffffffffffffffffffff168152602001908152602001600020600086838151811061110e5761110d612ff1565b5b6020026020010151815260200190815260200160002060009054906101000a900473ffffffffffffffffffffffffffffffffffffffff1682828151811061115857611157612ff1565b5b602002602001019073ffffffffffffffffffffffffffffffffffffffff16908173ffffffffffffffffffffffffffffffffffffffff1681525050600560008783815181106111a9576111a8612ff1565b5b602002602001015173ffffffffffffffffffffffffffffffffffffffff1673ffffffffffffffffffffffffffffffffffffffff1681526020019081526020016000206000868381518110611200576111ff612ff1565b5b6020026020010151815260200190815260200160002060006101000a81549073ffffffffffffffffffffffffffffffffffffffff0219169055600660008783815181106112505761124f612ff1565b5b602002602001015173ffffffffffffffffffffffffffffffffffffffff1673ffffffffffffffffffffffffffffffffffffffff16815260200190815260200160002060008683815181106112a7576112a6612ff1565b5b6020026020010151815260200190815260200160002060009055600760008783815181106112d8576112d7612ff1565b5b602002602001015173ffffffffffffffffffffffffffffffffffffffff1673ffffffffffffffffffffffffffffffffffffffff168152602001908152602001600020600086838151811061132f5761132e612ff1565b5b6020026020010151815260200190815260200160002060006101000a81549073ffffffffffffffffffffffffffffffffffffffff0219169055600061271060045485848151811061138357611382612ff1565b5b602002602001015161139591906132ee565b61139f9190613377565b90506000818584815181106113b7576113b6612ff1565b5b60200260200101516113c991906133a8565b9050600073ffffffffffffffffffffffffffffffffffffffff168684815181106113f6576113f5612ff1565b5b602002602001015173ffffffffffffffffffffffffffffffffffffffff1614156114e957600360009054906101000a900473ffffffffffffffffffffffffffffffffffffffff1673ffffffffffffffffffffffffffffffffffffffff166108fc839081150290604051600060405180830381858888f19350505050158015611482573d6000803e3d6000fd5b5083838151811061149657611495612ff1565b5b602002602001015173ffffffffffffffffffffffffffffffffffffffff166108fc829081150290604051600060405180830381858888f193505050501580156114e3573d6000803e3d6000fd5b506115b4565b61155233600360009054906101000a900473ffffffffffffffffffffffffffffffffffffffff168489878151811061152457611523612ff1565b5b602002602001015173ffffffffffffffffffffffffffffffffffffffff16611d0e909392919063ffffffff16565b6115b33385858151811061156957611568612ff1565b5b60200260200101518389878151811061158557611584612ff1565b5b602002602001015173ffffffffffffffffffffffffffffffffffffffff16611d0e909392919063ffffffff16565b5b8783815181106115c7576115c6612ff1565b5b602002602001015173ffffffffffffffffffffffffffffffffffffffff166342842e0e30338a87815181106115ff576115fe612ff1565b5b60200260200101516040518463ffffffff1660e01b81526004016116259392919061308c565b600060405180830381600087803b15801561163f57600080fd5b505af1158015611653573d6000803e3d6000fd5b5050505050508080611664906130f2565b915050610f01565b503373ffffffffffffffffffffffffffffffffffffffff167f8efd03d19bc88f8ada8c3c7f3c1f06fbfffdeaab6f6d6c061f6333b179da75a382878787876040516116bb9594939291906133dc565b60405180910390a250505060016002819055505050565b6116db826105c9565b6116e481611c5b565b6116ee8383611cab565b505050565b60045481565b60028054141561173e576040517f08c379a000000000000000000000000000000000000000000000000000000000815260040161173590612fd1565b60405180910390fd5b6002808190555060005b8351811015611a4a5784818151811061176457611763612ff1565b5b602002602001015173ffffffffffffffffffffffffffffffffffffffff166342842e0e333087858151811061179c5761179b612ff1565b5b60200260200101516040518463ffffffff1660e01b81526004016117c29392919061308c565b600060405180830381600087803b1580156117dc57600080fd5b505af11580156117f0573d6000803e3d6000fd5b5050505082818151811061180757611806612ff1565b5b60200260200101516005600087848151811061182657611825612ff1565b5b602002602001015173ffffffffffffffffffffffffffffffffffffffff1673ffffffffffffffffffffffffffffffffffffffff168152602001908152602001600020600086848151811061187d5761187c612ff1565b5b6020026020010151815260200190815260200160002060006101000a81548173ffffffffffffffffffffffffffffffffffffffff021916908373ffffffffffffffffffffffffffffffffffffffff1602179055508181815181106118e4576118e3612ff1565b5b60200260200101516006600087848151811061190357611902612ff1565b5b602002602001015173ffffffffffffffffffffffffffffffffffffffff1673ffffffffffffffffffffffffffffffffffffffff168152602001908152602001600020600086848151811061195a57611959612ff1565b5b6020026020010151815260200190815260200160002081905550336007600087848151811061198c5761198b612ff1565b5b602002602001015173ffffffffffffffffffffffffffffffffffffffff1673ffffffffffffffffffffffffffffffffffffffff16815260200190815260200160002060008684815181106119e3576119e2612ff1565b5b6020026020010151815260200190815260200160002060006101000a81548173ffffffffffffffffffffffffffffffffffffffff021916908373ffffffffffffffffffffffffffffffffffffffff1602179055508080611a42906130f2565b915050611748565b503373ffffffffffffffffffffffffffffffffffffffff167f6d4ca48181500311dec148987bf8bdd2084c4d03e6c8c48df33997e9e191ef0e85858585604051611a979493929190613452565b60405180910390a2600160028190555050505050565b7f241ecf16d79d0f8dbfb92cbc07fe17840425976cf0667f022fe9877caa831b0881565b611adb8282610c68565b611bad57600160008084815260200190815260200160002060000160008373ffffffffffffffffffffffffffffffffffffffff1673ffffffffffffffffffffffffffffffffffffffff16815260200190815260200160002060006101000a81548160ff021916908315150217905550611b52611ca3565b73ffffffffffffffffffffffffffffffffffffffff168173ffffffffffffffffffffffffffffffffffffffff16837f2f8788117e7eff1d82e926ec794901d17c78024a50270940304540a733656f0d60405160405180910390a45b5050565b6000611bd9836000018373ffffffffffffffffffffffffffffffffffffffff1660001b611d97565b905092915050565b60007f7965db0b000000000000000000000000000000000000000000000000000000007bffffffffffffffffffffffffffffffffffffffffffffffffffffffff1916827bffffffffffffffffffffffffffffffffffffffffffffffffffffffff19161480611c545750611c5382611e07565b5b9050919050565b611c6c81611c67611ca3565b611e71565b50565b611c798282611ad1565b611c9e8160016000858152602001908152602001600020611bb190919063ffffffff16565b505050565b600033905090565b611cb58282611f0e565b611cda8160016000858152602001908152602001600020611fef90919063ffffffff16565b505050565b6000611cee836000018361201f565b60001c905092915050565b6000611d078260000161204a565b9050919050565b611d91846323b872dd60e01b858585604051602401611d2f9392919061308c565b604051602081830303815290604052907bffffffffffffffffffffffffffffffffffffffffffffffffffffffff19166020820180517bffffffffffffffffffffffffffffffffffffffffffffffffffffffff838183161783525050505061205b565b50505050565b6000611da38383612122565b611dfc578260000182908060018154018082558091505060019003906000526020600020016000909190919091505582600001805490508360010160008481526020019081526020016000208190555060019050611e01565b600090505b92915050565b60007f01ffc9a7000000000000000000000000000000000000000000000000000000007bffffffffffffffffffffffffffffffffffffffffffffffffffffffff1916827bffffffffffffffffffffffffffffffffffffffffffffffffffffffff1916149050919050565b611e7b8282610c68565b611f0a57611ea08173ffffffffffffffffffffffffffffffffffffffff166014612145565b611eae8360001c6020612145565b604051602001611ebf9291906135c5565b6040516020818303038152906040526040517f08c379a0000000000000000000000000000000000000000000000000000000008152600401611f019190613638565b60405180910390fd5b5050565b611f188282610c68565b15611feb57600080600084815260200190815260200160002060000160008373ffffffffffffffffffffffffffffffffffffffff1673ffffffffffffffffffffffffffffffffffffffff16815260200190815260200160002060006101000a81548160ff021916908315150217905550611f90611ca3565b73ffffffffffffffffffffffffffffffffffffffff168173ffffffffffffffffffffffffffffffffffffffff16837ff6391f5c32d9c69d2a47ea670b442974b53935d1edc7fd64eb21e047a839171b60405160405180910390a45b5050565b6000612017836000018373ffffffffffffffffffffffffffffffffffffffff1660001b612381565b905092915050565b600082600001828154811061203757612036612ff1565b5b9060005260206000200154905092915050565b600081600001805490509050919050565b60006120bd826040518060400160405280602081526020017f5361666545524332303a206c6f772d6c6576656c2063616c6c206661696c65648152508573ffffffffffffffffffffffffffffffffffffffff166124959092919063ffffffff16565b905060008151111561211d57808060200190518101906120dd9190613686565b61211c576040517f08c379a000000000000000000000000000000000000000000000000000000000815260040161211390613725565b60405180910390fd5b5b505050565b600080836001016000848152602001908152602001600020541415905092915050565b60606000600283600261215891906132ee565b6121629190613745565b67ffffffffffffffff81111561217b5761217a6127c9565b5b6040519080825280601f01601f1916602001820160405280156121ad5781602001600182028036833780820191505090505b5090507f3000000000000000000000000000000000000000000000000000000000000000816000815181106121e5576121e4612ff1565b5b60200101907effffffffffffffffffffffffffffffffffffffffffffffffffffffffffffff1916908160001a9053507f78000000000000000000000000000000000000000000000000000000000000008160018151811061224957612248612ff1565b5b60200101907effffffffffffffffffffffffffffffffffffffffffffffffffffffffffffff1916908160001a9053506000600184600261228991906132ee565b6122939190613745565b90505b6001811115612333577f3031323334353637383961626364656600000000000000000000000000000000600f8616601081106122d5576122d4612ff1565b5b1a60f81b8282815181106122ec576122eb612ff1565b5b60200101907effffffffffffffffffffffffffffffffffffffffffffffffffffffffffffff1916908160001a905350600485901c94508061232c9061379b565b9050612296565b5060008414612377576040517f08c379a000000000000000000000000000000000000000000000000000000000815260040161236e90613811565b60405180910390fd5b8091505092915050565b600080836001016000848152602001908152602001600020549050600081146124895760006001826123b391906133a8565b90506000600186600001805490506123cb91906133a8565b905081811461243a5760008660000182815481106123ec576123eb612ff1565b5b90600052602060002001549050808760000184815481106124105761240f612ff1565b5b90600052602060002001819055508387600101600083815260200190815260200160002081905550505b8560000180548061244e5761244d613831565b5b60019003818190600052602060002001600090559055856001016000868152602001908152602001600020600090556001935050505061248f565b60009150505b92915050565b60606124a484846000856124ad565b90509392505050565b6060824710156124f2576040517f08c379a00000000000000000000000000000000000000000000000000000000081526004016124e9906138d2565b60405180910390fd5b6124fb856125c1565b61253a576040517f08c379a00000000000000000000000000000000000000000000000000000000081526004016125319061393e565b60405180910390fd5b6000808673ffffffffffffffffffffffffffffffffffffffff16858760405161256391906139a5565b60006040518083038185875af1925050503d80600081146125a0576040519150601f19603f3d011682016040523d82523d6000602084013e6125a5565b606091505b50915091506125b58282866125e4565b92505050949350505050565b6000808273ffffffffffffffffffffffffffffffffffffffff163b119050919050565b606083156125f457829050612644565b6000835111156126075782518084602001fd5b816040517f08c379a000000000000000000000000000000000000000000000000000000000815260040161263b9190613638565b60405180910390fd5b9392505050565b6000604051905090565b600080fd5b600080fd5b60007fffffffff0000000000000000000000000000000000000000000000000000000082169050919050565b6126948161265f565b811461269f57600080fd5b50565b6000813590506126b18161268b565b92915050565b6000602082840312156126cd576126cc612655565b5b60006126db848285016126a2565b91505092915050565b60008115159050919050565b6126f9816126e4565b82525050565b600060208201905061271460008301846126f0565b92915050565b600073ffffffffffffffffffffffffffffffffffffffff82169050919050565b60006127458261271a565b9050919050565b6127558161273a565b811461276057600080fd5b50565b6000813590506127728161274c565b92915050565b6000819050919050565b61278b81612778565b811461279657600080fd5b50565b6000813590506127a881612782565b92915050565b600080fd5b600080fd5b6000601f19601f8301169050919050565b7f4e487b7100000000000000000000000000000000000000000000000000000000600052604160045260246000fd5b612801826127b8565b810181811067ffffffffffffffff821117156128205761281f6127c9565b5b80604052505050565b600061283361264b565b905061283f82826127f8565b919050565b600067ffffffffffffffff82111561285f5761285e6127c9565b5b612868826127b8565b9050602081019050919050565b82818337600083830152505050565b600061289761289284612844565b612829565b9050828152602081018484840111156128b3576128b26127b3565b5b6128be848285612875565b509392505050565b600082601f8301126128db576128da6127ae565b5b81356128eb848260208601612884565b91505092915050565b6000806000806080858703121561290e5761290d612655565b5b600061291c87828801612763565b945050602061292d87828801612763565b935050604061293e87828801612799565b925050606085013567ffffffffffffffff81111561295f5761295e61265a565b5b61296b878288016128c6565b91505092959194509250565b6129808161265f565b82525050565b600060208201905061299b6000830184612977565b92915050565b6000819050919050565b6129b4816129a1565b81146129bf57600080fd5b50565b6000813590506129d1816129ab565b92915050565b6000602082840312156129ed576129ec612655565b5b60006129fb848285016129c2565b91505092915050565b612a0d816129a1565b82525050565b6000602082019050612a286000830184612a04565b92915050565b60008060408385031215612a4557612a44612655565b5b6000612a5385828601612763565b9250506020612a6485828601612799565b9150509250929050565b612a778161273a565b82525050565b6000602082019050612a926000830184612a6e565b92915050565b60008060408385031215612aaf57612aae612655565b5b6000612abd858286016129c2565b9250506020612ace85828601612763565b9150509250929050565b600060208284031215612aee57612aed612655565b5b6000612afc84828501612799565b91505092915050565b600067ffffffffffffffff821115612b2057612b1f6127c9565b5b602082029050602081019050919050565b600080fd5b6000612b49612b4484612b05565b612829565b90508083825260208201905060208402830185811115612b6c57612b6b612b31565b5b835b81811015612b955780612b818882612763565b845260208401935050602081019050612b6e565b5050509392505050565b600082601f830112612bb457612bb36127ae565b5b8135612bc4848260208601612b36565b91505092915050565b600067ffffffffffffffff821115612be857612be76127c9565b5b602082029050602081019050919050565b6000612c0c612c0784612bcd565b612829565b90508083825260208201905060208402830185811115612c2f57612c2e612b31565b5b835b81811015612c585780612c448882612799565b845260208401935050602081019050612c31565b5050509392505050565b600082601f830112612c7757612c766127ae565b5b8135612c87848260208601612bf9565b91505092915050565b60008060408385031215612ca757612ca6612655565b5b600083013567ffffffffffffffff811115612cc557612cc461265a565b5b612cd185828601612b9f565b925050602083013567ffffffffffffffff811115612cf257612cf161265a565b5b612cfe85828601612c62565b9150509250929050565b60008060408385031215612d1f57612d1e612655565b5b6000612d2d858286016129c2565b9250506020612d3e85828601612799565b9150509250929050565b612d5181612778565b82525050565b6000602082019050612d6c6000830184612d48565b92915050565b600060208284031215612d8857612d87612655565b5b6000612d9684828501612763565b91505092915050565b60008060008060808587031215612db957612db8612655565b5b600085013567ffffffffffffffff811115612dd757612dd661265a565b5b612de387828801612b9f565b945050602085013567ffffffffffffffff811115612e0457612e0361265a565b5b612e1087828801612c62565b935050604085013567ffffffffffffffff811115612e3157612e3061265a565b5b612e3d87828801612b9f565b925050606085013567ffffffffffffffff811115612e5e57612e5d61265a565b5b612e6a87828801612c62565b91505092959194509250565b600082825260208201905092915050565b7f416363657373436f6e74726f6c3a2063616e206f6e6c792072656e6f756e636560008201527f20726f6c657320666f722073656c660000000000000000000000000000000000602082015250565b6000612ee3602f83612e76565b9150612eee82612e87565b604082019050919050565b60006020820190508181036000830152612f1281612ed6565b9050919050565b7f5468652066656520726174696f2063616e6e6f74206578636565642035302500600082015250565b6000612f4f601f83612e76565b9150612f5a82612f19565b602082019050919050565b60006020820190508181036000830152612f7e81612f42565b9050919050565b7f5265656e7472616e637947756172643a207265656e7472616e742063616c6c00600082015250565b6000612fbb601f83612e76565b9150612fc682612f85565b602082019050919050565b60006020820190508181036000830152612fea81612fae565b9050919050565b7f4e487b7100000000000000000000000000000000000000000000000000000000600052603260045260246000fd5b7f54686973204e4654206973206e6f74206f776e00000000000000000000000000600082015250565b6000613056601383612e76565b915061306182613020565b602082019050919050565b6000602082019050818103600083015261308581613049565b9050919050565b60006060820190506130a16000830186612a6e565b6130ae6020830185612a6e565b6130bb6040830184612d48565b949350505050565b7f4e487b7100000000000000000000000000000000000000000000000000000000600052601160045260246000fd5b60006130fd82612778565b91507fffffffffffffffffffffffffffffffffffffffffffffffffffffffffffffffff8214156131305761312f6130c3565b5b600182019050919050565b600081519050919050565b600082825260208201905092915050565b6000819050602082019050919050565b6131708161273a565b82525050565b60006131828383613167565b60208301905092915050565b6000602082019050919050565b60006131a68261313b565b6131b08185613146565b93506131bb83613157565b8060005b838110156131ec5781516131d38882613176565b97506131de8361318e565b9250506001810190506131bf565b5085935050505092915050565b600081519050919050565b600082825260208201905092915050565b6000819050602082019050919050565b61322e81612778565b82525050565b60006132408383613225565b60208301905092915050565b6000602082019050919050565b6000613264826131f9565b61326e8185613204565b935061327983613215565b8060005b838110156132aa5781516132918882613234565b975061329c8361324c565b92505060018101905061327d565b5085935050505092915050565b600060408201905081810360008301526132d1818561319b565b905081810360208301526132e58184613259565b90509392505050565b60006132f982612778565b915061330483612778565b9250817fffffffffffffffffffffffffffffffffffffffffffffffffffffffffffffffff048311821515161561333d5761333c6130c3565b5b828202905092915050565b7f4e487b7100000000000000000000000000000000000000000000000000000000600052601260045260246000fd5b600061338282612778565b915061338d83612778565b92508261339d5761339c613348565b5b828204905092915050565b60006133b382612778565b91506133be83612778565b9250828210156133d1576133d06130c3565b5b828203905092915050565b600060a08201905081810360008301526133f6818861319b565b9050818103602083015261340a818761319b565b9050818103604083015261341e8186613259565b90508181036060830152613432818561319b565b905081810360808301526134468184613259565b90509695505050505050565b6000608082019050818103600083015261346c818761319b565b905081810360208301526134808186613259565b90508181036040830152613494818561319b565b905081810360608301526134a88184613259565b905095945050505050565b600081905092915050565b7f416363657373436f6e74726f6c3a206163636f756e7420000000000000000000600082015250565b60006134f46017836134b3565b91506134ff826134be565b601782019050919050565b600081519050919050565b60005b83811015613533578082015181840152602081019050613518565b83811115613542576000848401525b50505050565b60006135538261350a565b61355d81856134b3565b935061356d818560208601613515565b80840191505092915050565b7f206973206d697373696e6720726f6c6520000000000000000000000000000000600082015250565b60006135af6011836134b3565b91506135ba82613579565b601182019050919050565b60006135d0826134e7565b91506135dc8285613548565b91506135e7826135a2565b91506135f38284613548565b91508190509392505050565b600061360a8261350a565b6136148185612e76565b9350613624818560208601613515565b61362d816127b8565b840191505092915050565b6000602082019050818103600083015261365281846135ff565b905092915050565b613663816126e4565b811461366e57600080fd5b50565b6000815190506136808161365a565b92915050565b60006020828403121561369c5761369b612655565b5b60006136aa84828501613671565b91505092915050565b7f5361666545524332303a204552433230206f7065726174696f6e20646964206e60008201527f6f74207375636365656400000000000000000000000000000000000000000000602082015250565b600061370f602a83612e76565b915061371a826136b3565b604082019050919050565b6000602082019050818103600083015261373e81613702565b9050919050565b600061375082612778565b915061375b83612778565b9250827fffffffffffffffffffffffffffffffffffffffffffffffffffffffffffffffff038211156137905761378f6130c3565b5b828201905092915050565b60006137a682612778565b915060008214156137ba576137b96130c3565b5b600182039050919050565b7f537472696e67733a20686578206c656e67746820696e73756666696369656e74600082015250565b60006137fb602083612e76565b9150613806826137c5565b602082019050919050565b6000602082019050818103600083015261382a816137ee565b9050919050565b7f4e487b7100000000000000000000000000000000000000000000000000000000600052603160045260246000fd5b7f416464726573733a20696e73756666696369656e742062616c616e636520666f60008201527f722063616c6c0000000000000000000000000000000000000000000000000000602082015250565b60006138bc602683612e76565b91506138c782613860565b604082019050919050565b600060208201905081810360008301526138eb816138af565b9050919050565b7f416464726573733a2063616c6c20746f206e6f6e2d636f6e7472616374000000600082015250565b6000613928601d83612e76565b9150613933826138f2565b602082019050919050565b600060208201905081810360008301526139578161391b565b9050919050565b600081519050919050565b600081905092915050565b600061397f8261395e565b6139898185613969565b9350613999818560208601613515565b80840191505092915050565b60006139b18284613974565b91508190509291505056fea264697066735822122053b1ed575735ca22ce4d12e4015b9ef836ba44d7bdbfbe403baa1483defd880c64736f6c634300080c0033",
  "linkReferences": {},
  "deployedLinkReferences": {}
}