{
  "_format": "hh-sol-artifact-1",
  "contractName": "Market",
  "sourceName": "contracts/pool/Market.sol",
  "abi": [
    {
      "inputs": [
        {
          "internalType": "address",
          "name": "manager",
          "type": "address"
        }
      ],
      "stateMutability": "nonpayable",
      "type": "constructor"
    },
    {
      "anonymous": false,
      "inputs": [
        {
          "indexed": true,
          "internalType": "address",
          "name": "buyer",
          "type": "address"
        },
        {
          "indexed": false,
          "internalType": "address[]",
          "name": "sellers",
          "type": "address[]"
        },
        {
          "indexed": false,
          "internalType": "address[]",
          "name": "nfts",
          "type": "address[]"
        },
        {
          "indexed": false,
          "internalType": "uint256[]",
          "name": "nftIds",
          "type": "uint256[]"
        },
        {
          "indexed": false,
          "internalType": "address[]",
          "name": "tokens",
          "type": "address[]"
        },
        {
          "indexed": false,
          "internalType": "uint256[]",
          "name": "prices",
          "type": "uint256[]"
        }
      ],
      "name": "Buy",
      "type": "event"
    },
    {
      "anonymous": false,
      "inputs": [
        {
          "indexed": true,
          "internalType": "address",
          "name": "seller",
          "type": "address"
        },
        {
          "indexed": false,
          "internalType": "address[]",
          "name": "nfts",
          "type": "address[]"
        },
        {
          "indexed": false,
          "internalType": "uint256[]",
          "name": "nftIds",
          "type": "uint256[]"
        }
      ],
      "name": "Cancel",
      "type": "event"
    },
    {
      "anonymous": false,
      "inputs": [
        {
          "indexed": true,
          "internalType": "bytes32",
          "name": "role",
          "type": "bytes32"
        },
        {
          "indexed": true,
          "internalType": "bytes32",
          "name": "previousAdminRole",
          "type": "bytes32"
        },
        {
          "indexed": true,
          "internalType": "bytes32",
          "name": "newAdminRole",
          "type": "bytes32"
        }
      ],
      "name": "RoleAdminChanged",
      "type": "event"
    },
    {
      "anonymous": false,
      "inputs": [
        {
          "indexed": true,
          "internalType": "bytes32",
          "name": "role",
          "type": "bytes32"
        },
        {
          "indexed": true,
          "internalType": "address",
          "name": "account",
          "type": "address"
        },
        {
          "indexed": true,
          "internalType": "address",
          "name": "sender",
          "type": "address"
        }
      ],
      "name": "RoleGranted",
      "type": "event"
    },
    {
      "anonymous": false,
      "inputs": [
        {
          "indexed": true,
          "internalType": "bytes32",
          "name": "role",
          "type": "bytes32"
        },
        {
          "indexed": true,
          "internalType": "address",
          "name": "account",
          "type": "address"
        },
        {
          "indexed": true,
          "internalType": "address",
          "name": "sender",
          "type": "address"
        }
      ],
      "name": "RoleRevoked",
      "type": "event"
    },
    {
      "anonymous": false,
      "inputs": [
        {
          "indexed": true,
          "internalType": "address",
          "name": "seller",
          "type": "address"
        },
        {
          "indexed": false,
          "internalType": "address[]",
          "name": "nfts",
          "type": "address[]"
        },
        {
          "indexed": false,
          "internalType": "uint256[]",
          "name": "nftIds",
          "type": "uint256[]"
        },
        {
          "indexed": false,
          "internalType": "address[]",
          "name": "tokens",
          "type": "address[]"
        },
        {
          "indexed": false,
          "internalType": "uint256[]",
          "name": "prices",
          "type": "uint256[]"
        }
      ],
      "name": "Sell",
      "type": "event"
    },
    {
      "anonymous": false,
      "inputs": [
        {
          "indexed": false,
          "internalType": "address",
          "name": "treasury",
          "type": "address"
        }
      ],
      "name": "SetAddrs",
      "type": "event"
    },
    {
      "anonymous": false,
      "inputs": [
        {
          "indexed": false,
          "internalType": "uint256",
          "name": "fee",
          "type": "uint256"
        }
      ],
      "name": "SetFee",
      "type": "event"
    },
    {
      "inputs": [],
      "name": "DEFAULT_ADMIN_ROLE",
      "outputs": [
        {
          "internalType": "bytes32",
          "name": "",
          "type": "bytes32"
        }
      ],
      "stateMutability": "view",
      "type": "function"
    },
    {
      "inputs": [],
      "name": "MANAGER_ROLE",
      "outputs": [
        {
          "internalType": "bytes32",
          "name": "",
          "type": "bytes32"
        }
      ],
      "stateMutability": "view",
      "type": "function"
    },
    {
      "inputs": [
        {
          "internalType": "address[]",
          "name": "nfts",
          "type": "address[]"
        },
        {
          "internalType": "uint256[]",
          "name": "nftIds",
          "type": "uint256[]"
        }
      ],
      "name": "buy",
      "outputs": [],
      "stateMutability": "payable",
      "type": "function"
    },
    {
      "inputs": [
        {
          "internalType": "address[]",
          "name": "nfts",
          "type": "address[]"
        },
        {
          "internalType": "uint256[]",
          "name": "nftIds",
          "type": "uint256[]"
        }
      ],
      "name": "cancel",
      "outputs": [],
      "stateMutability": "nonpayable",
      "type": "function"
    },
    {
      "inputs": [],
      "name": "fee",
      "outputs": [
        {
          "internalType": "uint256",
          "name": "",
          "type": "uint256"
        }
      ],
      "stateMutability": "view",
      "type": "function"
    },
    {
      "inputs": [
        {
          "internalType": "bytes32",
          "name": "role",
          "type": "bytes32"
        }
      ],
      "name": "getRoleAdmin",
      "outputs": [
        {
          "internalType": "bytes32",
          "name": "",
          "type": "bytes32"
        }
      ],
      "stateMutability": "view",
      "type": "function"
    },
    {
      "inputs": [
        {
          "internalType": "bytes32",
          "name": "role",
          "type": "bytes32"
        },
        {
          "internalType": "uint256",
          "name": "index",
          "type": "uint256"
        }
      ],
      "name": "getRoleMember",
      "outputs": [
        {
          "internalType": "address",
          "name": "",
          "type": "address"
        }
      ],
      "stateMutability": "view",
      "type": "function"
    },
    {
      "inputs": [
        {
          "internalType": "bytes32",
          "name": "role",
          "type": "bytes32"
        }
      ],
      "name": "getRoleMemberCount",
      "outputs": [
        {
          "internalType": "uint256",
          "name": "",
          "type": "uint256"
        }
      ],
      "stateMutability": "view",
      "type": "function"
    },
    {
      "inputs": [
        {
          "internalType": "bytes32",
          "name": "role",
          "type": "bytes32"
        },
        {
          "internalType": "address",
          "name": "account",
          "type": "address"
        }
      ],
      "name": "grantRole",
      "outputs": [],
      "stateMutability": "nonpayable",
      "type": "function"
    },
    {
      "inputs": [
        {
          "internalType": "bytes32",
          "name": "role",
          "type": "bytes32"
        },
        {
          "internalType": "address",
          "name": "account",
          "type": "address"
        }
      ],
      "name": "hasRole",
      "outputs": [
        {
          "internalType": "bool",
          "name": "",
          "type": "bool"
        }
      ],
      "stateMutability": "view",
      "type": "function"
    },
    {
      "inputs": [
        {
          "internalType": "address",
          "name": "",
          "type": "address"
        },
        {
          "internalType": "address",
          "name": "",
          "type": "address"
        },
        {
          "internalType": "uint256",
          "name": "",
          "type": "uint256"
        },
        {
          "internalType": "bytes",
          "name": "",
          "type": "bytes"
        }
      ],
      "name": "onERC721Received",
      "outputs": [
        {
          "internalType": "bytes4",
          "name": "",
          "type": "bytes4"
        }
      ],
      "stateMutability": "nonpayable",
      "type": "function"
    },
    {
      "inputs": [
        {
          "internalType": "address",
          "name": "",
          "type": "address"
        },
        {
          "internalType": "uint256",
          "name": "",
          "type": "uint256"
        }
      ],
      "name": "price",
      "outputs": [
        {
          "internalType": "uint256",
          "name": "",
          "type": "uint256"
        }
      ],
      "stateMutability": "view",
      "type": "function"
    },
    {
      "inputs": [
        {
          "internalType": "bytes32",
          "name": "role",
          "type": "bytes32"
        },
        {
          "internalType": "address",
          "name": "account",
          "type": "address"
        }
      ],
      "name": "renounceRole",
      "outputs": [],
      "stateMutability": "nonpayable",
      "type": "function"
    },
    {
      "inputs": [
        {
          "internalType": "bytes32",
          "name": "role",
          "type": "bytes32"
        },
        {
          "internalType": "address",
          "name": "account",
          "type": "address"
        }
      ],
      "name": "revokeRole",
      "outputs": [],
      "stateMutability": "nonpayable",
      "type": "function"
    },
    {
      "inputs": [
        {
          "internalType": "address[]",
          "name": "nfts",
          "type": "address[]"
        },
        {
          "internalType": "uint256[]",
          "name": "nftIds",
          "type": "uint256[]"
        },
        {
          "internalType": "address[]",
          "name": "tokens",
          "type": "address[]"
        },
        {
          "internalType": "uint256[]",
          "name": "prices",
          "type": "uint256[]"
        }
      ],
      "name": "sell",
      "outputs": [],
      "stateMutability": "nonpayable",
      "type": "function"
    },
    {
      "inputs": [
        {
          "internalType": "address",
          "name": "",
          "type": "address"
        },
        {
          "internalType": "uint256",
          "name": "",
          "type": "uint256"
        }
      ],
      "name": "seller",
      "outputs": [
        {
          "internalType": "address",
          "name": "",
          "type": "address"
        }
      ],
      "stateMutability": "view",
      "type": "function"
    },
    {
      "inputs": [
        {
          "internalType": "address",
          "name": "_treasury",
          "type": "address"
        }
      ],
      "name": "setAddrs",
      "outputs": [],
      "stateMutability": "nonpayable",
      "type": "function"
    },
    {
      "inputs": [
        {
          "internalType": "uint256",
          "name": "_fee",
          "type": "uint256"
        }
      ],
      "name": "setFee",
      "outputs": [],
      "stateMutability": "nonpayable",
      "type": "function"
    },
    {
      "inputs": [
        {
          "internalType": "bytes4",
          "name": "interfaceId",
          "type": "bytes4"
        }
      ],
      "name": "supportsInterface",
      "outputs": [
        {
          "internalType": "bool",
          "name": "",
          "type": "bool"
        }
      ],
      "stateMutability": "view",
      "type": "function"
    },
    {
      "inputs": [
        {
          "internalType": "address",
          "name": "",
          "type": "address"
        },
        {
          "internalType": "uint256",
          "name": "",
          "type": "uint256"
        }
      ],
      "name": "token",
      "outputs": [
        {
          "internalType": "address",
          "name": "",
          "type": "address"
        }
      ],
      "stateMutability": "view",
      "type": "function"
    },
    {
      "inputs": [],
      "name": "treasury",
      "outputs": [
        {
          "internalType": "address",
          "name": "",
          "type": "address"
        }
      ],
      "stateMutability": "view",
      "type": "function"
    }
  ],
  "bytecode": "0x60806040526101f46004553480156200001757600080fd5b506040516200261a3803806200261a8339810160408190526200003a91620001e4565b60016002556200004c6000336200007f565b620000787f241ecf16d79d0f8dbfb92cbc07fe17840425976cf0667f022fe9877caa831b08826200007f565b5062000216565b6200008b82826200008f565b5050565b620000a68282620000d260201b6200144a1760201c565b6000828152600160209081526040909120620000cd918390620014ce62000172821b17901c565b505050565b6000828152602081815260408083206001600160a01b038516845290915290205460ff166200008b576000828152602081815260408083206001600160a01b03851684529091529020805460ff191660011790556200012e3390565b6001600160a01b0316816001600160a01b0316837f2f8788117e7eff1d82e926ec794901d17c78024a50270940304540a733656f0d60405160405180910390a45050565b600062000189836001600160a01b03841662000192565b90505b92915050565b6000818152600183016020526040812054620001db575081546001818101845560008481526020808220909301849055845484825282860190935260409020919091556200018c565b5060006200018c565b600060208284031215620001f757600080fd5b81516001600160a01b03811681146200020f57600080fd5b9392505050565b6123f480620002266000396000f3fe60806040526004361061012a5760003560e01c80639010d07c116100ab578063ca15c8731161006f578063ca15c873146103cf578063d21ac34f146103ef578063d547741f14610402578063ddca3f4314610422578063e38530b414610438578063ec87621c1461045857600080fd5b80639010d07c1461032257806391d1485414610342578063a217fddf14610362578063ad9b802414610377578063b0d179a5146103af57600080fd5b806336568abe116100f257806336568abe1461026157806361d027b31461028157806369fe0e2d146102a15780636f457683146102c157806372d335821461030257600080fd5b806301ffc9a71461012f578063150b7a0214610164578063248a9ca3146101a85780632a3c559e146101e65780632f2ff15d1461023f575b600080fd5b34801561013b57600080fd5b5061014f61014a366004611c16565b61048c565b60405190151581526020015b60405180910390f35b34801561017057600080fd5b5061018f61017f366004611ca3565b630a85bd0160e11b949350505050565b6040516001600160e01b0319909116815260200161015b565b3480156101b457600080fd5b506101d86101c3366004611d63565b60009081526020819052604090206001015490565b60405190815260200161015b565b3480156101f257600080fd5b50610227610201366004611d7c565b60076020908152600092835260408084209091529082529020546001600160a01b031681565b6040516001600160a01b03909116815260200161015b565b34801561024b57600080fd5b5061025f61025a366004611da6565b6104b7565b005b34801561026d57600080fd5b5061025f61027c366004611da6565b6104e1565b34801561028d57600080fd5b50600354610227906001600160a01b031681565b3480156102ad57600080fd5b5061025f6102bc366004611d63565b610564565b3480156102cd57600080fd5b506102276102dc366004611d7c565b60056020908152600092835260408084209091529082529020546001600160a01b031681565b34801561030e57600080fd5b5061025f61031d366004611ec3565b61061c565b34801561032e57600080fd5b5061022761033d366004611f27565b61096d565b34801561034e57600080fd5b5061014f61035d366004611da6565b61098c565b34801561036e57600080fd5b506101d8600081565b34801561038357600080fd5b506101d8610392366004611d7c565b600660209081526000928352604080842090915290825290205481565b3480156103bb57600080fd5b5061025f6103ca366004611f49565b6109b5565b3480156103db57600080fd5b506101d86103ea366004611d63565b610a2d565b61025f6103fd366004611ec3565b610a44565b34801561040e57600080fd5b5061025f61041d366004611da6565b611140565b34801561042e57600080fd5b506101d860045481565b34801561044457600080fd5b5061025f610453366004611f64565b611165565b34801561046457600080fd5b506101d87f241ecf16d79d0f8dbfb92cbc07fe17840425976cf0667f022fe9877caa831b0881565b60006001600160e01b03198216635a05180f60e01b14806104b157506104b1826114e3565b92915050565b6000828152602081905260409020600101546104d281611518565b6104dc8383611525565b505050565b6001600160a01b03811633146105565760405162461bcd60e51b815260206004820152602f60248201527f416363657373436f6e74726f6c3a2063616e206f6e6c792072656e6f756e636560448201526e103937b632b9903337b91039b2b63360891b60648201526084015b60405180910390fd5b6105608282611547565b5050565b7f241ecf16d79d0f8dbfb92cbc07fe17840425976cf0667f022fe9877caa831b0861058e81611518565b6113888211156105e05760405162461bcd60e51b815260206004820152601f60248201527f5468652066656520726174696f2063616e6e6f74206578636565642035302500604482015260640161054d565b60048290556040518281527e172ddfc5ae88d08b3de01a5a187667c37a5a53989e8c175055cb6c993792a7906020015b60405180910390a15050565b60028054141561063e5760405162461bcd60e51b815260040161054d90612011565b6002805560005b815181101561092057336001600160a01b03166007600085848151811061066e5761066e612048565b60200260200101516001600160a01b03166001600160a01b0316815260200190815260200160002060008484815181106106aa576106aa612048565b6020908102919091018101518252810191909152604001600020546001600160a01b0316146107115760405162461bcd60e51b81526020600482015260136024820152722a3434b99027232a1034b9903737ba1037bbb760691b604482015260640161054d565b6005600084838151811061072757610727612048565b60200260200101516001600160a01b03166001600160a01b03168152602001908152602001600020600083838151811061076357610763612048565b6020026020010151815260200190815260200160002060006101000a8154906001600160a01b030219169055600660008483815181106107a5576107a5612048565b60200260200101516001600160a01b03166001600160a01b0316815260200190815260200160002060008383815181106107e1576107e1612048565b60200260200101518152602001908152602001600020600090556007600084838151811061081157610811612048565b60200260200101516001600160a01b03166001600160a01b03168152602001908152602001600020600083838151811061084d5761084d612048565b6020026020010151815260200190815260200160002060006101000a8154906001600160a01b03021916905582818151811061088b5761088b612048565b60200260200101516001600160a01b03166342842e0e30338585815181106108b5576108b5612048565b60200260200101516040518463ffffffff1660e01b81526004016108db9392919061205e565b600060405180830381600087803b1580156108f557600080fd5b505af1158015610909573d6000803e3d6000fd5b50505050808061091890612098565b915050610645565b50336001600160a01b03167fcd6162b6b3c4e9f12a0fdf582a65be1140c518ad7cbd81a498b3c4f8054a6f0e838360405161095c929190612127565b60405180910390a250506001600255565b60008281526001602052604081206109859083611569565b9392505050565b6000918252602082815260408084206001600160a01b0393909316845291905290205460ff1690565b7f241ecf16d79d0f8dbfb92cbc07fe17840425976cf0667f022fe9877caa831b086109df81611518565b600380546001600160a01b0319166001600160a01b0384169081179091556040519081527ff433bac3f36b8750f6fcd820d9a15960466d2527d1bd091107fee6a5766de9db90602001610610565b60008181526001602052604081206104b190611575565b600280541415610a665760405162461bcd60e51b815260040161054d90612011565b60028055805160009067ffffffffffffffff811115610a8757610a87611c5c565b604051908082528060200260200182016040528015610ab0578160200160208202803683370190505b5090506000825167ffffffffffffffff811115610acf57610acf611c5c565b604051908082528060200260200182016040528015610af8578160200160208202803683370190505b5090506000835167ffffffffffffffff811115610b1757610b17611c5c565b604051908082528060200260200182016040528015610b40578160200160208202803683370190505b50905060005b84518110156110ea5760056000878381518110610b6557610b65612048565b60200260200101516001600160a01b03166001600160a01b031681526020019081526020016000206000868381518110610ba157610ba1612048565b6020026020010151815260200190815260200160002060009054906101000a90046001600160a01b0316848281518110610bdd57610bdd612048565b60200260200101906001600160a01b031690816001600160a01b03168152505060066000878381518110610c1357610c13612048565b60200260200101516001600160a01b03166001600160a01b031681526020019081526020016000206000868381518110610c4f57610c4f612048565b6020026020010151815260200190815260200160002054838281518110610c7857610c78612048565b60200260200101818152505060076000878381518110610c9a57610c9a612048565b60200260200101516001600160a01b03166001600160a01b031681526020019081526020016000206000868381518110610cd657610cd6612048565b6020026020010151815260200190815260200160002060009054906101000a90046001600160a01b0316828281518110610d1257610d12612048565b60200260200101906001600160a01b031690816001600160a01b03168152505060056000878381518110610d4857610d48612048565b60200260200101516001600160a01b03166001600160a01b031681526020019081526020016000206000868381518110610d8457610d84612048565b6020026020010151815260200190815260200160002060006101000a8154906001600160a01b03021916905560066000878381518110610dc657610dc6612048565b60200260200101516001600160a01b03166001600160a01b031681526020019081526020016000206000868381518110610e0257610e02612048565b602002602001015181526020019081526020016000206000905560076000878381518110610e3257610e32612048565b60200260200101516001600160a01b03166001600160a01b031681526020019081526020016000206000868381518110610e6e57610e6e612048565b6020026020010151815260200190815260200160002060006101000a8154906001600160a01b0302191690556000612710600454858481518110610eb457610eb4612048565b6020026020010151610ec69190612155565b610ed09190612174565b9050600081858481518110610ee757610ee7612048565b6020026020010151610ef99190612196565b905060006001600160a01b0316868481518110610f1857610f18612048565b60200260200101516001600160a01b03161415610fc2576003546040516001600160a01b039091169083156108fc029084906000818181858888f19350505050158015610f69573d6000803e3d6000fd5b50838381518110610f7c57610f7c612048565b60200260200101516001600160a01b03166108fc829081150290604051600060405180830381858888f19350505050158015610fbc573d6000803e3d6000fd5b50611041565b61101033600360009054906101000a90046001600160a01b031684898781518110610fef57610fef612048565b60200260200101516001600160a01b031661157f909392919063ffffffff16565b6110413385858151811061102657611026612048565b602002602001015183898781518110610fef57610fef612048565b87838151811061105357611053612048565b60200260200101516001600160a01b03166342842e0e30338a878151811061107d5761107d612048565b60200260200101516040518463ffffffff1660e01b81526004016110a39392919061205e565b600060405180830381600087803b1580156110bd57600080fd5b505af11580156110d1573d6000803e3d6000fd5b50505050505080806110e290612098565b915050610b46565b50336001600160a01b03167f8efd03d19bc88f8ada8c3c7f3c1f06fbfffdeaab6f6d6c061f6333b179da75a3828787878760405161112c9594939291906121ad565b60405180910390a250506001600255505050565b60008281526020819052604090206001015461115b81611518565b6104dc8383611547565b6002805414156111875760405162461bcd60e51b815260040161054d90612011565b6002805560005b83518110156113f7578481815181106111a9576111a9612048565b60200260200101516001600160a01b03166342842e0e33308785815181106111d3576111d3612048565b60200260200101516040518463ffffffff1660e01b81526004016111f99392919061205e565b600060405180830381600087803b15801561121357600080fd5b505af1158015611227573d6000803e3d6000fd5b5050505082818151811061123d5761123d612048565b60200260200101516005600087848151811061125b5761125b612048565b60200260200101516001600160a01b03166001600160a01b03168152602001908152602001600020600086848151811061129757611297612048565b6020026020010151815260200190815260200160002060006101000a8154816001600160a01b0302191690836001600160a01b031602179055508181815181106112e3576112e3612048565b60200260200101516006600087848151811061130157611301612048565b60200260200101516001600160a01b03166001600160a01b03168152602001908152602001600020600086848151811061133d5761133d612048565b6020026020010151815260200190815260200160002081905550336007600087848151811061136e5761136e612048565b60200260200101516001600160a01b03166001600160a01b0316815260200190815260200160002060008684815181106113aa576113aa612048565b6020026020010151815260200190815260200160002060006101000a8154816001600160a01b0302191690836001600160a01b0316021790555080806113ef90612098565b91505061118e565b50336001600160a01b03167f6d4ca48181500311dec148987bf8bdd2084c4d03e6c8c48df33997e9e191ef0e85858585604051611437949392919061221a565b60405180910390a2505060016002555050565b611454828261098c565b610560576000828152602081815260408083206001600160a01b03851684529091529020805460ff1916600117905561148a3390565b6001600160a01b0316816001600160a01b0316837f2f8788117e7eff1d82e926ec794901d17c78024a50270940304540a733656f0d60405160405180910390a45050565b6000610985836001600160a01b0384166115dd565b60006001600160e01b03198216637965db0b60e01b14806104b157506301ffc9a760e01b6001600160e01b03198316146104b1565b611522813361162c565b50565b61152f828261144a565b60008281526001602052604090206104dc90826114ce565b6115518282611690565b60008281526001602052604090206104dc90826116f5565b6000610985838361170a565b60006104b1825490565b6115d7846323b872dd60e01b8585856040516024016115a09392919061205e565b60408051601f198184030181529190526020810180516001600160e01b03166001600160e01b031990931692909217909152611734565b50505050565b6000818152600183016020526040812054611624575081546001818101845560008481526020808220909301849055845484825282860190935260409020919091556104b1565b5060006104b1565b611636828261098c565b6105605761164e816001600160a01b03166014611806565b611659836020611806565b60405160200161166a929190612293565b60408051601f198184030181529082905262461bcd60e51b825261054d91600401612308565b61169a828261098c565b15610560576000828152602081815260408083206001600160a01b0385168085529252808320805460ff1916905551339285917ff6391f5c32d9c69d2a47ea670b442974b53935d1edc7fd64eb21e047a839171b9190a45050565b6000610985836001600160a01b0384166119a2565b600082600001828154811061172157611721612048565b9060005260206000200154905092915050565b6000611789826040518060400160405280602081526020017f5361666545524332303a206c6f772d6c6576656c2063616c6c206661696c6564815250856001600160a01b0316611a959092919063ffffffff16565b8051909150156104dc57808060200190518101906117a7919061233b565b6104dc5760405162461bcd60e51b815260206004820152602a60248201527f5361666545524332303a204552433230206f7065726174696f6e20646964206e6044820152691bdd081cdd58d8d9595960b21b606482015260840161054d565b60606000611815836002612155565b61182090600261235d565b67ffffffffffffffff81111561183857611838611c5c565b6040519080825280601f01601f191660200182016040528015611862576020820181803683370190505b509050600360fc1b8160008151811061187d5761187d612048565b60200101906001600160f81b031916908160001a905350600f60fb1b816001815181106118ac576118ac612048565b60200101906001600160f81b031916908160001a90535060006118d0846002612155565b6118db90600161235d565b90505b6001811115611953576f181899199a1a9b1b9c1cb0b131b232b360811b85600f166010811061190f5761190f612048565b1a60f81b82828151811061192557611925612048565b60200101906001600160f81b031916908160001a90535060049490941c9361194c81612375565b90506118de565b5083156109855760405162461bcd60e51b815260206004820181905260248201527f537472696e67733a20686578206c656e67746820696e73756666696369656e74604482015260640161054d565b60008181526001830160205260408120548015611a8b5760006119c6600183612196565b85549091506000906119da90600190612196565b9050818114611a3f5760008660000182815481106119fa576119fa612048565b9060005260206000200154905080876000018481548110611a1d57611a1d612048565b6000918252602080832090910192909255918252600188019052604090208390555b8554869080611a5057611a5061238c565b6001900381819060005260206000200160009055905585600101600086815260200190815260200160002060009055600193505050506104b1565b60009150506104b1565b6060611aa48484600085611aac565b949350505050565b606082471015611b0d5760405162461bcd60e51b815260206004820152602660248201527f416464726573733a20696e73756666696369656e742062616c616e636520666f6044820152651c8818d85b1b60d21b606482015260840161054d565b6001600160a01b0385163b611b645760405162461bcd60e51b815260206004820152601d60248201527f416464726573733a2063616c6c20746f206e6f6e2d636f6e7472616374000000604482015260640161054d565b600080866001600160a01b03168587604051611b8091906123a2565b60006040518083038185875af1925050503d8060008114611bbd576040519150601f19603f3d011682016040523d82523d6000602084013e611bc2565b606091505b5091509150611bd2828286611bdd565b979650505050505050565b60608315611bec575081610985565b825115611bfc5782518084602001fd5b8160405162461bcd60e51b815260040161054d9190612308565b600060208284031215611c2857600080fd5b81356001600160e01b03198116811461098557600080fd5b80356001600160a01b0381168114611c5757600080fd5b919050565b634e487b7160e01b600052604160045260246000fd5b604051601f8201601f1916810167ffffffffffffffff81118282101715611c9b57611c9b611c5c565b604052919050565b60008060008060808587031215611cb957600080fd5b611cc285611c40565b93506020611cd1818701611c40565b935060408601359250606086013567ffffffffffffffff80821115611cf557600080fd5b818801915088601f830112611d0957600080fd5b813581811115611d1b57611d1b611c5c565b611d2d601f8201601f19168501611c72565b91508082528984828501011115611d4357600080fd5b808484018584013760008482840101525080935050505092959194509250565b600060208284031215611d7557600080fd5b5035919050565b60008060408385031215611d8f57600080fd5b611d9883611c40565b946020939093013593505050565b60008060408385031215611db957600080fd5b82359150611dc960208401611c40565b90509250929050565b600067ffffffffffffffff821115611dec57611dec611c5c565b5060051b60200190565b600082601f830112611e0757600080fd5b81356020611e1c611e1783611dd2565b611c72565b82815260059290921b84018101918181019086841115611e3b57600080fd5b8286015b84811015611e5d57611e5081611c40565b8352918301918301611e3f565b509695505050505050565b600082601f830112611e7957600080fd5b81356020611e89611e1783611dd2565b82815260059290921b84018101918181019086841115611ea857600080fd5b8286015b84811015611e5d5780358352918301918301611eac565b60008060408385031215611ed657600080fd5b823567ffffffffffffffff80821115611eee57600080fd5b611efa86838701611df6565b93506020850135915080821115611f1057600080fd5b50611f1d85828601611e68565b9150509250929050565b60008060408385031215611f3a57600080fd5b50508035926020909101359150565b600060208284031215611f5b57600080fd5b61098582611c40565b60008060008060808587031215611f7a57600080fd5b843567ffffffffffffffff80821115611f9257600080fd5b611f9e88838901611df6565b95506020870135915080821115611fb457600080fd5b611fc088838901611e68565b94506040870135915080821115611fd657600080fd5b611fe288838901611df6565b93506060870135915080821115611ff857600080fd5b5061200587828801611e68565b91505092959194509250565b6020808252601f908201527f5265656e7472616e637947756172643a207265656e7472616e742063616c6c00604082015260600190565b634e487b7160e01b600052603260045260246000fd5b6001600160a01b039384168152919092166020820152604081019190915260600190565b634e487b7160e01b600052601160045260246000fd5b60006000198214156120ac576120ac612082565b5060010190565b600081518084526020808501945080840160005b838110156120ec5781516001600160a01b0316875295820195908201906001016120c7565b509495945050505050565b600081518084526020808501945080840160005b838110156120ec5781518752958201959082019060010161210b565b60408152600061213a60408301856120b3565b828103602084015261214c81856120f7565b95945050505050565b600081600019048311821515161561216f5761216f612082565b500290565b60008261219157634e487b7160e01b600052601260045260246000fd5b500490565b6000828210156121a8576121a8612082565b500390565b60a0815260006121c060a08301886120b3565b82810360208401526121d281886120b3565b905082810360408401526121e681876120f7565b905082810360608401526121fa81866120b3565b9050828103608084015261220e81856120f7565b98975050505050505050565b60808152600061222d60808301876120b3565b828103602084015261223f81876120f7565b9050828103604084015261225381866120b3565b90508281036060840152611bd281856120f7565b60005b8381101561228257818101518382015260200161226a565b838111156115d75750506000910152565b7f416363657373436f6e74726f6c3a206163636f756e74200000000000000000008152600083516122cb816017850160208801612267565b7001034b99036b4b9b9b4b733903937b6329607d1b60179184019182015283516122fc816028840160208801612267565b01602801949350505050565b6020815260008251806020840152612327816040850160208701612267565b601f01601f19169190910160400192915050565b60006020828403121561234d57600080fd5b8151801515811461098557600080fd5b6000821982111561237057612370612082565b500190565b60008161238457612384612082565b506000190190565b634e487b7160e01b600052603160045260246000fd5b600082516123b4818460208701612267565b919091019291505056fea264697066735822122058f6e302e432143c0ea2a685cebaaaba33a487d25c9533664ae347d1aafd2f8364736f6c634300080c0033",
  "linkReferences": {},
  "deployedLinkReferences": {}
}